{
  "contractName": "NFTMarketplace",
  "abi": [
    {
      "inputs": [],
      "stateMutability": "nonpayable",
      "type": "constructor"
    },
    {
      "anonymous": false,
      "inputs": [
        {
          "indexed": true,
          "internalType": "address",
          "name": "owner",
          "type": "address"
        },
        {
          "indexed": true,
          "internalType": "address",
          "name": "approved",
          "type": "address"
        },
        {
          "indexed": true,
          "internalType": "uint256",
          "name": "tokenId",
          "type": "uint256"
        }
      ],
      "name": "Approval",
      "type": "event"
    },
    {
      "anonymous": false,
      "inputs": [
        {
          "indexed": true,
          "internalType": "address",
          "name": "owner",
          "type": "address"
        },
        {
          "indexed": true,
          "internalType": "address",
          "name": "operator",
          "type": "address"
        },
        {
          "indexed": false,
          "internalType": "bool",
          "name": "approved",
          "type": "bool"
        }
      ],
      "name": "ApprovalForAll",
      "type": "event"
    },
    {
      "anonymous": false,
      "inputs": [
        {
          "indexed": false,
          "internalType": "address",
          "name": "user",
          "type": "address"
        },
        {
          "indexed": false,
          "internalType": "uint256",
          "name": "tokenId",
          "type": "uint256"
        },
        {
          "indexed": false,
          "internalType": "uint32",
          "name": "redeemCode",
          "type": "uint32"
        }
      ],
      "name": "NFTRedeemed",
      "type": "event"
    },
    {
      "anonymous": false,
      "inputs": [
        {
          "indexed": true,
          "internalType": "uint256",
          "name": "tokenId",
          "type": "uint256"
        },
        {
          "indexed": false,
          "internalType": "address",
          "name": "owner",
          "type": "address"
        },
        {
          "indexed": false,
          "internalType": "address",
          "name": "seller",
          "type": "address"
        },
        {
          "indexed": false,
          "internalType": "uint256",
          "name": "price",
          "type": "uint256"
        },
        {
          "indexed": false,
          "internalType": "bool",
          "name": "currentlyListed",
          "type": "bool"
        }
      ],
      "name": "TokenListedSuccess",
      "type": "event"
    },
    {
      "anonymous": false,
      "inputs": [
        {
          "indexed": true,
          "internalType": "address",
          "name": "from",
          "type": "address"
        },
        {
          "indexed": true,
          "internalType": "address",
          "name": "to",
          "type": "address"
        },
        {
          "indexed": true,
          "internalType": "uint256",
          "name": "tokenId",
          "type": "uint256"
        }
      ],
      "name": "Transfer",
      "type": "event"
    },
    {
      "inputs": [
        {
          "internalType": "address",
          "name": "to",
          "type": "address"
        },
        {
          "internalType": "uint256",
          "name": "tokenId",
          "type": "uint256"
        }
      ],
      "name": "approve",
      "outputs": [],
      "stateMutability": "nonpayable",
      "type": "function"
    },
    {
      "inputs": [
        {
          "internalType": "address",
          "name": "owner",
          "type": "address"
        }
      ],
      "name": "balanceOf",
      "outputs": [
        {
          "internalType": "uint256",
          "name": "",
          "type": "uint256"
        }
      ],
      "stateMutability": "view",
      "type": "function",
      "constant": true
    },
    {
      "inputs": [
        {
          "internalType": "uint256",
          "name": "tokenId",
          "type": "uint256"
        }
      ],
      "name": "getApproved",
      "outputs": [
        {
          "internalType": "address",
          "name": "",
          "type": "address"
        }
      ],
      "stateMutability": "view",
      "type": "function",
      "constant": true
    },
    {
      "inputs": [
        {
          "internalType": "address",
          "name": "owner",
          "type": "address"
        },
        {
          "internalType": "address",
          "name": "operator",
          "type": "address"
        }
      ],
      "name": "isApprovedForAll",
      "outputs": [
        {
          "internalType": "bool",
          "name": "",
          "type": "bool"
        }
      ],
      "stateMutability": "view",
      "type": "function",
      "constant": true
    },
    {
      "inputs": [],
      "name": "name",
      "outputs": [
        {
          "internalType": "string",
          "name": "",
          "type": "string"
        }
      ],
      "stateMutability": "view",
      "type": "function",
      "constant": true
    },
    {
      "inputs": [
        {
          "internalType": "address",
          "name": "",
          "type": "address"
        },
        {
          "internalType": "uint256",
          "name": "",
          "type": "uint256"
        }
      ],
      "name": "nftOwners",
      "outputs": [
        {
          "internalType": "uint256",
          "name": "tokenId",
          "type": "uint256"
        },
        {
          "internalType": "bool",
          "name": "hasRedeemed",
          "type": "bool"
        }
      ],
      "stateMutability": "view",
      "type": "function",
      "constant": true
    },
    {
      "inputs": [
        {
          "internalType": "uint256",
          "name": "tokenId",
          "type": "uint256"
        }
      ],
      "name": "ownerOf",
      "outputs": [
        {
          "internalType": "address",
          "name": "",
          "type": "address"
        }
      ],
      "stateMutability": "view",
      "type": "function",
      "constant": true
    },
    {
      "inputs": [
        {
          "internalType": "address",
          "name": "from",
          "type": "address"
        },
        {
          "internalType": "address",
          "name": "to",
          "type": "address"
        },
        {
          "internalType": "uint256",
          "name": "tokenId",
          "type": "uint256"
        }
      ],
      "name": "safeTransferFrom",
      "outputs": [],
      "stateMutability": "nonpayable",
      "type": "function"
    },
    {
      "inputs": [
        {
          "internalType": "address",
          "name": "from",
          "type": "address"
        },
        {
          "internalType": "address",
          "name": "to",
          "type": "address"
        },
        {
          "internalType": "uint256",
          "name": "tokenId",
          "type": "uint256"
        },
        {
          "internalType": "bytes",
          "name": "data",
          "type": "bytes"
        }
      ],
      "name": "safeTransferFrom",
      "outputs": [],
      "stateMutability": "nonpayable",
      "type": "function"
    },
    {
      "inputs": [
        {
          "internalType": "address",
          "name": "operator",
          "type": "address"
        },
        {
          "internalType": "bool",
          "name": "approved",
          "type": "bool"
        }
      ],
      "name": "setApprovalForAll",
      "outputs": [],
      "stateMutability": "nonpayable",
      "type": "function"
    },
    {
      "inputs": [
        {
          "internalType": "bytes4",
          "name": "interfaceId",
          "type": "bytes4"
        }
      ],
      "name": "supportsInterface",
      "outputs": [
        {
          "internalType": "bool",
          "name": "",
          "type": "bool"
        }
      ],
      "stateMutability": "view",
      "type": "function",
      "constant": true
    },
    {
      "inputs": [],
      "name": "symbol",
      "outputs": [
        {
          "internalType": "string",
          "name": "",
          "type": "string"
        }
      ],
      "stateMutability": "view",
      "type": "function",
      "constant": true
    },
    {
      "inputs": [
        {
          "internalType": "uint256",
          "name": "tokenId",
          "type": "uint256"
        }
      ],
      "name": "tokenURI",
      "outputs": [
        {
          "internalType": "string",
          "name": "",
          "type": "string"
        }
      ],
      "stateMutability": "view",
      "type": "function",
      "constant": true
    },
    {
      "inputs": [
        {
          "internalType": "address",
          "name": "from",
          "type": "address"
        },
        {
          "internalType": "address",
          "name": "to",
          "type": "address"
        },
        {
          "internalType": "uint256",
          "name": "tokenId",
          "type": "uint256"
        }
      ],
      "name": "transferFrom",
      "outputs": [],
      "stateMutability": "nonpayable",
      "type": "function"
    },
    {
      "inputs": [
        {
          "internalType": "uint256",
          "name": "_listPrice",
          "type": "uint256"
        }
      ],
      "name": "updateListPrice",
      "outputs": [],
      "stateMutability": "payable",
      "type": "function",
      "payable": true
    },
    {
      "inputs": [],
      "name": "getListPrice",
      "outputs": [
        {
          "internalType": "uint256",
          "name": "",
          "type": "uint256"
        }
      ],
      "stateMutability": "view",
      "type": "function",
      "constant": true
    },
    {
      "inputs": [],
      "name": "getLatestIdToListedToken",
      "outputs": [
        {
          "components": [
            {
              "internalType": "uint256",
              "name": "tokenId",
              "type": "uint256"
            },
            {
              "internalType": "address payable",
              "name": "owner",
              "type": "address"
            },
            {
              "internalType": "address payable",
              "name": "seller",
              "type": "address"
            },
            {
              "internalType": "uint256",
              "name": "price",
              "type": "uint256"
            },
            {
              "internalType": "bool",
              "name": "currentlyListed",
              "type": "bool"
            },
            {
              "internalType": "uint256",
              "name": "redeemCode",
              "type": "uint256"
            }
          ],
          "internalType": "struct NFTMarketplace.ListedToken",
          "name": "",
          "type": "tuple"
        }
      ],
      "stateMutability": "view",
      "type": "function",
      "constant": true
    },
    {
      "inputs": [
        {
          "internalType": "uint256",
          "name": "tokenId",
          "type": "uint256"
        }
      ],
      "name": "getListedTokenForId",
      "outputs": [
        {
          "components": [
            {
              "internalType": "uint256",
              "name": "tokenId",
              "type": "uint256"
            },
            {
              "internalType": "address payable",
              "name": "owner",
              "type": "address"
            },
            {
              "internalType": "address payable",
              "name": "seller",
              "type": "address"
            },
            {
              "internalType": "uint256",
              "name": "price",
              "type": "uint256"
            },
            {
              "internalType": "bool",
              "name": "currentlyListed",
              "type": "bool"
            },
            {
              "internalType": "uint256",
              "name": "redeemCode",
              "type": "uint256"
            }
          ],
          "internalType": "struct NFTMarketplace.ListedToken",
          "name": "",
          "type": "tuple"
        }
      ],
      "stateMutability": "view",
      "type": "function",
      "constant": true
    },
    {
      "inputs": [],
      "name": "getCurrentToken",
      "outputs": [
        {
          "internalType": "uint256",
          "name": "",
          "type": "uint256"
        }
      ],
      "stateMutability": "view",
      "type": "function",
      "constant": true
    },
    {
      "inputs": [
        {
          "internalType": "string",
          "name": "tokenURI",
          "type": "string"
        },
        {
          "internalType": "uint256",
          "name": "price",
          "type": "uint256"
        }
      ],
      "name": "createToken",
      "outputs": [
        {
          "internalType": "uint256",
          "name": "",
          "type": "uint256"
        }
      ],
      "stateMutability": "payable",
      "type": "function",
      "payable": true
    },
    {
      "inputs": [],
      "name": "getAllNFTs",
      "outputs": [
        {
          "components": [
            {
              "internalType": "uint256",
              "name": "tokenId",
              "type": "uint256"
            },
            {
              "internalType": "address payable",
              "name": "owner",
              "type": "address"
            },
            {
              "internalType": "address payable",
              "name": "seller",
              "type": "address"
            },
            {
              "internalType": "uint256",
              "name": "price",
              "type": "uint256"
            },
            {
              "internalType": "bool",
              "name": "currentlyListed",
              "type": "bool"
            },
            {
              "internalType": "uint256",
              "name": "redeemCode",
              "type": "uint256"
            }
          ],
          "internalType": "struct NFTMarketplace.ListedToken[]",
          "name": "",
          "type": "tuple[]"
        }
      ],
      "stateMutability": "view",
      "type": "function",
      "constant": true
    },
    {
      "inputs": [],
      "name": "getMyNFTs",
      "outputs": [
        {
          "components": [
            {
              "internalType": "uint256",
              "name": "tokenId",
              "type": "uint256"
            },
            {
              "internalType": "address payable",
              "name": "owner",
              "type": "address"
            },
            {
              "internalType": "address payable",
              "name": "seller",
              "type": "address"
            },
            {
              "internalType": "uint256",
              "name": "price",
              "type": "uint256"
            },
            {
              "internalType": "bool",
              "name": "currentlyListed",
              "type": "bool"
            },
            {
              "internalType": "uint256",
              "name": "redeemCode",
              "type": "uint256"
            }
          ],
          "internalType": "struct NFTMarketplace.ListedToken[]",
          "name": "",
          "type": "tuple[]"
        }
      ],
      "stateMutability": "view",
      "type": "function",
      "constant": true
    },
    {
      "inputs": [
        {
          "internalType": "uint256",
          "name": "tokenId",
          "type": "uint256"
        }
      ],
      "name": "executeSale",
      "outputs": [],
      "stateMutability": "payable",
      "type": "function",
      "payable": true
    },
    {
      "inputs": [
        {
          "internalType": "uint256",
          "name": "tokenId",
          "type": "uint256"
        },
        {
          "internalType": "address[]",
          "name": "walletAddr",
          "type": "address[]"
        }
      ],
      "name": "issueNFT",
      "outputs": [],
      "stateMutability": "payable",
      "type": "function",
      "payable": true
    },
    {
      "inputs": [
        {
          "internalType": "uint256",
          "name": "tokenId",
          "type": "uint256"
        },
        {
          "internalType": "uint32",
          "name": "redeemCode",
          "type": "uint32"
        }
      ],
      "name": "redeemNFT",
      "outputs": [],
      "stateMutability": "nonpayable",
      "type": "function"
    }
  ],
  "bytecode": "0x6080604052662386f26fc10000600a553480156200001c57600080fd5b506040518060400160405280600e81526020017f4e46544d61726b6574706c6163650000000000000000000000000000000000008152506040518060400160405280600481526020017f4e46544d0000000000000000000000000000000000000000000000000000000081525081600090816200009a919062000370565b508060019081620000ac919062000370565b50505033600960006101000a81548173ffffffffffffffffffffffffffffffffffffffff021916908373ffffffffffffffffffffffffffffffffffffffff16021790555062000457565b600081519050919050565b7f4e487b7100000000000000000000000000000000000000000000000000000000600052604160045260246000fd5b7f4e487b7100000000000000000000000000000000000000000000000000000000600052602260045260246000fd5b600060028204905060018216806200017857607f821691505b6020821081036200018e576200018d62000130565b5b50919050565b60008190508160005260206000209050919050565b60006020601f8301049050919050565b600082821b905092915050565b600060088302620001f87fffffffffffffffffffffffffffffffffffffffffffffffffffffffffffffffff82620001b9565b620002048683620001b9565b95508019841693508086168417925050509392505050565b6000819050919050565b6000819050919050565b6000620002516200024b62000245846200021c565b62000226565b6200021c565b9050919050565b6000819050919050565b6200026d8362000230565b620002856200027c8262000258565b848454620001c6565b825550505050565b600090565b6200029c6200028d565b620002a981848462000262565b505050565b5b81811015620002d157620002c560008262000292565b600181019050620002af565b5050565b601f8211156200032057620002ea8162000194565b620002f584620001a9565b8101602085101562000305578190505b6200031d6200031485620001a9565b830182620002ae565b50505b505050565b600082821c905092915050565b6000620003456000198460080262000325565b1980831691505092915050565b600062000360838362000332565b9150826002028217905092915050565b6200037b82620000f6565b67ffffffffffffffff81111562000397576200039662000101565b5b620003a382546200015f565b620003b0828285620002d5565b600060209050601f831160018114620003e85760008415620003d3578287015190505b620003df858262000352565b8655506200044f565b601f198416620003f88662000194565b60005b828110156200042257848901518255600182019150602085019450602081019050620003fb565b868310156200044257848901516200043e601f89168262000332565b8355505b6001600288020188555050505b505050505050565b614d2980620004676000396000f3fe6080604052600436106101665760003560e01c80638e264590116100d1578063c87b56dd1161008a578063dfbfc2bb11610064578063dfbfc2bb1461053f578063e0391b0914610568578063e985e9c514610593578063ef2d1746146105d057610166565b8063c87b56dd146104bb578063d1a88ae5146104f8578063dfbb13621461052357610166565b80638e264590146103c957806395d89b41146104065780639b1225c414610431578063a22cb4651461044d578063b88d4fde14610476578063c322579c1461049f57610166565b8063629cb2e411610123578063629cb2e41461028b5780636352211e146102b657806365b7d484146102f357806368f1945f1461033157806370a082311461035c57806372b3b6201461039957610166565b806301ffc9a71461016b57806306fdde03146101a8578063081812fc146101d3578063095ea7b31461021057806323b872dd1461023957806342842e0e14610262575b600080fd5b34801561017757600080fd5b50610192600480360381019061018d9190613300565b6105fb565b60405161019f9190613348565b60405180910390f35b3480156101b457600080fd5b506101bd6106dd565b6040516101ca91906133f3565b60405180910390f35b3480156101df57600080fd5b506101fa60048036038101906101f5919061344b565b61076f565b60405161020791906134b9565b60405180910390f35b34801561021c57600080fd5b5061023760048036038101906102329190613500565b6107b5565b005b34801561024557600080fd5b50610260600480360381019061025b9190613540565b6108cc565b005b34801561026e57600080fd5b5061028960048036038101906102849190613540565b61092c565b005b34801561029757600080fd5b506102a061094c565b6040516102ad91906136fc565b60405180910390f35b3480156102c257600080fd5b506102dd60048036038101906102d8919061344b565b610f29565b6040516102ea91906134b9565b60405180910390f35b3480156102ff57600080fd5b5061031a60048036038101906103159190613500565b610faf565b60405161032892919061372d565b60405180910390f35b34801561033d57600080fd5b50610346610ffd565b6040516103539190613756565b60405180910390f35b34801561036857600080fd5b50610383600480360381019061037e9190613771565b611007565b6040516103909190613756565b60405180910390f35b6103b360048036038101906103ae91906138d3565b6110be565b6040516103c09190613756565b60405180910390f35b3480156103d557600080fd5b506103f060048036038101906103eb919061344b565b611100565b6040516103fd91906139aa565b60405180910390f35b34801561041257600080fd5b5061041b611212565b60405161042891906133f3565b60405180910390f35b61044b6004803603810190610446919061344b565b6112a4565b005b34801561045957600080fd5b50610474600480360381019061046f91906139f1565b611542565b005b34801561048257600080fd5b5061049d60048036038101906104989190613ad2565b611558565b005b6104b960048036038101906104b4919061344b565b6115ba565b005b3480156104c757600080fd5b506104e260048036038101906104dd919061344b565b611654565b6040516104ef91906133f3565b60405180910390f35b34801561050457600080fd5b5061050d611766565b60405161051a91906139aa565b60405180910390f35b61053d60048036038101906105389190613c1d565b611885565b005b34801561054b57600080fd5b5061056660048036038101906105619190613cb5565b61196f565b005b34801561057457600080fd5b5061057d611c44565b60405161058a91906136fc565b60405180910390f35b34801561059f57600080fd5b506105ba60048036038101906105b59190613cf5565b611e20565b6040516105c79190613348565b60405180910390f35b3480156105dc57600080fd5b506105e5611eb4565b6040516105f29190613756565b60405180910390f35b60007f80ac58cd000000000000000000000000000000000000000000000000000000007bffffffffffffffffffffffffffffffffffffffffffffffffffffffff1916827bffffffffffffffffffffffffffffffffffffffffffffffffffffffff191614806106c657507f5b5e139f000000000000000000000000000000000000000000000000000000007bffffffffffffffffffffffffffffffffffffffffffffffffffffffff1916827bffffffffffffffffffffffffffffffffffffffffffffffffffffffff1916145b806106d657506106d582611ec5565b5b9050919050565b6060600080546106ec90613d64565b80601f016020809104026020016040519081016040528092919081815260200182805461071890613d64565b80156107655780601f1061073a57610100808354040283529160200191610765565b820191906000526020600020905b81548152906001019060200180831161074857829003601f168201915b5050505050905090565b600061077a82611f2f565b6004600083815260200190815260200160002060009054906101000a900473ffffffffffffffffffffffffffffffffffffffff169050919050565b60006107c082610f29565b90508073ffffffffffffffffffffffffffffffffffffffff168373ffffffffffffffffffffffffffffffffffffffff1603610830576040517f08c379a000000000000000000000000000000000000000000000000000000000815260040161082790613e07565b60405180910390fd5b8073ffffffffffffffffffffffffffffffffffffffff1661084f611f7a565b73ffffffffffffffffffffffffffffffffffffffff16148061087e575061087d81610878611f7a565b611e20565b5b6108bd576040517f08c379a00000000000000000000000000000000000000000000000000000000081526004016108b490613e99565b60405180910390fd5b6108c78383611f82565b505050565b6108dd6108d7611f7a565b8261203b565b61091c576040517f08c379a000000000000000000000000000000000000000000000000000000000815260040161091390613f2b565b60405180910390fd5b6109278383836120d0565b505050565b61094783838360405180602001604052806000815250611558565b505050565b6060600061095a60076123c9565b9050600080600080600090505b84811015610b79573373ffffffffffffffffffffffffffffffffffffffff16600b60006001846109979190613f7a565b815260200190815260200160002060010160009054906101000a900473ffffffffffffffffffffffffffffffffffffffff1673ffffffffffffffffffffffffffffffffffffffff161480610a5857503373ffffffffffffffffffffffffffffffffffffffff16600b6000600184610a0e9190613f7a565b815260200190815260200160002060020160009054906101000a900473ffffffffffffffffffffffffffffffffffffffff1673ffffffffffffffffffffffffffffffffffffffff16145b80610b5157507fffffffffffffffffffffffffffffffffffffffffffffffffffffffffffffffff610b4e600c60003373ffffffffffffffffffffffffffffffffffffffff1673ffffffffffffffffffffffffffffffffffffffff168152602001908152602001600020805480602002602001604051908101604052809291908181526020016000905b82821015610b385783829060005260206000209060020201604051806040016040529081600082015481526020016001820160009054906101000a900460ff16151515158152505081526020019060010190610ae1565b50505050600184610b499190613f7a565b6123d7565b14155b15610b6657600184610b639190613f7a565b93505b8080610b7190613fae565b915050610967565b5060008367ffffffffffffffff811115610b9657610b956137a8565b5b604051908082528060200260200182016040528015610bcf57816020015b610bbc613230565b815260200190600190039081610bb45790505b50905060005b85811015610f1d573373ffffffffffffffffffffffffffffffffffffffff16600b6000600184610c059190613f7a565b815260200190815260200160002060010160009054906101000a900473ffffffffffffffffffffffffffffffffffffffff1673ffffffffffffffffffffffffffffffffffffffff161480610cc657503373ffffffffffffffffffffffffffffffffffffffff16600b6000600184610c7c9190613f7a565b815260200190815260200160002060020160009054906101000a900473ffffffffffffffffffffffffffffffffffffffff1673ffffffffffffffffffffffffffffffffffffffff16145b80610dbf57507fffffffffffffffffffffffffffffffffffffffffffffffffffffffffffffffff610dbc600c60003373ffffffffffffffffffffffffffffffffffffffff1673ffffffffffffffffffffffffffffffffffffffff168152602001908152602001600020805480602002602001604051908101604052809291908181526020016000905b82821015610da65783829060005260206000209060020201604051806040016040529081600082015481526020016001820160009054906101000a900460ff16151515158152505081526020019060010190610d4f565b50505050600184610db79190613f7a565b6123d7565b14155b15610f0a57600181610dd19190613f7a565b92506000600b60008581526020019081526020016000209050806040518060c0016040529081600082015481526020016001820160009054906101000a900473ffffffffffffffffffffffffffffffffffffffff1673ffffffffffffffffffffffffffffffffffffffff1673ffffffffffffffffffffffffffffffffffffffff1681526020016002820160009054906101000a900473ffffffffffffffffffffffffffffffffffffffff1673ffffffffffffffffffffffffffffffffffffffff1673ffffffffffffffffffffffffffffffffffffffff168152602001600382015481526020016004820160009054906101000a900460ff16151515158152602001600582015481525050838681518110610eee57610eed613ff6565b5b6020026020010181905250600185610f069190613f7a565b9450505b8080610f1590613fae565b915050610bd5565b50809550505050505090565b600080610f3583612454565b9050600073ffffffffffffffffffffffffffffffffffffffff168173ffffffffffffffffffffffffffffffffffffffff1603610fa6576040517f08c379a0000000000000000000000000000000000000000000000000000000008152600401610f9d90614071565b60405180910390fd5b80915050919050565b600c6020528160005260406000208181548110610fcb57600080fd5b9060005260206000209060020201600091509150508060000154908060010160009054906101000a900460ff16905082565b6000600a54905090565b60008073ffffffffffffffffffffffffffffffffffffffff168273ffffffffffffffffffffffffffffffffffffffff1603611077576040517f08c379a000000000000000000000000000000000000000000000000000000000815260040161106e90614103565b60405180910390fd5b600360008373ffffffffffffffffffffffffffffffffffffffff1673ffffffffffffffffffffffffffffffffffffffff168152602001908152602001600020549050919050565b60006110ca6007612491565b60006110d660076123c9565b90506110e233826124a7565b6110ec81856124c5565b6110f68184612532565b8091505092915050565b611108613230565b600b60008381526020019081526020016000206040518060c0016040529081600082015481526020016001820160009054906101000a900473ffffffffffffffffffffffffffffffffffffffff1673ffffffffffffffffffffffffffffffffffffffff1673ffffffffffffffffffffffffffffffffffffffff1681526020016002820160009054906101000a900473ffffffffffffffffffffffffffffffffffffffff1673ffffffffffffffffffffffffffffffffffffffff1673ffffffffffffffffffffffffffffffffffffffff168152602001600382015481526020016004820160009054906101000a900460ff161515151581526020016005820154815250509050919050565b60606001805461122190613d64565b80601f016020809104026020016040519081016040528092919081815260200182805461124d90613d64565b801561129a5780601f1061126f5761010080835404028352916020019161129a565b820191906000526020600020905b81548152906001019060200180831161127d57829003601f168201915b5050505050905090565b6000600b60008381526020019081526020016000206003015490506000600b600084815260200190815260200160002060020160009054906101000a900473ffffffffffffffffffffffffffffffffffffffff16905081341461133c576040517f08c379a000000000000000000000000000000000000000000000000000000000815260040161133390614195565b60405180910390fd5b6001600b600085815260200190815260200160002060040160006101000a81548160ff02191690831515021790555033600b600085815260200190815260200160002060020160006101000a81548173ffffffffffffffffffffffffffffffffffffffff021916908373ffffffffffffffffffffffffffffffffffffffff1602179055506113ca6008612491565b6113d53033856120d0565b6113df30846107b5565b600960009054906101000a900473ffffffffffffffffffffffffffffffffffffffff1673ffffffffffffffffffffffffffffffffffffffff166108fc600a549081150290604051600060405180830381858888f19350505050158015611449573d6000803e3d6000fd5b508073ffffffffffffffffffffffffffffffffffffffff166108fc349081150290604051600060405180830381858888f19350505050158015611490573d6000803e3d6000fd5b50600c60003373ffffffffffffffffffffffffffffffffffffffff1673ffffffffffffffffffffffffffffffffffffffff16815260200190815260200160002060405180604001604052808581526020016000151581525090806001815401808255809150506001900390600052602060002090600202016000909190919091506000820151816000015560208201518160010160006101000a81548160ff0219169083151502179055505050505050565b61155461154d611f7a565b8383612839565b5050565b611569611563611f7a565b8361203b565b6115a8576040517f08c379a000000000000000000000000000000000000000000000000000000000815260040161159f90613f2b565b60405180910390fd5b6115b4848484846129a5565b50505050565b3373ffffffffffffffffffffffffffffffffffffffff16600960009054906101000a900473ffffffffffffffffffffffffffffffffffffffff1673ffffffffffffffffffffffffffffffffffffffff161461164a576040517f08c379a000000000000000000000000000000000000000000000000000000000815260040161164190614227565b60405180910390fd5b80600a8190555050565b606061165f82611f2f565b600060066000848152602001908152602001600020805461167f90613d64565b80601f01602080910402602001604051908101604052809291908181526020018280546116ab90613d64565b80156116f85780601f106116cd576101008083540402835291602001916116f8565b820191906000526020600020905b8154815290600101906020018083116116db57829003601f168201915b505050505090506000611709612a01565b9050600081510361171e578192505050611761565b60008251111561175357808260405160200161173b929190614283565b60405160208183030381529060405292505050611761565b61175c84612a18565b925050505b919050565b61176e613230565b600061177a60076123c9565b9050600b60008281526020019081526020016000206040518060c0016040529081600082015481526020016001820160009054906101000a900473ffffffffffffffffffffffffffffffffffffffff1673ffffffffffffffffffffffffffffffffffffffff1673ffffffffffffffffffffffffffffffffffffffff1681526020016002820160009054906101000a900473ffffffffffffffffffffffffffffffffffffffff1673ffffffffffffffffffffffffffffffffffffffff1673ffffffffffffffffffffffffffffffffffffffff168152602001600382015481526020016004820160009054906101000a900460ff1615151515815260200160058201548152505091505090565b60005b815181101561196a57600c60008383815181106118a8576118a7613ff6565b5b602002602001015173ffffffffffffffffffffffffffffffffffffffff1673ffffffffffffffffffffffffffffffffffffffff16815260200190815260200160002060405180604001604052808581526020016000151581525090806001815401808255809150506001900390600052602060002090600202016000909190919091506000820151816000015560208201518160010160006101000a81548160ff0219169083151502179055505050808061196290613fae565b915050611888565b505050565b7fffffffffffffffffffffffffffffffffffffffffffffffffffffffffffffffff611a53600c60003373ffffffffffffffffffffffffffffffffffffffff1673ffffffffffffffffffffffffffffffffffffffff168152602001908152602001600020805480602002602001604051908101604052809291908181526020016000905b82821015611a495783829060005260206000209060020201604051806040016040529081600082015481526020016001820160009054906101000a900460ff161515151581525050815260200190600101906119f2565b50505050846123d7565b14158015611a7c57508063ffffffff16600b600084815260200190815260200160002060050154145b611abb576040517f08c379a0000000000000000000000000000000000000000000000000000000008152600401611ab2906142f3565b60405180910390fd5b60005b600c60003373ffffffffffffffffffffffffffffffffffffffff1673ffffffffffffffffffffffffffffffffffffffff16815260200190815260200160002080549050811015611c3f5782600c60003373ffffffffffffffffffffffffffffffffffffffff1673ffffffffffffffffffffffffffffffffffffffff1681526020019081526020016000208281548110611b5a57611b59613ff6565b5b90600052602060002090600202016000015403611c2c576001600c60003373ffffffffffffffffffffffffffffffffffffffff1673ffffffffffffffffffffffffffffffffffffffff1681526020019081526020016000208281548110611bc457611bc3613ff6565b5b906000526020600020906002020160010160006101000a81548160ff0219169083151502179055507f7f27d71d8b6c8eb36a3ffda0b37e8618064e1ab1b1dcd266938c94af8c7801fe338484604051611c1f93929190614322565b60405180910390a1611c3f565b8080611c3790613fae565b915050611abe565b505050565b60606000611c5260076123c9565b905060008167ffffffffffffffff811115611c7057611c6f6137a8565b5b604051908082528060200260200182016040528015611ca957816020015b611c96613230565b815260200190600190039081611c8e5790505b50905060008080600090505b84811015611e1557600181611cca9190613f7a565b91506000600b60008481526020019081526020016000209050806040518060c0016040529081600082015481526020016001820160009054906101000a900473ffffffffffffffffffffffffffffffffffffffff1673ffffffffffffffffffffffffffffffffffffffff1673ffffffffffffffffffffffffffffffffffffffff1681526020016002820160009054906101000a900473ffffffffffffffffffffffffffffffffffffffff1673ffffffffffffffffffffffffffffffffffffffff1673ffffffffffffffffffffffffffffffffffffffff168152602001600382015481526020016004820160009054906101000a900460ff16151515158152602001600582015481525050858581518110611de757611de6613ff6565b5b6020026020010181905250600184611dff9190613f7a565b9350508080611e0d90613fae565b915050611cb5565b508294505050505090565b6000600560008473ffffffffffffffffffffffffffffffffffffffff1673ffffffffffffffffffffffffffffffffffffffff16815260200190815260200160002060008373ffffffffffffffffffffffffffffffffffffffff1673ffffffffffffffffffffffffffffffffffffffff16815260200190815260200160002060009054906101000a900460ff16905092915050565b6000611ec060076123c9565b905090565b60007f01ffc9a7000000000000000000000000000000000000000000000000000000007bffffffffffffffffffffffffffffffffffffffffffffffffffffffff1916827bffffffffffffffffffffffffffffffffffffffffffffffffffffffff1916149050919050565b611f3881612a80565b611f77576040517f08c379a0000000000000000000000000000000000000000000000000000000008152600401611f6e90614071565b60405180910390fd5b50565b600033905090565b816004600083815260200190815260200160002060006101000a81548173ffffffffffffffffffffffffffffffffffffffff021916908373ffffffffffffffffffffffffffffffffffffffff160217905550808273ffffffffffffffffffffffffffffffffffffffff16611ff583610f29565b73ffffffffffffffffffffffffffffffffffffffff167f8c5be1e5ebec7d5bd14f71427d1e84f3dd0314c0f7b2291e5b200ac8c7c3b92560405160405180910390a45050565b60008061204783610f29565b90508073ffffffffffffffffffffffffffffffffffffffff168473ffffffffffffffffffffffffffffffffffffffff16148061208957506120888185611e20565b5b806120c757508373ffffffffffffffffffffffffffffffffffffffff166120af8461076f565b73ffffffffffffffffffffffffffffffffffffffff16145b91505092915050565b8273ffffffffffffffffffffffffffffffffffffffff166120f082610f29565b73ffffffffffffffffffffffffffffffffffffffff1614612146576040517f08c379a000000000000000000000000000000000000000000000000000000000815260040161213d906143cb565b60405180910390fd5b600073ffffffffffffffffffffffffffffffffffffffff168273ffffffffffffffffffffffffffffffffffffffff16036121b5576040517f08c379a00000000000000000000000000000000000000000000000000000000081526004016121ac9061445d565b60405180910390fd5b6121c28383836001612ac1565b8273ffffffffffffffffffffffffffffffffffffffff166121e282610f29565b73ffffffffffffffffffffffffffffffffffffffff1614612238576040517f08c379a000000000000000000000000000000000000000000000000000000000815260040161222f906143cb565b60405180910390fd5b6004600082815260200190815260200160002060006101000a81549073ffffffffffffffffffffffffffffffffffffffff02191690556001600360008573ffffffffffffffffffffffffffffffffffffffff1673ffffffffffffffffffffffffffffffffffffffff168152602001908152602001600020600082825403925050819055506001600360008473ffffffffffffffffffffffffffffffffffffffff1673ffffffffffffffffffffffffffffffffffffffff16815260200190815260200160002060008282540192505081905550816002600083815260200190815260200160002060006101000a81548173ffffffffffffffffffffffffffffffffffffffff021916908373ffffffffffffffffffffffffffffffffffffffff160217905550808273ffffffffffffffffffffffffffffffffffffffff168473ffffffffffffffffffffffffffffffffffffffff167fddf252ad1be2c89b69c2b068fc378daa952ba7f163c4a11628f55a4df523b3ef60405160405180910390a46123c48383836001612be7565b505050565b600081600001549050919050565b600080600090505b835181121561242957828482815181106123fc576123fb613ff6565b5b60200260200101516000015103612416578091505061244e565b808061242190614487565b9150506123df565b507fffffffffffffffffffffffffffffffffffffffffffffffffffffffffffffffff90505b92915050565b60006002600083815260200190815260200160002060009054906101000a900473ffffffffffffffffffffffffffffffffffffffff169050919050565b6001816000016000828254019250508190555050565b6124c1828260405180602001604052806000815250612bed565b5050565b6124ce82612a80565b61250d576040517f08c379a000000000000000000000000000000000000000000000000000000000815260040161250490614541565b60405180910390fd5b8060066000848152602001908152602001600020908161252d919061470d565b505050565b600a543414612576576040517f08c379a000000000000000000000000000000000000000000000000000000000815260040161256d90614851565b60405180910390fd5b600081116125b9576040517f08c379a00000000000000000000000000000000000000000000000000000000081526004016125b0906148e3565b60405180910390fd5b600063773594004244856040516020016125d593929190614924565b6040516020818303038152906040528051906020012060001c6125f89190614990565b90506040518060c001604052808481526020013073ffffffffffffffffffffffffffffffffffffffff1681526020013373ffffffffffffffffffffffffffffffffffffffff1681526020018381526020016001151581526020018263ffffffff16815250600b60008581526020019081526020016000206000820151816000015560208201518160010160006101000a81548173ffffffffffffffffffffffffffffffffffffffff021916908373ffffffffffffffffffffffffffffffffffffffff16021790555060408201518160020160006101000a81548173ffffffffffffffffffffffffffffffffffffffff021916908373ffffffffffffffffffffffffffffffffffffffff1602179055506060820151816003015560808201518160040160006101000a81548160ff02191690831515021790555060a08201518160050155905050600c60003373ffffffffffffffffffffffffffffffffffffffff1673ffffffffffffffffffffffffffffffffffffffff16815260200190815260200160002060405180604001604052808581526020016001151581525090806001815401808255809150506001900390600052602060002090600202016000909190919091506000820151816000015560208201518160010160006101000a81548160ff02191690831515021790555050506127f53330856120d0565b827f9339409317fd01fabff48b703019016f49159bacc801ae872d2ca637d226e4c0303385600160405161282c94939291906149c1565b60405180910390a2505050565b8173ffffffffffffffffffffffffffffffffffffffff168373ffffffffffffffffffffffffffffffffffffffff16036128a7576040517f08c379a000000000000000000000000000000000000000000000000000000000815260040161289e90614a52565b60405180910390fd5b80600560008573ffffffffffffffffffffffffffffffffffffffff1673ffffffffffffffffffffffffffffffffffffffff16815260200190815260200160002060008473ffffffffffffffffffffffffffffffffffffffff1673ffffffffffffffffffffffffffffffffffffffff16815260200190815260200160002060006101000a81548160ff0219169083151502179055508173ffffffffffffffffffffffffffffffffffffffff168373ffffffffffffffffffffffffffffffffffffffff167f17307eab39ab6107e8899845ad3d59bd9653f200f220920489ca2b5937696c31836040516129989190613348565b60405180910390a3505050565b6129b08484846120d0565b6129bc84848484612c48565b6129fb576040517f08c379a00000000000000000000000000000000000000000000000000000000081526004016129f290614ae4565b60405180910390fd5b50505050565b606060405180602001604052806000815250905090565b6060612a2382611f2f565b6000612a2d612a01565b90506000815111612a4d5760405180602001604052806000815250612a78565b80612a5784612dcf565b604051602001612a68929190614283565b6040516020818303038152906040525b915050919050565b60008073ffffffffffffffffffffffffffffffffffffffff16612aa283612454565b73ffffffffffffffffffffffffffffffffffffffff1614159050919050565b6001811115612be157600073ffffffffffffffffffffffffffffffffffffffff168473ffffffffffffffffffffffffffffffffffffffff1614612b555780600360008673ffffffffffffffffffffffffffffffffffffffff1673ffffffffffffffffffffffffffffffffffffffff1681526020019081526020016000206000828254612b4d9190614b04565b925050819055505b600073ffffffffffffffffffffffffffffffffffffffff168373ffffffffffffffffffffffffffffffffffffffff1614612be05780600360008573ffffffffffffffffffffffffffffffffffffffff1673ffffffffffffffffffffffffffffffffffffffff1681526020019081526020016000206000828254612bd89190613f7a565b925050819055505b5b50505050565b50505050565b612bf78383612e9d565b612c046000848484612c48565b612c43576040517f08c379a0000000000000000000000000000000000000000000000000000000008152600401612c3a90614ae4565b60405180910390fd5b505050565b6000612c698473ffffffffffffffffffffffffffffffffffffffff166130ba565b15612dc2578373ffffffffffffffffffffffffffffffffffffffff1663150b7a02612c92611f7a565b8786866040518563ffffffff1660e01b8152600401612cb49493929190614b8d565b6020604051808303816000875af1925050508015612cf057506040513d601f19601f82011682018060405250810190612ced9190614bee565b60015b612d72573d8060008114612d20576040519150601f19603f3d011682016040523d82523d6000602084013e612d25565b606091505b506000815103612d6a576040517f08c379a0000000000000000000000000000000000000000000000000000000008152600401612d6190614ae4565b60405180910390fd5b805181602001fd5b63150b7a0260e01b7bffffffffffffffffffffffffffffffffffffffffffffffffffffffff1916817bffffffffffffffffffffffffffffffffffffffffffffffffffffffff191614915050612dc7565b600190505b949350505050565b606060006001612dde846130dd565b01905060008167ffffffffffffffff811115612dfd57612dfc6137a8565b5b6040519080825280601f01601f191660200182016040528015612e2f5781602001600182028036833780820191505090505b509050600082602001820190505b600115612e92578080600190039150507f3031323334353637383961626364656600000000000000000000000000000000600a86061a8153600a8581612e8657612e85614961565b5b04945060008503612e3d575b819350505050919050565b600073ffffffffffffffffffffffffffffffffffffffff168273ffffffffffffffffffffffffffffffffffffffff1603612f0c576040517f08c379a0000000000000000000000000000000000000000000000000000000008152600401612f0390614c67565b60405180910390fd5b612f1581612a80565b15612f55576040517f08c379a0000000000000000000000000000000000000000000000000000000008152600401612f4c90614cd3565b60405180910390fd5b612f63600083836001612ac1565b612f6c81612a80565b15612fac576040517f08c379a0000000000000000000000000000000000000000000000000000000008152600401612fa390614cd3565b60405180910390fd5b6001600360008473ffffffffffffffffffffffffffffffffffffffff1673ffffffffffffffffffffffffffffffffffffffff16815260200190815260200160002060008282540192505081905550816002600083815260200190815260200160002060006101000a81548173ffffffffffffffffffffffffffffffffffffffff021916908373ffffffffffffffffffffffffffffffffffffffff160217905550808273ffffffffffffffffffffffffffffffffffffffff16600073ffffffffffffffffffffffffffffffffffffffff167fddf252ad1be2c89b69c2b068fc378daa952ba7f163c4a11628f55a4df523b3ef60405160405180910390a46130b6600083836001612be7565b5050565b6000808273ffffffffffffffffffffffffffffffffffffffff163b119050919050565b600080600090507a184f03e93ff9f4daa797ed6e38ed64bf6a1f010000000000000000831061313b577a184f03e93ff9f4daa797ed6e38ed64bf6a1f010000000000000000838161313157613130614961565b5b0492506040810190505b6d04ee2d6d415b85acef81000000008310613178576d04ee2d6d415b85acef8100000000838161316e5761316d614961565b5b0492506020810190505b662386f26fc1000083106131a757662386f26fc10000838161319d5761319c614961565b5b0492506010810190505b6305f5e10083106131d0576305f5e10083816131c6576131c5614961565b5b0492506008810190505b61271083106131f55761271083816131eb576131ea614961565b5b0492506004810190505b60648310613218576064838161320e5761320d614961565b5b0492506002810190505b600a8310613227576001810190505b80915050919050565b6040518060c0016040528060008152602001600073ffffffffffffffffffffffffffffffffffffffff168152602001600073ffffffffffffffffffffffffffffffffffffffff16815260200160008152602001600015158152602001600081525090565b6000604051905090565b600080fd5b600080fd5b60007fffffffff0000000000000000000000000000000000000000000000000000000082169050919050565b6132dd816132a8565b81146132e857600080fd5b50565b6000813590506132fa816132d4565b92915050565b6000602082840312156133165761331561329e565b5b6000613324848285016132eb565b91505092915050565b60008115159050919050565b6133428161332d565b82525050565b600060208201905061335d6000830184613339565b92915050565b600081519050919050565b600082825260208201905092915050565b60005b8381101561339d578082015181840152602081019050613382565b60008484015250505050565b6000601f19601f8301169050919050565b60006133c582613363565b6133cf818561336e565b93506133df81856020860161337f565b6133e8816133a9565b840191505092915050565b6000602082019050818103600083015261340d81846133ba565b905092915050565b6000819050919050565b61342881613415565b811461343357600080fd5b50565b6000813590506134458161341f565b92915050565b6000602082840312156134615761346061329e565b5b600061346f84828501613436565b91505092915050565b600073ffffffffffffffffffffffffffffffffffffffff82169050919050565b60006134a382613478565b9050919050565b6134b381613498565b82525050565b60006020820190506134ce60008301846134aa565b92915050565b6134dd81613498565b81146134e857600080fd5b50565b6000813590506134fa816134d4565b92915050565b600080604083850312156135175761351661329e565b5b6000613525858286016134eb565b925050602061353685828601613436565b9150509250929050565b6000806000606084860312156135595761355861329e565b5b6000613567868287016134eb565b9350506020613578868287016134eb565b925050604061358986828701613436565b9150509250925092565b600081519050919050565b600082825260208201905092915050565b6000819050602082019050919050565b6135c881613415565b82525050565b60006135d982613478565b9050919050565b6135e9816135ce565b82525050565b6135f88161332d565b82525050565b60c08201600082015161361460008501826135bf565b50602082015161362760208501826135e0565b50604082015161363a60408501826135e0565b50606082015161364d60608501826135bf565b50608082015161366060808501826135ef565b5060a082015161367360a08501826135bf565b50505050565b600061368583836135fe565b60c08301905092915050565b6000602082019050919050565b60006136a982613593565b6136b3818561359e565b93506136be836135af565b8060005b838110156136ef5781516136d68882613679565b97506136e183613691565b9250506001810190506136c2565b5085935050505092915050565b60006020820190508181036000830152613716818461369e565b905092915050565b61372781613415565b82525050565b6000604082019050613742600083018561371e565b61374f6020830184613339565b9392505050565b600060208201905061376b600083018461371e565b92915050565b6000602082840312156137875761378661329e565b5b6000613795848285016134eb565b91505092915050565b600080fd5b600080fd5b7f4e487b7100000000000000000000000000000000000000000000000000000000600052604160045260246000fd5b6137e0826133a9565b810181811067ffffffffffffffff821117156137ff576137fe6137a8565b5b80604052505050565b6000613812613294565b905061381e82826137d7565b919050565b600067ffffffffffffffff82111561383e5761383d6137a8565b5b613847826133a9565b9050602081019050919050565b82818337600083830152505050565b600061387661387184613823565b613808565b905082815260208101848484011115613892576138916137a3565b5b61389d848285613854565b509392505050565b600082601f8301126138ba576138b961379e565b5b81356138ca848260208601613863565b91505092915050565b600080604083850312156138ea576138e961329e565b5b600083013567ffffffffffffffff811115613908576139076132a3565b5b613914858286016138a5565b925050602061392585828601613436565b9150509250929050565b60c08201600082015161394560008501826135bf565b50602082015161395860208501826135e0565b50604082015161396b60408501826135e0565b50606082015161397e60608501826135bf565b50608082015161399160808501826135ef565b5060a08201516139a460a08501826135bf565b50505050565b600060c0820190506139bf600083018461392f565b92915050565b6139ce8161332d565b81146139d957600080fd5b50565b6000813590506139eb816139c5565b92915050565b60008060408385031215613a0857613a0761329e565b5b6000613a16858286016134eb565b9250506020613a27858286016139dc565b9150509250929050565b600067ffffffffffffffff821115613a4c57613a4b6137a8565b5b613a55826133a9565b9050602081019050919050565b6000613a75613a7084613a31565b613808565b905082815260208101848484011115613a9157613a906137a3565b5b613a9c848285613854565b509392505050565b600082601f830112613ab957613ab861379e565b5b8135613ac9848260208601613a62565b91505092915050565b60008060008060808587031215613aec57613aeb61329e565b5b6000613afa878288016134eb565b9450506020613b0b878288016134eb565b9350506040613b1c87828801613436565b925050606085013567ffffffffffffffff811115613b3d57613b3c6132a3565b5b613b4987828801613aa4565b91505092959194509250565b600067ffffffffffffffff821115613b7057613b6f6137a8565b5b602082029050602081019050919050565b600080fd5b6000613b99613b9484613b55565b613808565b90508083825260208201905060208402830185811115613bbc57613bbb613b81565b5b835b81811015613be55780613bd188826134eb565b845260208401935050602081019050613bbe565b5050509392505050565b600082601f830112613c0457613c0361379e565b5b8135613c14848260208601613b86565b91505092915050565b60008060408385031215613c3457613c3361329e565b5b6000613c4285828601613436565b925050602083013567ffffffffffffffff811115613c6357613c626132a3565b5b613c6f85828601613bef565b9150509250929050565b600063ffffffff82169050919050565b613c9281613c79565b8114613c9d57600080fd5b50565b600081359050613caf81613c89565b92915050565b60008060408385031215613ccc57613ccb61329e565b5b6000613cda85828601613436565b9250506020613ceb85828601613ca0565b9150509250929050565b60008060408385031215613d0c57613d0b61329e565b5b6000613d1a858286016134eb565b9250506020613d2b858286016134eb565b9150509250929050565b7f4e487b7100000000000000000000000000000000000000000000000000000000600052602260045260246000fd5b60006002820490506001821680613d7c57607f821691505b602082108103613d8f57613d8e613d35565b5b50919050565b7f4552433732313a20617070726f76616c20746f2063757272656e74206f776e6560008201527f7200000000000000000000000000000000000000000000000000000000000000602082015250565b6000613df160218361336e565b9150613dfc82613d95565b604082019050919050565b60006020820190508181036000830152613e2081613de4565b9050919050565b7f4552433732313a20617070726f76652063616c6c6572206973206e6f7420746f60008201527f6b656e206f776e6572206f7220617070726f76656420666f7220616c6c000000602082015250565b6000613e83603d8361336e565b9150613e8e82613e27565b604082019050919050565b60006020820190508181036000830152613eb281613e76565b9050919050565b7f4552433732313a2063616c6c6572206973206e6f7420746f6b656e206f776e6560008201527f72206f7220617070726f76656400000000000000000000000000000000000000602082015250565b6000613f15602d8361336e565b9150613f2082613eb9565b604082019050919050565b60006020820190508181036000830152613f4481613f08565b9050919050565b7f4e487b7100000000000000000000000000000000000000000000000000000000600052601160045260246000fd5b6000613f8582613415565b9150613f9083613415565b9250828201905080821115613fa857613fa7613f4b565b5b92915050565b6000613fb982613415565b91507fffffffffffffffffffffffffffffffffffffffffffffffffffffffffffffffff8203613feb57613fea613f4b565b5b600182019050919050565b7f4e487b7100000000000000000000000000000000000000000000000000000000600052603260045260246000fd5b7f4552433732313a20696e76616c696420746f6b656e2049440000000000000000600082015250565b600061405b60188361336e565b915061406682614025565b602082019050919050565b6000602082019050818103600083015261408a8161404e565b9050919050565b7f4552433732313a2061646472657373207a65726f206973206e6f74206120766160008201527f6c6964206f776e65720000000000000000000000000000000000000000000000602082015250565b60006140ed60298361336e565b91506140f882614091565b604082019050919050565b6000602082019050818103600083015261411c816140e0565b9050919050565b7f506c65617365207375626d6974207468652061736b696e67207072696365206960008201527f6e206f7264657220746f20636f6d706c65746520746865207075726368617365602082015250565b600061417f60408361336e565b915061418a82614123565b604082019050919050565b600060208201905081810360008301526141ae81614172565b9050919050565b7f4f6e6c79206f776e65722063616e20757064617465206c697374696e6720707260008201527f6963650000000000000000000000000000000000000000000000000000000000602082015250565b600061421160238361336e565b915061421c826141b5565b604082019050919050565b6000602082019050818103600083015261424081614204565b9050919050565b600081905092915050565b600061425d82613363565b6142678185614247565b935061427781856020860161337f565b80840191505092915050565b600061428f8285614252565b915061429b8284614252565b91508190509392505050565b7f496e76616c69642052656465656d20436f646520666f72204e46540000000000600082015250565b60006142dd601b8361336e565b91506142e8826142a7565b602082019050919050565b6000602082019050818103600083015261430c816142d0565b9050919050565b61431c81613c79565b82525050565b600060608201905061433760008301866134aa565b614344602083018561371e565b6143516040830184614313565b949350505050565b7f4552433732313a207472616e736665722066726f6d20696e636f72726563742060008201527f6f776e6572000000000000000000000000000000000000000000000000000000602082015250565b60006143b560258361336e565b91506143c082614359565b604082019050919050565b600060208201905081810360008301526143e4816143a8565b9050919050565b7f4552433732313a207472616e7366657220746f20746865207a65726f2061646460008201527f7265737300000000000000000000000000000000000000000000000000000000602082015250565b600061444760248361336e565b9150614452826143eb565b604082019050919050565b600060208201905081810360008301526144768161443a565b9050919050565b6000819050919050565b60006144928261447d565b91507f7fffffffffffffffffffffffffffffffffffffffffffffffffffffffffffffff82036144c4576144c3613f4b565b5b600182019050919050565b7f45524337323155524953746f726167653a2055524920736574206f66206e6f6e60008201527f6578697374656e7420746f6b656e000000000000000000000000000000000000602082015250565b600061452b602e8361336e565b9150614536826144cf565b604082019050919050565b6000602082019050818103600083015261455a8161451e565b9050919050565b60008190508160005260206000209050919050565b60006020601f8301049050919050565b600082821b905092915050565b6000600883026145c37fffffffffffffffffffffffffffffffffffffffffffffffffffffffffffffffff82614586565b6145cd8683614586565b95508019841693508086168417925050509392505050565b6000819050919050565b600061460a61460561460084613415565b6145e5565b613415565b9050919050565b6000819050919050565b614624836145ef565b61463861463082614611565b848454614593565b825550505050565b600090565b61464d614640565b61465881848461461b565b505050565b5b8181101561467c57614671600082614645565b60018101905061465e565b5050565b601f8211156146c15761469281614561565b61469b84614576565b810160208510156146aa578190505b6146be6146b685614576565b83018261465d565b50505b505050565b600082821c905092915050565b60006146e4600019846008026146c6565b1980831691505092915050565b60006146fd83836146d3565b9150826002028217905092915050565b61471682613363565b67ffffffffffffffff81111561472f5761472e6137a8565b5b6147398254613d64565b614744828285614680565b600060209050601f8311600181146147775760008415614765578287015190505b61476f85826146f1565b8655506147d7565b601f19841661478586614561565b60005b828110156147ad57848901518255600182019150602085019450602081019050614788565b868310156147ca57848901516147c6601f8916826146d3565b8355505b6001600288020188555050505b505050505050565b7f486f706566756c6c792073656e64696e672074686520636f727265637420707260008201527f6963650000000000000000000000000000000000000000000000000000000000602082015250565b600061483b60238361336e565b9150614846826147df565b604082019050919050565b6000602082019050818103600083015261486a8161482e565b9050919050565b7f4d616b652073757265207468652070726963652069736e2774206e656761746960008201527f7665000000000000000000000000000000000000000000000000000000000000602082015250565b60006148cd60228361336e565b91506148d882614871565b604082019050919050565b600060208201905081810360008301526148fc816148c0565b9050919050565b6000819050919050565b61491e61491982613415565b614903565b82525050565b6000614930828661490d565b602082019150614940828561490d565b602082019150614950828461490d565b602082019150819050949350505050565b7f4e487b7100000000000000000000000000000000000000000000000000000000600052601260045260246000fd5b600061499b82613415565b91506149a683613415565b9250826149b6576149b5614961565b5b828206905092915050565b60006080820190506149d660008301876134aa565b6149e360208301866134aa565b6149f0604083018561371e565b6149fd6060830184613339565b95945050505050565b7f4552433732313a20617070726f766520746f2063616c6c657200000000000000600082015250565b6000614a3c60198361336e565b9150614a4782614a06565b602082019050919050565b60006020820190508181036000830152614a6b81614a2f565b9050919050565b7f4552433732313a207472616e7366657220746f206e6f6e20455243373231526560008201527f63656976657220696d706c656d656e7465720000000000000000000000000000602082015250565b6000614ace60328361336e565b9150614ad982614a72565b604082019050919050565b60006020820190508181036000830152614afd81614ac1565b9050919050565b6000614b0f82613415565b9150614b1a83613415565b9250828203905081811115614b3257614b31613f4b565b5b92915050565b600081519050919050565b600082825260208201905092915050565b6000614b5f82614b38565b614b698185614b43565b9350614b7981856020860161337f565b614b82816133a9565b840191505092915050565b6000608082019050614ba260008301876134aa565b614baf60208301866134aa565b614bbc604083018561371e565b8181036060830152614bce8184614b54565b905095945050505050565b600081519050614be8816132d4565b92915050565b600060208284031215614c0457614c0361329e565b5b6000614c1284828501614bd9565b91505092915050565b7f4552433732313a206d696e7420746f20746865207a65726f2061646472657373600082015250565b6000614c5160208361336e565b9150614c5c82614c1b565b602082019050919050565b60006020820190508181036000830152614c8081614c44565b9050919050565b7f4552433732313a20746f6b656e20616c7265616479206d696e74656400000000600082015250565b6000614cbd601c8361336e565b9150614cc882614c87565b602082019050919050565b60006020820190508181036000830152614cec81614cb0565b905091905056fea26469706673582212207d87e9f3a659b7c80aea26c2294b4425e65d0cd278c0b3c5fd81be972fe1427264736f6c63430008110033",
  "immutableReferences": {},
  "source": "//SPDX-License-Identifier: Unlicense\r\npragma solidity ^0.8.0;\r\n\r\nimport \"@openzeppelin/contracts/utils/Counters.sol\";\r\nimport \"@openzeppelin/contracts/token/ERC721/extensions/ERC721URIStorage.sol\";\r\nimport \"@openzeppelin/contracts/token/ERC721/ERC721.sol\";\r\n\r\ncontract NFTMarketplace is ERC721URIStorage {\r\n\r\n    using Counters for Counters.Counter;\r\n    //_tokenIds variable has the most recent minted tokenId\r\n    Counters.Counter private _tokenIds;\r\n    //Keeps track of the number of items sold on the marketplace\r\n    Counters.Counter private _itemsSold;\r\n    //owner is the contract address that created the smart contract\r\n    address payable owner;\r\n    //The fee charged by the marketplace to be allowed to list an NFT\r\n    uint256 listPrice = 0.01 ether;\r\n\r\n    //The structure to store info about a listed token\r\n    struct ListedToken {\r\n        uint256 tokenId;\r\n        address payable owner;\r\n        address payable seller;\r\n        uint256 price;\r\n        bool currentlyListed;\r\n        uint redeemCode;\r\n    }\r\n\r\n    //The structure to store info about a nft owner for a nft\r\n    struct NFTRedeemState {\r\n        uint256 tokenId;\r\n        bool hasRedeemed;\r\n    }\r\n\r\n    //the event emitted when a token is successfully listed\r\n    event TokenListedSuccess (\r\n        uint256 indexed tokenId,\r\n        address owner,\r\n        address seller,\r\n        uint256 price,\r\n        bool currentlyListed\r\n    );\r\n\r\n    event NFTRedeemed(address user, uint256 tokenId, uint32 redeemCode);\r\n\r\n    //tokenId to NFT\r\n    mapping(uint256 => ListedToken) private idToListedToken;\r\n\r\n    //NFTOwners to NFT Redeem State\r\n    mapping (address => NFTRedeemState[]) public nftOwners;\r\n\r\n    constructor() ERC721(\"NFTMarketplace\", \"NFTM\") {\r\n        owner = payable(msg.sender);\r\n    }\r\n\r\n    function updateListPrice(uint256 _listPrice) public payable {\r\n        require(owner == msg.sender, \"Only owner can update listing price\");\r\n        listPrice = _listPrice;\r\n    }\r\n\r\n    function getListPrice() public view returns (uint256) {\r\n        return listPrice;\r\n    }\r\n\r\n    function getLatestIdToListedToken() public view returns (ListedToken memory) {\r\n        uint256 currentTokenId = _tokenIds.current();\r\n        return idToListedToken[currentTokenId];\r\n    }\r\n\r\n    function getListedTokenForId(uint256 tokenId) public view returns (ListedToken memory) {\r\n        return idToListedToken[tokenId];\r\n    }\r\n\r\n    function getCurrentToken() public view returns (uint256) {\r\n        return _tokenIds.current();\r\n    }\r\n\r\n    //The first time a token is created, it is listed here\r\n    function createToken(string memory tokenURI, uint256 price) public payable returns (uint) {\r\n        //Increment the tokenId counter, which is keeping track of the number of minted NFTs\r\n        _tokenIds.increment();\r\n        uint256 newTokenId = _tokenIds.current();\r\n\r\n        //Mint the NFT with tokenId newTokenId to the address who called createToken\r\n        _safeMint(msg.sender, newTokenId);\r\n\r\n        //Map the tokenId to the tokenURI (which is an IPFS URL with the NFT metadata)\r\n        _setTokenURI(newTokenId, tokenURI);\r\n\r\n        //Helper function to update Global variables and emit an event\r\n        createListedToken(newTokenId, price);\r\n\r\n        return newTokenId;\r\n    }\r\n\r\n    function createListedToken(uint256 tokenId, uint256 price) private {\r\n        //Make sure the sender sent enough ETH to pay for listing\r\n        require(msg.value == listPrice, \"Hopefully sending the correct price\");\r\n        //Just sanity check\r\n        require(price > 0, \"Make sure the price isn't negative\");\r\n\r\n        /* Generate Random String Coupon code */\r\n        uint32 code = uint32(uint256(keccak256(abi.encodePacked(block.timestamp, block.difficulty, tokenId)))%2000000000);\r\n\r\n        //Update the mapping of tokenId's to Token details, useful for retrieval functions\r\n        idToListedToken[tokenId] = ListedToken(\r\n            tokenId,\r\n            payable(address(this)),\r\n            payable(msg.sender),\r\n            price,\r\n            true,\r\n            code\r\n        );\r\n\r\n        nftOwners[msg.sender].push(NFTRedeemState({\r\n                tokenId: tokenId, \r\n                hasRedeemed: true\r\n                }));\r\n\r\n        _transfer(msg.sender, address(this), tokenId);\r\n        //Emit the event for successful transfer. The frontend parses this message and updates the end user\r\n        emit TokenListedSuccess(\r\n            tokenId,\r\n            address(this),\r\n            msg.sender,\r\n            price,\r\n            true\r\n        );\r\n    }\r\n    \r\n    //This will return all the NFTs currently listed to be sold on the marketplace\r\n    function getAllNFTs() public view returns (ListedToken[] memory) {\r\n        uint nftCount = _tokenIds.current();\r\n        ListedToken[] memory tokens = new ListedToken[](nftCount);\r\n        uint currentIndex = 0;\r\n        uint currentId;\r\n        //at the moment currentlyListed is true for all, if it becomes false in the future we will \r\n        //filter out currentlyListed == false over here\r\n        for(uint i = 0;i < nftCount; i++)\r\n        {\r\n            currentId = i + 1;\r\n            ListedToken storage currentItem = idToListedToken[currentId];\r\n            tokens[currentIndex] = currentItem;\r\n            currentIndex += 1;\r\n        }\r\n        //the array 'tokens' has the list of all NFTs in the marketplace\r\n        return tokens;\r\n    }\r\n    \r\n    //Returns all the NFTs that the current user is owner or seller in\r\n    function getMyNFTs() public view returns (ListedToken[] memory) {\r\n        uint totalItemCount = _tokenIds.current();\r\n        uint itemCount = 0;\r\n        uint currentIndex = 0;\r\n        uint currentId;\r\n        //Important to get a count of all the NFTs that belong to the user before we can make an array for them\r\n        for(uint i=0; i < totalItemCount; i++)\r\n        {\r\n            if(idToListedToken[i+1].owner == msg.sender || idToListedToken[i+1].seller == msg.sender || indexOf(nftOwners[msg.sender], i+1) != -1){\r\n                itemCount += 1;\r\n            }\r\n        }\r\n\r\n        //Once you have the count of relevant NFTs, create an array then store all the NFTs in it\r\n        ListedToken[] memory items = new ListedToken[](itemCount);\r\n        for(uint i=0; i < totalItemCount; i++) {\r\n            if(idToListedToken[i+1].owner == msg.sender || idToListedToken[i+1].seller == msg.sender || indexOf(nftOwners[msg.sender], i+1) != -1) {\r\n                currentId = i+1;\r\n                ListedToken storage currentItem = idToListedToken[currentId];\r\n                items[currentIndex] = currentItem;\r\n                currentIndex += 1;\r\n            }\r\n        }\r\n        return items;\r\n    }\r\n\r\n    function executeSale(uint256 tokenId) public payable {\r\n        uint price = idToListedToken[tokenId].price;\r\n        address seller = idToListedToken[tokenId].seller;\r\n        require(msg.value == price, \"Please submit the asking price in order to complete the purchase\");\r\n\r\n        //update the details of the token\r\n        idToListedToken[tokenId].currentlyListed = true;\r\n        idToListedToken[tokenId].seller = payable(msg.sender);\r\n        _itemsSold.increment();\r\n\r\n        //Actually transfer the token to the new owner\r\n        _transfer(address(this), msg.sender, tokenId);\r\n        //approve the marketplace to sell NFTs on your behalf\r\n        approve(address(this), tokenId);\r\n\r\n        //Transfer the listing fee to the marketplace creator\r\n        payable(owner).transfer(listPrice);\r\n        //Transfer the proceeds from the sale to the seller of the NFT\r\n        payable(seller).transfer(msg.value);\r\n\r\n        nftOwners[msg.sender].push(NFTRedeemState({\r\n                tokenId: tokenId, \r\n                hasRedeemed: false\r\n                }));\r\n    }\r\n\r\n    function issueNFT(uint256 tokenId, address[] memory walletAddr) public payable{\r\n        for (uint i = 0; i < walletAddr.length; i++){\r\n            nftOwners[walletAddr[i]].push(NFTRedeemState({\r\n                    tokenId: tokenId, \r\n                    hasRedeemed: false\r\n                    }));\r\n        }\r\n    }\r\n\r\n    function redeemNFT(uint256 tokenId, uint32 redeemCode) public {\r\n        require(indexOf(nftOwners[msg.sender], tokenId) != -1 && idToListedToken[tokenId].redeemCode == redeemCode, \"Invalid Redeem Code for NFT\");\r\n        for (uint i = 0; i < nftOwners[msg.sender].length; i++){\r\n            if (nftOwners[msg.sender][i].tokenId == tokenId){\r\n                nftOwners[msg.sender][i].hasRedeemed = true;\r\n                emit NFTRedeemed(msg.sender, tokenId, redeemCode);\r\n                break;\r\n            }\r\n        }\r\n    }\r\n\r\n    function indexOf(NFTRedeemState[] memory nftOwned, uint256 tokenId) private pure returns (int) {\r\n        for (int i = 0; i < int(nftOwned.length); i++) {\r\n            if (nftOwned[uint(i)].tokenId == tokenId) {\r\n                return i;\r\n            }\r\n        }\r\n        return -1;\r\n    }\r\n}",
  "sourcePath": "D:\\Documents\\Events\\2023\\2. KL Mini Hack\\polygon-zkevm-truffle\\contracts\\NFTMarketplace.sol",
  "compiler": {
    "name": "solc",
    "version": "0.8.17+commit.8df45f5f.Emscripten.clang"
  },
  "schemaVersion": "3.4.11",
  "updatedAt": "2023-02-13T13:34:38.404Z",
  "networkType": "ethereum",
  "devdoc": {
    "kind": "dev",
    "methods": {
      "approve(address,uint256)": {
        "details": "See {IERC721-approve}."
      },
      "balanceOf(address)": {
        "details": "See {IERC721-balanceOf}."
      },
      "getApproved(uint256)": {
        "details": "See {IERC721-getApproved}."
      },
      "isApprovedForAll(address,address)": {
        "details": "See {IERC721-isApprovedForAll}."
      },
      "name()": {
        "details": "See {IERC721Metadata-name}."
      },
      "ownerOf(uint256)": {
        "details": "See {IERC721-ownerOf}."
      },
      "safeTransferFrom(address,address,uint256)": {
        "details": "See {IERC721-safeTransferFrom}."
      },
      "safeTransferFrom(address,address,uint256,bytes)": {
        "details": "See {IERC721-safeTransferFrom}."
      },
      "setApprovalForAll(address,bool)": {
        "details": "See {IERC721-setApprovalForAll}."
      },
      "supportsInterface(bytes4)": {
        "details": "See {IERC165-supportsInterface}."
      },
      "symbol()": {
        "details": "See {IERC721Metadata-symbol}."
      },
      "tokenURI(uint256)": {
        "details": "See {IERC721Metadata-tokenURI}."
      },
      "transferFrom(address,address,uint256)": {
        "details": "See {IERC721-transferFrom}."
      }
    },
    "version": 1
  },
  "userdoc": {
    "kind": "user",
    "methods": {},
    "version": 1
  }
}