{
  "contractName": "NFTMarketplace",
  "abi": [
    {
      "inputs": [
        {
          "internalType": "contract RWDToken",
          "name": "_rwdToken",
          "type": "address"
        }
      ],
      "stateMutability": "nonpayable",
      "type": "constructor"
    },
    {
      "anonymous": false,
      "inputs": [
        {
          "indexed": true,
          "internalType": "address",
          "name": "owner",
          "type": "address"
        },
        {
          "indexed": true,
          "internalType": "address",
          "name": "approved",
          "type": "address"
        },
        {
          "indexed": true,
          "internalType": "uint256",
          "name": "tokenId",
          "type": "uint256"
        }
      ],
      "name": "Approval",
      "type": "event"
    },
    {
      "anonymous": false,
      "inputs": [
        {
          "indexed": true,
          "internalType": "address",
          "name": "owner",
          "type": "address"
        },
        {
          "indexed": true,
          "internalType": "address",
          "name": "operator",
          "type": "address"
        },
        {
          "indexed": false,
          "internalType": "bool",
          "name": "approved",
          "type": "bool"
        }
      ],
      "name": "ApprovalForAll",
      "type": "event"
    },
    {
      "anonymous": false,
      "inputs": [
        {
          "indexed": false,
          "internalType": "address",
          "name": "user",
          "type": "address"
        },
        {
          "indexed": false,
          "internalType": "uint256",
          "name": "tokenId",
          "type": "uint256"
        },
        {
          "indexed": false,
          "internalType": "uint32",
          "name": "redeemCode",
          "type": "uint32"
        },
        {
          "indexed": false,
          "internalType": "uint256",
          "name": "mintValue",
          "type": "uint256"
        },
        {
          "indexed": false,
          "internalType": "uint256",
          "name": "len",
          "type": "uint256"
        },
        {
          "indexed": false,
          "internalType": "bool",
          "name": "firstRedeemed",
          "type": "bool"
        }
      ],
      "name": "NFTRedeemed",
      "type": "event"
    },
    {
      "anonymous": false,
      "inputs": [
        {
          "indexed": true,
          "internalType": "uint256",
          "name": "tokenId",
          "type": "uint256"
        },
        {
          "indexed": false,
          "internalType": "address",
          "name": "owner",
          "type": "address"
        },
        {
          "indexed": false,
          "internalType": "address",
          "name": "seller",
          "type": "address"
        },
        {
          "indexed": false,
          "internalType": "uint256",
          "name": "price",
          "type": "uint256"
        },
        {
          "indexed": false,
          "internalType": "bool",
          "name": "currentlyListed",
          "type": "bool"
        },
        {
          "indexed": false,
          "internalType": "uint256[]",
          "name": "mintVal",
          "type": "uint256[]"
        },
        {
          "indexed": false,
          "internalType": "uint32[]",
          "name": "redeemCodes",
          "type": "uint32[]"
        }
      ],
      "name": "TokenListedSuccess",
      "type": "event"
    },
    {
      "anonymous": false,
      "inputs": [
        {
          "indexed": true,
          "internalType": "address",
          "name": "from",
          "type": "address"
        },
        {
          "indexed": true,
          "internalType": "address",
          "name": "to",
          "type": "address"
        },
        {
          "indexed": true,
          "internalType": "uint256",
          "name": "tokenId",
          "type": "uint256"
        }
      ],
      "name": "Transfer",
      "type": "event"
    },
    {
      "inputs": [
        {
          "internalType": "address",
          "name": "to",
          "type": "address"
        },
        {
          "internalType": "uint256",
          "name": "tokenId",
          "type": "uint256"
        }
      ],
      "name": "approve",
      "outputs": [],
      "stateMutability": "nonpayable",
      "type": "function"
    },
    {
      "inputs": [
        {
          "internalType": "address",
          "name": "owner",
          "type": "address"
        }
      ],
      "name": "balanceOf",
      "outputs": [
        {
          "internalType": "uint256",
          "name": "",
          "type": "uint256"
        }
      ],
      "stateMutability": "view",
      "type": "function",
      "constant": true
    },
    {
      "inputs": [
        {
          "internalType": "uint256",
          "name": "tokenId",
          "type": "uint256"
        }
      ],
      "name": "getApproved",
      "outputs": [
        {
          "internalType": "address",
          "name": "",
          "type": "address"
        }
      ],
      "stateMutability": "view",
      "type": "function",
      "constant": true
    },
    {
      "inputs": [
        {
          "internalType": "address",
          "name": "owner",
          "type": "address"
        },
        {
          "internalType": "address",
          "name": "operator",
          "type": "address"
        }
      ],
      "name": "isApprovedForAll",
      "outputs": [
        {
          "internalType": "bool",
          "name": "",
          "type": "bool"
        }
      ],
      "stateMutability": "view",
      "type": "function",
      "constant": true
    },
    {
      "inputs": [],
      "name": "name",
      "outputs": [
        {
          "internalType": "string",
          "name": "",
          "type": "string"
        }
      ],
      "stateMutability": "view",
      "type": "function",
      "constant": true
    },
    {
      "inputs": [
        {
          "internalType": "address",
          "name": "",
          "type": "address"
        },
        {
          "internalType": "uint256",
          "name": "",
          "type": "uint256"
        },
        {
          "internalType": "uint256",
          "name": "",
          "type": "uint256"
        }
      ],
      "name": "nftOwners",
      "outputs": [
        {
          "internalType": "uint256",
          "name": "issueDate",
          "type": "uint256"
        },
        {
          "internalType": "uint256",
          "name": "mintValue",
          "type": "uint256"
        },
        {
          "internalType": "bool",
          "name": "hasRedeemed",
          "type": "bool"
        }
      ],
      "stateMutability": "view",
      "type": "function",
      "constant": true
    },
    {
      "inputs": [
        {
          "internalType": "uint256",
          "name": "tokenId",
          "type": "uint256"
        }
      ],
      "name": "ownerOf",
      "outputs": [
        {
          "internalType": "address",
          "name": "",
          "type": "address"
        }
      ],
      "stateMutability": "view",
      "type": "function",
      "constant": true
    },
    {
      "inputs": [],
      "name": "rwdToken",
      "outputs": [
        {
          "internalType": "contract RWDToken",
          "name": "",
          "type": "address"
        }
      ],
      "stateMutability": "view",
      "type": "function",
      "constant": true
    },
    {
      "inputs": [
        {
          "internalType": "address",
          "name": "from",
          "type": "address"
        },
        {
          "internalType": "address",
          "name": "to",
          "type": "address"
        },
        {
          "internalType": "uint256",
          "name": "tokenId",
          "type": "uint256"
        }
      ],
      "name": "safeTransferFrom",
      "outputs": [],
      "stateMutability": "nonpayable",
      "type": "function"
    },
    {
      "inputs": [
        {
          "internalType": "address",
          "name": "from",
          "type": "address"
        },
        {
          "internalType": "address",
          "name": "to",
          "type": "address"
        },
        {
          "internalType": "uint256",
          "name": "tokenId",
          "type": "uint256"
        },
        {
          "internalType": "bytes",
          "name": "data",
          "type": "bytes"
        }
      ],
      "name": "safeTransferFrom",
      "outputs": [],
      "stateMutability": "nonpayable",
      "type": "function"
    },
    {
      "inputs": [
        {
          "internalType": "address",
          "name": "operator",
          "type": "address"
        },
        {
          "internalType": "bool",
          "name": "approved",
          "type": "bool"
        }
      ],
      "name": "setApprovalForAll",
      "outputs": [],
      "stateMutability": "nonpayable",
      "type": "function"
    },
    {
      "inputs": [
        {
          "internalType": "bytes4",
          "name": "interfaceId",
          "type": "bytes4"
        }
      ],
      "name": "supportsInterface",
      "outputs": [
        {
          "internalType": "bool",
          "name": "",
          "type": "bool"
        }
      ],
      "stateMutability": "view",
      "type": "function",
      "constant": true
    },
    {
      "inputs": [],
      "name": "symbol",
      "outputs": [
        {
          "internalType": "string",
          "name": "",
          "type": "string"
        }
      ],
      "stateMutability": "view",
      "type": "function",
      "constant": true
    },
    {
      "inputs": [
        {
          "internalType": "uint256",
          "name": "tokenId",
          "type": "uint256"
        }
      ],
      "name": "tokenURI",
      "outputs": [
        {
          "internalType": "string",
          "name": "",
          "type": "string"
        }
      ],
      "stateMutability": "view",
      "type": "function",
      "constant": true
    },
    {
      "inputs": [
        {
          "internalType": "address",
          "name": "from",
          "type": "address"
        },
        {
          "internalType": "address",
          "name": "to",
          "type": "address"
        },
        {
          "internalType": "uint256",
          "name": "tokenId",
          "type": "uint256"
        }
      ],
      "name": "transferFrom",
      "outputs": [],
      "stateMutability": "nonpayable",
      "type": "function"
    },
    {
      "inputs": [
        {
          "internalType": "uint256",
          "name": "_listPrice",
          "type": "uint256"
        }
      ],
      "name": "updateListPrice",
      "outputs": [],
      "stateMutability": "payable",
      "type": "function",
      "payable": true
    },
    {
      "inputs": [],
      "name": "getListPrice",
      "outputs": [
        {
          "internalType": "uint256",
          "name": "",
          "type": "uint256"
        }
      ],
      "stateMutability": "view",
      "type": "function",
      "constant": true
    },
    {
      "inputs": [],
      "name": "getLatestIdToListedToken",
      "outputs": [
        {
          "components": [
            {
              "internalType": "uint256",
              "name": "tokenId",
              "type": "uint256"
            },
            {
              "internalType": "address payable",
              "name": "owner",
              "type": "address"
            },
            {
              "internalType": "address payable",
              "name": "seller",
              "type": "address"
            },
            {
              "internalType": "uint256",
              "name": "price",
              "type": "uint256"
            },
            {
              "internalType": "bool",
              "name": "currentlyListed",
              "type": "bool"
            }
          ],
          "internalType": "struct NFTMarketplace.ListedToken",
          "name": "",
          "type": "tuple"
        }
      ],
      "stateMutability": "view",
      "type": "function",
      "constant": true
    },
    {
      "inputs": [
        {
          "internalType": "uint256",
          "name": "tokenId",
          "type": "uint256"
        }
      ],
      "name": "getListedTokenForId",
      "outputs": [
        {
          "components": [
            {
              "internalType": "uint256",
              "name": "tokenId",
              "type": "uint256"
            },
            {
              "internalType": "address payable",
              "name": "owner",
              "type": "address"
            },
            {
              "internalType": "address payable",
              "name": "seller",
              "type": "address"
            },
            {
              "internalType": "uint256",
              "name": "price",
              "type": "uint256"
            },
            {
              "internalType": "bool",
              "name": "currentlyListed",
              "type": "bool"
            }
          ],
          "internalType": "struct NFTMarketplace.ListedToken",
          "name": "",
          "type": "tuple"
        }
      ],
      "stateMutability": "view",
      "type": "function",
      "constant": true
    },
    {
      "inputs": [],
      "name": "getCurrentToken",
      "outputs": [
        {
          "internalType": "uint256",
          "name": "",
          "type": "uint256"
        }
      ],
      "stateMutability": "view",
      "type": "function",
      "constant": true
    },
    {
      "inputs": [
        {
          "internalType": "string",
          "name": "tokenURI",
          "type": "string"
        },
        {
          "internalType": "uint256",
          "name": "price",
          "type": "uint256"
        },
        {
          "internalType": "uint256[]",
          "name": "mintVal",
          "type": "uint256[]"
        }
      ],
      "name": "createToken",
      "outputs": [
        {
          "internalType": "uint256",
          "name": "",
          "type": "uint256"
        }
      ],
      "stateMutability": "payable",
      "type": "function",
      "payable": true
    },
    {
      "inputs": [],
      "name": "getAllNFTs",
      "outputs": [
        {
          "components": [
            {
              "internalType": "uint256",
              "name": "tokenId",
              "type": "uint256"
            },
            {
              "internalType": "address payable",
              "name": "owner",
              "type": "address"
            },
            {
              "internalType": "address payable",
              "name": "seller",
              "type": "address"
            },
            {
              "internalType": "uint256",
              "name": "price",
              "type": "uint256"
            },
            {
              "internalType": "bool",
              "name": "currentlyListed",
              "type": "bool"
            }
          ],
          "internalType": "struct NFTMarketplace.ListedToken[]",
          "name": "",
          "type": "tuple[]"
        }
      ],
      "stateMutability": "view",
      "type": "function",
      "constant": true
    },
    {
      "inputs": [],
      "name": "getMyNFTs",
      "outputs": [
        {
          "components": [
            {
              "internalType": "uint256",
              "name": "tokenId",
              "type": "uint256"
            },
            {
              "internalType": "address payable",
              "name": "owner",
              "type": "address"
            },
            {
              "internalType": "address payable",
              "name": "seller",
              "type": "address"
            },
            {
              "internalType": "uint256",
              "name": "price",
              "type": "uint256"
            },
            {
              "internalType": "bool",
              "name": "currentlyListed",
              "type": "bool"
            }
          ],
          "internalType": "struct NFTMarketplace.ListedToken[]",
          "name": "",
          "type": "tuple[]"
        }
      ],
      "stateMutability": "view",
      "type": "function",
      "constant": true
    },
    {
      "inputs": [
        {
          "internalType": "uint256",
          "name": "tokenId",
          "type": "uint256"
        }
      ],
      "name": "executeSale",
      "outputs": [],
      "stateMutability": "payable",
      "type": "function",
      "payable": true
    },
    {
      "inputs": [
        {
          "internalType": "uint256",
          "name": "tokenId",
          "type": "uint256"
        },
        {
          "internalType": "address[]",
          "name": "walletAddr",
          "type": "address[]"
        }
      ],
      "name": "issueNFT",
      "outputs": [],
      "stateMutability": "payable",
      "type": "function",
      "payable": true
    },
    {
      "inputs": [
        {
          "internalType": "uint256",
          "name": "tokenId",
          "type": "uint256"
        },
        {
          "internalType": "uint32",
          "name": "redeemCode",
          "type": "uint32"
        }
      ],
      "name": "redeemNFT",
      "outputs": [],
      "stateMutability": "nonpayable",
      "type": "function"
    },
    {
      "inputs": [
        {
          "internalType": "uint256",
          "name": "tokenId",
          "type": "uint256"
        }
      ],
      "name": "checkWalletNFT",
      "outputs": [
        {
          "internalType": "bool",
          "name": "",
          "type": "bool"
        }
      ],
      "stateMutability": "view",
      "type": "function",
      "constant": true
    }
  ],
  "bytecode": "0x6080604052662386f26fc10000600a553480156200001c57600080fd5b5060405162005750380380620057508339818101604052810190620000429190620001db565b6040518060400160405280600e81526020017f4e46544d61726b6574706c6163650000000000000000000000000000000000008152506040518060400160405280600481526020017f4e46544d000000000000000000000000000000000000000000000000000000008152508160009081620000bf919062000487565b508060019081620000d1919062000487565b50505033600960006101000a81548173ffffffffffffffffffffffffffffffffffffffff021916908373ffffffffffffffffffffffffffffffffffffffff16021790555080600b60006101000a81548173ffffffffffffffffffffffffffffffffffffffff021916908373ffffffffffffffffffffffffffffffffffffffff160217905550506200056e565b600080fd5b600073ffffffffffffffffffffffffffffffffffffffff82169050919050565b60006200018f8262000162565b9050919050565b6000620001a38262000182565b9050919050565b620001b58162000196565b8114620001c157600080fd5b50565b600081519050620001d581620001aa565b92915050565b600060208284031215620001f457620001f36200015d565b5b60006200020484828501620001c4565b91505092915050565b600081519050919050565b7f4e487b7100000000000000000000000000000000000000000000000000000000600052604160045260246000fd5b7f4e487b7100000000000000000000000000000000000000000000000000000000600052602260045260246000fd5b600060028204905060018216806200028f57607f821691505b602082108103620002a557620002a462000247565b5b50919050565b60008190508160005260206000209050919050565b60006020601f8301049050919050565b600082821b905092915050565b6000600883026200030f7fffffffffffffffffffffffffffffffffffffffffffffffffffffffffffffffff82620002d0565b6200031b8683620002d0565b95508019841693508086168417925050509392505050565b6000819050919050565b6000819050919050565b600062000368620003626200035c8462000333565b6200033d565b62000333565b9050919050565b6000819050919050565b620003848362000347565b6200039c62000393826200036f565b848454620002dd565b825550505050565b600090565b620003b3620003a4565b620003c081848462000379565b505050565b5b81811015620003e857620003dc600082620003a9565b600181019050620003c6565b5050565b601f82111562000437576200040181620002ab565b6200040c84620002c0565b810160208510156200041c578190505b620004346200042b85620002c0565b830182620003c5565b50505b505050565b600082821c905092915050565b60006200045c600019846008026200043c565b1980831691505092915050565b600062000477838362000449565b9150826002028217905092915050565b62000492826200020d565b67ffffffffffffffff811115620004ae57620004ad62000218565b5b620004ba825462000276565b620004c7828285620003ec565b600060209050601f831160018114620004ff5760008415620004ea578287015190505b620004f6858262000469565b86555062000566565b601f1984166200050f86620002ab565b60005b82811015620005395784890151825560018201915060208501945060208101905062000512565b8683101562000559578489015162000555601f89168262000449565b8355505b6001600288020188555050505b505050505050565b6151d2806200057e6000396000f3fe60806040526004361061019c5760003560e01c806395d89b41116100ec578063db4bd57c1161008a578063e0391b0911610064578063e0391b09146105c8578063e985e9c5146105f3578063ef2d174614610630578063fed9736c1461065b5761019c565b8063db4bd57c14610546578063dfbb136214610583578063dfbfc2bb1461059f5761019c565b8063b88d4fde116100c6578063b88d4fde14610499578063c322579c146104c2578063c87b56dd146104de578063d1a88ae51461051b5761019c565b806395d89b41146104295780639b1225c414610454578063a22cb465146104705761019c565b806342842e0e1161015957806368f1945f1161013357806368f1945f1461035957806370a08231146103845780637d787a24146103c15780638e264590146103ec5761019c565b806342842e0e146102c8578063629cb2e4146102f15780636352211e1461031c5761019c565b806301ffc9a7146101a157806306fdde03146101de578063081812fc14610209578063095ea7b3146102465780631bc523871461026f57806323b872dd1461029f575b600080fd5b3480156101ad57600080fd5b506101c860048036038101906101c391906134b2565b61069a565b6040516101d591906134fa565b60405180910390f35b3480156101ea57600080fd5b506101f361077c565b60405161020091906135a5565b60405180910390f35b34801561021557600080fd5b50610230600480360381019061022b91906135fd565b61080e565b60405161023d919061366b565b60405180910390f35b34801561025257600080fd5b5061026d600480360381019061026891906136b2565b610854565b005b610289600480360381019061028491906138ef565b61096b565b6040516102969190613989565b60405180910390f35b3480156102ab57600080fd5b506102c660048036038101906102c191906139a4565b6109af565b005b3480156102d457600080fd5b506102ef60048036038101906102ea91906139a4565b610a0f565b005b3480156102fd57600080fd5b50610306610a2f565b6040516103139190613b4d565b60405180910390f35b34801561032857600080fd5b50610343600480360381019061033e91906135fd565b610e82565b604051610350919061366b565b60405180910390f35b34801561036557600080fd5b5061036e610f08565b60405161037b9190613989565b60405180910390f35b34801561039057600080fd5b506103ab60048036038101906103a69190613b6f565b610f12565b6040516103b89190613989565b60405180910390f35b3480156103cd57600080fd5b506103d6610fc9565b6040516103e39190613bfb565b60405180910390f35b3480156103f857600080fd5b50610413600480360381019061040e91906135fd565b610fef565b6040516104209190613c7e565b60405180910390f35b34801561043557600080fd5b5061043e6110f7565b60405161044b91906135a5565b60405180910390f35b61046e600480360381019061046991906135fd565b611189565b005b34801561047c57600080fd5b5061049760048036038101906104929190613cc5565b61125a565b005b3480156104a557600080fd5b506104c060048036038101906104bb9190613da6565b611270565b005b6104dc60048036038101906104d791906135fd565b6112d2565b005b3480156104ea57600080fd5b50610505600480360381019061050091906135fd565b61136c565b60405161051291906135a5565b60405180910390f35b34801561052757600080fd5b5061053061147e565b60405161053d9190613c7e565b60405180910390f35b34801561055257600080fd5b5061056d600480360381019061056891906135fd565b611593565b60405161057a91906134fa565b60405180910390f35b61059d60048036038101906105989190613eec565b6115f2565b005b3480156105ab57600080fd5b506105c660048036038101906105c19190613f84565b6116fe565b005b3480156105d457600080fd5b506105dd611a23565b6040516105ea9190613b4d565b60405180910390f35b3480156105ff57600080fd5b5061061a60048036038101906106159190613fc4565b611bf5565b60405161062791906134fa565b60405180910390f35b34801561063c57600080fd5b50610645611c89565b6040516106529190613989565b60405180910390f35b34801561066757600080fd5b50610682600480360381019061067d9190614004565b611c9a565b60405161069193929190614057565b60405180910390f35b60007f80ac58cd000000000000000000000000000000000000000000000000000000007bffffffffffffffffffffffffffffffffffffffffffffffffffffffff1916827bffffffffffffffffffffffffffffffffffffffffffffffffffffffff1916148061076557507f5b5e139f000000000000000000000000000000000000000000000000000000007bffffffffffffffffffffffffffffffffffffffffffffffffffffffff1916827bffffffffffffffffffffffffffffffffffffffffffffffffffffffff1916145b80610775575061077482611cfb565b5b9050919050565b60606000805461078b906140bd565b80601f01602080910402602001604051908101604052809291908181526020018280546107b7906140bd565b80156108045780601f106107d957610100808354040283529160200191610804565b820191906000526020600020905b8154815290600101906020018083116107e757829003601f168201915b5050505050905090565b600061081982611d65565b6004600083815260200190815260200160002060009054906101000a900473ffffffffffffffffffffffffffffffffffffffff169050919050565b600061085f82610e82565b90508073ffffffffffffffffffffffffffffffffffffffff168373ffffffffffffffffffffffffffffffffffffffff16036108cf576040517f08c379a00000000000000000000000000000000000000000000000000000000081526004016108c690614160565b60405180910390fd5b8073ffffffffffffffffffffffffffffffffffffffff166108ee611db0565b73ffffffffffffffffffffffffffffffffffffffff16148061091d575061091c81610917611db0565b611bf5565b5b61095c576040517f08c379a0000000000000000000000000000000000000000000000000000000008152600401610953906141f2565b60405180910390fd5b6109668383611db8565b505050565b60006109776007611e71565b60006109836007611e87565b905061098f3382611e95565b6109998186611eb3565b6109a4818585611f20565b809150509392505050565b6109c06109ba611db0565b82612356565b6109ff576040517f08c379a00000000000000000000000000000000000000000000000000000000081526004016109f690614284565b60405180910390fd5b610a0a8383836123eb565b505050565b610a2a83838360405180602001604052806000815250611270565b505050565b60606000610a3d6007611e87565b9050600080600080600090505b84811015610b9c573373ffffffffffffffffffffffffffffffffffffffff16600c6000600184610a7a91906142d3565b815260200190815260200160002060010160009054906101000a900473ffffffffffffffffffffffffffffffffffffffff1673ffffffffffffffffffffffffffffffffffffffff161480610b3b57503373ffffffffffffffffffffffffffffffffffffffff16600c6000600184610af191906142d3565b815260200190815260200160002060020160009054906101000a900473ffffffffffffffffffffffffffffffffffffffff1673ffffffffffffffffffffffffffffffffffffffff16145b80610b745750610b56600182610b5191906142d3565b611593565b8015610b735750610b72600182610b6d91906142d3565b6126e4565b5b5b15610b8957600184610b8691906142d3565b93505b8080610b9490614307565b915050610a4a565b5060008367ffffffffffffffff811115610bb957610bb86136fc565b5b604051908082528060200260200182016040528015610bf257816020015b610bdf6133c6565b815260200190600190039081610bd75790505b50905060005b85811015610e76573373ffffffffffffffffffffffffffffffffffffffff16600c6000600184610c2891906142d3565b815260200190815260200160002060010160009054906101000a900473ffffffffffffffffffffffffffffffffffffffff1673ffffffffffffffffffffffffffffffffffffffff161480610ce957503373ffffffffffffffffffffffffffffffffffffffff16600c6000600184610c9f91906142d3565b815260200190815260200160002060020160009054906101000a900473ffffffffffffffffffffffffffffffffffffffff1673ffffffffffffffffffffffffffffffffffffffff16145b80610d225750610d04600182610cff91906142d3565b611593565b8015610d215750610d20600182610d1b91906142d3565b6126e4565b5b5b15610e6357600181610d3491906142d3565b92506000600c60008581526020019081526020016000209050806040518060a0016040529081600082015481526020016001820160009054906101000a900473ffffffffffffffffffffffffffffffffffffffff1673ffffffffffffffffffffffffffffffffffffffff1673ffffffffffffffffffffffffffffffffffffffff1681526020016002820160009054906101000a900473ffffffffffffffffffffffffffffffffffffffff1673ffffffffffffffffffffffffffffffffffffffff1673ffffffffffffffffffffffffffffffffffffffff168152602001600382015481526020016004820160009054906101000a900460ff161515151581525050838681518110610e4757610e4661434f565b5b6020026020010181905250600185610e5f91906142d3565b9450505b8080610e6e90614307565b915050610bf8565b50809550505050505090565b600080610e8e83612818565b9050600073ffffffffffffffffffffffffffffffffffffffff168173ffffffffffffffffffffffffffffffffffffffff1603610eff576040517f08c379a0000000000000000000000000000000000000000000000000000000008152600401610ef6906143ca565b60405180910390fd5b80915050919050565b6000600a54905090565b60008073ffffffffffffffffffffffffffffffffffffffff168273ffffffffffffffffffffffffffffffffffffffff1603610f82576040517f08c379a0000000000000000000000000000000000000000000000000000000008152600401610f799061445c565b60405180910390fd5b600360008373ffffffffffffffffffffffffffffffffffffffff1673ffffffffffffffffffffffffffffffffffffffff168152602001908152602001600020549050919050565b600b60009054906101000a900473ffffffffffffffffffffffffffffffffffffffff1681565b610ff76133c6565b600c60008381526020019081526020016000206040518060a0016040529081600082015481526020016001820160009054906101000a900473ffffffffffffffffffffffffffffffffffffffff1673ffffffffffffffffffffffffffffffffffffffff1673ffffffffffffffffffffffffffffffffffffffff1681526020016002820160009054906101000a900473ffffffffffffffffffffffffffffffffffffffff1673ffffffffffffffffffffffffffffffffffffffff1673ffffffffffffffffffffffffffffffffffffffff168152602001600382015481526020016004820160009054906101000a900460ff1615151515815250509050919050565b606060018054611106906140bd565b80601f0160208091040260200160405190810160405280929190818152602001828054611132906140bd565b801561117f5780601f106111545761010080835404028352916020019161117f565b820191906000526020600020905b81548152906001019060200180831161116257829003601f168201915b5050505050905090565b600e60003373ffffffffffffffffffffffffffffffffffffffff1673ffffffffffffffffffffffffffffffffffffffff1681526020019081526020016000206000828152602001908152602001600020604051806060016040528042815260200160008152602001600015158152509080600181540180825580915050600190039060005260206000209060030201600090919091909150600082015181600001556020820151816001015560408201518160020160006101000a81548160ff021916908315150217905550505050565b61126c611265611db0565b8383612855565b5050565b61128161127b611db0565b83612356565b6112c0576040517f08c379a00000000000000000000000000000000000000000000000000000000081526004016112b790614284565b60405180910390fd5b6112cc848484846129c1565b50505050565b3373ffffffffffffffffffffffffffffffffffffffff16600960009054906101000a900473ffffffffffffffffffffffffffffffffffffffff1673ffffffffffffffffffffffffffffffffffffffff1614611362576040517f08c379a0000000000000000000000000000000000000000000000000000000008152600401611359906144ee565b60405180910390fd5b80600a8190555050565b606061137782611d65565b6000600660008481526020019081526020016000208054611397906140bd565b80601f01602080910402602001604051908101604052809291908181526020018280546113c3906140bd565b80156114105780601f106113e557610100808354040283529160200191611410565b820191906000526020600020905b8154815290600101906020018083116113f357829003601f168201915b505050505090506000611421612a1d565b90506000815103611436578192505050611479565b60008251111561146b57808260405160200161145392919061454a565b60405160208183030381529060405292505050611479565b61147484612a34565b925050505b919050565b6114866133c6565b60006114926007611e87565b9050600c60008281526020019081526020016000206040518060a0016040529081600082015481526020016001820160009054906101000a900473ffffffffffffffffffffffffffffffffffffffff1673ffffffffffffffffffffffffffffffffffffffff1673ffffffffffffffffffffffffffffffffffffffff1681526020016002820160009054906101000a900473ffffffffffffffffffffffffffffffffffffffff1673ffffffffffffffffffffffffffffffffffffffff1673ffffffffffffffffffffffffffffffffffffffff168152602001600382015481526020016004820160009054906101000a900460ff16151515158152505091505090565b600080600e60003373ffffffffffffffffffffffffffffffffffffffff1673ffffffffffffffffffffffffffffffffffffffff168152602001908152602001600020600084815260200190815260200160002080549050119050919050565b60005b81518110156116f957600e60008383815181106116155761161461434f565b5b602002602001015173ffffffffffffffffffffffffffffffffffffffff1673ffffffffffffffffffffffffffffffffffffffff1681526020019081526020016000206000848152602001908152602001600020604051806060016040528042815260200160008152602001600015158152509080600181540180825580915050600190039060005260206000209060030201600090919091909150600082015181600001556020820151816001015560408201518160020160006101000a81548160ff021916908315150217905550505080806116f190614307565b9150506115f5565b505050565b81600d60008363ffffffff1663ffffffff1681526020019081526020016000206000015414611762576040517f08c379a0000000000000000000000000000000000000000000000000000000008152600401611759906145ba565b60405180910390fd5b61176b82611593565b8015611781575061177b82612a9c565b60400151155b6117c0576040517f08c379a00000000000000000000000000000000000000000000000000000000081526004016117b790614626565b60405180910390fd5b6000600d60008363ffffffff1663ffffffff1681526020019081526020016000206001015490506000600e60003373ffffffffffffffffffffffffffffffffffffffff1673ffffffffffffffffffffffffffffffffffffffff168152602001908152602001600020600085815260200190815260200160002080549050905081600e60003373ffffffffffffffffffffffffffffffffffffffff1673ffffffffffffffffffffffffffffffffffffffff168152602001908152602001600020600086815260200190815260200160002060018361189d9190614646565b815481106118ae576118ad61434f565b5b9060005260206000209060030201600101819055506001600e60003373ffffffffffffffffffffffffffffffffffffffff1673ffffffffffffffffffffffffffffffffffffffff16815260200190815260200160002060008681526020019081526020016000206001836119229190614646565b815481106119335761193261434f565b5b906000526020600020906003020160020160006101000a81548160ff0219169083151502179055507f8fe4378f63b587f33d4585a6cd16f982ab4cc658e5bbeb42e7040b356eed4a3a3385858585600e60003373ffffffffffffffffffffffffffffffffffffffff1673ffffffffffffffffffffffffffffffffffffffff16815260200190815260200160002060008b81526020019081526020016000206000815481106119e4576119e361434f565b5b906000526020600020906003020160020160009054906101000a900460ff16604051611a1596959493929190614689565b60405180910390a150505050565b60606000611a316007611e87565b905060008167ffffffffffffffff811115611a4f57611a4e6136fc565b5b604051908082528060200260200182016040528015611a8857816020015b611a756133c6565b815260200190600190039081611a6d5790505b50905060008080600090505b84811015611bea57600181611aa991906142d3565b91506000600c60008481526020019081526020016000209050806040518060a0016040529081600082015481526020016001820160009054906101000a900473ffffffffffffffffffffffffffffffffffffffff1673ffffffffffffffffffffffffffffffffffffffff1673ffffffffffffffffffffffffffffffffffffffff1681526020016002820160009054906101000a900473ffffffffffffffffffffffffffffffffffffffff1673ffffffffffffffffffffffffffffffffffffffff1673ffffffffffffffffffffffffffffffffffffffff168152602001600382015481526020016004820160009054906101000a900460ff161515151581525050858581518110611bbc57611bbb61434f565b5b6020026020010181905250600184611bd491906142d3565b9350508080611be290614307565b915050611a94565b508294505050505090565b6000600560008473ffffffffffffffffffffffffffffffffffffffff1673ffffffffffffffffffffffffffffffffffffffff16815260200190815260200160002060008373ffffffffffffffffffffffffffffffffffffffff1673ffffffffffffffffffffffffffffffffffffffff16815260200190815260200160002060009054906101000a900460ff16905092915050565b6000611c956007611e87565b905090565b600e6020528260005260406000206020528160005260406000208181548110611cc257600080fd5b906000526020600020906003020160009250925050508060000154908060010154908060020160009054906101000a900460ff16905083565b60007f01ffc9a7000000000000000000000000000000000000000000000000000000007bffffffffffffffffffffffffffffffffffffffffffffffffffffffff1916827bffffffffffffffffffffffffffffffffffffffffffffffffffffffff1916149050919050565b611d6e81612bb4565b611dad576040517f08c379a0000000000000000000000000000000000000000000000000000000008152600401611da4906143ca565b60405180910390fd5b50565b600033905090565b816004600083815260200190815260200160002060006101000a81548173ffffffffffffffffffffffffffffffffffffffff021916908373ffffffffffffffffffffffffffffffffffffffff160217905550808273ffffffffffffffffffffffffffffffffffffffff16611e2b83610e82565b73ffffffffffffffffffffffffffffffffffffffff167f8c5be1e5ebec7d5bd14f71427d1e84f3dd0314c0f7b2291e5b200ac8c7c3b92560405160405180910390a45050565b6001816000016000828254019250508190555050565b600081600001549050919050565b611eaf828260405180602001604052806000815250612bf5565b5050565b611ebc82612bb4565b611efb576040517f08c379a0000000000000000000000000000000000000000000000000000000008152600401611ef29061475c565b60405180910390fd5b80600660008481526020019081526020016000209081611f1b919061491e565b505050565b600a543414611f64576040517f08c379a0000000000000000000000000000000000000000000000000000000008152600401611f5b90614a62565b60405180910390fd5b60008211611fa7576040517f08c379a0000000000000000000000000000000000000000000000000000000008152600401611f9e90614af4565b60405180910390fd5b6000815167ffffffffffffffff811115611fc457611fc36136fc565b5b604051908082528060200260200182016040528015611ff25781602001602082028036833780820191505090505b50905060005b8251811015612105576000637735940042448887868151811061201e5761201d61434f565b5b60200260200101516040516020016120399493929190614b35565b6040516020818303038152906040528051906020012060001c61205c9190614bb2565b905060405180604001604052808781526020018584815181106120825761208161434f565b5b6020026020010151815250600d60008363ffffffff1663ffffffff1681526020019081526020016000206000820151816000015560208201518160010155905050808383815181106120d7576120d661434f565b5b602002602001019063ffffffff16908163ffffffff16815250505080806120fd90614307565b915050611ff8565b506040518060a001604052808581526020013073ffffffffffffffffffffffffffffffffffffffff1681526020013373ffffffffffffffffffffffffffffffffffffffff16815260200184815260200160011515815250600c60008681526020019081526020016000206000820151816000015560208201518160010160006101000a81548173ffffffffffffffffffffffffffffffffffffffff021916908373ffffffffffffffffffffffffffffffffffffffff16021790555060408201518160020160006101000a81548173ffffffffffffffffffffffffffffffffffffffff021916908373ffffffffffffffffffffffffffffffffffffffff1602179055506060820151816003015560808201518160040160006101000a81548160ff021916908315150217905550905050600e60003373ffffffffffffffffffffffffffffffffffffffff1673ffffffffffffffffffffffffffffffffffffffff1681526020019081526020016000206000858152602001908152602001600020604051806060016040528042815260200160008152602001600115158152509080600181540180825580915050600190039060005260206000209060030201600090919091909150600082015181600001556020820151816001015560408201518160020160006101000a81548160ff021916908315150217905550505061230d3330866123eb565b837fc4040261f8be5adfe9bf4bf60126c3e2f41dc032e6f5ee766c828fc34cd8c0563033866001878760405161234896959493929190614d50565b60405180910390a250505050565b60008061236283610e82565b90508073ffffffffffffffffffffffffffffffffffffffff168473ffffffffffffffffffffffffffffffffffffffff1614806123a457506123a38185611bf5565b5b806123e257508373ffffffffffffffffffffffffffffffffffffffff166123ca8461080e565b73ffffffffffffffffffffffffffffffffffffffff16145b91505092915050565b8273ffffffffffffffffffffffffffffffffffffffff1661240b82610e82565b73ffffffffffffffffffffffffffffffffffffffff1614612461576040517f08c379a000000000000000000000000000000000000000000000000000000000815260040161245890614e31565b60405180910390fd5b600073ffffffffffffffffffffffffffffffffffffffff168273ffffffffffffffffffffffffffffffffffffffff16036124d0576040517f08c379a00000000000000000000000000000000000000000000000000000000081526004016124c790614ec3565b60405180910390fd5b6124dd8383836001612c50565b8273ffffffffffffffffffffffffffffffffffffffff166124fd82610e82565b73ffffffffffffffffffffffffffffffffffffffff1614612553576040517f08c379a000000000000000000000000000000000000000000000000000000000815260040161254a90614e31565b60405180910390fd5b6004600082815260200190815260200160002060006101000a81549073ffffffffffffffffffffffffffffffffffffffff02191690556001600360008573ffffffffffffffffffffffffffffffffffffffff1673ffffffffffffffffffffffffffffffffffffffff168152602001908152602001600020600082825403925050819055506001600360008473ffffffffffffffffffffffffffffffffffffffff1673ffffffffffffffffffffffffffffffffffffffff16815260200190815260200160002060008282540192505081905550816002600083815260200190815260200160002060006101000a81548173ffffffffffffffffffffffffffffffffffffffff021916908373ffffffffffffffffffffffffffffffffffffffff160217905550808273ffffffffffffffffffffffffffffffffffffffff168473ffffffffffffffffffffffffffffffffffffffff167fddf252ad1be2c89b69c2b068fc378daa952ba7f163c4a11628f55a4df523b3ef60405160405180910390a46126df8383836001612d76565b505050565b600080600e60003373ffffffffffffffffffffffffffffffffffffffff1673ffffffffffffffffffffffffffffffffffffffff1681526020019081526020016000206000848152602001908152602001600020805480602002602001604051908101604052809291908181526020016000905b828210156127b8578382906000526020600020906003020160405180606001604052908160008201548152602001600182015481526020016002820160009054906101000a900460ff16151515158152505081526020019060010190612757565b50505050905060005b815181101561280c578181815181106127dd576127dc61434f565b5b602002602001015160400151156127f957600192505050612813565b808061280490614307565b9150506127c1565b5060009150505b919050565b60006002600083815260200190815260200160002060009054906101000a900473ffffffffffffffffffffffffffffffffffffffff169050919050565b8173ffffffffffffffffffffffffffffffffffffffff168373ffffffffffffffffffffffffffffffffffffffff16036128c3576040517f08c379a00000000000000000000000000000000000000000000000000000000081526004016128ba90614f2f565b60405180910390fd5b80600560008573ffffffffffffffffffffffffffffffffffffffff1673ffffffffffffffffffffffffffffffffffffffff16815260200190815260200160002060008473ffffffffffffffffffffffffffffffffffffffff1673ffffffffffffffffffffffffffffffffffffffff16815260200190815260200160002060006101000a81548160ff0219169083151502179055508173ffffffffffffffffffffffffffffffffffffffff168373ffffffffffffffffffffffffffffffffffffffff167f17307eab39ab6107e8899845ad3d59bd9653f200f220920489ca2b5937696c31836040516129b491906134fa565b60405180910390a3505050565b6129cc8484846123eb565b6129d884848484612d7c565b612a17576040517f08c379a0000000000000000000000000000000000000000000000000000000008152600401612a0e90614fc1565b60405180910390fd5b50505050565b606060405180602001604052806000815250905090565b6060612a3f82611d65565b6000612a49612a1d565b90506000815111612a695760405180602001604052806000815250612a94565b80612a7384612f03565b604051602001612a8492919061454a565b6040516020818303038152906040525b915050919050565b612aa4613423565b6000600e60003373ffffffffffffffffffffffffffffffffffffffff1673ffffffffffffffffffffffffffffffffffffffff1681526020019081526020016000206000848152602001908152602001600020805480602002602001604051908101604052809291908181526020016000905b82821015612b77578382906000526020600020906003020160405180606001604052908160008201548152602001600182015481526020016002820160009054906101000a900460ff16151515158152505081526020019060010190612b16565b505050509050806001612b8985612fd1565b612b939190614646565b81518110612ba457612ba361434f565b5b6020026020010151915050919050565b60008073ffffffffffffffffffffffffffffffffffffffff16612bd683612818565b73ffffffffffffffffffffffffffffffffffffffff1614159050919050565b612bff8383613033565b612c0c6000848484612d7c565b612c4b576040517f08c379a0000000000000000000000000000000000000000000000000000000008152600401612c4290614fc1565b60405180910390fd5b505050565b6001811115612d7057600073ffffffffffffffffffffffffffffffffffffffff168473ffffffffffffffffffffffffffffffffffffffff1614612ce45780600360008673ffffffffffffffffffffffffffffffffffffffff1673ffffffffffffffffffffffffffffffffffffffff1681526020019081526020016000206000828254612cdc9190614646565b925050819055505b600073ffffffffffffffffffffffffffffffffffffffff168373ffffffffffffffffffffffffffffffffffffffff1614612d6f5780600360008573ffffffffffffffffffffffffffffffffffffffff1673ffffffffffffffffffffffffffffffffffffffff1681526020019081526020016000206000828254612d6791906142d3565b925050819055505b5b50505050565b50505050565b6000612d9d8473ffffffffffffffffffffffffffffffffffffffff16613250565b15612ef6578373ffffffffffffffffffffffffffffffffffffffff1663150b7a02612dc6611db0565b8786866040518563ffffffff1660e01b8152600401612de89493929190615036565b6020604051808303816000875af1925050508015612e2457506040513d601f19601f82011682018060405250810190612e219190615097565b60015b612ea6573d8060008114612e54576040519150601f19603f3d011682016040523d82523d6000602084013e612e59565b606091505b506000815103612e9e576040517f08c379a0000000000000000000000000000000000000000000000000000000008152600401612e9590614fc1565b60405180910390fd5b805181602001fd5b63150b7a0260e01b7bffffffffffffffffffffffffffffffffffffffffffffffffffffffff1916817bffffffffffffffffffffffffffffffffffffffffffffffffffffffff191614915050612efb565b600190505b949350505050565b606060006001612f1284613273565b01905060008167ffffffffffffffff811115612f3157612f306136fc565b5b6040519080825280601f01601f191660200182016040528015612f635781602001600182028036833780820191505090505b509050600082602001820190505b600115612fc6578080600190039150507f3031323334353637383961626364656600000000000000000000000000000000600a86061a8153600a8581612fba57612fb9614b83565b5b04945060008503612f71575b819350505050919050565b600080600e60003373ffffffffffffffffffffffffffffffffffffffff1673ffffffffffffffffffffffffffffffffffffffff168152602001908152602001600020600084815260200190815260200160002080549050905080915050919050565b600073ffffffffffffffffffffffffffffffffffffffff168273ffffffffffffffffffffffffffffffffffffffff16036130a2576040517f08c379a000000000000000000000000000000000000000000000000000000000815260040161309990615110565b60405180910390fd5b6130ab81612bb4565b156130eb576040517f08c379a00000000000000000000000000000000000000000000000000000000081526004016130e29061517c565b60405180910390fd5b6130f9600083836001612c50565b61310281612bb4565b15613142576040517f08c379a00000000000000000000000000000000000000000000000000000000081526004016131399061517c565b60405180910390fd5b6001600360008473ffffffffffffffffffffffffffffffffffffffff1673ffffffffffffffffffffffffffffffffffffffff16815260200190815260200160002060008282540192505081905550816002600083815260200190815260200160002060006101000a81548173ffffffffffffffffffffffffffffffffffffffff021916908373ffffffffffffffffffffffffffffffffffffffff160217905550808273ffffffffffffffffffffffffffffffffffffffff16600073ffffffffffffffffffffffffffffffffffffffff167fddf252ad1be2c89b69c2b068fc378daa952ba7f163c4a11628f55a4df523b3ef60405160405180910390a461324c600083836001612d76565b5050565b6000808273ffffffffffffffffffffffffffffffffffffffff163b119050919050565b600080600090507a184f03e93ff9f4daa797ed6e38ed64bf6a1f01000000000000000083106132d1577a184f03e93ff9f4daa797ed6e38ed64bf6a1f01000000000000000083816132c7576132c6614b83565b5b0492506040810190505b6d04ee2d6d415b85acef8100000000831061330e576d04ee2d6d415b85acef8100000000838161330457613303614b83565b5b0492506020810190505b662386f26fc10000831061333d57662386f26fc10000838161333357613332614b83565b5b0492506010810190505b6305f5e1008310613366576305f5e100838161335c5761335b614b83565b5b0492506008810190505b612710831061338b57612710838161338157613380614b83565b5b0492506004810190505b606483106133ae57606483816133a4576133a3614b83565b5b0492506002810190505b600a83106133bd576001810190505b80915050919050565b6040518060a0016040528060008152602001600073ffffffffffffffffffffffffffffffffffffffff168152602001600073ffffffffffffffffffffffffffffffffffffffff168152602001600081526020016000151581525090565b604051806060016040528060008152602001600081526020016000151581525090565b6000604051905090565b600080fd5b600080fd5b60007fffffffff0000000000000000000000000000000000000000000000000000000082169050919050565b61348f8161345a565b811461349a57600080fd5b50565b6000813590506134ac81613486565b92915050565b6000602082840312156134c8576134c7613450565b5b60006134d68482850161349d565b91505092915050565b60008115159050919050565b6134f4816134df565b82525050565b600060208201905061350f60008301846134eb565b92915050565b600081519050919050565b600082825260208201905092915050565b60005b8381101561354f578082015181840152602081019050613534565b60008484015250505050565b6000601f19601f8301169050919050565b600061357782613515565b6135818185613520565b9350613591818560208601613531565b61359a8161355b565b840191505092915050565b600060208201905081810360008301526135bf818461356c565b905092915050565b6000819050919050565b6135da816135c7565b81146135e557600080fd5b50565b6000813590506135f7816135d1565b92915050565b60006020828403121561361357613612613450565b5b6000613621848285016135e8565b91505092915050565b600073ffffffffffffffffffffffffffffffffffffffff82169050919050565b60006136558261362a565b9050919050565b6136658161364a565b82525050565b6000602082019050613680600083018461365c565b92915050565b61368f8161364a565b811461369a57600080fd5b50565b6000813590506136ac81613686565b92915050565b600080604083850312156136c9576136c8613450565b5b60006136d78582860161369d565b92505060206136e8858286016135e8565b9150509250929050565b600080fd5b600080fd5b7f4e487b7100000000000000000000000000000000000000000000000000000000600052604160045260246000fd5b6137348261355b565b810181811067ffffffffffffffff82111715613753576137526136fc565b5b80604052505050565b6000613766613446565b9050613772828261372b565b919050565b600067ffffffffffffffff821115613792576137916136fc565b5b61379b8261355b565b9050602081019050919050565b82818337600083830152505050565b60006137ca6137c584613777565b61375c565b9050828152602081018484840111156137e6576137e56136f7565b5b6137f18482856137a8565b509392505050565b600082601f83011261380e5761380d6136f2565b5b813561381e8482602086016137b7565b91505092915050565b600067ffffffffffffffff821115613842576138416136fc565b5b602082029050602081019050919050565b600080fd5b600061386b61386684613827565b61375c565b9050808382526020820190506020840283018581111561388e5761388d613853565b5b835b818110156138b757806138a388826135e8565b845260208401935050602081019050613890565b5050509392505050565b600082601f8301126138d6576138d56136f2565b5b81356138e6848260208601613858565b91505092915050565b60008060006060848603121561390857613907613450565b5b600084013567ffffffffffffffff81111561392657613925613455565b5b613932868287016137f9565b9350506020613943868287016135e8565b925050604084013567ffffffffffffffff81111561396457613963613455565b5b613970868287016138c1565b9150509250925092565b613983816135c7565b82525050565b600060208201905061399e600083018461397a565b92915050565b6000806000606084860312156139bd576139bc613450565b5b60006139cb8682870161369d565b93505060206139dc8682870161369d565b92505060406139ed868287016135e8565b9150509250925092565b600081519050919050565b600082825260208201905092915050565b6000819050602082019050919050565b613a2c816135c7565b82525050565b6000613a3d8261362a565b9050919050565b613a4d81613a32565b82525050565b613a5c816134df565b82525050565b60a082016000820151613a786000850182613a23565b506020820151613a8b6020850182613a44565b506040820151613a9e6040850182613a44565b506060820151613ab16060850182613a23565b506080820151613ac46080850182613a53565b50505050565b6000613ad68383613a62565b60a08301905092915050565b6000602082019050919050565b6000613afa826139f7565b613b048185613a02565b9350613b0f83613a13565b8060005b83811015613b40578151613b278882613aca565b9750613b3283613ae2565b925050600181019050613b13565b5085935050505092915050565b60006020820190508181036000830152613b678184613aef565b905092915050565b600060208284031215613b8557613b84613450565b5b6000613b938482850161369d565b91505092915050565b6000819050919050565b6000613bc1613bbc613bb78461362a565b613b9c565b61362a565b9050919050565b6000613bd382613ba6565b9050919050565b6000613be582613bc8565b9050919050565b613bf581613bda565b82525050565b6000602082019050613c106000830184613bec565b92915050565b60a082016000820151613c2c6000850182613a23565b506020820151613c3f6020850182613a44565b506040820151613c526040850182613a44565b506060820151613c656060850182613a23565b506080820151613c786080850182613a53565b50505050565b600060a082019050613c936000830184613c16565b92915050565b613ca2816134df565b8114613cad57600080fd5b50565b600081359050613cbf81613c99565b92915050565b60008060408385031215613cdc57613cdb613450565b5b6000613cea8582860161369d565b9250506020613cfb85828601613cb0565b9150509250929050565b600067ffffffffffffffff821115613d2057613d1f6136fc565b5b613d298261355b565b9050602081019050919050565b6000613d49613d4484613d05565b61375c565b905082815260208101848484011115613d6557613d646136f7565b5b613d708482856137a8565b509392505050565b600082601f830112613d8d57613d8c6136f2565b5b8135613d9d848260208601613d36565b91505092915050565b60008060008060808587031215613dc057613dbf613450565b5b6000613dce8782880161369d565b9450506020613ddf8782880161369d565b9350506040613df0878288016135e8565b925050606085013567ffffffffffffffff811115613e1157613e10613455565b5b613e1d87828801613d78565b91505092959194509250565b600067ffffffffffffffff821115613e4457613e436136fc565b5b602082029050602081019050919050565b6000613e68613e6384613e29565b61375c565b90508083825260208201905060208402830185811115613e8b57613e8a613853565b5b835b81811015613eb45780613ea0888261369d565b845260208401935050602081019050613e8d565b5050509392505050565b600082601f830112613ed357613ed26136f2565b5b8135613ee3848260208601613e55565b91505092915050565b60008060408385031215613f0357613f02613450565b5b6000613f11858286016135e8565b925050602083013567ffffffffffffffff811115613f3257613f31613455565b5b613f3e85828601613ebe565b9150509250929050565b600063ffffffff82169050919050565b613f6181613f48565b8114613f6c57600080fd5b50565b600081359050613f7e81613f58565b92915050565b60008060408385031215613f9b57613f9a613450565b5b6000613fa9858286016135e8565b9250506020613fba85828601613f6f565b9150509250929050565b60008060408385031215613fdb57613fda613450565b5b6000613fe98582860161369d565b9250506020613ffa8582860161369d565b9150509250929050565b60008060006060848603121561401d5761401c613450565b5b600061402b8682870161369d565b935050602061403c868287016135e8565b925050604061404d868287016135e8565b9150509250925092565b600060608201905061406c600083018661397a565b614079602083018561397a565b61408660408301846134eb565b949350505050565b7f4e487b7100000000000000000000000000000000000000000000000000000000600052602260045260246000fd5b600060028204905060018216806140d557607f821691505b6020821081036140e8576140e761408e565b5b50919050565b7f4552433732313a20617070726f76616c20746f2063757272656e74206f776e6560008201527f7200000000000000000000000000000000000000000000000000000000000000602082015250565b600061414a602183613520565b9150614155826140ee565b604082019050919050565b600060208201905081810360008301526141798161413d565b9050919050565b7f4552433732313a20617070726f76652063616c6c6572206973206e6f7420746f60008201527f6b656e206f776e6572206f7220617070726f76656420666f7220616c6c000000602082015250565b60006141dc603d83613520565b91506141e782614180565b604082019050919050565b6000602082019050818103600083015261420b816141cf565b9050919050565b7f4552433732313a2063616c6c6572206973206e6f7420746f6b656e206f776e6560008201527f72206f7220617070726f76656400000000000000000000000000000000000000602082015250565b600061426e602d83613520565b915061427982614212565b604082019050919050565b6000602082019050818103600083015261429d81614261565b9050919050565b7f4e487b7100000000000000000000000000000000000000000000000000000000600052601160045260246000fd5b60006142de826135c7565b91506142e9836135c7565b9250828201905080821115614301576143006142a4565b5b92915050565b6000614312826135c7565b91507fffffffffffffffffffffffffffffffffffffffffffffffffffffffffffffffff8203614344576143436142a4565b5b600182019050919050565b7f4e487b7100000000000000000000000000000000000000000000000000000000600052603260045260246000fd5b7f4552433732313a20696e76616c696420746f6b656e2049440000000000000000600082015250565b60006143b4601883613520565b91506143bf8261437e565b602082019050919050565b600060208201905081810360008301526143e3816143a7565b9050919050565b7f4552433732313a2061646472657373207a65726f206973206e6f74206120766160008201527f6c6964206f776e65720000000000000000000000000000000000000000000000602082015250565b6000614446602983613520565b9150614451826143ea565b604082019050919050565b6000602082019050818103600083015261447581614439565b9050919050565b7f4f6e6c79206f776e65722063616e20757064617465206c697374696e6720707260008201527f6963650000000000000000000000000000000000000000000000000000000000602082015250565b60006144d8602383613520565b91506144e38261447c565b604082019050919050565b60006020820190508181036000830152614507816144cb565b9050919050565b600081905092915050565b600061452482613515565b61452e818561450e565b935061453e818560208601613531565b80840191505092915050565b60006145568285614519565b91506145628284614519565b91508190509392505050565b7f312e20496e76616c69642052656465656d20436f646520666f72204e46540000600082015250565b60006145a4601e83613520565b91506145af8261456e565b602082019050919050565b600060208201905081810360008301526145d381614597565b9050919050565b7f322e20496e76616c69642052656465656d20436f646520666f72204e46540000600082015250565b6000614610601e83613520565b915061461b826145da565b602082019050919050565b6000602082019050818103600083015261463f81614603565b9050919050565b6000614651826135c7565b915061465c836135c7565b9250828203905081811115614674576146736142a4565b5b92915050565b61468381613f48565b82525050565b600060c08201905061469e600083018961365c565b6146ab602083018861397a565b6146b8604083018761467a565b6146c5606083018661397a565b6146d2608083018561397a565b6146df60a08301846134eb565b979650505050505050565b7f45524337323155524953746f726167653a2055524920736574206f66206e6f6e60008201527f6578697374656e7420746f6b656e000000000000000000000000000000000000602082015250565b6000614746602e83613520565b9150614751826146ea565b604082019050919050565b6000602082019050818103600083015261477581614739565b9050919050565b60008190508160005260206000209050919050565b60006020601f8301049050919050565b600082821b905092915050565b6000600883026147de7fffffffffffffffffffffffffffffffffffffffffffffffffffffffffffffffff826147a1565b6147e886836147a1565b95508019841693508086168417925050509392505050565b600061481b614816614811846135c7565b613b9c565b6135c7565b9050919050565b6000819050919050565b61483583614800565b61484961484182614822565b8484546147ae565b825550505050565b600090565b61485e614851565b61486981848461482c565b505050565b5b8181101561488d57614882600082614856565b60018101905061486f565b5050565b601f8211156148d2576148a38161477c565b6148ac84614791565b810160208510156148bb578190505b6148cf6148c785614791565b83018261486e565b50505b505050565b600082821c905092915050565b60006148f5600019846008026148d7565b1980831691505092915050565b600061490e83836148e4565b9150826002028217905092915050565b61492782613515565b67ffffffffffffffff8111156149405761493f6136fc565b5b61494a82546140bd565b614955828285614891565b600060209050601f8311600181146149885760008415614976578287015190505b6149808582614902565b8655506149e8565b601f1984166149968661477c565b60005b828110156149be57848901518255600182019150602085019450602081019050614999565b868310156149db57848901516149d7601f8916826148e4565b8355505b6001600288020188555050505b505050505050565b7f486f706566756c6c792073656e64696e672074686520636f727265637420707260008201527f6963650000000000000000000000000000000000000000000000000000000000602082015250565b6000614a4c602383613520565b9150614a57826149f0565b604082019050919050565b60006020820190508181036000830152614a7b81614a3f565b9050919050565b7f4d616b652073757265207468652070726963652069736e2774206e656761746960008201527f7665000000000000000000000000000000000000000000000000000000000000602082015250565b6000614ade602283613520565b9150614ae982614a82565b604082019050919050565b60006020820190508181036000830152614b0d81614ad1565b9050919050565b6000819050919050565b614b2f614b2a826135c7565b614b14565b82525050565b6000614b418287614b1e565b602082019150614b518286614b1e565b602082019150614b618285614b1e565b602082019150614b718284614b1e565b60208201915081905095945050505050565b7f4e487b7100000000000000000000000000000000000000000000000000000000600052601260045260246000fd5b6000614bbd826135c7565b9150614bc8836135c7565b925082614bd857614bd7614b83565b5b828206905092915050565b600081519050919050565b600082825260208201905092915050565b6000819050602082019050919050565b6000614c1b8383613a23565b60208301905092915050565b6000602082019050919050565b6000614c3f82614be3565b614c498185614bee565b9350614c5483614bff565b8060005b83811015614c85578151614c6c8882614c0f565b9750614c7783614c27565b925050600181019050614c58565b5085935050505092915050565b600081519050919050565b600082825260208201905092915050565b6000819050602082019050919050565b614cc781613f48565b82525050565b6000614cd98383614cbe565b60208301905092915050565b6000602082019050919050565b6000614cfd82614c92565b614d078185614c9d565b9350614d1283614cae565b8060005b83811015614d43578151614d2a8882614ccd565b9750614d3583614ce5565b925050600181019050614d16565b5085935050505092915050565b600060c082019050614d65600083018961365c565b614d72602083018861365c565b614d7f604083018761397a565b614d8c60608301866134eb565b8181036080830152614d9e8185614c34565b905081810360a0830152614db28184614cf2565b9050979650505050505050565b7f4552433732313a207472616e736665722066726f6d20696e636f72726563742060008201527f6f776e6572000000000000000000000000000000000000000000000000000000602082015250565b6000614e1b602583613520565b9150614e2682614dbf565b604082019050919050565b60006020820190508181036000830152614e4a81614e0e565b9050919050565b7f4552433732313a207472616e7366657220746f20746865207a65726f2061646460008201527f7265737300000000000000000000000000000000000000000000000000000000602082015250565b6000614ead602483613520565b9150614eb882614e51565b604082019050919050565b60006020820190508181036000830152614edc81614ea0565b9050919050565b7f4552433732313a20617070726f766520746f2063616c6c657200000000000000600082015250565b6000614f19601983613520565b9150614f2482614ee3565b602082019050919050565b60006020820190508181036000830152614f4881614f0c565b9050919050565b7f4552433732313a207472616e7366657220746f206e6f6e20455243373231526560008201527f63656976657220696d706c656d656e7465720000000000000000000000000000602082015250565b6000614fab603283613520565b9150614fb682614f4f565b604082019050919050565b60006020820190508181036000830152614fda81614f9e565b9050919050565b600081519050919050565b600082825260208201905092915050565b600061500882614fe1565b6150128185614fec565b9350615022818560208601613531565b61502b8161355b565b840191505092915050565b600060808201905061504b600083018761365c565b615058602083018661365c565b615065604083018561397a565b81810360608301526150778184614ffd565b905095945050505050565b60008151905061509181613486565b92915050565b6000602082840312156150ad576150ac613450565b5b60006150bb84828501615082565b91505092915050565b7f4552433732313a206d696e7420746f20746865207a65726f2061646472657373600082015250565b60006150fa602083613520565b9150615105826150c4565b602082019050919050565b60006020820190508181036000830152615129816150ed565b9050919050565b7f4552433732313a20746f6b656e20616c7265616479206d696e74656400000000600082015250565b6000615166601c83613520565b915061517182615130565b602082019050919050565b6000602082019050818103600083015261519581615159565b905091905056fea2646970667358221220d5287eafbbbea2b1742ef04fa7f3bedb5cfa90eac05d88398fd7883381d9472064736f6c63430008110033",
  "immutableReferences": {},
  "source": "//SPDX-License-Identifier: Unlicense\r\npragma solidity ^0.8.0;\r\n\r\nimport './RWDToken.sol';\r\n\r\nimport \"@openzeppelin/contracts/utils/Counters.sol\";\r\nimport \"@openzeppelin/contracts/token/ERC721/extensions/ERC721URIStorage.sol\";\r\nimport \"@openzeppelin/contracts/token/ERC721/ERC721.sol\";\r\n\r\ncontract NFTMarketplace is ERC721URIStorage {\r\n\r\n    using Counters for Counters.Counter;\r\n    //_tokenIds variable has the most recent minted tokenId\r\n    Counters.Counter private _tokenIds;\r\n    //Keeps track of the number of items sold on the marketplace\r\n    Counters.Counter private _itemsSold;\r\n    //owner is the contract address that created the smart contract\r\n    address owner;\r\n    //The fee charged by the marketplace to be allowed to list an NFT\r\n    uint256 listPrice = 0.01 ether;\r\n    RWDToken public rwdToken;\r\n\r\n    //The structure to store info about a listed token\r\n    struct ListedToken {\r\n        uint256 tokenId;\r\n        address payable owner;\r\n        address payable seller;\r\n        uint256 price;\r\n        bool currentlyListed;\r\n    }\r\n\r\n    struct MintToken {\r\n        uint256 tokenId;\r\n        uint256 mintValue;\r\n    }\r\n\r\n    //The structure to store info mountabout a nft owner for a nft\r\n    struct NFTRedeemState {\r\n        uint issueDate;\r\n        uint256 mintValue;\r\n        bool hasRedeemed;\r\n    }\r\n\r\n    //the event emitted when a token is successfully listed\r\n    event TokenListedSuccess (\r\n        uint256 indexed tokenId,\r\n        address owner,\r\n        address seller,\r\n        uint256 price,\r\n        bool currentlyListed,\r\n        uint256[] mintVal,\r\n        uint32[] redeemCodes\r\n    );\r\n\r\n    event NFTRedeemed(address user, uint256 tokenId, uint32 redeemCode, uint256 mintValue, uint256 len, bool firstRedeemed);\r\n\r\n    //tokenId to NFT\r\n    mapping(uint256 => ListedToken) private idToListedToken;\r\n\r\n    // redeem code to mint token\r\n    mapping(uint32 => MintToken) private codeToMintToken;\r\n\r\n    //NFTOwners to NFT to NFT Redeem State\r\n    mapping (address => mapping(uint256 => NFTRedeemState[])) public nftOwners;\r\n\r\n    constructor(RWDToken _rwdToken) ERC721(\"NFTMarketplace\", \"NFTM\") {\r\n        owner = msg.sender;\r\n        rwdToken = _rwdToken;\r\n    }\r\n\r\n    function updateListPrice(uint256 _listPrice) public payable {\r\n        require(owner == msg.sender, \"Only owner can update listing price\");\r\n        listPrice = _listPrice;\r\n    }\r\n\r\n    function getListPrice() public view returns (uint256) {\r\n        return listPrice;\r\n    }\r\n\r\n    function getLatestIdToListedToken() public view returns (ListedToken memory) {\r\n        uint256 currentTokenId = _tokenIds.current();\r\n        return idToListedToken[currentTokenId];\r\n    }\r\n\r\n    function getListedTokenForId(uint256 tokenId) public view returns (ListedToken memory) {\r\n        return idToListedToken[tokenId];\r\n    }\r\n\r\n    function getCurrentToken() public view returns (uint256) {\r\n        return _tokenIds.current();\r\n    }\r\n\r\n    //The first time a token is created, it is listed here\r\n    function createToken(string memory tokenURI, uint256 price, uint256[] memory mintVal) public payable returns (uint) {\r\n        //Increment the tokenId counter, which is keeping track of the number of minted NFTs\r\n        _tokenIds.increment();\r\n        uint256 newTokenId = _tokenIds.current();\r\n\r\n        //Mint the NFT with tokenId newTokenId to the address who called createToken\r\n        _safeMint(msg.sender, newTokenId);\r\n\r\n        //Map the tokenId to the tokenURI (which is an IPFS URL with the NFT metadata)\r\n        _setTokenURI(newTokenId, tokenURI);\r\n\r\n        //Helper function to update Global variables and emit an event\r\n        createListedToken(newTokenId, price, mintVal);\r\n\r\n        return newTokenId;\r\n    }\r\n\r\n    function createListedToken(uint256 tokenId, uint256 price, uint256[] memory mintVal) private {\r\n        //Make sure the sender sent enough ETH to pay for listing\r\n        require(msg.value == listPrice, \"Hopefully sending the correct price\");\r\n        //Just sanity check\r\n        require(price > 0, \"Make sure the price isn't negative\");\r\n\r\n        /* Generate Random String Coupon code */\r\n        uint32[] memory redeemCodes = new uint32[](mintVal.length);\r\n        for(uint i = 0; i < mintVal.length; i++)\r\n        {\r\n            uint32 code = uint32(uint256(keccak256(abi.encodePacked(block.timestamp, block.difficulty, tokenId, mintVal[i])))%2000000000);\r\n            codeToMintToken[code] = MintToken({\r\n                tokenId: tokenId,\r\n                mintValue: mintVal[i]\r\n            });\r\n            redeemCodes[i] = code;\r\n        }\r\n\r\n        //Update the mapping of tokenId's to Token details, useful for retrieval functions\r\n        idToListedToken[tokenId] = ListedToken({\r\n            tokenId: tokenId,\r\n            owner: payable(address(this)),\r\n            seller: payable(msg.sender),\r\n            price: price,\r\n            currentlyListed: true\r\n        });\r\n\r\n        nftOwners[msg.sender][tokenId].push(NFTRedeemState({\r\n                issueDate: block.timestamp, \r\n                mintValue:0, \r\n                hasRedeemed: true\r\n                }));\r\n\r\n        _transfer(msg.sender, address(this), tokenId);\r\n        //Emit the event for successful transfer. The frontend parses this message and updates the end user\r\n        emit TokenListedSuccess(\r\n            tokenId,\r\n            address(this),\r\n            msg.sender,\r\n            price,\r\n            true,\r\n            mintVal,\r\n            redeemCodes\r\n        );\r\n    }\r\n    \r\n    //This will return all the NFTs currently listed to be sold on the marketplace\r\n    function getAllNFTs() public view returns (ListedToken[] memory) {\r\n        uint nftCount = _tokenIds.current();\r\n        ListedToken[] memory tokens = new ListedToken[](nftCount);\r\n        uint currentIndex = 0;\r\n        uint currentId;\r\n        //at the moment currentlyListed is true for all, if it becomes false in the future we will \r\n        //filter out currentlyListed == false over here\r\n        for(uint i = 0; i < nftCount; i++)\r\n        {\r\n            currentId = i + 1;\r\n            ListedToken storage currentItem = idToListedToken[currentId];\r\n            tokens[currentIndex] = currentItem;\r\n            currentIndex += 1;\r\n        }\r\n        //the array 'tokens' has the list of all NFTs in the marketplace\r\n        return tokens;\r\n    }\r\n    \r\n    //Returns all the NFTs that the current user is owner or seller in\r\n    function getMyNFTs() public view returns (ListedToken[] memory) {\r\n        uint totalItemCount = _tokenIds.current();\r\n        uint itemCount = 0;\r\n        uint currentIndex = 0;\r\n        uint currentId;\r\n        //Important to get a count of all the NFTs that belong to the user before we can make an array for them\r\n        for(uint i=0; i < totalItemCount; i++)\r\n        {\r\n            if(idToListedToken[i+1].owner == msg.sender || idToListedToken[i+1].seller == msg.sender || (checkWalletNFT(i + 1) && getFirstOccuringRedeemState(i+1))){\r\n                itemCount += 1;\r\n            }\r\n        }\r\n\r\n        //Once you have the count of relevant NFTs, create an array then store all the NFTs in it\r\n        ListedToken[] memory items = new ListedToken[](itemCount);\r\n        for(uint i=0; i < totalItemCount; i++) {\r\n            if(idToListedToken[i+1].owner == msg.sender || idToListedToken[i+1].seller == msg.sender || (checkWalletNFT(i + 1) && getFirstOccuringRedeemState(i+1))){\r\n                currentId = i+1;\r\n                ListedToken storage currentItem = idToListedToken[currentId];\r\n                items[currentIndex] = currentItem;\r\n                currentIndex += 1;\r\n            }\r\n        }\r\n        return items;\r\n    }\r\n\r\n    function executeSale(uint256 tokenId) public payable{\r\n        // uint price = idToListedToken[tokenId].price;\r\n        // address seller = idToListedToken[tokenId].seller;\r\n        // require(msg.value == price, \"Please submit the asking price in order to complete the purchase\");\r\n\r\n        // //update the details of the token\r\n        // idToListedToken[tokenId].currentlyListed = true;\r\n        // idToListedToken[tokenId].seller = payable(msg.sender);\r\n        // _itemsSold.increment();\r\n\r\n        // //Actually transfer the token to the new owner\r\n        // _transfer(address(this), msg.sender, tokenId);\r\n        // //approve the marketplace to sell NFTs on your behalf\r\n        // approve(address(this), tokenId);\r\n\r\n        // //Transfer the listing fee to the marketplace creator\r\n        // payable(owner).transfer(listPrice);\r\n        // //Transfer the proceeds from the sale to the seller of the NFT\r\n        // payable(seller).transfer(msg.value);\r\n\r\n        nftOwners[msg.sender][tokenId].push(NFTRedeemState({\r\n                issueDate: block.timestamp, \r\n                mintValue: 0, \r\n                hasRedeemed: false\r\n                }));\r\n    }\r\n\r\n    function getRedeemStatesLen(uint256 tokenId) private view returns (uint256){\r\n        uint256 redeemStatesLen = (nftOwners[msg.sender][tokenId]).length;\r\n        return redeemStatesLen;\r\n    }\r\n\r\n    function getFirstOccuringRedeemState(uint256 tokenId) private view returns (bool){\r\n        NFTRedeemState[] memory redeemStates = nftOwners[msg.sender][tokenId];\r\n        for (uint256 i = 0; i < redeemStates.length; i++){\r\n            if (redeemStates[i].hasRedeemed){\r\n                return true;\r\n            }\r\n        }\r\n        return false;\r\n    }\r\n\r\n    function getLastRedeemState(uint256 tokenId) private view returns (NFTRedeemState memory){\r\n        NFTRedeemState[] memory redeemStates = nftOwners[msg.sender][tokenId];\r\n        return redeemStates[getRedeemStatesLen(tokenId) - 1];\r\n    }\r\n\r\n    function issueNFT(uint256 tokenId, address[] memory walletAddr) public payable{\r\n        for (uint i = 0; i < walletAddr.length; i++){\r\n            nftOwners[walletAddr[i]][tokenId].push(NFTRedeemState({\r\n                    issueDate: block.timestamp, \r\n                    mintValue: 0, \r\n                    hasRedeemed: false\r\n                    }));\r\n        }\r\n    }\r\n\r\n    function redeemNFT(uint256 tokenId, uint32 redeemCode) public{\r\n        require(codeToMintToken[redeemCode].tokenId == tokenId, \"1. Invalid Redeem Code for NFT\");\r\n        require(checkWalletNFT(tokenId) && !((getLastRedeemState(tokenId)).hasRedeemed), \"2. Invalid Redeem Code for NFT\");\r\n\r\n        uint256 mintValue = codeToMintToken[redeemCode].mintValue;\r\n        uint256 redeemStatesLen = (nftOwners[msg.sender][tokenId]).length;\r\n        nftOwners[msg.sender][tokenId][redeemStatesLen - 1].mintValue = mintValue;\r\n        nftOwners[msg.sender][tokenId][redeemStatesLen - 1].hasRedeemed = true;\r\n\r\n        // rwdToken.transfer(msg.sender, mintValue);\r\n\r\n        emit NFTRedeemed(msg.sender, tokenId, redeemCode, mintValue, redeemStatesLen, nftOwners[msg.sender][tokenId][0].hasRedeemed);\r\n    }\r\n\r\n    function checkWalletNFT(uint256 tokenId) public view returns (bool) {\r\n        return (nftOwners[msg.sender][tokenId]).length > 0;\r\n    }\r\n}",
  "sourcePath": "D:\\Documents\\Events\\2023\\2. KL Mini Hack\\polygon-zkevm-truffle\\contracts\\NFTMarketplace.sol",
  "compiler": {
    "name": "solc",
    "version": "0.8.17+commit.8df45f5f.Emscripten.clang"
  },
  "schemaVersion": "3.4.11",
  "updatedAt": "2023-02-16T05:16:55.288Z",
  "networkType": "ethereum",
  "devdoc": {
    "kind": "dev",
    "methods": {
      "approve(address,uint256)": {
        "details": "See {IERC721-approve}."
      },
      "balanceOf(address)": {
        "details": "See {IERC721-balanceOf}."
      },
      "getApproved(uint256)": {
        "details": "See {IERC721-getApproved}."
      },
      "isApprovedForAll(address,address)": {
        "details": "See {IERC721-isApprovedForAll}."
      },
      "name()": {
        "details": "See {IERC721Metadata-name}."
      },
      "ownerOf(uint256)": {
        "details": "See {IERC721-ownerOf}."
      },
      "safeTransferFrom(address,address,uint256)": {
        "details": "See {IERC721-safeTransferFrom}."
      },
      "safeTransferFrom(address,address,uint256,bytes)": {
        "details": "See {IERC721-safeTransferFrom}."
      },
      "setApprovalForAll(address,bool)": {
        "details": "See {IERC721-setApprovalForAll}."
      },
      "supportsInterface(bytes4)": {
        "details": "See {IERC165-supportsInterface}."
      },
      "symbol()": {
        "details": "See {IERC721Metadata-symbol}."
      },
      "tokenURI(uint256)": {
        "details": "See {IERC721Metadata-tokenURI}."
      },
      "transferFrom(address,address,uint256)": {
        "details": "See {IERC721-transferFrom}."
      }
    },
    "version": 1
  },
  "userdoc": {
    "kind": "user",
    "methods": {},
    "version": 1
  }
}