{
  "contractName": "NFTMarketplace",
  "abi": [
    {
      "inputs": [
        {
          "internalType": "contract RWDToken",
          "name": "_rwdToken",
          "type": "address"
        }
      ],
      "stateMutability": "nonpayable",
      "type": "constructor"
    },
    {
      "anonymous": false,
      "inputs": [
        {
          "indexed": true,
          "internalType": "address",
          "name": "owner",
          "type": "address"
        },
        {
          "indexed": true,
          "internalType": "address",
          "name": "approved",
          "type": "address"
        },
        {
          "indexed": true,
          "internalType": "uint256",
          "name": "tokenId",
          "type": "uint256"
        }
      ],
      "name": "Approval",
      "type": "event"
    },
    {
      "anonymous": false,
      "inputs": [
        {
          "indexed": true,
          "internalType": "address",
          "name": "owner",
          "type": "address"
        },
        {
          "indexed": true,
          "internalType": "address",
          "name": "operator",
          "type": "address"
        },
        {
          "indexed": false,
          "internalType": "bool",
          "name": "approved",
          "type": "bool"
        }
      ],
      "name": "ApprovalForAll",
      "type": "event"
    },
    {
      "anonymous": false,
      "inputs": [
        {
          "indexed": false,
          "internalType": "address",
          "name": "user",
          "type": "address"
        },
        {
          "indexed": false,
          "internalType": "uint256",
          "name": "tokenId",
          "type": "uint256"
        },
        {
          "indexed": false,
          "internalType": "uint32",
          "name": "redeemCode",
          "type": "uint32"
        },
        {
          "indexed": false,
          "internalType": "uint256",
          "name": "mintValue",
          "type": "uint256"
        }
      ],
      "name": "NFTRedeemed",
      "type": "event"
    },
    {
      "anonymous": false,
      "inputs": [
        {
          "indexed": true,
          "internalType": "uint256",
          "name": "tokenId",
          "type": "uint256"
        },
        {
          "indexed": false,
          "internalType": "address",
          "name": "owner",
          "type": "address"
        },
        {
          "indexed": false,
          "internalType": "address",
          "name": "seller",
          "type": "address"
        },
        {
          "indexed": false,
          "internalType": "uint256",
          "name": "price",
          "type": "uint256"
        },
        {
          "indexed": false,
          "internalType": "bool",
          "name": "currentlyListed",
          "type": "bool"
        },
        {
          "indexed": false,
          "internalType": "uint256[]",
          "name": "mintVal",
          "type": "uint256[]"
        },
        {
          "indexed": false,
          "internalType": "uint32[]",
          "name": "redeemCodes",
          "type": "uint32[]"
        }
      ],
      "name": "TokenListedSuccess",
      "type": "event"
    },
    {
      "anonymous": false,
      "inputs": [
        {
          "indexed": true,
          "internalType": "address",
          "name": "from",
          "type": "address"
        },
        {
          "indexed": true,
          "internalType": "address",
          "name": "to",
          "type": "address"
        },
        {
          "indexed": true,
          "internalType": "uint256",
          "name": "tokenId",
          "type": "uint256"
        }
      ],
      "name": "Transfer",
      "type": "event"
    },
    {
      "inputs": [
        {
          "internalType": "address",
          "name": "to",
          "type": "address"
        },
        {
          "internalType": "uint256",
          "name": "tokenId",
          "type": "uint256"
        }
      ],
      "name": "approve",
      "outputs": [],
      "stateMutability": "nonpayable",
      "type": "function"
    },
    {
      "inputs": [
        {
          "internalType": "address",
          "name": "owner",
          "type": "address"
        }
      ],
      "name": "balanceOf",
      "outputs": [
        {
          "internalType": "uint256",
          "name": "",
          "type": "uint256"
        }
      ],
      "stateMutability": "view",
      "type": "function",
      "constant": true
    },
    {
      "inputs": [
        {
          "internalType": "uint256",
          "name": "tokenId",
          "type": "uint256"
        }
      ],
      "name": "getApproved",
      "outputs": [
        {
          "internalType": "address",
          "name": "",
          "type": "address"
        }
      ],
      "stateMutability": "view",
      "type": "function",
      "constant": true
    },
    {
      "inputs": [
        {
          "internalType": "address",
          "name": "owner",
          "type": "address"
        },
        {
          "internalType": "address",
          "name": "operator",
          "type": "address"
        }
      ],
      "name": "isApprovedForAll",
      "outputs": [
        {
          "internalType": "bool",
          "name": "",
          "type": "bool"
        }
      ],
      "stateMutability": "view",
      "type": "function",
      "constant": true
    },
    {
      "inputs": [],
      "name": "name",
      "outputs": [
        {
          "internalType": "string",
          "name": "",
          "type": "string"
        }
      ],
      "stateMutability": "view",
      "type": "function",
      "constant": true
    },
    {
      "inputs": [
        {
          "internalType": "address",
          "name": "",
          "type": "address"
        },
        {
          "internalType": "uint256",
          "name": "",
          "type": "uint256"
        },
        {
          "internalType": "uint256",
          "name": "",
          "type": "uint256"
        }
      ],
      "name": "nftOwners",
      "outputs": [
        {
          "internalType": "uint256",
          "name": "issueDate",
          "type": "uint256"
        },
        {
          "internalType": "uint256",
          "name": "mintValue",
          "type": "uint256"
        },
        {
          "internalType": "bool",
          "name": "hasRedeemed",
          "type": "bool"
        }
      ],
      "stateMutability": "view",
      "type": "function",
      "constant": true
    },
    {
      "inputs": [
        {
          "internalType": "uint256",
          "name": "tokenId",
          "type": "uint256"
        }
      ],
      "name": "ownerOf",
      "outputs": [
        {
          "internalType": "address",
          "name": "",
          "type": "address"
        }
      ],
      "stateMutability": "view",
      "type": "function",
      "constant": true
    },
    {
      "inputs": [],
      "name": "rwdToken",
      "outputs": [
        {
          "internalType": "contract RWDToken",
          "name": "",
          "type": "address"
        }
      ],
      "stateMutability": "view",
      "type": "function",
      "constant": true
    },
    {
      "inputs": [
        {
          "internalType": "address",
          "name": "from",
          "type": "address"
        },
        {
          "internalType": "address",
          "name": "to",
          "type": "address"
        },
        {
          "internalType": "uint256",
          "name": "tokenId",
          "type": "uint256"
        }
      ],
      "name": "safeTransferFrom",
      "outputs": [],
      "stateMutability": "nonpayable",
      "type": "function"
    },
    {
      "inputs": [
        {
          "internalType": "address",
          "name": "from",
          "type": "address"
        },
        {
          "internalType": "address",
          "name": "to",
          "type": "address"
        },
        {
          "internalType": "uint256",
          "name": "tokenId",
          "type": "uint256"
        },
        {
          "internalType": "bytes",
          "name": "data",
          "type": "bytes"
        }
      ],
      "name": "safeTransferFrom",
      "outputs": [],
      "stateMutability": "nonpayable",
      "type": "function"
    },
    {
      "inputs": [
        {
          "internalType": "address",
          "name": "operator",
          "type": "address"
        },
        {
          "internalType": "bool",
          "name": "approved",
          "type": "bool"
        }
      ],
      "name": "setApprovalForAll",
      "outputs": [],
      "stateMutability": "nonpayable",
      "type": "function"
    },
    {
      "inputs": [
        {
          "internalType": "bytes4",
          "name": "interfaceId",
          "type": "bytes4"
        }
      ],
      "name": "supportsInterface",
      "outputs": [
        {
          "internalType": "bool",
          "name": "",
          "type": "bool"
        }
      ],
      "stateMutability": "view",
      "type": "function",
      "constant": true
    },
    {
      "inputs": [],
      "name": "symbol",
      "outputs": [
        {
          "internalType": "string",
          "name": "",
          "type": "string"
        }
      ],
      "stateMutability": "view",
      "type": "function",
      "constant": true
    },
    {
      "inputs": [
        {
          "internalType": "uint256",
          "name": "tokenId",
          "type": "uint256"
        }
      ],
      "name": "tokenURI",
      "outputs": [
        {
          "internalType": "string",
          "name": "",
          "type": "string"
        }
      ],
      "stateMutability": "view",
      "type": "function",
      "constant": true
    },
    {
      "inputs": [
        {
          "internalType": "address",
          "name": "from",
          "type": "address"
        },
        {
          "internalType": "address",
          "name": "to",
          "type": "address"
        },
        {
          "internalType": "uint256",
          "name": "tokenId",
          "type": "uint256"
        }
      ],
      "name": "transferFrom",
      "outputs": [],
      "stateMutability": "nonpayable",
      "type": "function"
    },
    {
      "inputs": [
        {
          "internalType": "uint256",
          "name": "_listPrice",
          "type": "uint256"
        }
      ],
      "name": "updateListPrice",
      "outputs": [],
      "stateMutability": "payable",
      "type": "function",
      "payable": true
    },
    {
      "inputs": [],
      "name": "getListPrice",
      "outputs": [
        {
          "internalType": "uint256",
          "name": "",
          "type": "uint256"
        }
      ],
      "stateMutability": "view",
      "type": "function",
      "constant": true
    },
    {
      "inputs": [],
      "name": "getLatestIdToListedToken",
      "outputs": [
        {
          "components": [
            {
              "internalType": "uint256",
              "name": "tokenId",
              "type": "uint256"
            },
            {
              "internalType": "address payable",
              "name": "owner",
              "type": "address"
            },
            {
              "internalType": "address payable",
              "name": "seller",
              "type": "address"
            },
            {
              "internalType": "uint256",
              "name": "price",
              "type": "uint256"
            },
            {
              "internalType": "bool",
              "name": "currentlyListed",
              "type": "bool"
            }
          ],
          "internalType": "struct NFTMarketplace.ListedToken",
          "name": "",
          "type": "tuple"
        }
      ],
      "stateMutability": "view",
      "type": "function",
      "constant": true
    },
    {
      "inputs": [
        {
          "internalType": "uint256",
          "name": "tokenId",
          "type": "uint256"
        }
      ],
      "name": "getListedTokenForId",
      "outputs": [
        {
          "components": [
            {
              "internalType": "uint256",
              "name": "tokenId",
              "type": "uint256"
            },
            {
              "internalType": "address payable",
              "name": "owner",
              "type": "address"
            },
            {
              "internalType": "address payable",
              "name": "seller",
              "type": "address"
            },
            {
              "internalType": "uint256",
              "name": "price",
              "type": "uint256"
            },
            {
              "internalType": "bool",
              "name": "currentlyListed",
              "type": "bool"
            }
          ],
          "internalType": "struct NFTMarketplace.ListedToken",
          "name": "",
          "type": "tuple"
        }
      ],
      "stateMutability": "view",
      "type": "function",
      "constant": true
    },
    {
      "inputs": [],
      "name": "getCurrentToken",
      "outputs": [
        {
          "internalType": "uint256",
          "name": "",
          "type": "uint256"
        }
      ],
      "stateMutability": "view",
      "type": "function",
      "constant": true
    },
    {
      "inputs": [
        {
          "internalType": "string",
          "name": "tokenURI",
          "type": "string"
        },
        {
          "internalType": "uint256",
          "name": "price",
          "type": "uint256"
        },
        {
          "internalType": "uint256[]",
          "name": "mintVal",
          "type": "uint256[]"
        }
      ],
      "name": "createToken",
      "outputs": [
        {
          "internalType": "uint256",
          "name": "",
          "type": "uint256"
        }
      ],
      "stateMutability": "payable",
      "type": "function",
      "payable": true
    },
    {
      "inputs": [],
      "name": "getAllNFTs",
      "outputs": [
        {
          "components": [
            {
              "internalType": "uint256",
              "name": "tokenId",
              "type": "uint256"
            },
            {
              "internalType": "address payable",
              "name": "owner",
              "type": "address"
            },
            {
              "internalType": "address payable",
              "name": "seller",
              "type": "address"
            },
            {
              "internalType": "uint256",
              "name": "price",
              "type": "uint256"
            },
            {
              "internalType": "bool",
              "name": "currentlyListed",
              "type": "bool"
            }
          ],
          "internalType": "struct NFTMarketplace.ListedToken[]",
          "name": "",
          "type": "tuple[]"
        }
      ],
      "stateMutability": "view",
      "type": "function",
      "constant": true
    },
    {
      "inputs": [],
      "name": "getMyNFTs",
      "outputs": [
        {
          "components": [
            {
              "internalType": "uint256",
              "name": "tokenId",
              "type": "uint256"
            },
            {
              "internalType": "address payable",
              "name": "owner",
              "type": "address"
            },
            {
              "internalType": "address payable",
              "name": "seller",
              "type": "address"
            },
            {
              "internalType": "uint256",
              "name": "price",
              "type": "uint256"
            },
            {
              "internalType": "bool",
              "name": "currentlyListed",
              "type": "bool"
            }
          ],
          "internalType": "struct NFTMarketplace.ListedToken[]",
          "name": "",
          "type": "tuple[]"
        }
      ],
      "stateMutability": "view",
      "type": "function",
      "constant": true
    },
    {
      "inputs": [
        {
          "internalType": "uint256",
          "name": "tokenId",
          "type": "uint256"
        }
      ],
      "name": "executeSale",
      "outputs": [],
      "stateMutability": "payable",
      "type": "function",
      "payable": true
    },
    {
      "inputs": [
        {
          "internalType": "uint256",
          "name": "tokenId",
          "type": "uint256"
        },
        {
          "internalType": "uint32",
          "name": "redeemCode",
          "type": "uint32"
        }
      ],
      "name": "redeemNFT",
      "outputs": [],
      "stateMutability": "nonpayable",
      "type": "function"
    },
    {
      "inputs": [
        {
          "internalType": "uint256",
          "name": "tokenId",
          "type": "uint256"
        }
      ],
      "name": "checkWalletNFT",
      "outputs": [
        {
          "internalType": "bool",
          "name": "",
          "type": "bool"
        }
      ],
      "stateMutability": "view",
      "type": "function",
      "constant": true
    }
  ],
  "bytecode": "0x6080604052662386f26fc10000600a553480156200001c57600080fd5b5060405162005285380380620052858339818101604052810190620000429190620001db565b6040518060400160405280600e81526020017f4e46544d61726b6574706c6163650000000000000000000000000000000000008152506040518060400160405280600481526020017f4e46544d000000000000000000000000000000000000000000000000000000008152508160009081620000bf919062000487565b508060019081620000d1919062000487565b50505033600960006101000a81548173ffffffffffffffffffffffffffffffffffffffff021916908373ffffffffffffffffffffffffffffffffffffffff16021790555080600b60006101000a81548173ffffffffffffffffffffffffffffffffffffffff021916908373ffffffffffffffffffffffffffffffffffffffff160217905550506200056e565b600080fd5b600073ffffffffffffffffffffffffffffffffffffffff82169050919050565b60006200018f8262000162565b9050919050565b6000620001a38262000182565b9050919050565b620001b58162000196565b8114620001c157600080fd5b50565b600081519050620001d581620001aa565b92915050565b600060208284031215620001f457620001f36200015d565b5b60006200020484828501620001c4565b91505092915050565b600081519050919050565b7f4e487b7100000000000000000000000000000000000000000000000000000000600052604160045260246000fd5b7f4e487b7100000000000000000000000000000000000000000000000000000000600052602260045260246000fd5b600060028204905060018216806200028f57607f821691505b602082108103620002a557620002a462000247565b5b50919050565b60008190508160005260206000209050919050565b60006020601f8301049050919050565b600082821b905092915050565b6000600883026200030f7fffffffffffffffffffffffffffffffffffffffffffffffffffffffffffffffff82620002d0565b6200031b8683620002d0565b95508019841693508086168417925050509392505050565b6000819050919050565b6000819050919050565b600062000368620003626200035c8462000333565b6200033d565b62000333565b9050919050565b6000819050919050565b620003848362000347565b6200039c62000393826200036f565b848454620002dd565b825550505050565b600090565b620003b3620003a4565b620003c081848462000379565b505050565b5b81811015620003e857620003dc600082620003a9565b600181019050620003c6565b5050565b601f82111562000437576200040181620002ab565b6200040c84620002c0565b810160208510156200041c578190505b620004346200042b85620002c0565b830182620003c5565b50505b505050565b600082821c905092915050565b60006200045c600019846008026200043c565b1980831691505092915050565b600062000477838362000449565b9150826002028217905092915050565b62000492826200020d565b67ffffffffffffffff811115620004ae57620004ad62000218565b5b620004ba825462000276565b620004c7828285620003ec565b600060209050601f831160018114620004ff5760008415620004ea578287015190505b620004f6858262000469565b86555062000566565b601f1984166200050f86620002ab565b60005b82811015620005395784890151825560018201915060208501945060208101905062000512565b8683101562000559578489015162000555601f89168262000449565b8355505b6001600288020188555050505b505050505050565b614d07806200057e6000396000f3fe6080604052600436106101815760003560e01c806395d89b41116100d1578063d1a88ae51161008a578063e0391b0911610064578063e0391b0914610591578063e985e9c5146105bc578063ef2d1746146105f9578063fed9736c1461062457610181565b8063d1a88ae514610500578063db4bd57c1461052b578063dfbfc2bb1461056857610181565b806395d89b411461040e5780639b1225c414610439578063a22cb46514610455578063b88d4fde1461047e578063c322579c146104a7578063c87b56dd146104c357610181565b806342842e0e1161013e57806368f1945f1161011857806368f1945f1461033e57806370a08231146103695780637d787a24146103a65780638e264590146103d157610181565b806342842e0e146102ad578063629cb2e4146102d65780636352211e1461030157610181565b806301ffc9a71461018657806306fdde03146101c3578063081812fc146101ee578063095ea7b31461022b5780631bc523871461025457806323b872dd14610284575b600080fd5b34801561019257600080fd5b506101ad60048036038101906101a89190613123565b610663565b6040516101ba919061316b565b60405180910390f35b3480156101cf57600080fd5b506101d8610745565b6040516101e59190613216565b60405180910390f35b3480156101fa57600080fd5b506102156004803603810190610210919061326e565b6107d7565b60405161022291906132dc565b60405180910390f35b34801561023757600080fd5b50610252600480360381019061024d9190613323565b61081d565b005b61026e60048036038101906102699190613560565b610934565b60405161027b91906135fa565b60405180910390f35b34801561029057600080fd5b506102ab60048036038101906102a69190613615565b610978565b005b3480156102b957600080fd5b506102d460048036038101906102cf9190613615565b6109d8565b005b3480156102e257600080fd5b506102eb6109f8565b6040516102f891906137be565b60405180910390f35b34801561030d57600080fd5b506103286004803603810190610323919061326e565b610e11565b60405161033591906132dc565b60405180910390f35b34801561034a57600080fd5b50610353610e97565b60405161036091906135fa565b60405180910390f35b34801561037557600080fd5b50610390600480360381019061038b91906137e0565b610ea1565b60405161039d91906135fa565b60405180910390f35b3480156103b257600080fd5b506103bb610f58565b6040516103c8919061386c565b60405180910390f35b3480156103dd57600080fd5b506103f860048036038101906103f3919061326e565b610f7e565b60405161040591906138ef565b60405180910390f35b34801561041a57600080fd5b50610423611086565b6040516104309190613216565b60405180910390f35b610453600480360381019061044e919061326e565b611118565b005b34801561046157600080fd5b5061047c60048036038101906104779190613936565b6111e9565b005b34801561048a57600080fd5b506104a560048036038101906104a09190613a17565b6111ff565b005b6104c160048036038101906104bc919061326e565b611261565b005b3480156104cf57600080fd5b506104ea60048036038101906104e5919061326e565b6112fb565b6040516104f79190613216565b60405180910390f35b34801561050c57600080fd5b5061051561140d565b60405161052291906138ef565b60405180910390f35b34801561053757600080fd5b50610552600480360381019061054d919061326e565b611522565b60405161055f919061316b565b60405180910390f35b34801561057457600080fd5b5061058f600480360381019061058a9190613ad6565b611581565b005b34801561059d57600080fd5b506105a66118ab565b6040516105b391906137be565b60405180910390f35b3480156105c857600080fd5b506105e360048036038101906105de9190613b16565b611a7d565b6040516105f0919061316b565b60405180910390f35b34801561060557600080fd5b5061060e611b11565b60405161061b91906135fa565b60405180910390f35b34801561063057600080fd5b5061064b60048036038101906106469190613b56565b611b22565b60405161065a93929190613ba9565b60405180910390f35b60007f80ac58cd000000000000000000000000000000000000000000000000000000007bffffffffffffffffffffffffffffffffffffffffffffffffffffffff1916827bffffffffffffffffffffffffffffffffffffffffffffffffffffffff1916148061072e57507f5b5e139f000000000000000000000000000000000000000000000000000000007bffffffffffffffffffffffffffffffffffffffffffffffffffffffff1916827bffffffffffffffffffffffffffffffffffffffffffffffffffffffff1916145b8061073e575061073d82611b83565b5b9050919050565b60606000805461075490613c0f565b80601f016020809104026020016040519081016040528092919081815260200182805461078090613c0f565b80156107cd5780601f106107a2576101008083540402835291602001916107cd565b820191906000526020600020905b8154815290600101906020018083116107b057829003601f168201915b5050505050905090565b60006107e282611bed565b6004600083815260200190815260200160002060009054906101000a900473ffffffffffffffffffffffffffffffffffffffff169050919050565b600061082882610e11565b90508073ffffffffffffffffffffffffffffffffffffffff168373ffffffffffffffffffffffffffffffffffffffff1603610898576040517f08c379a000000000000000000000000000000000000000000000000000000000815260040161088f90613cb2565b60405180910390fd5b8073ffffffffffffffffffffffffffffffffffffffff166108b7611c38565b73ffffffffffffffffffffffffffffffffffffffff1614806108e657506108e5816108e0611c38565b611a7d565b5b610925576040517f08c379a000000000000000000000000000000000000000000000000000000000815260040161091c90613d44565b60405180910390fd5b61092f8383611c40565b505050565b60006109406007611cf9565b600061094c6007611d0f565b90506109583382611d1d565b6109628186611d3b565b61096d818585611da8565b809150509392505050565b610989610983611c38565b8261221e565b6109c8576040517f08c379a00000000000000000000000000000000000000000000000000000000081526004016109bf90613dd6565b60405180910390fd5b6109d38383836122b3565b505050565b6109f3838383604051806020016040528060008152506111ff565b505050565b60606000610a066007611d0f565b9050600080600080600090505b84811015610b48573373ffffffffffffffffffffffffffffffffffffffff16600c6000600184610a439190613e25565b815260200190815260200160002060010160009054906101000a900473ffffffffffffffffffffffffffffffffffffffff1673ffffffffffffffffffffffffffffffffffffffff161480610b0457503373ffffffffffffffffffffffffffffffffffffffff16600c6000600184610aba9190613e25565b815260200190815260200160002060020160009054906101000a900473ffffffffffffffffffffffffffffffffffffffff1673ffffffffffffffffffffffffffffffffffffffff16145b80610b205750610b1f600182610b1a9190613e25565b611522565b5b15610b3557600184610b329190613e25565b93505b8080610b4090613e59565b915050610a13565b5060008367ffffffffffffffff811115610b6557610b6461336d565b5b604051908082528060200260200182016040528015610b9e57816020015b610b8b61301d565b815260200190600190039081610b835790505b50905060005b85811015610e05573373ffffffffffffffffffffffffffffffffffffffff16600c6000600184610bd49190613e25565b815260200190815260200160002060010160009054906101000a900473ffffffffffffffffffffffffffffffffffffffff1673ffffffffffffffffffffffffffffffffffffffff161480610c9557503373ffffffffffffffffffffffffffffffffffffffff16600c6000600184610c4b9190613e25565b815260200190815260200160002060020160009054906101000a900473ffffffffffffffffffffffffffffffffffffffff1673ffffffffffffffffffffffffffffffffffffffff16145b80610cb15750610cb0600182610cab9190613e25565b611522565b5b15610df257600181610cc39190613e25565b92506000600c60008581526020019081526020016000209050806040518060a0016040529081600082015481526020016001820160009054906101000a900473ffffffffffffffffffffffffffffffffffffffff1673ffffffffffffffffffffffffffffffffffffffff1673ffffffffffffffffffffffffffffffffffffffff1681526020016002820160009054906101000a900473ffffffffffffffffffffffffffffffffffffffff1673ffffffffffffffffffffffffffffffffffffffff1673ffffffffffffffffffffffffffffffffffffffff168152602001600382015481526020016004820160009054906101000a900460ff161515151581525050838681518110610dd657610dd5613ea1565b5b6020026020010181905250600185610dee9190613e25565b9450505b8080610dfd90613e59565b915050610ba4565b50809550505050505090565b600080610e1d836125ac565b9050600073ffffffffffffffffffffffffffffffffffffffff168173ffffffffffffffffffffffffffffffffffffffff1603610e8e576040517f08c379a0000000000000000000000000000000000000000000000000000000008152600401610e8590613f1c565b60405180910390fd5b80915050919050565b6000600a54905090565b60008073ffffffffffffffffffffffffffffffffffffffff168273ffffffffffffffffffffffffffffffffffffffff1603610f11576040517f08c379a0000000000000000000000000000000000000000000000000000000008152600401610f0890613fae565b60405180910390fd5b600360008373ffffffffffffffffffffffffffffffffffffffff1673ffffffffffffffffffffffffffffffffffffffff168152602001908152602001600020549050919050565b600b60009054906101000a900473ffffffffffffffffffffffffffffffffffffffff1681565b610f8661301d565b600c60008381526020019081526020016000206040518060a0016040529081600082015481526020016001820160009054906101000a900473ffffffffffffffffffffffffffffffffffffffff1673ffffffffffffffffffffffffffffffffffffffff1673ffffffffffffffffffffffffffffffffffffffff1681526020016002820160009054906101000a900473ffffffffffffffffffffffffffffffffffffffff1673ffffffffffffffffffffffffffffffffffffffff1673ffffffffffffffffffffffffffffffffffffffff168152602001600382015481526020016004820160009054906101000a900460ff1615151515815250509050919050565b60606001805461109590613c0f565b80601f01602080910402602001604051908101604052809291908181526020018280546110c190613c0f565b801561110e5780601f106110e35761010080835404028352916020019161110e565b820191906000526020600020905b8154815290600101906020018083116110f157829003601f168201915b5050505050905090565b600e60003373ffffffffffffffffffffffffffffffffffffffff1673ffffffffffffffffffffffffffffffffffffffff1681526020019081526020016000206000828152602001908152602001600020604051806060016040528042815260200160008152602001600015158152509080600181540180825580915050600190039060005260206000209060030201600090919091909150600082015181600001556020820151816001015560408201518160020160006101000a81548160ff021916908315150217905550505050565b6111fb6111f4611c38565b83836125e9565b5050565b61121061120a611c38565b8361221e565b61124f576040517f08c379a000000000000000000000000000000000000000000000000000000000815260040161124690613dd6565b60405180910390fd5b61125b84848484612755565b50505050565b3373ffffffffffffffffffffffffffffffffffffffff16600960009054906101000a900473ffffffffffffffffffffffffffffffffffffffff1673ffffffffffffffffffffffffffffffffffffffff16146112f1576040517f08c379a00000000000000000000000000000000000000000000000000000000081526004016112e890614040565b60405180910390fd5b80600a8190555050565b606061130682611bed565b600060066000848152602001908152602001600020805461132690613c0f565b80601f016020809104026020016040519081016040528092919081815260200182805461135290613c0f565b801561139f5780601f106113745761010080835404028352916020019161139f565b820191906000526020600020905b81548152906001019060200180831161138257829003601f168201915b5050505050905060006113b06127b1565b905060008151036113c5578192505050611408565b6000825111156113fa5780826040516020016113e292919061409c565b60405160208183030381529060405292505050611408565b611403846127c8565b925050505b919050565b61141561301d565b60006114216007611d0f565b9050600c60008281526020019081526020016000206040518060a0016040529081600082015481526020016001820160009054906101000a900473ffffffffffffffffffffffffffffffffffffffff1673ffffffffffffffffffffffffffffffffffffffff1673ffffffffffffffffffffffffffffffffffffffff1681526020016002820160009054906101000a900473ffffffffffffffffffffffffffffffffffffffff1673ffffffffffffffffffffffffffffffffffffffff1673ffffffffffffffffffffffffffffffffffffffff168152602001600382015481526020016004820160009054906101000a900460ff16151515158152505091505090565b600080600e60003373ffffffffffffffffffffffffffffffffffffffff1673ffffffffffffffffffffffffffffffffffffffff168152602001908152602001600020600084815260200190815260200160002080549050119050919050565b61158a82611522565b80156115b1575081600d60008363ffffffff16815260200190815260200160002060000154145b801561169b5750611695600e60003373ffffffffffffffffffffffffffffffffffffffff1673ffffffffffffffffffffffffffffffffffffffff1681526020019081526020016000206000848152602001908152602001600020805480602002602001604051908101604052809291908181526020016000905b8282101561168c578382906000526020600020906003020160405180606001604052908160008201548152602001600182015481526020016002820160009054906101000a900460ff1615151515815250508152602001906001019061162b565b50505050612830565b60400151155b6116da576040517f08c379a00000000000000000000000000000000000000000000000000000000081526004016116d19061410c565b60405180910390fd5b6000600d60008363ffffffff168152602001908152602001600020600101549050600e60003373ffffffffffffffffffffffffffffffffffffffff1673ffffffffffffffffffffffffffffffffffffffff16815260200190815260200160002060008481526020019081526020016000206040518060600160405280428152602001838152602001600115158152509080600181540180825580915050600190039060005260206000209060030201600090919091909150600082015181600001556020820151816001015560408201518160020160006101000a81548160ff0219169083151502179055505050600b60009054906101000a900473ffffffffffffffffffffffffffffffffffffffff1673ffffffffffffffffffffffffffffffffffffffff1663a9059cbb33836040518363ffffffff1660e01b815260040161182592919061412c565b6020604051808303816000875af1158015611844573d6000803e3d6000fd5b505050506040513d601f19601f82011682018060405250810190611868919061416a565b507fd3b7c92e23eceec2708293d061f2993aaa657abf4b474566027422cf5300c8b73384848460405161189e94939291906141a6565b60405180910390a1505050565b606060006118b96007611d0f565b905060008167ffffffffffffffff8111156118d7576118d661336d565b5b60405190808252806020026020018201604052801561191057816020015b6118fd61301d565b8152602001906001900390816118f55790505b50905060008080600090505b84811015611a72576001816119319190613e25565b91506000600c60008481526020019081526020016000209050806040518060a0016040529081600082015481526020016001820160009054906101000a900473ffffffffffffffffffffffffffffffffffffffff1673ffffffffffffffffffffffffffffffffffffffff1673ffffffffffffffffffffffffffffffffffffffff1681526020016002820160009054906101000a900473ffffffffffffffffffffffffffffffffffffffff1673ffffffffffffffffffffffffffffffffffffffff1673ffffffffffffffffffffffffffffffffffffffff168152602001600382015481526020016004820160009054906101000a900460ff161515151581525050858581518110611a4457611a43613ea1565b5b6020026020010181905250600184611a5c9190613e25565b9350508080611a6a90613e59565b91505061191c565b508294505050505090565b6000600560008473ffffffffffffffffffffffffffffffffffffffff1673ffffffffffffffffffffffffffffffffffffffff16815260200190815260200160002060008373ffffffffffffffffffffffffffffffffffffffff1673ffffffffffffffffffffffffffffffffffffffff16815260200190815260200160002060009054906101000a900460ff16905092915050565b6000611b1d6007611d0f565b905090565b600e6020528260005260406000206020528160005260406000208181548110611b4a57600080fd5b906000526020600020906003020160009250925050508060000154908060010154908060020160009054906101000a900460ff16905083565b60007f01ffc9a7000000000000000000000000000000000000000000000000000000007bffffffffffffffffffffffffffffffffffffffffffffffffffffffff1916827bffffffffffffffffffffffffffffffffffffffffffffffffffffffff1916149050919050565b611bf68161286d565b611c35576040517f08c379a0000000000000000000000000000000000000000000000000000000008152600401611c2c90613f1c565b60405180910390fd5b50565b600033905090565b816004600083815260200190815260200160002060006101000a81548173ffffffffffffffffffffffffffffffffffffffff021916908373ffffffffffffffffffffffffffffffffffffffff160217905550808273ffffffffffffffffffffffffffffffffffffffff16611cb383610e11565b73ffffffffffffffffffffffffffffffffffffffff167f8c5be1e5ebec7d5bd14f71427d1e84f3dd0314c0f7b2291e5b200ac8c7c3b92560405160405180910390a45050565b6001816000016000828254019250508190555050565b600081600001549050919050565b611d378282604051806020016040528060008152506128ae565b5050565b611d448261286d565b611d83576040517f08c379a0000000000000000000000000000000000000000000000000000000008152600401611d7a9061425d565b60405180910390fd5b80600660008481526020019081526020016000209081611da3919061441f565b505050565b600a543414611dec576040517f08c379a0000000000000000000000000000000000000000000000000000000008152600401611de390614563565b60405180910390fd5b60008211611e2f576040517f08c379a0000000000000000000000000000000000000000000000000000000008152600401611e26906145f5565b60405180910390fd5b6000815167ffffffffffffffff811115611e4c57611e4b61336d565b5b604051908082528060200260200182016040528015611e8557816020015b611e7261307a565b815260200190600190039081611e6a5790505b5090506000825167ffffffffffffffff811115611ea557611ea461336d565b5b604051908082528060200260200182016040528015611ed35781602001602082028036833780820191505090505b50905060005b8251811015611fcc5760006377359400424489888681518110611eff57611efe613ea1565b5b6020026020010151604051602001611f1a9493929190614636565b6040516020818303038152906040528051906020012060001c611f3d91906146b3565b9050838281518110611f5257611f51613ea1565b5b6020026020010151600d60008363ffffffff168152602001908152602001600020600082015181600001556020820151816001015590505080838381518110611f9e57611f9d613ea1565b5b602002602001019063ffffffff16908163ffffffff1681525050508080611fc490613e59565b915050611ed9565b506040518060a001604052808681526020013073ffffffffffffffffffffffffffffffffffffffff1681526020013373ffffffffffffffffffffffffffffffffffffffff16815260200185815260200160011515815250600c60008781526020019081526020016000206000820151816000015560208201518160010160006101000a81548173ffffffffffffffffffffffffffffffffffffffff021916908373ffffffffffffffffffffffffffffffffffffffff16021790555060408201518160020160006101000a81548173ffffffffffffffffffffffffffffffffffffffff021916908373ffffffffffffffffffffffffffffffffffffffff1602179055506060820151816003015560808201518160040160006101000a81548160ff021916908315150217905550905050600e60003373ffffffffffffffffffffffffffffffffffffffff1673ffffffffffffffffffffffffffffffffffffffff1681526020019081526020016000206000868152602001908152602001600020604051806060016040528042815260200160008152602001600115158152509080600181540180825580915050600190039060005260206000209060030201600090919091909150600082015181600001556020820151816001015560408201518160020160006101000a81548160ff02191690831515021790555050506121d43330876122b3565b847fc4040261f8be5adfe9bf4bf60126c3e2f41dc032e6f5ee766c828fc34cd8c0563033876001888760405161220f96959493929190614851565b60405180910390a25050505050565b60008061222a83610e11565b90508073ffffffffffffffffffffffffffffffffffffffff168473ffffffffffffffffffffffffffffffffffffffff16148061226c575061226b8185611a7d565b5b806122aa57508373ffffffffffffffffffffffffffffffffffffffff16612292846107d7565b73ffffffffffffffffffffffffffffffffffffffff16145b91505092915050565b8273ffffffffffffffffffffffffffffffffffffffff166122d382610e11565b73ffffffffffffffffffffffffffffffffffffffff1614612329576040517f08c379a000000000000000000000000000000000000000000000000000000000815260040161232090614932565b60405180910390fd5b600073ffffffffffffffffffffffffffffffffffffffff168273ffffffffffffffffffffffffffffffffffffffff1603612398576040517f08c379a000000000000000000000000000000000000000000000000000000000815260040161238f906149c4565b60405180910390fd5b6123a58383836001612909565b8273ffffffffffffffffffffffffffffffffffffffff166123c582610e11565b73ffffffffffffffffffffffffffffffffffffffff161461241b576040517f08c379a000000000000000000000000000000000000000000000000000000000815260040161241290614932565b60405180910390fd5b6004600082815260200190815260200160002060006101000a81549073ffffffffffffffffffffffffffffffffffffffff02191690556001600360008573ffffffffffffffffffffffffffffffffffffffff1673ffffffffffffffffffffffffffffffffffffffff168152602001908152602001600020600082825403925050819055506001600360008473ffffffffffffffffffffffffffffffffffffffff1673ffffffffffffffffffffffffffffffffffffffff16815260200190815260200160002060008282540192505081905550816002600083815260200190815260200160002060006101000a81548173ffffffffffffffffffffffffffffffffffffffff021916908373ffffffffffffffffffffffffffffffffffffffff160217905550808273ffffffffffffffffffffffffffffffffffffffff168473ffffffffffffffffffffffffffffffffffffffff167fddf252ad1be2c89b69c2b068fc378daa952ba7f163c4a11628f55a4df523b3ef60405160405180910390a46125a78383836001612a2f565b505050565b60006002600083815260200190815260200160002060009054906101000a900473ffffffffffffffffffffffffffffffffffffffff169050919050565b8173ffffffffffffffffffffffffffffffffffffffff168373ffffffffffffffffffffffffffffffffffffffff1603612657576040517f08c379a000000000000000000000000000000000000000000000000000000000815260040161264e90614a30565b60405180910390fd5b80600560008573ffffffffffffffffffffffffffffffffffffffff1673ffffffffffffffffffffffffffffffffffffffff16815260200190815260200160002060008473ffffffffffffffffffffffffffffffffffffffff1673ffffffffffffffffffffffffffffffffffffffff16815260200190815260200160002060006101000a81548160ff0219169083151502179055508173ffffffffffffffffffffffffffffffffffffffff168373ffffffffffffffffffffffffffffffffffffffff167f17307eab39ab6107e8899845ad3d59bd9653f200f220920489ca2b5937696c3183604051612748919061316b565b60405180910390a3505050565b6127608484846122b3565b61276c84848484612a35565b6127ab576040517f08c379a00000000000000000000000000000000000000000000000000000000081526004016127a290614ac2565b60405180910390fd5b50505050565b606060405180602001604052806000815250905090565b60606127d382611bed565b60006127dd6127b1565b905060008151116127fd5760405180602001604052806000815250612828565b8061280784612bbc565b60405160200161281892919061409c565b6040516020818303038152906040525b915050919050565b612838613094565b6000600183516128489190614ae2565b905082818151811061285d5761285c613ea1565b5b6020026020010151915050919050565b60008073ffffffffffffffffffffffffffffffffffffffff1661288f836125ac565b73ffffffffffffffffffffffffffffffffffffffff1614159050919050565b6128b88383612c8a565b6128c56000848484612a35565b612904576040517f08c379a00000000000000000000000000000000000000000000000000000000081526004016128fb90614ac2565b60405180910390fd5b505050565b6001811115612a2957600073ffffffffffffffffffffffffffffffffffffffff168473ffffffffffffffffffffffffffffffffffffffff161461299d5780600360008673ffffffffffffffffffffffffffffffffffffffff1673ffffffffffffffffffffffffffffffffffffffff16815260200190815260200160002060008282546129959190614ae2565b925050819055505b600073ffffffffffffffffffffffffffffffffffffffff168373ffffffffffffffffffffffffffffffffffffffff1614612a285780600360008573ffffffffffffffffffffffffffffffffffffffff1673ffffffffffffffffffffffffffffffffffffffff1681526020019081526020016000206000828254612a209190613e25565b925050819055505b5b50505050565b50505050565b6000612a568473ffffffffffffffffffffffffffffffffffffffff16612ea7565b15612baf578373ffffffffffffffffffffffffffffffffffffffff1663150b7a02612a7f611c38565b8786866040518563ffffffff1660e01b8152600401612aa19493929190614b6b565b6020604051808303816000875af1925050508015612add57506040513d601f19601f82011682018060405250810190612ada9190614bcc565b60015b612b5f573d8060008114612b0d576040519150601f19603f3d011682016040523d82523d6000602084013e612b12565b606091505b506000815103612b57576040517f08c379a0000000000000000000000000000000000000000000000000000000008152600401612b4e90614ac2565b60405180910390fd5b805181602001fd5b63150b7a0260e01b7bffffffffffffffffffffffffffffffffffffffffffffffffffffffff1916817bffffffffffffffffffffffffffffffffffffffffffffffffffffffff191614915050612bb4565b600190505b949350505050565b606060006001612bcb84612eca565b01905060008167ffffffffffffffff811115612bea57612be961336d565b5b6040519080825280601f01601f191660200182016040528015612c1c5781602001600182028036833780820191505090505b509050600082602001820190505b600115612c7f578080600190039150507f3031323334353637383961626364656600000000000000000000000000000000600a86061a8153600a8581612c7357612c72614684565b5b04945060008503612c2a575b819350505050919050565b600073ffffffffffffffffffffffffffffffffffffffff168273ffffffffffffffffffffffffffffffffffffffff1603612cf9576040517f08c379a0000000000000000000000000000000000000000000000000000000008152600401612cf090614c45565b60405180910390fd5b612d028161286d565b15612d42576040517f08c379a0000000000000000000000000000000000000000000000000000000008152600401612d3990614cb1565b60405180910390fd5b612d50600083836001612909565b612d598161286d565b15612d99576040517f08c379a0000000000000000000000000000000000000000000000000000000008152600401612d9090614cb1565b60405180910390fd5b6001600360008473ffffffffffffffffffffffffffffffffffffffff1673ffffffffffffffffffffffffffffffffffffffff16815260200190815260200160002060008282540192505081905550816002600083815260200190815260200160002060006101000a81548173ffffffffffffffffffffffffffffffffffffffff021916908373ffffffffffffffffffffffffffffffffffffffff160217905550808273ffffffffffffffffffffffffffffffffffffffff16600073ffffffffffffffffffffffffffffffffffffffff167fddf252ad1be2c89b69c2b068fc378daa952ba7f163c4a11628f55a4df523b3ef60405160405180910390a4612ea3600083836001612a2f565b5050565b6000808273ffffffffffffffffffffffffffffffffffffffff163b119050919050565b600080600090507a184f03e93ff9f4daa797ed6e38ed64bf6a1f0100000000000000008310612f28577a184f03e93ff9f4daa797ed6e38ed64bf6a1f0100000000000000008381612f1e57612f1d614684565b5b0492506040810190505b6d04ee2d6d415b85acef81000000008310612f65576d04ee2d6d415b85acef81000000008381612f5b57612f5a614684565b5b0492506020810190505b662386f26fc100008310612f9457662386f26fc100008381612f8a57612f89614684565b5b0492506010810190505b6305f5e1008310612fbd576305f5e1008381612fb357612fb2614684565b5b0492506008810190505b6127108310612fe2576127108381612fd857612fd7614684565b5b0492506004810190505b606483106130055760648381612ffb57612ffa614684565b5b0492506002810190505b600a8310613014576001810190505b80915050919050565b6040518060a0016040528060008152602001600073ffffffffffffffffffffffffffffffffffffffff168152602001600073ffffffffffffffffffffffffffffffffffffffff168152602001600081526020016000151581525090565b604051806040016040528060008152602001600081525090565b604051806060016040528060008152602001600081526020016000151581525090565b6000604051905090565b600080fd5b600080fd5b60007fffffffff0000000000000000000000000000000000000000000000000000000082169050919050565b613100816130cb565b811461310b57600080fd5b50565b60008135905061311d816130f7565b92915050565b600060208284031215613139576131386130c1565b5b60006131478482850161310e565b91505092915050565b60008115159050919050565b61316581613150565b82525050565b6000602082019050613180600083018461315c565b92915050565b600081519050919050565b600082825260208201905092915050565b60005b838110156131c05780820151818401526020810190506131a5565b60008484015250505050565b6000601f19601f8301169050919050565b60006131e882613186565b6131f28185613191565b93506132028185602086016131a2565b61320b816131cc565b840191505092915050565b6000602082019050818103600083015261323081846131dd565b905092915050565b6000819050919050565b61324b81613238565b811461325657600080fd5b50565b60008135905061326881613242565b92915050565b600060208284031215613284576132836130c1565b5b600061329284828501613259565b91505092915050565b600073ffffffffffffffffffffffffffffffffffffffff82169050919050565b60006132c68261329b565b9050919050565b6132d6816132bb565b82525050565b60006020820190506132f160008301846132cd565b92915050565b613300816132bb565b811461330b57600080fd5b50565b60008135905061331d816132f7565b92915050565b6000806040838503121561333a576133396130c1565b5b60006133488582860161330e565b925050602061335985828601613259565b9150509250929050565b600080fd5b600080fd5b7f4e487b7100000000000000000000000000000000000000000000000000000000600052604160045260246000fd5b6133a5826131cc565b810181811067ffffffffffffffff821117156133c4576133c361336d565b5b80604052505050565b60006133d76130b7565b90506133e3828261339c565b919050565b600067ffffffffffffffff8211156134035761340261336d565b5b61340c826131cc565b9050602081019050919050565b82818337600083830152505050565b600061343b613436846133e8565b6133cd565b90508281526020810184848401111561345757613456613368565b5b613462848285613419565b509392505050565b600082601f83011261347f5761347e613363565b5b813561348f848260208601613428565b91505092915050565b600067ffffffffffffffff8211156134b3576134b261336d565b5b602082029050602081019050919050565b600080fd5b60006134dc6134d784613498565b6133cd565b905080838252602082019050602084028301858111156134ff576134fe6134c4565b5b835b8181101561352857806135148882613259565b845260208401935050602081019050613501565b5050509392505050565b600082601f83011261354757613546613363565b5b81356135578482602086016134c9565b91505092915050565b600080600060608486031215613579576135786130c1565b5b600084013567ffffffffffffffff811115613597576135966130c6565b5b6135a38682870161346a565b93505060206135b486828701613259565b925050604084013567ffffffffffffffff8111156135d5576135d46130c6565b5b6135e186828701613532565b9150509250925092565b6135f481613238565b82525050565b600060208201905061360f60008301846135eb565b92915050565b60008060006060848603121561362e5761362d6130c1565b5b600061363c8682870161330e565b935050602061364d8682870161330e565b925050604061365e86828701613259565b9150509250925092565b600081519050919050565b600082825260208201905092915050565b6000819050602082019050919050565b61369d81613238565b82525050565b60006136ae8261329b565b9050919050565b6136be816136a3565b82525050565b6136cd81613150565b82525050565b60a0820160008201516136e96000850182613694565b5060208201516136fc60208501826136b5565b50604082015161370f60408501826136b5565b5060608201516137226060850182613694565b50608082015161373560808501826136c4565b50505050565b600061374783836136d3565b60a08301905092915050565b6000602082019050919050565b600061376b82613668565b6137758185613673565b935061378083613684565b8060005b838110156137b1578151613798888261373b565b97506137a383613753565b925050600181019050613784565b5085935050505092915050565b600060208201905081810360008301526137d88184613760565b905092915050565b6000602082840312156137f6576137f56130c1565b5b60006138048482850161330e565b91505092915050565b6000819050919050565b600061383261382d6138288461329b565b61380d565b61329b565b9050919050565b600061384482613817565b9050919050565b600061385682613839565b9050919050565b6138668161384b565b82525050565b6000602082019050613881600083018461385d565b92915050565b60a08201600082015161389d6000850182613694565b5060208201516138b060208501826136b5565b5060408201516138c360408501826136b5565b5060608201516138d66060850182613694565b5060808201516138e960808501826136c4565b50505050565b600060a0820190506139046000830184613887565b92915050565b61391381613150565b811461391e57600080fd5b50565b6000813590506139308161390a565b92915050565b6000806040838503121561394d5761394c6130c1565b5b600061395b8582860161330e565b925050602061396c85828601613921565b9150509250929050565b600067ffffffffffffffff8211156139915761399061336d565b5b61399a826131cc565b9050602081019050919050565b60006139ba6139b584613976565b6133cd565b9050828152602081018484840111156139d6576139d5613368565b5b6139e1848285613419565b509392505050565b600082601f8301126139fe576139fd613363565b5b8135613a0e8482602086016139a7565b91505092915050565b60008060008060808587031215613a3157613a306130c1565b5b6000613a3f8782880161330e565b9450506020613a508782880161330e565b9350506040613a6187828801613259565b925050606085013567ffffffffffffffff811115613a8257613a816130c6565b5b613a8e878288016139e9565b91505092959194509250565b600063ffffffff82169050919050565b613ab381613a9a565b8114613abe57600080fd5b50565b600081359050613ad081613aaa565b92915050565b60008060408385031215613aed57613aec6130c1565b5b6000613afb85828601613259565b9250506020613b0c85828601613ac1565b9150509250929050565b60008060408385031215613b2d57613b2c6130c1565b5b6000613b3b8582860161330e565b9250506020613b4c8582860161330e565b9150509250929050565b600080600060608486031215613b6f57613b6e6130c1565b5b6000613b7d8682870161330e565b9350506020613b8e86828701613259565b9250506040613b9f86828701613259565b9150509250925092565b6000606082019050613bbe60008301866135eb565b613bcb60208301856135eb565b613bd8604083018461315c565b949350505050565b7f4e487b7100000000000000000000000000000000000000000000000000000000600052602260045260246000fd5b60006002820490506001821680613c2757607f821691505b602082108103613c3a57613c39613be0565b5b50919050565b7f4552433732313a20617070726f76616c20746f2063757272656e74206f776e6560008201527f7200000000000000000000000000000000000000000000000000000000000000602082015250565b6000613c9c602183613191565b9150613ca782613c40565b604082019050919050565b60006020820190508181036000830152613ccb81613c8f565b9050919050565b7f4552433732313a20617070726f76652063616c6c6572206973206e6f7420746f60008201527f6b656e206f776e6572206f7220617070726f76656420666f7220616c6c000000602082015250565b6000613d2e603d83613191565b9150613d3982613cd2565b604082019050919050565b60006020820190508181036000830152613d5d81613d21565b9050919050565b7f4552433732313a2063616c6c6572206973206e6f7420746f6b656e206f776e6560008201527f72206f7220617070726f76656400000000000000000000000000000000000000602082015250565b6000613dc0602d83613191565b9150613dcb82613d64565b604082019050919050565b60006020820190508181036000830152613def81613db3565b9050919050565b7f4e487b7100000000000000000000000000000000000000000000000000000000600052601160045260246000fd5b6000613e3082613238565b9150613e3b83613238565b9250828201905080821115613e5357613e52613df6565b5b92915050565b6000613e6482613238565b91507fffffffffffffffffffffffffffffffffffffffffffffffffffffffffffffffff8203613e9657613e95613df6565b5b600182019050919050565b7f4e487b7100000000000000000000000000000000000000000000000000000000600052603260045260246000fd5b7f4552433732313a20696e76616c696420746f6b656e2049440000000000000000600082015250565b6000613f06601883613191565b9150613f1182613ed0565b602082019050919050565b60006020820190508181036000830152613f3581613ef9565b9050919050565b7f4552433732313a2061646472657373207a65726f206973206e6f74206120766160008201527f6c6964206f776e65720000000000000000000000000000000000000000000000602082015250565b6000613f98602983613191565b9150613fa382613f3c565b604082019050919050565b60006020820190508181036000830152613fc781613f8b565b9050919050565b7f4f6e6c79206f776e65722063616e20757064617465206c697374696e6720707260008201527f6963650000000000000000000000000000000000000000000000000000000000602082015250565b600061402a602383613191565b915061403582613fce565b604082019050919050565b600060208201905081810360008301526140598161401d565b9050919050565b600081905092915050565b600061407682613186565b6140808185614060565b93506140908185602086016131a2565b80840191505092915050565b60006140a8828561406b565b91506140b4828461406b565b91508190509392505050565b7f496e76616c69642052656465656d20436f646520666f72204e46540000000000600082015250565b60006140f6601b83613191565b9150614101826140c0565b602082019050919050565b60006020820190508181036000830152614125816140e9565b9050919050565b600060408201905061414160008301856132cd565b61414e60208301846135eb565b9392505050565b6000815190506141648161390a565b92915050565b6000602082840312156141805761417f6130c1565b5b600061418e84828501614155565b91505092915050565b6141a081613a9a565b82525050565b60006080820190506141bb60008301876132cd565b6141c860208301866135eb565b6141d56040830185614197565b6141e260608301846135eb565b95945050505050565b7f45524337323155524953746f726167653a2055524920736574206f66206e6f6e60008201527f6578697374656e7420746f6b656e000000000000000000000000000000000000602082015250565b6000614247602e83613191565b9150614252826141eb565b604082019050919050565b600060208201905081810360008301526142768161423a565b9050919050565b60008190508160005260206000209050919050565b60006020601f8301049050919050565b600082821b905092915050565b6000600883026142df7fffffffffffffffffffffffffffffffffffffffffffffffffffffffffffffffff826142a2565b6142e986836142a2565b95508019841693508086168417925050509392505050565b600061431c61431761431284613238565b61380d565b613238565b9050919050565b6000819050919050565b61433683614301565b61434a61434282614323565b8484546142af565b825550505050565b600090565b61435f614352565b61436a81848461432d565b505050565b5b8181101561438e57614383600082614357565b600181019050614370565b5050565b601f8211156143d3576143a48161427d565b6143ad84614292565b810160208510156143bc578190505b6143d06143c885614292565b83018261436f565b50505b505050565b600082821c905092915050565b60006143f6600019846008026143d8565b1980831691505092915050565b600061440f83836143e5565b9150826002028217905092915050565b61442882613186565b67ffffffffffffffff8111156144415761444061336d565b5b61444b8254613c0f565b614456828285614392565b600060209050601f8311600181146144895760008415614477578287015190505b6144818582614403565b8655506144e9565b601f1984166144978661427d565b60005b828110156144bf5784890151825560018201915060208501945060208101905061449a565b868310156144dc57848901516144d8601f8916826143e5565b8355505b6001600288020188555050505b505050505050565b7f486f706566756c6c792073656e64696e672074686520636f727265637420707260008201527f6963650000000000000000000000000000000000000000000000000000000000602082015250565b600061454d602383613191565b9150614558826144f1565b604082019050919050565b6000602082019050818103600083015261457c81614540565b9050919050565b7f4d616b652073757265207468652070726963652069736e2774206e656761746960008201527f7665000000000000000000000000000000000000000000000000000000000000602082015250565b60006145df602283613191565b91506145ea82614583565b604082019050919050565b6000602082019050818103600083015261460e816145d2565b9050919050565b6000819050919050565b61463061462b82613238565b614615565b82525050565b6000614642828761461f565b602082019150614652828661461f565b602082019150614662828561461f565b602082019150614672828461461f565b60208201915081905095945050505050565b7f4e487b7100000000000000000000000000000000000000000000000000000000600052601260045260246000fd5b60006146be82613238565b91506146c983613238565b9250826146d9576146d8614684565b5b828206905092915050565b600081519050919050565b600082825260208201905092915050565b6000819050602082019050919050565b600061471c8383613694565b60208301905092915050565b6000602082019050919050565b6000614740826146e4565b61474a81856146ef565b935061475583614700565b8060005b8381101561478657815161476d8882614710565b975061477883614728565b925050600181019050614759565b5085935050505092915050565b600081519050919050565b600082825260208201905092915050565b6000819050602082019050919050565b6147c881613a9a565b82525050565b60006147da83836147bf565b60208301905092915050565b6000602082019050919050565b60006147fe82614793565b614808818561479e565b9350614813836147af565b8060005b8381101561484457815161482b88826147ce565b9750614836836147e6565b925050600181019050614817565b5085935050505092915050565b600060c08201905061486660008301896132cd565b61487360208301886132cd565b61488060408301876135eb565b61488d606083018661315c565b818103608083015261489f8185614735565b905081810360a08301526148b381846147f3565b9050979650505050505050565b7f4552433732313a207472616e736665722066726f6d20696e636f72726563742060008201527f6f776e6572000000000000000000000000000000000000000000000000000000602082015250565b600061491c602583613191565b9150614927826148c0565b604082019050919050565b6000602082019050818103600083015261494b8161490f565b9050919050565b7f4552433732313a207472616e7366657220746f20746865207a65726f2061646460008201527f7265737300000000000000000000000000000000000000000000000000000000602082015250565b60006149ae602483613191565b91506149b982614952565b604082019050919050565b600060208201905081810360008301526149dd816149a1565b9050919050565b7f4552433732313a20617070726f766520746f2063616c6c657200000000000000600082015250565b6000614a1a601983613191565b9150614a25826149e4565b602082019050919050565b60006020820190508181036000830152614a4981614a0d565b9050919050565b7f4552433732313a207472616e7366657220746f206e6f6e20455243373231526560008201527f63656976657220696d706c656d656e7465720000000000000000000000000000602082015250565b6000614aac603283613191565b9150614ab782614a50565b604082019050919050565b60006020820190508181036000830152614adb81614a9f565b9050919050565b6000614aed82613238565b9150614af883613238565b9250828203905081811115614b1057614b0f613df6565b5b92915050565b600081519050919050565b600082825260208201905092915050565b6000614b3d82614b16565b614b478185614b21565b9350614b578185602086016131a2565b614b60816131cc565b840191505092915050565b6000608082019050614b8060008301876132cd565b614b8d60208301866132cd565b614b9a60408301856135eb565b8181036060830152614bac8184614b32565b905095945050505050565b600081519050614bc6816130f7565b92915050565b600060208284031215614be257614be16130c1565b5b6000614bf084828501614bb7565b91505092915050565b7f4552433732313a206d696e7420746f20746865207a65726f2061646472657373600082015250565b6000614c2f602083613191565b9150614c3a82614bf9565b602082019050919050565b60006020820190508181036000830152614c5e81614c22565b9050919050565b7f4552433732313a20746f6b656e20616c7265616479206d696e74656400000000600082015250565b6000614c9b601c83613191565b9150614ca682614c65565b602082019050919050565b60006020820190508181036000830152614cca81614c8e565b905091905056fea2646970667358221220996dd962b85c8065ba41d04519e686e5b591f74f333adbf4cedf29349e5fa6de64736f6c63430008110033",
  "immutableReferences": {},
  "source": "//SPDX-License-Identifier: Unlicense\r\npragma solidity ^0.8.0;\r\n\r\nimport './RWDToken.sol';\r\n\r\nimport \"@openzeppelin/contracts/utils/Counters.sol\";\r\nimport \"@openzeppelin/contracts/token/ERC721/extensions/ERC721URIStorage.sol\";\r\nimport \"@openzeppelin/contracts/token/ERC721/ERC721.sol\";\r\n\r\ncontract NFTMarketplace is ERC721URIStorage {\r\n\r\n    using Counters for Counters.Counter;\r\n    //_tokenIds variable has the most recent minted tokenId\r\n    Counters.Counter private _tokenIds;\r\n    //Keeps track of the number of items sold on the marketplace\r\n    Counters.Counter private _itemsSold;\r\n    //owner is the contract address that created the smart contract\r\n    address owner;\r\n    //The fee charged by the marketplace to be allowed to list an NFT\r\n    uint256 listPrice = 0.01 ether;\r\n    RWDToken public rwdToken;\r\n\r\n    //The structure to store info about a listed token\r\n    struct ListedToken {\r\n        uint256 tokenId;\r\n        address payable owner;\r\n        address payable seller;\r\n        uint256 price;\r\n        bool currentlyListed;\r\n    }\r\n\r\n    struct MintToken {\r\n        uint256 tokenId;\r\n        uint256 mintValue;\r\n    }\r\n\r\n    //The structure to store info mountabout a nft owner for a nft\r\n    struct NFTRedeemState {\r\n        uint issueDate;\r\n        uint256 mintValue;\r\n        bool hasRedeemed;\r\n    }\r\n\r\n    //the event emitted when a token is successfully listed\r\n    event TokenListedSuccess (\r\n        uint256 indexed tokenId,\r\n        address owner,\r\n        address seller,\r\n        uint256 price,\r\n        bool currentlyListed,\r\n        uint256[] mintVal,\r\n        uint32[] redeemCodes\r\n    );\r\n\r\n    event NFTRedeemed(address user, uint256 tokenId, uint32 redeemCode, uint256 mintValue);\r\n\r\n    //tokenId to NFT\r\n    mapping(uint256 => ListedToken) private idToListedToken;\r\n\r\n    // redeem code to mint token\r\n    mapping(uint256 => MintToken) private codeToMintToken;\r\n\r\n    //NFTOwners to NFT to NFT Redeem State\r\n    mapping (address => mapping(uint256 => NFTRedeemState[])) public nftOwners;\r\n\r\n    constructor(RWDToken _rwdToken) ERC721(\"NFTMarketplace\", \"NFTM\") {\r\n        owner = msg.sender;\r\n        rwdToken = _rwdToken;\r\n    }\r\n\r\n    function updateListPrice(uint256 _listPrice) public payable {\r\n        require(owner == msg.sender, \"Only owner can update listing price\");\r\n        listPrice = _listPrice;\r\n    }\r\n\r\n    function getListPrice() public view returns (uint256) {\r\n        return listPrice;\r\n    }\r\n\r\n    function getLatestIdToListedToken() public view returns (ListedToken memory) {\r\n        uint256 currentTokenId = _tokenIds.current();\r\n        return idToListedToken[currentTokenId];\r\n    }\r\n\r\n    function getListedTokenForId(uint256 tokenId) public view returns (ListedToken memory) {\r\n        return idToListedToken[tokenId];\r\n    }\r\n\r\n    function getCurrentToken() public view returns (uint256) {\r\n        return _tokenIds.current();\r\n    }\r\n\r\n    //The first time a token is created, it is listed here\r\n    function createToken(string memory tokenURI, uint256 price, uint256[] memory mintVal) public payable returns (uint) {\r\n        //Increment the tokenId counter, which is keeping track of the number of minted NFTs\r\n        _tokenIds.increment();\r\n        uint256 newTokenId = _tokenIds.current();\r\n\r\n        //Mint the NFT with tokenId newTokenId to the address who called createToken\r\n        _safeMint(msg.sender, newTokenId);\r\n\r\n        //Map the tokenId to the tokenURI (which is an IPFS URL with the NFT metadata)\r\n        _setTokenURI(newTokenId, tokenURI);\r\n\r\n        //Helper function to update Global variables and emit an event\r\n        createListedToken(newTokenId, price, mintVal);\r\n\r\n        return newTokenId;\r\n    }\r\n\r\n    function createListedToken(uint256 tokenId, uint256 price, uint256[] memory mintVal) private {\r\n        //Make sure the sender sent enough ETH to pay for listing\r\n        require(msg.value == listPrice, \"Hopefully sending the correct price\");\r\n        //Just sanity check\r\n        require(price > 0, \"Make sure the price isn't negative\");\r\n\r\n        /* Generate Random String Coupon code */\r\n        MintToken[] memory mintToken = new MintToken[](mintVal.length);\r\n        uint32[] memory redeemCodes = new uint32[](mintVal.length);\r\n        for(uint i = 0; i < mintToken.length; i++)\r\n        {\r\n            uint32 code = uint32(uint256(keccak256(abi.encodePacked(block.timestamp, block.difficulty, tokenId, mintVal[i])))%2000000000);\r\n            codeToMintToken[code] = mintToken[i];\r\n            redeemCodes[i] = code;\r\n        }\r\n\r\n        //Update the mapping of tokenId's to Token details, useful for retrieval functions\r\n        idToListedToken[tokenId] = ListedToken({\r\n            tokenId: tokenId,\r\n            owner: payable(address(this)),\r\n            seller: payable(msg.sender),\r\n            price: price,\r\n            currentlyListed: true\r\n        });\r\n\r\n        nftOwners[msg.sender][tokenId].push(NFTRedeemState({\r\n                issueDate: block.timestamp, \r\n                mintValue:0, \r\n                hasRedeemed: true\r\n                }));\r\n\r\n        _transfer(msg.sender, address(this), tokenId);\r\n        //Emit the event for successful transfer. The frontend parses this message and updates the end user\r\n        emit TokenListedSuccess(\r\n            tokenId,\r\n            address(this),\r\n            msg.sender,\r\n            price,\r\n            true,\r\n            mintVal,\r\n            redeemCodes\r\n        );\r\n    }\r\n    \r\n    //This will return all the NFTs currently listed to be sold on the marketplace\r\n    function getAllNFTs() public view returns (ListedToken[] memory) {\r\n        uint nftCount = _tokenIds.current();\r\n        ListedToken[] memory tokens = new ListedToken[](nftCount);\r\n        uint currentIndex = 0;\r\n        uint currentId;\r\n        //at the moment currentlyListed is true for all, if it becomes false in the future we will \r\n        //filter out currentlyListed == false over here\r\n        for(uint i = 0; i < nftCount; i++)\r\n        {\r\n            currentId = i + 1;\r\n            ListedToken storage currentItem = idToListedToken[currentId];\r\n            tokens[currentIndex] = currentItem;\r\n            currentIndex += 1;\r\n        }\r\n        //the array 'tokens' has the list of all NFTs in the marketplace\r\n        return tokens;\r\n    }\r\n    \r\n    //Returns all the NFTs that the current user is owner or seller in\r\n    function getMyNFTs() public view returns (ListedToken[] memory) {\r\n        uint totalItemCount = _tokenIds.current();\r\n        uint itemCount = 0;\r\n        uint currentIndex = 0;\r\n        uint currentId;\r\n        //Important to get a count of all the NFTs that belong to the user before we can make an array for them\r\n        for(uint i=0; i < totalItemCount; i++)\r\n        {\r\n            if(idToListedToken[i+1].owner == msg.sender || idToListedToken[i+1].seller == msg.sender || checkWalletNFT(i+1)){\r\n                itemCount += 1;\r\n            }\r\n        }\r\n\r\n        //Once you have the count of relevant NFTs, create an array then store all the NFTs in it\r\n        ListedToken[] memory items = new ListedToken[](itemCount);\r\n        for(uint i=0; i < totalItemCount; i++) {\r\n            if(idToListedToken[i+1].owner == msg.sender || idToListedToken[i+1].seller == msg.sender || checkWalletNFT(i+1)) {\r\n                currentId = i+1;\r\n                ListedToken storage currentItem = idToListedToken[currentId];\r\n                items[currentIndex] = currentItem;\r\n                currentIndex += 1;\r\n            }\r\n        }\r\n        return items;\r\n    }\r\n\r\n    function executeSale(uint256 tokenId) public payable{\r\n        // uint price = idToListedToken[tokenId].price;\r\n        // address seller = idToListedToken[tokenId].seller;\r\n        // require(msg.value == price, \"Please submit the asking price in order to complete the purchase\");\r\n\r\n        // //update the details of the token\r\n        // idToListedToken[tokenId].currentlyListed = true;\r\n        // idToListedToken[tokenId].seller = payable(msg.sender);\r\n        // _itemsSold.increment();\r\n\r\n        // //Actually transfer the token to the new owner\r\n        // _transfer(address(this), msg.sender, tokenId);\r\n        // //approve the marketplace to sell NFTs on your behalf\r\n        // approve(address(this), tokenId);\r\n\r\n        // //Transfer the listing fee to the marketplace creator\r\n        // payable(owner).transfer(listPrice);\r\n        // //Transfer the proceeds from the sale to the seller of the NFT\r\n        // payable(seller).transfer(msg.value);\r\n\r\n        nftOwners[msg.sender][tokenId].push(NFTRedeemState({\r\n                issueDate: block.timestamp, \r\n                mintValue: 0, \r\n                hasRedeemed: false\r\n                }));\r\n    }\r\n\r\n    function getLastRedeemState(NFTRedeemState[] memory redeemStates) private pure returns (NFTRedeemState memory){\r\n        uint lastIndex = redeemStates.length - 1;\r\n        return redeemStates[lastIndex];\r\n    }\r\n\r\n    function redeemNFT(uint256 tokenId, uint32 redeemCode) public{\r\n\r\n        require(checkWalletNFT(tokenId) && codeToMintToken[redeemCode].tokenId == tokenId && !getLastRedeemState(nftOwners[msg.sender][tokenId]).hasRedeemed, \"Invalid Redeem Code for NFT\");\r\n\r\n        uint256 mintValue = codeToMintToken[redeemCode].mintValue;\r\n\r\n        nftOwners[msg.sender][tokenId].push(NFTRedeemState({\r\n                issueDate: block.timestamp, \r\n                mintValue: mintValue, \r\n                hasRedeemed: true\r\n        }));\r\n\r\n        rwdToken.transfer(msg.sender, mintValue);\r\n\r\n        emit NFTRedeemed(msg.sender, tokenId, redeemCode, mintValue);\r\n    }\r\n\r\n      function checkWalletNFT(uint256 tokenId) public view returns (bool) {\r\n        return (nftOwners[msg.sender][tokenId]).length > 0;\r\n    }\r\n}",
  "sourcePath": "D:\\Documents\\Events\\2023\\2. KL Mini Hack\\polygon-zkevm-truffle\\contracts\\NFTMarketplace.sol",
  "compiler": {
    "name": "solc",
    "version": "0.8.17+commit.8df45f5f.Emscripten.clang"
  },
  "schemaVersion": "3.4.11",
  "updatedAt": "2023-02-15T09:07:02.826Z",
  "networkType": "ethereum",
  "devdoc": {
    "kind": "dev",
    "methods": {
      "approve(address,uint256)": {
        "details": "See {IERC721-approve}."
      },
      "balanceOf(address)": {
        "details": "See {IERC721-balanceOf}."
      },
      "getApproved(uint256)": {
        "details": "See {IERC721-getApproved}."
      },
      "isApprovedForAll(address,address)": {
        "details": "See {IERC721-isApprovedForAll}."
      },
      "name()": {
        "details": "See {IERC721Metadata-name}."
      },
      "ownerOf(uint256)": {
        "details": "See {IERC721-ownerOf}."
      },
      "safeTransferFrom(address,address,uint256)": {
        "details": "See {IERC721-safeTransferFrom}."
      },
      "safeTransferFrom(address,address,uint256,bytes)": {
        "details": "See {IERC721-safeTransferFrom}."
      },
      "setApprovalForAll(address,bool)": {
        "details": "See {IERC721-setApprovalForAll}."
      },
      "supportsInterface(bytes4)": {
        "details": "See {IERC165-supportsInterface}."
      },
      "symbol()": {
        "details": "See {IERC721Metadata-symbol}."
      },
      "tokenURI(uint256)": {
        "details": "See {IERC721Metadata-tokenURI}."
      },
      "transferFrom(address,address,uint256)": {
        "details": "See {IERC721-transferFrom}."
      }
    },
    "version": 1
  },
  "userdoc": {
    "kind": "user",
    "methods": {},
    "version": 1
  }
}