{
  "contractName": "NFTMarketplace",
  "abi": [
    {
      "inputs": [],
      "stateMutability": "nonpayable",
      "type": "constructor"
    },
    {
      "anonymous": false,
      "inputs": [
        {
          "indexed": true,
          "internalType": "address",
          "name": "owner",
          "type": "address"
        },
        {
          "indexed": true,
          "internalType": "address",
          "name": "approved",
          "type": "address"
        },
        {
          "indexed": true,
          "internalType": "uint256",
          "name": "tokenId",
          "type": "uint256"
        }
      ],
      "name": "Approval",
      "type": "event"
    },
    {
      "anonymous": false,
      "inputs": [
        {
          "indexed": true,
          "internalType": "address",
          "name": "owner",
          "type": "address"
        },
        {
          "indexed": true,
          "internalType": "address",
          "name": "operator",
          "type": "address"
        },
        {
          "indexed": false,
          "internalType": "bool",
          "name": "approved",
          "type": "bool"
        }
      ],
      "name": "ApprovalForAll",
      "type": "event"
    },
    {
      "anonymous": false,
      "inputs": [
        {
          "indexed": false,
          "internalType": "address",
          "name": "user",
          "type": "address"
        },
        {
          "indexed": false,
          "internalType": "uint256",
          "name": "tokenId",
          "type": "uint256"
        },
        {
          "indexed": false,
          "internalType": "uint32",
          "name": "redeemCode",
          "type": "uint32"
        }
      ],
      "name": "NFTRedeemed",
      "type": "event"
    },
    {
      "anonymous": false,
      "inputs": [
        {
          "indexed": true,
          "internalType": "uint256",
          "name": "tokenId",
          "type": "uint256"
        },
        {
          "indexed": false,
          "internalType": "address",
          "name": "owner",
          "type": "address"
        },
        {
          "indexed": false,
          "internalType": "address",
          "name": "seller",
          "type": "address"
        },
        {
          "indexed": false,
          "internalType": "uint256",
          "name": "price",
          "type": "uint256"
        },
        {
          "indexed": false,
          "internalType": "bool",
          "name": "currentlyListed",
          "type": "bool"
        }
      ],
      "name": "TokenListedSuccess",
      "type": "event"
    },
    {
      "anonymous": false,
      "inputs": [
        {
          "indexed": true,
          "internalType": "address",
          "name": "from",
          "type": "address"
        },
        {
          "indexed": true,
          "internalType": "address",
          "name": "to",
          "type": "address"
        },
        {
          "indexed": true,
          "internalType": "uint256",
          "name": "tokenId",
          "type": "uint256"
        }
      ],
      "name": "Transfer",
      "type": "event"
    },
    {
      "inputs": [
        {
          "internalType": "address",
          "name": "to",
          "type": "address"
        },
        {
          "internalType": "uint256",
          "name": "tokenId",
          "type": "uint256"
        }
      ],
      "name": "approve",
      "outputs": [],
      "stateMutability": "nonpayable",
      "type": "function"
    },
    {
      "inputs": [
        {
          "internalType": "address",
          "name": "owner",
          "type": "address"
        }
      ],
      "name": "balanceOf",
      "outputs": [
        {
          "internalType": "uint256",
          "name": "",
          "type": "uint256"
        }
      ],
      "stateMutability": "view",
      "type": "function",
      "constant": true
    },
    {
      "inputs": [
        {
          "internalType": "uint256",
          "name": "tokenId",
          "type": "uint256"
        }
      ],
      "name": "getApproved",
      "outputs": [
        {
          "internalType": "address",
          "name": "",
          "type": "address"
        }
      ],
      "stateMutability": "view",
      "type": "function",
      "constant": true
    },
    {
      "inputs": [
        {
          "internalType": "address",
          "name": "owner",
          "type": "address"
        },
        {
          "internalType": "address",
          "name": "operator",
          "type": "address"
        }
      ],
      "name": "isApprovedForAll",
      "outputs": [
        {
          "internalType": "bool",
          "name": "",
          "type": "bool"
        }
      ],
      "stateMutability": "view",
      "type": "function",
      "constant": true
    },
    {
      "inputs": [],
      "name": "name",
      "outputs": [
        {
          "internalType": "string",
          "name": "",
          "type": "string"
        }
      ],
      "stateMutability": "view",
      "type": "function",
      "constant": true
    },
    {
      "inputs": [
        {
          "internalType": "address",
          "name": "",
          "type": "address"
        },
        {
          "internalType": "uint256",
          "name": "",
          "type": "uint256"
        }
      ],
      "name": "nftOwners",
      "outputs": [
        {
          "internalType": "uint256",
          "name": "tokenId",
          "type": "uint256"
        },
        {
          "internalType": "bool",
          "name": "hasRedeemed",
          "type": "bool"
        }
      ],
      "stateMutability": "view",
      "type": "function",
      "constant": true
    },
    {
      "inputs": [
        {
          "internalType": "uint256",
          "name": "tokenId",
          "type": "uint256"
        }
      ],
      "name": "ownerOf",
      "outputs": [
        {
          "internalType": "address",
          "name": "",
          "type": "address"
        }
      ],
      "stateMutability": "view",
      "type": "function",
      "constant": true
    },
    {
      "inputs": [
        {
          "internalType": "address",
          "name": "from",
          "type": "address"
        },
        {
          "internalType": "address",
          "name": "to",
          "type": "address"
        },
        {
          "internalType": "uint256",
          "name": "tokenId",
          "type": "uint256"
        }
      ],
      "name": "safeTransferFrom",
      "outputs": [],
      "stateMutability": "nonpayable",
      "type": "function"
    },
    {
      "inputs": [
        {
          "internalType": "address",
          "name": "from",
          "type": "address"
        },
        {
          "internalType": "address",
          "name": "to",
          "type": "address"
        },
        {
          "internalType": "uint256",
          "name": "tokenId",
          "type": "uint256"
        },
        {
          "internalType": "bytes",
          "name": "data",
          "type": "bytes"
        }
      ],
      "name": "safeTransferFrom",
      "outputs": [],
      "stateMutability": "nonpayable",
      "type": "function"
    },
    {
      "inputs": [
        {
          "internalType": "address",
          "name": "operator",
          "type": "address"
        },
        {
          "internalType": "bool",
          "name": "approved",
          "type": "bool"
        }
      ],
      "name": "setApprovalForAll",
      "outputs": [],
      "stateMutability": "nonpayable",
      "type": "function"
    },
    {
      "inputs": [
        {
          "internalType": "bytes4",
          "name": "interfaceId",
          "type": "bytes4"
        }
      ],
      "name": "supportsInterface",
      "outputs": [
        {
          "internalType": "bool",
          "name": "",
          "type": "bool"
        }
      ],
      "stateMutability": "view",
      "type": "function",
      "constant": true
    },
    {
      "inputs": [],
      "name": "symbol",
      "outputs": [
        {
          "internalType": "string",
          "name": "",
          "type": "string"
        }
      ],
      "stateMutability": "view",
      "type": "function",
      "constant": true
    },
    {
      "inputs": [
        {
          "internalType": "uint256",
          "name": "tokenId",
          "type": "uint256"
        }
      ],
      "name": "tokenURI",
      "outputs": [
        {
          "internalType": "string",
          "name": "",
          "type": "string"
        }
      ],
      "stateMutability": "view",
      "type": "function",
      "constant": true
    },
    {
      "inputs": [
        {
          "internalType": "address",
          "name": "from",
          "type": "address"
        },
        {
          "internalType": "address",
          "name": "to",
          "type": "address"
        },
        {
          "internalType": "uint256",
          "name": "tokenId",
          "type": "uint256"
        }
      ],
      "name": "transferFrom",
      "outputs": [],
      "stateMutability": "nonpayable",
      "type": "function"
    },
    {
      "inputs": [
        {
          "internalType": "uint256",
          "name": "_listPrice",
          "type": "uint256"
        }
      ],
      "name": "updateListPrice",
      "outputs": [],
      "stateMutability": "payable",
      "type": "function",
      "payable": true
    },
    {
      "inputs": [],
      "name": "getListPrice",
      "outputs": [
        {
          "internalType": "uint256",
          "name": "",
          "type": "uint256"
        }
      ],
      "stateMutability": "view",
      "type": "function",
      "constant": true
    },
    {
      "inputs": [],
      "name": "getLatestIdToListedToken",
      "outputs": [
        {
          "components": [
            {
              "internalType": "uint256",
              "name": "tokenId",
              "type": "uint256"
            },
            {
              "internalType": "address payable",
              "name": "owner",
              "type": "address"
            },
            {
              "internalType": "address payable",
              "name": "seller",
              "type": "address"
            },
            {
              "internalType": "uint256",
              "name": "price",
              "type": "uint256"
            },
            {
              "internalType": "bool",
              "name": "currentlyListed",
              "type": "bool"
            },
            {
              "internalType": "uint256",
              "name": "redeemCode",
              "type": "uint256"
            }
          ],
          "internalType": "struct NFTMarketplace.ListedToken",
          "name": "",
          "type": "tuple"
        }
      ],
      "stateMutability": "view",
      "type": "function",
      "constant": true
    },
    {
      "inputs": [
        {
          "internalType": "uint256",
          "name": "tokenId",
          "type": "uint256"
        }
      ],
      "name": "getListedTokenForId",
      "outputs": [
        {
          "components": [
            {
              "internalType": "uint256",
              "name": "tokenId",
              "type": "uint256"
            },
            {
              "internalType": "address payable",
              "name": "owner",
              "type": "address"
            },
            {
              "internalType": "address payable",
              "name": "seller",
              "type": "address"
            },
            {
              "internalType": "uint256",
              "name": "price",
              "type": "uint256"
            },
            {
              "internalType": "bool",
              "name": "currentlyListed",
              "type": "bool"
            },
            {
              "internalType": "uint256",
              "name": "redeemCode",
              "type": "uint256"
            }
          ],
          "internalType": "struct NFTMarketplace.ListedToken",
          "name": "",
          "type": "tuple"
        }
      ],
      "stateMutability": "view",
      "type": "function",
      "constant": true
    },
    {
      "inputs": [],
      "name": "getCurrentToken",
      "outputs": [
        {
          "internalType": "uint256",
          "name": "",
          "type": "uint256"
        }
      ],
      "stateMutability": "view",
      "type": "function",
      "constant": true
    },
    {
      "inputs": [
        {
          "internalType": "string",
          "name": "tokenURI",
          "type": "string"
        },
        {
          "internalType": "uint256",
          "name": "price",
          "type": "uint256"
        }
      ],
      "name": "createToken",
      "outputs": [
        {
          "internalType": "uint256",
          "name": "",
          "type": "uint256"
        }
      ],
      "stateMutability": "payable",
      "type": "function",
      "payable": true
    },
    {
      "inputs": [],
      "name": "getAllNFTs",
      "outputs": [
        {
          "components": [
            {
              "internalType": "uint256",
              "name": "tokenId",
              "type": "uint256"
            },
            {
              "internalType": "address payable",
              "name": "owner",
              "type": "address"
            },
            {
              "internalType": "address payable",
              "name": "seller",
              "type": "address"
            },
            {
              "internalType": "uint256",
              "name": "price",
              "type": "uint256"
            },
            {
              "internalType": "bool",
              "name": "currentlyListed",
              "type": "bool"
            },
            {
              "internalType": "uint256",
              "name": "redeemCode",
              "type": "uint256"
            }
          ],
          "internalType": "struct NFTMarketplace.ListedToken[]",
          "name": "",
          "type": "tuple[]"
        }
      ],
      "stateMutability": "view",
      "type": "function",
      "constant": true
    },
    {
      "inputs": [],
      "name": "getMyNFTs",
      "outputs": [
        {
          "components": [
            {
              "internalType": "uint256",
              "name": "tokenId",
              "type": "uint256"
            },
            {
              "internalType": "address payable",
              "name": "owner",
              "type": "address"
            },
            {
              "internalType": "address payable",
              "name": "seller",
              "type": "address"
            },
            {
              "internalType": "uint256",
              "name": "price",
              "type": "uint256"
            },
            {
              "internalType": "bool",
              "name": "currentlyListed",
              "type": "bool"
            },
            {
              "internalType": "uint256",
              "name": "redeemCode",
              "type": "uint256"
            }
          ],
          "internalType": "struct NFTMarketplace.ListedToken[]",
          "name": "",
          "type": "tuple[]"
        }
      ],
      "stateMutability": "view",
      "type": "function",
      "constant": true
    },
    {
      "inputs": [
        {
          "internalType": "uint256",
          "name": "tokenId",
          "type": "uint256"
        }
      ],
      "name": "executeSale",
      "outputs": [],
      "stateMutability": "payable",
      "type": "function",
      "payable": true
    },
    {
      "inputs": [
        {
          "internalType": "uint256",
          "name": "tokenId",
          "type": "uint256"
        },
        {
          "internalType": "address[]",
          "name": "walletAddr",
          "type": "address[]"
        }
      ],
      "name": "issueNFT",
      "outputs": [],
      "stateMutability": "payable",
      "type": "function",
      "payable": true
    },
    {
      "inputs": [
        {
          "internalType": "uint256",
          "name": "tokenId",
          "type": "uint256"
        },
        {
          "internalType": "uint32",
          "name": "redeemCode",
          "type": "uint32"
        }
      ],
      "name": "redeemNFT",
      "outputs": [],
      "stateMutability": "nonpayable",
      "type": "function"
    }
  ],
  "bytecode": "0x6080604052662386f26fc10000600a553480156200001c57600080fd5b506040518060400160405280600e81526020017f4e46544d61726b6574706c6163650000000000000000000000000000000000008152506040518060400160405280600481526020017f4e46544d0000000000000000000000000000000000000000000000000000000081525081600090816200009a919062000370565b508060019081620000ac919062000370565b50505033600960006101000a81548173ffffffffffffffffffffffffffffffffffffffff021916908373ffffffffffffffffffffffffffffffffffffffff16021790555062000457565b600081519050919050565b7f4e487b7100000000000000000000000000000000000000000000000000000000600052604160045260246000fd5b7f4e487b7100000000000000000000000000000000000000000000000000000000600052602260045260246000fd5b600060028204905060018216806200017857607f821691505b6020821081036200018e576200018d62000130565b5b50919050565b60008190508160005260206000209050919050565b60006020601f8301049050919050565b600082821b905092915050565b600060088302620001f87fffffffffffffffffffffffffffffffffffffffffffffffffffffffffffffffff82620001b9565b620002048683620001b9565b95508019841693508086168417925050509392505050565b6000819050919050565b6000819050919050565b6000620002516200024b62000245846200021c565b62000226565b6200021c565b9050919050565b6000819050919050565b6200026d8362000230565b620002856200027c8262000258565b848454620001c6565b825550505050565b600090565b6200029c6200028d565b620002a981848462000262565b505050565b5b81811015620002d157620002c560008262000292565b600181019050620002af565b5050565b601f8211156200032057620002ea8162000194565b620002f584620001a9565b8101602085101562000305578190505b6200031d6200031485620001a9565b830182620002ae565b50505b505050565b600082821c905092915050565b6000620003456000198460080262000325565b1980831691505092915050565b600062000360838362000332565b9150826002028217905092915050565b6200037b82620000f6565b67ffffffffffffffff81111562000397576200039662000101565b5b620003a382546200015f565b620003b0828285620002d5565b600060209050601f831160018114620003e85760008415620003d3578287015190505b620003df858262000352565b8655506200044f565b601f198416620003f88662000194565b60005b828110156200042257848901518255600182019150602085019450602081019050620003fb565b868310156200044257848901516200043e601f89168262000332565b8355505b6001600288020188555050505b505050505050565b614aa880620004676000396000f3fe6080604052600436106101665760003560e01c80638e264590116100d1578063c87b56dd1161008a578063dfbfc2bb11610064578063dfbfc2bb1461053f578063e0391b0914610568578063e985e9c514610593578063ef2d1746146105d057610166565b8063c87b56dd146104bb578063d1a88ae5146104f8578063dfbb13621461052357610166565b80638e264590146103c957806395d89b41146104065780639b1225c414610431578063a22cb4651461044d578063b88d4fde14610476578063c322579c1461049f57610166565b8063629cb2e411610123578063629cb2e41461028b5780636352211e146102b657806365b7d484146102f357806368f1945f1461033157806370a082311461035c57806372b3b6201461039957610166565b806301ffc9a71461016b57806306fdde03146101a8578063081812fc146101d3578063095ea7b31461021057806323b872dd1461023957806342842e0e14610262575b600080fd5b34801561017757600080fd5b50610192600480360381019061018d9190613111565b6105fb565b60405161019f9190613159565b60405180910390f35b3480156101b457600080fd5b506101bd6106dd565b6040516101ca9190613204565b60405180910390f35b3480156101df57600080fd5b506101fa60048036038101906101f5919061325c565b61076f565b60405161020791906132ca565b60405180910390f35b34801561021c57600080fd5b5061023760048036038101906102329190613311565b6107b5565b005b34801561024557600080fd5b50610260600480360381019061025b9190613351565b6108cc565b005b34801561026e57600080fd5b5061028960048036038101906102849190613351565b61092c565b005b34801561029757600080fd5b506102a061094c565b6040516102ad919061350d565b60405180910390f35b3480156102c257600080fd5b506102dd60048036038101906102d8919061325c565b610f29565b6040516102ea91906132ca565b60405180910390f35b3480156102ff57600080fd5b5061031a60048036038101906103159190613311565b610faf565b60405161032892919061353e565b60405180910390f35b34801561033d57600080fd5b50610346610ffd565b6040516103539190613567565b60405180910390f35b34801561036857600080fd5b50610383600480360381019061037e9190613582565b611007565b6040516103909190613567565b60405180910390f35b6103b360048036038101906103ae91906136e4565b6110be565b6040516103c09190613567565b60405180910390f35b3480156103d557600080fd5b506103f060048036038101906103eb919061325c565b611100565b6040516103fd91906137bb565b60405180910390f35b34801561041257600080fd5b5061041b611212565b6040516104289190613204565b60405180910390f35b61044b6004803603810190610446919061325c565b6112a4565b005b34801561045957600080fd5b50610474600480360381019061046f9190613802565b611353565b005b34801561048257600080fd5b5061049d600480360381019061049891906138e3565b611369565b005b6104b960048036038101906104b4919061325c565b6113cb565b005b3480156104c757600080fd5b506104e260048036038101906104dd919061325c565b611465565b6040516104ef9190613204565b60405180910390f35b34801561050457600080fd5b5061050d611577565b60405161051a91906137bb565b60405180910390f35b61053d60048036038101906105389190613a2e565b611696565b005b34801561054b57600080fd5b5061056660048036038101906105619190613ac6565b611780565b005b34801561057457600080fd5b5061057d611a55565b60405161058a919061350d565b60405180910390f35b34801561059f57600080fd5b506105ba60048036038101906105b59190613b06565b611c31565b6040516105c79190613159565b60405180910390f35b3480156105dc57600080fd5b506105e5611cc5565b6040516105f29190613567565b60405180910390f35b60007f80ac58cd000000000000000000000000000000000000000000000000000000007bffffffffffffffffffffffffffffffffffffffffffffffffffffffff1916827bffffffffffffffffffffffffffffffffffffffffffffffffffffffff191614806106c657507f5b5e139f000000000000000000000000000000000000000000000000000000007bffffffffffffffffffffffffffffffffffffffffffffffffffffffff1916827bffffffffffffffffffffffffffffffffffffffffffffffffffffffff1916145b806106d657506106d582611cd6565b5b9050919050565b6060600080546106ec90613b75565b80601f016020809104026020016040519081016040528092919081815260200182805461071890613b75565b80156107655780601f1061073a57610100808354040283529160200191610765565b820191906000526020600020905b81548152906001019060200180831161074857829003601f168201915b5050505050905090565b600061077a82611d40565b6004600083815260200190815260200160002060009054906101000a900473ffffffffffffffffffffffffffffffffffffffff169050919050565b60006107c082610f29565b90508073ffffffffffffffffffffffffffffffffffffffff168373ffffffffffffffffffffffffffffffffffffffff1603610830576040517f08c379a000000000000000000000000000000000000000000000000000000000815260040161082790613c18565b60405180910390fd5b8073ffffffffffffffffffffffffffffffffffffffff1661084f611d8b565b73ffffffffffffffffffffffffffffffffffffffff16148061087e575061087d81610878611d8b565b611c31565b5b6108bd576040517f08c379a00000000000000000000000000000000000000000000000000000000081526004016108b490613caa565b60405180910390fd5b6108c78383611d93565b505050565b6108dd6108d7611d8b565b82611e4c565b61091c576040517f08c379a000000000000000000000000000000000000000000000000000000000815260040161091390613d3c565b60405180910390fd5b610927838383611ee1565b505050565b61094783838360405180602001604052806000815250611369565b505050565b6060600061095a60076121da565b9050600080600080600090505b84811015610b79573373ffffffffffffffffffffffffffffffffffffffff16600b60006001846109979190613d8b565b815260200190815260200160002060010160009054906101000a900473ffffffffffffffffffffffffffffffffffffffff1673ffffffffffffffffffffffffffffffffffffffff161480610a5857503373ffffffffffffffffffffffffffffffffffffffff16600b6000600184610a0e9190613d8b565b815260200190815260200160002060020160009054906101000a900473ffffffffffffffffffffffffffffffffffffffff1673ffffffffffffffffffffffffffffffffffffffff16145b80610b5157507fffffffffffffffffffffffffffffffffffffffffffffffffffffffffffffffff610b4e600c60003373ffffffffffffffffffffffffffffffffffffffff1673ffffffffffffffffffffffffffffffffffffffff168152602001908152602001600020805480602002602001604051908101604052809291908181526020016000905b82821015610b385783829060005260206000209060020201604051806040016040529081600082015481526020016001820160009054906101000a900460ff16151515158152505081526020019060010190610ae1565b50505050600184610b499190613d8b565b6121e8565b14155b15610b6657600184610b639190613d8b565b93505b8080610b7190613dbf565b915050610967565b5060008367ffffffffffffffff811115610b9657610b956135b9565b5b604051908082528060200260200182016040528015610bcf57816020015b610bbc613041565b815260200190600190039081610bb45790505b50905060005b85811015610f1d573373ffffffffffffffffffffffffffffffffffffffff16600b6000600184610c059190613d8b565b815260200190815260200160002060010160009054906101000a900473ffffffffffffffffffffffffffffffffffffffff1673ffffffffffffffffffffffffffffffffffffffff161480610cc657503373ffffffffffffffffffffffffffffffffffffffff16600b6000600184610c7c9190613d8b565b815260200190815260200160002060020160009054906101000a900473ffffffffffffffffffffffffffffffffffffffff1673ffffffffffffffffffffffffffffffffffffffff16145b80610dbf57507fffffffffffffffffffffffffffffffffffffffffffffffffffffffffffffffff610dbc600c60003373ffffffffffffffffffffffffffffffffffffffff1673ffffffffffffffffffffffffffffffffffffffff168152602001908152602001600020805480602002602001604051908101604052809291908181526020016000905b82821015610da65783829060005260206000209060020201604051806040016040529081600082015481526020016001820160009054906101000a900460ff16151515158152505081526020019060010190610d4f565b50505050600184610db79190613d8b565b6121e8565b14155b15610f0a57600181610dd19190613d8b565b92506000600b60008581526020019081526020016000209050806040518060c0016040529081600082015481526020016001820160009054906101000a900473ffffffffffffffffffffffffffffffffffffffff1673ffffffffffffffffffffffffffffffffffffffff1673ffffffffffffffffffffffffffffffffffffffff1681526020016002820160009054906101000a900473ffffffffffffffffffffffffffffffffffffffff1673ffffffffffffffffffffffffffffffffffffffff1673ffffffffffffffffffffffffffffffffffffffff168152602001600382015481526020016004820160009054906101000a900460ff16151515158152602001600582015481525050838681518110610eee57610eed613e07565b5b6020026020010181905250600185610f069190613d8b565b9450505b8080610f1590613dbf565b915050610bd5565b50809550505050505090565b600080610f3583612265565b9050600073ffffffffffffffffffffffffffffffffffffffff168173ffffffffffffffffffffffffffffffffffffffff1603610fa6576040517f08c379a0000000000000000000000000000000000000000000000000000000008152600401610f9d90613e82565b60405180910390fd5b80915050919050565b600c6020528160005260406000208181548110610fcb57600080fd5b9060005260206000209060020201600091509150508060000154908060010160009054906101000a900460ff16905082565b6000600a54905090565b60008073ffffffffffffffffffffffffffffffffffffffff168273ffffffffffffffffffffffffffffffffffffffff1603611077576040517f08c379a000000000000000000000000000000000000000000000000000000000815260040161106e90613f14565b60405180910390fd5b600360008373ffffffffffffffffffffffffffffffffffffffff1673ffffffffffffffffffffffffffffffffffffffff168152602001908152602001600020549050919050565b60006110ca60076122a2565b60006110d660076121da565b90506110e233826122b8565b6110ec81856122d6565b6110f68184612343565b8091505092915050565b611108613041565b600b60008381526020019081526020016000206040518060c0016040529081600082015481526020016001820160009054906101000a900473ffffffffffffffffffffffffffffffffffffffff1673ffffffffffffffffffffffffffffffffffffffff1673ffffffffffffffffffffffffffffffffffffffff1681526020016002820160009054906101000a900473ffffffffffffffffffffffffffffffffffffffff1673ffffffffffffffffffffffffffffffffffffffff1673ffffffffffffffffffffffffffffffffffffffff168152602001600382015481526020016004820160009054906101000a900460ff161515151581526020016005820154815250509050919050565b60606001805461122190613b75565b80601f016020809104026020016040519081016040528092919081815260200182805461124d90613b75565b801561129a5780601f1061126f5761010080835404028352916020019161129a565b820191906000526020600020905b81548152906001019060200180831161127d57829003601f168201915b5050505050905090565b600c60003373ffffffffffffffffffffffffffffffffffffffff1673ffffffffffffffffffffffffffffffffffffffff16815260200190815260200160002060405180604001604052808381526020016000151581525090806001815401808255809150506001900390600052602060002090600202016000909190919091506000820151816000015560208201518160010160006101000a81548160ff021916908315150217905550505050565b61136561135e611d8b565b838361264a565b5050565b61137a611374611d8b565b83611e4c565b6113b9576040517f08c379a00000000000000000000000000000000000000000000000000000000081526004016113b090613d3c565b60405180910390fd5b6113c5848484846127b6565b50505050565b3373ffffffffffffffffffffffffffffffffffffffff16600960009054906101000a900473ffffffffffffffffffffffffffffffffffffffff1673ffffffffffffffffffffffffffffffffffffffff161461145b576040517f08c379a000000000000000000000000000000000000000000000000000000000815260040161145290613fa6565b60405180910390fd5b80600a8190555050565b606061147082611d40565b600060066000848152602001908152602001600020805461149090613b75565b80601f01602080910402602001604051908101604052809291908181526020018280546114bc90613b75565b80156115095780601f106114de57610100808354040283529160200191611509565b820191906000526020600020905b8154815290600101906020018083116114ec57829003601f168201915b50505050509050600061151a612812565b9050600081510361152f578192505050611572565b60008251111561156457808260405160200161154c929190614002565b60405160208183030381529060405292505050611572565b61156d84612829565b925050505b919050565b61157f613041565b600061158b60076121da565b9050600b60008281526020019081526020016000206040518060c0016040529081600082015481526020016001820160009054906101000a900473ffffffffffffffffffffffffffffffffffffffff1673ffffffffffffffffffffffffffffffffffffffff1673ffffffffffffffffffffffffffffffffffffffff1681526020016002820160009054906101000a900473ffffffffffffffffffffffffffffffffffffffff1673ffffffffffffffffffffffffffffffffffffffff1673ffffffffffffffffffffffffffffffffffffffff168152602001600382015481526020016004820160009054906101000a900460ff1615151515815260200160058201548152505091505090565b60005b815181101561177b57600c60008383815181106116b9576116b8613e07565b5b602002602001015173ffffffffffffffffffffffffffffffffffffffff1673ffffffffffffffffffffffffffffffffffffffff16815260200190815260200160002060405180604001604052808581526020016000151581525090806001815401808255809150506001900390600052602060002090600202016000909190919091506000820151816000015560208201518160010160006101000a81548160ff0219169083151502179055505050808061177390613dbf565b915050611699565b505050565b7fffffffffffffffffffffffffffffffffffffffffffffffffffffffffffffffff611864600c60003373ffffffffffffffffffffffffffffffffffffffff1673ffffffffffffffffffffffffffffffffffffffff168152602001908152602001600020805480602002602001604051908101604052809291908181526020016000905b8282101561185a5783829060005260206000209060020201604051806040016040529081600082015481526020016001820160009054906101000a900460ff16151515158152505081526020019060010190611803565b50505050846121e8565b1415801561188d57508063ffffffff16600b600084815260200190815260200160002060050154145b6118cc576040517f08c379a00000000000000000000000000000000000000000000000000000000081526004016118c390614072565b60405180910390fd5b60005b600c60003373ffffffffffffffffffffffffffffffffffffffff1673ffffffffffffffffffffffffffffffffffffffff16815260200190815260200160002080549050811015611a505782600c60003373ffffffffffffffffffffffffffffffffffffffff1673ffffffffffffffffffffffffffffffffffffffff168152602001908152602001600020828154811061196b5761196a613e07565b5b90600052602060002090600202016000015403611a3d576001600c60003373ffffffffffffffffffffffffffffffffffffffff1673ffffffffffffffffffffffffffffffffffffffff16815260200190815260200160002082815481106119d5576119d4613e07565b5b906000526020600020906002020160010160006101000a81548160ff0219169083151502179055507f7f27d71d8b6c8eb36a3ffda0b37e8618064e1ab1b1dcd266938c94af8c7801fe338484604051611a30939291906140a1565b60405180910390a1611a50565b8080611a4890613dbf565b9150506118cf565b505050565b60606000611a6360076121da565b905060008167ffffffffffffffff811115611a8157611a806135b9565b5b604051908082528060200260200182016040528015611aba57816020015b611aa7613041565b815260200190600190039081611a9f5790505b50905060008080600090505b84811015611c2657600181611adb9190613d8b565b91506000600b60008481526020019081526020016000209050806040518060c0016040529081600082015481526020016001820160009054906101000a900473ffffffffffffffffffffffffffffffffffffffff1673ffffffffffffffffffffffffffffffffffffffff1673ffffffffffffffffffffffffffffffffffffffff1681526020016002820160009054906101000a900473ffffffffffffffffffffffffffffffffffffffff1673ffffffffffffffffffffffffffffffffffffffff1673ffffffffffffffffffffffffffffffffffffffff168152602001600382015481526020016004820160009054906101000a900460ff16151515158152602001600582015481525050858581518110611bf857611bf7613e07565b5b6020026020010181905250600184611c109190613d8b565b9350508080611c1e90613dbf565b915050611ac6565b508294505050505090565b6000600560008473ffffffffffffffffffffffffffffffffffffffff1673ffffffffffffffffffffffffffffffffffffffff16815260200190815260200160002060008373ffffffffffffffffffffffffffffffffffffffff1673ffffffffffffffffffffffffffffffffffffffff16815260200190815260200160002060009054906101000a900460ff16905092915050565b6000611cd160076121da565b905090565b60007f01ffc9a7000000000000000000000000000000000000000000000000000000007bffffffffffffffffffffffffffffffffffffffffffffffffffffffff1916827bffffffffffffffffffffffffffffffffffffffffffffffffffffffff1916149050919050565b611d4981612891565b611d88576040517f08c379a0000000000000000000000000000000000000000000000000000000008152600401611d7f90613e82565b60405180910390fd5b50565b600033905090565b816004600083815260200190815260200160002060006101000a81548173ffffffffffffffffffffffffffffffffffffffff021916908373ffffffffffffffffffffffffffffffffffffffff160217905550808273ffffffffffffffffffffffffffffffffffffffff16611e0683610f29565b73ffffffffffffffffffffffffffffffffffffffff167f8c5be1e5ebec7d5bd14f71427d1e84f3dd0314c0f7b2291e5b200ac8c7c3b92560405160405180910390a45050565b600080611e5883610f29565b90508073ffffffffffffffffffffffffffffffffffffffff168473ffffffffffffffffffffffffffffffffffffffff161480611e9a5750611e998185611c31565b5b80611ed857508373ffffffffffffffffffffffffffffffffffffffff16611ec08461076f565b73ffffffffffffffffffffffffffffffffffffffff16145b91505092915050565b8273ffffffffffffffffffffffffffffffffffffffff16611f0182610f29565b73ffffffffffffffffffffffffffffffffffffffff1614611f57576040517f08c379a0000000000000000000000000000000000000000000000000000000008152600401611f4e9061414a565b60405180910390fd5b600073ffffffffffffffffffffffffffffffffffffffff168273ffffffffffffffffffffffffffffffffffffffff1603611fc6576040517f08c379a0000000000000000000000000000000000000000000000000000000008152600401611fbd906141dc565b60405180910390fd5b611fd383838360016128d2565b8273ffffffffffffffffffffffffffffffffffffffff16611ff382610f29565b73ffffffffffffffffffffffffffffffffffffffff1614612049576040517f08c379a00000000000000000000000000000000000000000000000000000000081526004016120409061414a565b60405180910390fd5b6004600082815260200190815260200160002060006101000a81549073ffffffffffffffffffffffffffffffffffffffff02191690556001600360008573ffffffffffffffffffffffffffffffffffffffff1673ffffffffffffffffffffffffffffffffffffffff168152602001908152602001600020600082825403925050819055506001600360008473ffffffffffffffffffffffffffffffffffffffff1673ffffffffffffffffffffffffffffffffffffffff16815260200190815260200160002060008282540192505081905550816002600083815260200190815260200160002060006101000a81548173ffffffffffffffffffffffffffffffffffffffff021916908373ffffffffffffffffffffffffffffffffffffffff160217905550808273ffffffffffffffffffffffffffffffffffffffff168473ffffffffffffffffffffffffffffffffffffffff167fddf252ad1be2c89b69c2b068fc378daa952ba7f163c4a11628f55a4df523b3ef60405160405180910390a46121d583838360016129f8565b505050565b600081600001549050919050565b600080600090505b835181121561223a578284828151811061220d5761220c613e07565b5b60200260200101516000015103612227578091505061225f565b808061223290614206565b9150506121f0565b507fffffffffffffffffffffffffffffffffffffffffffffffffffffffffffffffff90505b92915050565b60006002600083815260200190815260200160002060009054906101000a900473ffffffffffffffffffffffffffffffffffffffff169050919050565b6001816000016000828254019250508190555050565b6122d28282604051806020016040528060008152506129fe565b5050565b6122df82612891565b61231e576040517f08c379a0000000000000000000000000000000000000000000000000000000008152600401612315906142c0565b60405180910390fd5b8060066000848152602001908152602001600020908161233e919061448c565b505050565b600a543414612387576040517f08c379a000000000000000000000000000000000000000000000000000000000815260040161237e906145d0565b60405180910390fd5b600081116123ca576040517f08c379a00000000000000000000000000000000000000000000000000000000081526004016123c190614662565b60405180910390fd5b600063773594004244856040516020016123e6939291906146a3565b6040516020818303038152906040528051906020012060001c612409919061470f565b90506040518060c001604052808481526020013073ffffffffffffffffffffffffffffffffffffffff1681526020013373ffffffffffffffffffffffffffffffffffffffff1681526020018381526020016001151581526020018263ffffffff16815250600b60008581526020019081526020016000206000820151816000015560208201518160010160006101000a81548173ffffffffffffffffffffffffffffffffffffffff021916908373ffffffffffffffffffffffffffffffffffffffff16021790555060408201518160020160006101000a81548173ffffffffffffffffffffffffffffffffffffffff021916908373ffffffffffffffffffffffffffffffffffffffff1602179055506060820151816003015560808201518160040160006101000a81548160ff02191690831515021790555060a08201518160050155905050600c60003373ffffffffffffffffffffffffffffffffffffffff1673ffffffffffffffffffffffffffffffffffffffff16815260200190815260200160002060405180604001604052808581526020016001151581525090806001815401808255809150506001900390600052602060002090600202016000909190919091506000820151816000015560208201518160010160006101000a81548160ff0219169083151502179055505050612606333085611ee1565b827f9339409317fd01fabff48b703019016f49159bacc801ae872d2ca637d226e4c0303385600160405161263d9493929190614740565b60405180910390a2505050565b8173ffffffffffffffffffffffffffffffffffffffff168373ffffffffffffffffffffffffffffffffffffffff16036126b8576040517f08c379a00000000000000000000000000000000000000000000000000000000081526004016126af906147d1565b60405180910390fd5b80600560008573ffffffffffffffffffffffffffffffffffffffff1673ffffffffffffffffffffffffffffffffffffffff16815260200190815260200160002060008473ffffffffffffffffffffffffffffffffffffffff1673ffffffffffffffffffffffffffffffffffffffff16815260200190815260200160002060006101000a81548160ff0219169083151502179055508173ffffffffffffffffffffffffffffffffffffffff168373ffffffffffffffffffffffffffffffffffffffff167f17307eab39ab6107e8899845ad3d59bd9653f200f220920489ca2b5937696c31836040516127a99190613159565b60405180910390a3505050565b6127c1848484611ee1565b6127cd84848484612a59565b61280c576040517f08c379a000000000000000000000000000000000000000000000000000000000815260040161280390614863565b60405180910390fd5b50505050565b606060405180602001604052806000815250905090565b606061283482611d40565b600061283e612812565b9050600081511161285e5760405180602001604052806000815250612889565b8061286884612be0565b604051602001612879929190614002565b6040516020818303038152906040525b915050919050565b60008073ffffffffffffffffffffffffffffffffffffffff166128b383612265565b73ffffffffffffffffffffffffffffffffffffffff1614159050919050565b60018111156129f257600073ffffffffffffffffffffffffffffffffffffffff168473ffffffffffffffffffffffffffffffffffffffff16146129665780600360008673ffffffffffffffffffffffffffffffffffffffff1673ffffffffffffffffffffffffffffffffffffffff168152602001908152602001600020600082825461295e9190614883565b925050819055505b600073ffffffffffffffffffffffffffffffffffffffff168373ffffffffffffffffffffffffffffffffffffffff16146129f15780600360008573ffffffffffffffffffffffffffffffffffffffff1673ffffffffffffffffffffffffffffffffffffffff16815260200190815260200160002060008282546129e99190613d8b565b925050819055505b5b50505050565b50505050565b612a088383612cae565b612a156000848484612a59565b612a54576040517f08c379a0000000000000000000000000000000000000000000000000000000008152600401612a4b90614863565b60405180910390fd5b505050565b6000612a7a8473ffffffffffffffffffffffffffffffffffffffff16612ecb565b15612bd3578373ffffffffffffffffffffffffffffffffffffffff1663150b7a02612aa3611d8b565b8786866040518563ffffffff1660e01b8152600401612ac5949392919061490c565b6020604051808303816000875af1925050508015612b0157506040513d601f19601f82011682018060405250810190612afe919061496d565b60015b612b83573d8060008114612b31576040519150601f19603f3d011682016040523d82523d6000602084013e612b36565b606091505b506000815103612b7b576040517f08c379a0000000000000000000000000000000000000000000000000000000008152600401612b7290614863565b60405180910390fd5b805181602001fd5b63150b7a0260e01b7bffffffffffffffffffffffffffffffffffffffffffffffffffffffff1916817bffffffffffffffffffffffffffffffffffffffffffffffffffffffff191614915050612bd8565b600190505b949350505050565b606060006001612bef84612eee565b01905060008167ffffffffffffffff811115612c0e57612c0d6135b9565b5b6040519080825280601f01601f191660200182016040528015612c405781602001600182028036833780820191505090505b509050600082602001820190505b600115612ca3578080600190039150507f3031323334353637383961626364656600000000000000000000000000000000600a86061a8153600a8581612c9757612c966146e0565b5b04945060008503612c4e575b819350505050919050565b600073ffffffffffffffffffffffffffffffffffffffff168273ffffffffffffffffffffffffffffffffffffffff1603612d1d576040517f08c379a0000000000000000000000000000000000000000000000000000000008152600401612d14906149e6565b60405180910390fd5b612d2681612891565b15612d66576040517f08c379a0000000000000000000000000000000000000000000000000000000008152600401612d5d90614a52565b60405180910390fd5b612d746000838360016128d2565b612d7d81612891565b15612dbd576040517f08c379a0000000000000000000000000000000000000000000000000000000008152600401612db490614a52565b60405180910390fd5b6001600360008473ffffffffffffffffffffffffffffffffffffffff1673ffffffffffffffffffffffffffffffffffffffff16815260200190815260200160002060008282540192505081905550816002600083815260200190815260200160002060006101000a81548173ffffffffffffffffffffffffffffffffffffffff021916908373ffffffffffffffffffffffffffffffffffffffff160217905550808273ffffffffffffffffffffffffffffffffffffffff16600073ffffffffffffffffffffffffffffffffffffffff167fddf252ad1be2c89b69c2b068fc378daa952ba7f163c4a11628f55a4df523b3ef60405160405180910390a4612ec76000838360016129f8565b5050565b6000808273ffffffffffffffffffffffffffffffffffffffff163b119050919050565b600080600090507a184f03e93ff9f4daa797ed6e38ed64bf6a1f0100000000000000008310612f4c577a184f03e93ff9f4daa797ed6e38ed64bf6a1f0100000000000000008381612f4257612f416146e0565b5b0492506040810190505b6d04ee2d6d415b85acef81000000008310612f89576d04ee2d6d415b85acef81000000008381612f7f57612f7e6146e0565b5b0492506020810190505b662386f26fc100008310612fb857662386f26fc100008381612fae57612fad6146e0565b5b0492506010810190505b6305f5e1008310612fe1576305f5e1008381612fd757612fd66146e0565b5b0492506008810190505b6127108310613006576127108381612ffc57612ffb6146e0565b5b0492506004810190505b60648310613029576064838161301f5761301e6146e0565b5b0492506002810190505b600a8310613038576001810190505b80915050919050565b6040518060c0016040528060008152602001600073ffffffffffffffffffffffffffffffffffffffff168152602001600073ffffffffffffffffffffffffffffffffffffffff16815260200160008152602001600015158152602001600081525090565b6000604051905090565b600080fd5b600080fd5b60007fffffffff0000000000000000000000000000000000000000000000000000000082169050919050565b6130ee816130b9565b81146130f957600080fd5b50565b60008135905061310b816130e5565b92915050565b600060208284031215613127576131266130af565b5b6000613135848285016130fc565b91505092915050565b60008115159050919050565b6131538161313e565b82525050565b600060208201905061316e600083018461314a565b92915050565b600081519050919050565b600082825260208201905092915050565b60005b838110156131ae578082015181840152602081019050613193565b60008484015250505050565b6000601f19601f8301169050919050565b60006131d682613174565b6131e0818561317f565b93506131f0818560208601613190565b6131f9816131ba565b840191505092915050565b6000602082019050818103600083015261321e81846131cb565b905092915050565b6000819050919050565b61323981613226565b811461324457600080fd5b50565b60008135905061325681613230565b92915050565b600060208284031215613272576132716130af565b5b600061328084828501613247565b91505092915050565b600073ffffffffffffffffffffffffffffffffffffffff82169050919050565b60006132b482613289565b9050919050565b6132c4816132a9565b82525050565b60006020820190506132df60008301846132bb565b92915050565b6132ee816132a9565b81146132f957600080fd5b50565b60008135905061330b816132e5565b92915050565b60008060408385031215613328576133276130af565b5b6000613336858286016132fc565b925050602061334785828601613247565b9150509250929050565b60008060006060848603121561336a576133696130af565b5b6000613378868287016132fc565b9350506020613389868287016132fc565b925050604061339a86828701613247565b9150509250925092565b600081519050919050565b600082825260208201905092915050565b6000819050602082019050919050565b6133d981613226565b82525050565b60006133ea82613289565b9050919050565b6133fa816133df565b82525050565b6134098161313e565b82525050565b60c08201600082015161342560008501826133d0565b50602082015161343860208501826133f1565b50604082015161344b60408501826133f1565b50606082015161345e60608501826133d0565b5060808201516134716080850182613400565b5060a082015161348460a08501826133d0565b50505050565b6000613496838361340f565b60c08301905092915050565b6000602082019050919050565b60006134ba826133a4565b6134c481856133af565b93506134cf836133c0565b8060005b838110156135005781516134e7888261348a565b97506134f2836134a2565b9250506001810190506134d3565b5085935050505092915050565b6000602082019050818103600083015261352781846134af565b905092915050565b61353881613226565b82525050565b6000604082019050613553600083018561352f565b613560602083018461314a565b9392505050565b600060208201905061357c600083018461352f565b92915050565b600060208284031215613598576135976130af565b5b60006135a6848285016132fc565b91505092915050565b600080fd5b600080fd5b7f4e487b7100000000000000000000000000000000000000000000000000000000600052604160045260246000fd5b6135f1826131ba565b810181811067ffffffffffffffff821117156136105761360f6135b9565b5b80604052505050565b60006136236130a5565b905061362f82826135e8565b919050565b600067ffffffffffffffff82111561364f5761364e6135b9565b5b613658826131ba565b9050602081019050919050565b82818337600083830152505050565b600061368761368284613634565b613619565b9050828152602081018484840111156136a3576136a26135b4565b5b6136ae848285613665565b509392505050565b600082601f8301126136cb576136ca6135af565b5b81356136db848260208601613674565b91505092915050565b600080604083850312156136fb576136fa6130af565b5b600083013567ffffffffffffffff811115613719576137186130b4565b5b613725858286016136b6565b925050602061373685828601613247565b9150509250929050565b60c08201600082015161375660008501826133d0565b50602082015161376960208501826133f1565b50604082015161377c60408501826133f1565b50606082015161378f60608501826133d0565b5060808201516137a26080850182613400565b5060a08201516137b560a08501826133d0565b50505050565b600060c0820190506137d06000830184613740565b92915050565b6137df8161313e565b81146137ea57600080fd5b50565b6000813590506137fc816137d6565b92915050565b60008060408385031215613819576138186130af565b5b6000613827858286016132fc565b9250506020613838858286016137ed565b9150509250929050565b600067ffffffffffffffff82111561385d5761385c6135b9565b5b613866826131ba565b9050602081019050919050565b600061388661388184613842565b613619565b9050828152602081018484840111156138a2576138a16135b4565b5b6138ad848285613665565b509392505050565b600082601f8301126138ca576138c96135af565b5b81356138da848260208601613873565b91505092915050565b600080600080608085870312156138fd576138fc6130af565b5b600061390b878288016132fc565b945050602061391c878288016132fc565b935050604061392d87828801613247565b925050606085013567ffffffffffffffff81111561394e5761394d6130b4565b5b61395a878288016138b5565b91505092959194509250565b600067ffffffffffffffff821115613981576139806135b9565b5b602082029050602081019050919050565b600080fd5b60006139aa6139a584613966565b613619565b905080838252602082019050602084028301858111156139cd576139cc613992565b5b835b818110156139f657806139e288826132fc565b8452602084019350506020810190506139cf565b5050509392505050565b600082601f830112613a1557613a146135af565b5b8135613a25848260208601613997565b91505092915050565b60008060408385031215613a4557613a446130af565b5b6000613a5385828601613247565b925050602083013567ffffffffffffffff811115613a7457613a736130b4565b5b613a8085828601613a00565b9150509250929050565b600063ffffffff82169050919050565b613aa381613a8a565b8114613aae57600080fd5b50565b600081359050613ac081613a9a565b92915050565b60008060408385031215613add57613adc6130af565b5b6000613aeb85828601613247565b9250506020613afc85828601613ab1565b9150509250929050565b60008060408385031215613b1d57613b1c6130af565b5b6000613b2b858286016132fc565b9250506020613b3c858286016132fc565b9150509250929050565b7f4e487b7100000000000000000000000000000000000000000000000000000000600052602260045260246000fd5b60006002820490506001821680613b8d57607f821691505b602082108103613ba057613b9f613b46565b5b50919050565b7f4552433732313a20617070726f76616c20746f2063757272656e74206f776e6560008201527f7200000000000000000000000000000000000000000000000000000000000000602082015250565b6000613c0260218361317f565b9150613c0d82613ba6565b604082019050919050565b60006020820190508181036000830152613c3181613bf5565b9050919050565b7f4552433732313a20617070726f76652063616c6c6572206973206e6f7420746f60008201527f6b656e206f776e6572206f7220617070726f76656420666f7220616c6c000000602082015250565b6000613c94603d8361317f565b9150613c9f82613c38565b604082019050919050565b60006020820190508181036000830152613cc381613c87565b9050919050565b7f4552433732313a2063616c6c6572206973206e6f7420746f6b656e206f776e6560008201527f72206f7220617070726f76656400000000000000000000000000000000000000602082015250565b6000613d26602d8361317f565b9150613d3182613cca565b604082019050919050565b60006020820190508181036000830152613d5581613d19565b9050919050565b7f4e487b7100000000000000000000000000000000000000000000000000000000600052601160045260246000fd5b6000613d9682613226565b9150613da183613226565b9250828201905080821115613db957613db8613d5c565b5b92915050565b6000613dca82613226565b91507fffffffffffffffffffffffffffffffffffffffffffffffffffffffffffffffff8203613dfc57613dfb613d5c565b5b600182019050919050565b7f4e487b7100000000000000000000000000000000000000000000000000000000600052603260045260246000fd5b7f4552433732313a20696e76616c696420746f6b656e2049440000000000000000600082015250565b6000613e6c60188361317f565b9150613e7782613e36565b602082019050919050565b60006020820190508181036000830152613e9b81613e5f565b9050919050565b7f4552433732313a2061646472657373207a65726f206973206e6f74206120766160008201527f6c6964206f776e65720000000000000000000000000000000000000000000000602082015250565b6000613efe60298361317f565b9150613f0982613ea2565b604082019050919050565b60006020820190508181036000830152613f2d81613ef1565b9050919050565b7f4f6e6c79206f776e65722063616e20757064617465206c697374696e6720707260008201527f6963650000000000000000000000000000000000000000000000000000000000602082015250565b6000613f9060238361317f565b9150613f9b82613f34565b604082019050919050565b60006020820190508181036000830152613fbf81613f83565b9050919050565b600081905092915050565b6000613fdc82613174565b613fe68185613fc6565b9350613ff6818560208601613190565b80840191505092915050565b600061400e8285613fd1565b915061401a8284613fd1565b91508190509392505050565b7f496e76616c69642052656465656d20436f646520666f72204e46540000000000600082015250565b600061405c601b8361317f565b915061406782614026565b602082019050919050565b6000602082019050818103600083015261408b8161404f565b9050919050565b61409b81613a8a565b82525050565b60006060820190506140b660008301866132bb565b6140c3602083018561352f565b6140d06040830184614092565b949350505050565b7f4552433732313a207472616e736665722066726f6d20696e636f72726563742060008201527f6f776e6572000000000000000000000000000000000000000000000000000000602082015250565b600061413460258361317f565b915061413f826140d8565b604082019050919050565b6000602082019050818103600083015261416381614127565b9050919050565b7f4552433732313a207472616e7366657220746f20746865207a65726f2061646460008201527f7265737300000000000000000000000000000000000000000000000000000000602082015250565b60006141c660248361317f565b91506141d18261416a565b604082019050919050565b600060208201905081810360008301526141f5816141b9565b9050919050565b6000819050919050565b6000614211826141fc565b91507f7fffffffffffffffffffffffffffffffffffffffffffffffffffffffffffffff820361424357614242613d5c565b5b600182019050919050565b7f45524337323155524953746f726167653a2055524920736574206f66206e6f6e60008201527f6578697374656e7420746f6b656e000000000000000000000000000000000000602082015250565b60006142aa602e8361317f565b91506142b58261424e565b604082019050919050565b600060208201905081810360008301526142d98161429d565b9050919050565b60008190508160005260206000209050919050565b60006020601f8301049050919050565b600082821b905092915050565b6000600883026143427fffffffffffffffffffffffffffffffffffffffffffffffffffffffffffffffff82614305565b61434c8683614305565b95508019841693508086168417925050509392505050565b6000819050919050565b600061438961438461437f84613226565b614364565b613226565b9050919050565b6000819050919050565b6143a38361436e565b6143b76143af82614390565b848454614312565b825550505050565b600090565b6143cc6143bf565b6143d781848461439a565b505050565b5b818110156143fb576143f06000826143c4565b6001810190506143dd565b5050565b601f82111561444057614411816142e0565b61441a846142f5565b81016020851015614429578190505b61443d614435856142f5565b8301826143dc565b50505b505050565b600082821c905092915050565b600061446360001984600802614445565b1980831691505092915050565b600061447c8383614452565b9150826002028217905092915050565b61449582613174565b67ffffffffffffffff8111156144ae576144ad6135b9565b5b6144b88254613b75565b6144c38282856143ff565b600060209050601f8311600181146144f657600084156144e4578287015190505b6144ee8582614470565b865550614556565b601f198416614504866142e0565b60005b8281101561452c57848901518255600182019150602085019450602081019050614507565b868310156145495784890151614545601f891682614452565b8355505b6001600288020188555050505b505050505050565b7f486f706566756c6c792073656e64696e672074686520636f727265637420707260008201527f6963650000000000000000000000000000000000000000000000000000000000602082015250565b60006145ba60238361317f565b91506145c58261455e565b604082019050919050565b600060208201905081810360008301526145e9816145ad565b9050919050565b7f4d616b652073757265207468652070726963652069736e2774206e656761746960008201527f7665000000000000000000000000000000000000000000000000000000000000602082015250565b600061464c60228361317f565b9150614657826145f0565b604082019050919050565b6000602082019050818103600083015261467b8161463f565b9050919050565b6000819050919050565b61469d61469882613226565b614682565b82525050565b60006146af828661468c565b6020820191506146bf828561468c565b6020820191506146cf828461468c565b602082019150819050949350505050565b7f4e487b7100000000000000000000000000000000000000000000000000000000600052601260045260246000fd5b600061471a82613226565b915061472583613226565b925082614735576147346146e0565b5b828206905092915050565b600060808201905061475560008301876132bb565b61476260208301866132bb565b61476f604083018561352f565b61477c606083018461314a565b95945050505050565b7f4552433732313a20617070726f766520746f2063616c6c657200000000000000600082015250565b60006147bb60198361317f565b91506147c682614785565b602082019050919050565b600060208201905081810360008301526147ea816147ae565b9050919050565b7f4552433732313a207472616e7366657220746f206e6f6e20455243373231526560008201527f63656976657220696d706c656d656e7465720000000000000000000000000000602082015250565b600061484d60328361317f565b9150614858826147f1565b604082019050919050565b6000602082019050818103600083015261487c81614840565b9050919050565b600061488e82613226565b915061489983613226565b92508282039050818111156148b1576148b0613d5c565b5b92915050565b600081519050919050565b600082825260208201905092915050565b60006148de826148b7565b6148e881856148c2565b93506148f8818560208601613190565b614901816131ba565b840191505092915050565b600060808201905061492160008301876132bb565b61492e60208301866132bb565b61493b604083018561352f565b818103606083015261494d81846148d3565b905095945050505050565b600081519050614967816130e5565b92915050565b600060208284031215614983576149826130af565b5b600061499184828501614958565b91505092915050565b7f4552433732313a206d696e7420746f20746865207a65726f2061646472657373600082015250565b60006149d060208361317f565b91506149db8261499a565b602082019050919050565b600060208201905081810360008301526149ff816149c3565b9050919050565b7f4552433732313a20746f6b656e20616c7265616479206d696e74656400000000600082015250565b6000614a3c601c8361317f565b9150614a4782614a06565b602082019050919050565b60006020820190508181036000830152614a6b81614a2f565b905091905056fea2646970667358221220dfe8efb89d53b7aa2527d76a5368e53c6c558cca6e2c0812a95d01e330877b7a64736f6c63430008110033",
  "immutableReferences": {},
  "source": "//SPDX-License-Identifier: Unlicense\r\npragma solidity ^0.8.0;\r\n\r\nimport \"@openzeppelin/contracts/utils/Counters.sol\";\r\nimport \"@openzeppelin/contracts/token/ERC721/extensions/ERC721URIStorage.sol\";\r\nimport \"@openzeppelin/contracts/token/ERC721/ERC721.sol\";\r\n\r\ncontract NFTMarketplace is ERC721URIStorage {\r\n\r\n    using Counters for Counters.Counter;\r\n    //_tokenIds variable has the most recent minted tokenId\r\n    Counters.Counter private _tokenIds;\r\n    //Keeps track of the number of items sold on the marketplace\r\n    Counters.Counter private _itemsSold;\r\n    //owner is the contract address that created the smart contract\r\n    address payable owner;\r\n    //The fee charged by the marketplace to be allowed to list an NFT\r\n    uint256 listPrice = 0.01 ether;\r\n\r\n    //The structure to store info about a listed token\r\n    struct ListedToken {\r\n        uint256 tokenId;\r\n        address payable owner;\r\n        address payable seller;\r\n        uint256 price;\r\n        bool currentlyListed;\r\n        uint redeemCode;\r\n    }\r\n\r\n    //The structure to store info mountabout a nft owner for a nft\r\n    struct NFTRedeemState {\r\n        uint256 tokenId;\r\n        bool hasRedeemed;\r\n    }\r\n\r\n    //the event emitted when a token is successfully listed\r\n    event TokenListedSuccess (\r\n        uint256 indexed tokenId,\r\n        address owner,\r\n        address seller,\r\n        uint256 price,\r\n        bool currentlyListed\r\n    );\r\n\r\n    event NFTRedeemed(address user, uint256 tokenId, uint32 redeemCode);\r\n\r\n    //tokenId to NFT\r\n    mapping(uint256 => ListedToken) private idToListedToken;\r\n\r\n    //NFTOwners to NFT Redeem State\r\n    mapping (address => NFTRedeemState[]) public nftOwners;\r\n\r\n    constructor() ERC721(\"NFTMarketplace\", \"NFTM\") {\r\n        owner = payable(msg.sender);\r\n    }\r\n\r\n    function updateListPrice(uint256 _listPrice) public payable {\r\n        require(owner == msg.sender, \"Only owner can update listing price\");\r\n        listPrice = _listPrice;\r\n    }\r\n\r\n    function getListPrice() public view returns (uint256) {\r\n        return listPrice;\r\n    }\r\n\r\n    function getLatestIdToListedToken() public view returns (ListedToken memory) {\r\n        uint256 currentTokenId = _tokenIds.current();\r\n        return idToListedToken[currentTokenId];\r\n    }\r\n\r\n    function getListedTokenForId(uint256 tokenId) public view returns (ListedToken memory) {\r\n        return idToListedToken[tokenId];\r\n    }\r\n\r\n    function getCurrentToken() public view returns (uint256) {\r\n        return _tokenIds.current();\r\n    }\r\n\r\n    //The first time a token is created, it is listed here\r\n    function createToken(string memory tokenURI, uint256 price) public payable returns (uint) {\r\n        //Increment the tokenId counter, which is keeping track of the number of minted NFTs\r\n        _tokenIds.increment();\r\n        uint256 newTokenId = _tokenIds.current();\r\n\r\n        //Mint the NFT with tokenId newTokenId to the address who called createToken\r\n        _safeMint(msg.sender, newTokenId);\r\n\r\n        //Map the tokenId to the tokenURI (which is an IPFS URL with the NFT metadata)\r\n        _setTokenURI(newTokenId, tokenURI);\r\n\r\n        //Helper function to update Global variables and emit an event\r\n        createListedToken(newTokenId, price);\r\n\r\n        return newTokenId;\r\n    }\r\n\r\n    function createListedToken(uint256 tokenId, uint256 price) private {\r\n        //Make sure the sender sent enough ETH to pay for listing\r\n        require(msg.value == listPrice, \"Hopefully sending the correct price\");\r\n        //Just sanity check\r\n        require(price > 0, \"Make sure the price isn't negative\");\r\n\r\n        /* Generate Random String Coupon code */\r\n        uint32 code = uint32(uint256(keccak256(abi.encodePacked(block.timestamp, block.difficulty, tokenId)))%2000000000);\r\n\r\n        //Update the mapping of tokenId's to Token details, useful for retrieval functions\r\n        idToListedToken[tokenId] = ListedToken(\r\n            tokenId,\r\n            payable(address(this)),\r\n            payable(msg.sender),\r\n            price,\r\n            true,\r\n            code\r\n        );\r\n\r\n        nftOwners[msg.sender].push(NFTRedeemState({\r\n                tokenId: tokenId, \r\n                hasRedeemed: true\r\n                }));\r\n\r\n        _transfer(msg.sender, address(this), tokenId);\r\n        //Emit the event for successful transfer. The frontend parses this message and updates the end user\r\n        emit TokenListedSuccess(\r\n            tokenId,\r\n            address(this),\r\n            msg.sender,\r\n            price,\r\n            true\r\n        );\r\n    }\r\n    \r\n    //This will return all the NFTs currently listed to be sold on the marketplace\r\n    function getAllNFTs() public view returns (ListedToken[] memory) {\r\n        uint nftCount = _tokenIds.current();\r\n        ListedToken[] memory tokens = new ListedToken[](nftCount);\r\n        uint currentIndex = 0;\r\n        uint currentId;\r\n        //at the moment currentlyListed is true for all, if it becomes false in the future we will \r\n        //filter out currentlyListed == false over here\r\n        for(uint i = 0;i < nftCount; i++)\r\n        {\r\n            currentId = i + 1;\r\n            ListedToken storage currentItem = idToListedToken[currentId];\r\n            tokens[currentIndex] = currentItem;\r\n            currentIndex += 1;\r\n        }\r\n        //the array 'tokens' has the list of all NFTs in the marketplace\r\n        return tokens;\r\n    }\r\n    \r\n    //Returns all the NFTs that the current user is owner or seller in\r\n    function getMyNFTs() public view returns (ListedToken[] memory) {\r\n        uint totalItemCount = _tokenIds.current();\r\n        uint itemCount = 0;\r\n        uint currentIndex = 0;\r\n        uint currentId;\r\n        //Important to get a count of all the NFTs that belong to the user before we can make an array for them\r\n        for(uint i=0; i < totalItemCount; i++)\r\n        {\r\n            if(idToListedToken[i+1].owner == msg.sender || idToListedToken[i+1].seller == msg.sender || indexOf(nftOwners[msg.sender], i+1) != -1){\r\n                itemCount += 1;\r\n            }\r\n        }\r\n\r\n        //Once you have the count of relevant NFTs, create an array then store all the NFTs in it\r\n        ListedToken[] memory items = new ListedToken[](itemCount);\r\n        for(uint i=0; i < totalItemCount; i++) {\r\n            if(idToListedToken[i+1].owner == msg.sender || idToListedToken[i+1].seller == msg.sender || indexOf(nftOwners[msg.sender], i+1) != -1) {\r\n                currentId = i+1;\r\n                ListedToken storage currentItem = idToListedToken[currentId];\r\n                items[currentIndex] = currentItem;\r\n                currentIndex += 1;\r\n            }\r\n        }\r\n        return items;\r\n    }\r\n\r\n    function executeSale(uint256 tokenId) public payable {\r\n        // uint price = idToListedToken[tokenId].price;\r\n        // address seller = idToListedToken[tokenId].seller;\r\n        // require(msg.value == price, \"Please submit the asking price in order to complete the purchase\");\r\n\r\n        // //update the details of the token\r\n        // idToListedToken[tokenId].currentlyListed = true;\r\n        // idToListedToken[tokenId].seller = payable(msg.sender);\r\n        // _itemsSold.increment();\r\n\r\n        // //Actually transfer the token to the new owner\r\n        // _transfer(address(this), msg.sender, tokenId);\r\n        // //approve the marketplace to sell NFTs on your behalf\r\n        // approve(address(this), tokenId);\r\n\r\n        // //Transfer the listing fee to the marketplace creator\r\n        // payable(owner).transfer(listPrice);\r\n        // //Transfer the proceeds from the sale to the seller of the NFT\r\n        // payable(seller).transfer(msg.value);\r\n\r\n        nftOwners[msg.sender].push(NFTRedeemState({\r\n                tokenId: tokenId, \r\n                hasRedeemed: false\r\n                }));\r\n    }\r\n\r\n    function issueNFT(uint256 tokenId, address[] memory walletAddr) public payable{\r\n        for (uint i = 0; i < walletAddr.length; i++){\r\n            nftOwners[walletAddr[i]].push(NFTRedeemState({\r\n                    tokenId: tokenId, \r\n                    hasRedeemed: false\r\n                    }));\r\n        }\r\n    }\r\n\r\n    function redeemNFT(uint256 tokenId, uint32 redeemCode) public {\r\n        require(indexOf(nftOwners[msg.sender], tokenId) != -1 && idToListedToken[tokenId].redeemCode == redeemCode, \"Invalid Redeem Code for NFT\");\r\n        for (uint i = 0; i < nftOwners[msg.sender].length; i++){\r\n            if (nftOwners[msg.sender][i].tokenId == tokenId){\r\n                nftOwners[msg.sender][i].hasRedeemed = true;\r\n                emit NFTRedeemed(msg.sender, tokenId, redeemCode);\r\n                break;\r\n            }\r\n        }\r\n    }\r\n\r\n    function indexOf(NFTRedeemState[] memory nftOwned, uint256 tokenId) private pure returns (int) {\r\n        for (int i = 0; i < int(nftOwned.length); i++) {\r\n            if (nftOwned[uint(i)].tokenId == tokenId) {\r\n                return i;\r\n            }\r\n        }\r\n        return -1;\r\n    }\r\n}",
  "sourcePath": "D:\\Documents\\Events\\2023\\2. KL Mini Hack\\polygon-zkevm-truffle\\contracts\\NFTMarketplace.sol",
  "compiler": {
    "name": "solc",
    "version": "0.8.17+commit.8df45f5f.Emscripten.clang"
  },
  "schemaVersion": "3.4.11",
  "updatedAt": "2023-02-15T04:45:24.055Z",
  "networkType": "ethereum",
  "devdoc": {
    "kind": "dev",
    "methods": {
      "approve(address,uint256)": {
        "details": "See {IERC721-approve}."
      },
      "balanceOf(address)": {
        "details": "See {IERC721-balanceOf}."
      },
      "getApproved(uint256)": {
        "details": "See {IERC721-getApproved}."
      },
      "isApprovedForAll(address,address)": {
        "details": "See {IERC721-isApprovedForAll}."
      },
      "name()": {
        "details": "See {IERC721Metadata-name}."
      },
      "ownerOf(uint256)": {
        "details": "See {IERC721-ownerOf}."
      },
      "safeTransferFrom(address,address,uint256)": {
        "details": "See {IERC721-safeTransferFrom}."
      },
      "safeTransferFrom(address,address,uint256,bytes)": {
        "details": "See {IERC721-safeTransferFrom}."
      },
      "setApprovalForAll(address,bool)": {
        "details": "See {IERC721-setApprovalForAll}."
      },
      "supportsInterface(bytes4)": {
        "details": "See {IERC165-supportsInterface}."
      },
      "symbol()": {
        "details": "See {IERC721Metadata-symbol}."
      },
      "tokenURI(uint256)": {
        "details": "See {IERC721Metadata-tokenURI}."
      },
      "transferFrom(address,address,uint256)": {
        "details": "See {IERC721-transferFrom}."
      }
    },
    "version": 1
  },
  "userdoc": {
    "kind": "user",
    "methods": {},
    "version": 1
  }
}