{
  "contractName": "NFTMarketplace",
  "abi": [
    {
      "inputs": [
        {
          "internalType": "contract RWDToken",
          "name": "_rwdToken",
          "type": "address"
        }
      ],
      "stateMutability": "nonpayable",
      "type": "constructor"
    },
    {
      "anonymous": false,
      "inputs": [
        {
          "indexed": true,
          "internalType": "address",
          "name": "owner",
          "type": "address"
        },
        {
          "indexed": true,
          "internalType": "address",
          "name": "approved",
          "type": "address"
        },
        {
          "indexed": true,
          "internalType": "uint256",
          "name": "tokenId",
          "type": "uint256"
        }
      ],
      "name": "Approval",
      "type": "event"
    },
    {
      "anonymous": false,
      "inputs": [
        {
          "indexed": true,
          "internalType": "address",
          "name": "owner",
          "type": "address"
        },
        {
          "indexed": true,
          "internalType": "address",
          "name": "operator",
          "type": "address"
        },
        {
          "indexed": false,
          "internalType": "bool",
          "name": "approved",
          "type": "bool"
        }
      ],
      "name": "ApprovalForAll",
      "type": "event"
    },
    {
      "anonymous": false,
      "inputs": [
        {
          "indexed": false,
          "internalType": "address",
          "name": "user",
          "type": "address"
        },
        {
          "indexed": false,
          "internalType": "uint256",
          "name": "tokenId",
          "type": "uint256"
        },
        {
          "indexed": false,
          "internalType": "uint32",
          "name": "redeemCode",
          "type": "uint32"
        },
        {
          "indexed": false,
          "internalType": "uint256",
          "name": "mintValue",
          "type": "uint256"
        }
      ],
      "name": "NFTRedeemed",
      "type": "event"
    },
    {
      "anonymous": false,
      "inputs": [
        {
          "indexed": true,
          "internalType": "uint256",
          "name": "tokenId",
          "type": "uint256"
        },
        {
          "indexed": false,
          "internalType": "address",
          "name": "owner",
          "type": "address"
        },
        {
          "indexed": false,
          "internalType": "address",
          "name": "seller",
          "type": "address"
        },
        {
          "indexed": false,
          "internalType": "uint256",
          "name": "price",
          "type": "uint256"
        },
        {
          "indexed": false,
          "internalType": "bool",
          "name": "currentlyListed",
          "type": "bool"
        },
        {
          "indexed": false,
          "internalType": "uint256[]",
          "name": "mintVal",
          "type": "uint256[]"
        },
        {
          "indexed": false,
          "internalType": "uint32[]",
          "name": "redeemCodes",
          "type": "uint32[]"
        }
      ],
      "name": "TokenListedSuccess",
      "type": "event"
    },
    {
      "anonymous": false,
      "inputs": [
        {
          "indexed": true,
          "internalType": "address",
          "name": "from",
          "type": "address"
        },
        {
          "indexed": true,
          "internalType": "address",
          "name": "to",
          "type": "address"
        },
        {
          "indexed": true,
          "internalType": "uint256",
          "name": "tokenId",
          "type": "uint256"
        }
      ],
      "name": "Transfer",
      "type": "event"
    },
    {
      "inputs": [
        {
          "internalType": "address",
          "name": "to",
          "type": "address"
        },
        {
          "internalType": "uint256",
          "name": "tokenId",
          "type": "uint256"
        }
      ],
      "name": "approve",
      "outputs": [],
      "stateMutability": "nonpayable",
      "type": "function"
    },
    {
      "inputs": [
        {
          "internalType": "address",
          "name": "owner",
          "type": "address"
        }
      ],
      "name": "balanceOf",
      "outputs": [
        {
          "internalType": "uint256",
          "name": "",
          "type": "uint256"
        }
      ],
      "stateMutability": "view",
      "type": "function",
      "constant": true
    },
    {
      "inputs": [
        {
          "internalType": "uint256",
          "name": "tokenId",
          "type": "uint256"
        }
      ],
      "name": "getApproved",
      "outputs": [
        {
          "internalType": "address",
          "name": "",
          "type": "address"
        }
      ],
      "stateMutability": "view",
      "type": "function",
      "constant": true
    },
    {
      "inputs": [
        {
          "internalType": "address",
          "name": "owner",
          "type": "address"
        },
        {
          "internalType": "address",
          "name": "operator",
          "type": "address"
        }
      ],
      "name": "isApprovedForAll",
      "outputs": [
        {
          "internalType": "bool",
          "name": "",
          "type": "bool"
        }
      ],
      "stateMutability": "view",
      "type": "function",
      "constant": true
    },
    {
      "inputs": [],
      "name": "name",
      "outputs": [
        {
          "internalType": "string",
          "name": "",
          "type": "string"
        }
      ],
      "stateMutability": "view",
      "type": "function",
      "constant": true
    },
    {
      "inputs": [
        {
          "internalType": "address",
          "name": "",
          "type": "address"
        },
        {
          "internalType": "uint256",
          "name": "",
          "type": "uint256"
        },
        {
          "internalType": "uint256",
          "name": "",
          "type": "uint256"
        }
      ],
      "name": "nftOwners",
      "outputs": [
        {
          "internalType": "uint256",
          "name": "issueDate",
          "type": "uint256"
        },
        {
          "internalType": "uint256",
          "name": "mintValue",
          "type": "uint256"
        },
        {
          "internalType": "bool",
          "name": "hasRedeemed",
          "type": "bool"
        }
      ],
      "stateMutability": "view",
      "type": "function",
      "constant": true
    },
    {
      "inputs": [
        {
          "internalType": "uint256",
          "name": "tokenId",
          "type": "uint256"
        }
      ],
      "name": "ownerOf",
      "outputs": [
        {
          "internalType": "address",
          "name": "",
          "type": "address"
        }
      ],
      "stateMutability": "view",
      "type": "function",
      "constant": true
    },
    {
      "inputs": [],
      "name": "rwdToken",
      "outputs": [
        {
          "internalType": "contract RWDToken",
          "name": "",
          "type": "address"
        }
      ],
      "stateMutability": "view",
      "type": "function",
      "constant": true
    },
    {
      "inputs": [
        {
          "internalType": "address",
          "name": "from",
          "type": "address"
        },
        {
          "internalType": "address",
          "name": "to",
          "type": "address"
        },
        {
          "internalType": "uint256",
          "name": "tokenId",
          "type": "uint256"
        }
      ],
      "name": "safeTransferFrom",
      "outputs": [],
      "stateMutability": "nonpayable",
      "type": "function"
    },
    {
      "inputs": [
        {
          "internalType": "address",
          "name": "from",
          "type": "address"
        },
        {
          "internalType": "address",
          "name": "to",
          "type": "address"
        },
        {
          "internalType": "uint256",
          "name": "tokenId",
          "type": "uint256"
        },
        {
          "internalType": "bytes",
          "name": "data",
          "type": "bytes"
        }
      ],
      "name": "safeTransferFrom",
      "outputs": [],
      "stateMutability": "nonpayable",
      "type": "function"
    },
    {
      "inputs": [
        {
          "internalType": "address",
          "name": "operator",
          "type": "address"
        },
        {
          "internalType": "bool",
          "name": "approved",
          "type": "bool"
        }
      ],
      "name": "setApprovalForAll",
      "outputs": [],
      "stateMutability": "nonpayable",
      "type": "function"
    },
    {
      "inputs": [
        {
          "internalType": "bytes4",
          "name": "interfaceId",
          "type": "bytes4"
        }
      ],
      "name": "supportsInterface",
      "outputs": [
        {
          "internalType": "bool",
          "name": "",
          "type": "bool"
        }
      ],
      "stateMutability": "view",
      "type": "function",
      "constant": true
    },
    {
      "inputs": [],
      "name": "symbol",
      "outputs": [
        {
          "internalType": "string",
          "name": "",
          "type": "string"
        }
      ],
      "stateMutability": "view",
      "type": "function",
      "constant": true
    },
    {
      "inputs": [
        {
          "internalType": "uint256",
          "name": "tokenId",
          "type": "uint256"
        }
      ],
      "name": "tokenURI",
      "outputs": [
        {
          "internalType": "string",
          "name": "",
          "type": "string"
        }
      ],
      "stateMutability": "view",
      "type": "function",
      "constant": true
    },
    {
      "inputs": [
        {
          "internalType": "address",
          "name": "from",
          "type": "address"
        },
        {
          "internalType": "address",
          "name": "to",
          "type": "address"
        },
        {
          "internalType": "uint256",
          "name": "tokenId",
          "type": "uint256"
        }
      ],
      "name": "transferFrom",
      "outputs": [],
      "stateMutability": "nonpayable",
      "type": "function"
    },
    {
      "inputs": [
        {
          "internalType": "uint256",
          "name": "_listPrice",
          "type": "uint256"
        }
      ],
      "name": "updateListPrice",
      "outputs": [],
      "stateMutability": "payable",
      "type": "function",
      "payable": true
    },
    {
      "inputs": [],
      "name": "getListPrice",
      "outputs": [
        {
          "internalType": "uint256",
          "name": "",
          "type": "uint256"
        }
      ],
      "stateMutability": "view",
      "type": "function",
      "constant": true
    },
    {
      "inputs": [],
      "name": "getLatestIdToListedToken",
      "outputs": [
        {
          "components": [
            {
              "internalType": "uint256",
              "name": "tokenId",
              "type": "uint256"
            },
            {
              "internalType": "address payable",
              "name": "owner",
              "type": "address"
            },
            {
              "internalType": "address payable",
              "name": "seller",
              "type": "address"
            },
            {
              "internalType": "uint256",
              "name": "price",
              "type": "uint256"
            },
            {
              "internalType": "bool",
              "name": "currentlyListed",
              "type": "bool"
            }
          ],
          "internalType": "struct NFTMarketplace.ListedToken",
          "name": "",
          "type": "tuple"
        }
      ],
      "stateMutability": "view",
      "type": "function",
      "constant": true
    },
    {
      "inputs": [
        {
          "internalType": "uint256",
          "name": "tokenId",
          "type": "uint256"
        }
      ],
      "name": "getListedTokenForId",
      "outputs": [
        {
          "components": [
            {
              "internalType": "uint256",
              "name": "tokenId",
              "type": "uint256"
            },
            {
              "internalType": "address payable",
              "name": "owner",
              "type": "address"
            },
            {
              "internalType": "address payable",
              "name": "seller",
              "type": "address"
            },
            {
              "internalType": "uint256",
              "name": "price",
              "type": "uint256"
            },
            {
              "internalType": "bool",
              "name": "currentlyListed",
              "type": "bool"
            }
          ],
          "internalType": "struct NFTMarketplace.ListedToken",
          "name": "",
          "type": "tuple"
        }
      ],
      "stateMutability": "view",
      "type": "function",
      "constant": true
    },
    {
      "inputs": [],
      "name": "getCurrentToken",
      "outputs": [
        {
          "internalType": "uint256",
          "name": "",
          "type": "uint256"
        }
      ],
      "stateMutability": "view",
      "type": "function",
      "constant": true
    },
    {
      "inputs": [
        {
          "internalType": "string",
          "name": "tokenURI",
          "type": "string"
        },
        {
          "internalType": "uint256",
          "name": "price",
          "type": "uint256"
        },
        {
          "internalType": "uint256[]",
          "name": "mintVal",
          "type": "uint256[]"
        }
      ],
      "name": "createToken",
      "outputs": [
        {
          "internalType": "uint256",
          "name": "",
          "type": "uint256"
        }
      ],
      "stateMutability": "payable",
      "type": "function",
      "payable": true
    },
    {
      "inputs": [],
      "name": "getAllNFTs",
      "outputs": [
        {
          "components": [
            {
              "internalType": "uint256",
              "name": "tokenId",
              "type": "uint256"
            },
            {
              "internalType": "address payable",
              "name": "owner",
              "type": "address"
            },
            {
              "internalType": "address payable",
              "name": "seller",
              "type": "address"
            },
            {
              "internalType": "uint256",
              "name": "price",
              "type": "uint256"
            },
            {
              "internalType": "bool",
              "name": "currentlyListed",
              "type": "bool"
            }
          ],
          "internalType": "struct NFTMarketplace.ListedToken[]",
          "name": "",
          "type": "tuple[]"
        }
      ],
      "stateMutability": "view",
      "type": "function",
      "constant": true
    },
    {
      "inputs": [],
      "name": "getMyNFTs",
      "outputs": [
        {
          "components": [
            {
              "internalType": "uint256",
              "name": "tokenId",
              "type": "uint256"
            },
            {
              "internalType": "address payable",
              "name": "owner",
              "type": "address"
            },
            {
              "internalType": "address payable",
              "name": "seller",
              "type": "address"
            },
            {
              "internalType": "uint256",
              "name": "price",
              "type": "uint256"
            },
            {
              "internalType": "bool",
              "name": "currentlyListed",
              "type": "bool"
            }
          ],
          "internalType": "struct NFTMarketplace.ListedToken[]",
          "name": "",
          "type": "tuple[]"
        }
      ],
      "stateMutability": "view",
      "type": "function",
      "constant": true
    },
    {
      "inputs": [
        {
          "internalType": "uint256",
          "name": "tokenId",
          "type": "uint256"
        }
      ],
      "name": "executeSale",
      "outputs": [],
      "stateMutability": "payable",
      "type": "function",
      "payable": true
    },
    {
      "inputs": [
        {
          "internalType": "uint256",
          "name": "tokenId",
          "type": "uint256"
        },
        {
          "internalType": "uint32",
          "name": "redeemCode",
          "type": "uint32"
        }
      ],
      "name": "redeemNFT",
      "outputs": [],
      "stateMutability": "nonpayable",
      "type": "function"
    },
    {
      "inputs": [
        {
          "internalType": "uint256",
          "name": "tokenId",
          "type": "uint256"
        }
      ],
      "name": "checkWalletNFT",
      "outputs": [
        {
          "internalType": "bool",
          "name": "",
          "type": "bool"
        }
      ],
      "stateMutability": "view",
      "type": "function",
      "constant": true
    }
  ],
  "bytecode": "0x6080604052662386f26fc10000600a553480156200001c57600080fd5b5060405162004edb38038062004edb8339818101604052810190620000429190620001db565b6040518060400160405280600e81526020017f4e46544d61726b6574706c6163650000000000000000000000000000000000008152506040518060400160405280600481526020017f4e46544d000000000000000000000000000000000000000000000000000000008152508160009081620000bf919062000487565b508060019081620000d1919062000487565b50505033600960006101000a81548173ffffffffffffffffffffffffffffffffffffffff021916908373ffffffffffffffffffffffffffffffffffffffff16021790555080600b60006101000a81548173ffffffffffffffffffffffffffffffffffffffff021916908373ffffffffffffffffffffffffffffffffffffffff160217905550506200056e565b600080fd5b600073ffffffffffffffffffffffffffffffffffffffff82169050919050565b60006200018f8262000162565b9050919050565b6000620001a38262000182565b9050919050565b620001b58162000196565b8114620001c157600080fd5b50565b600081519050620001d581620001aa565b92915050565b600060208284031215620001f457620001f36200015d565b5b60006200020484828501620001c4565b91505092915050565b600081519050919050565b7f4e487b7100000000000000000000000000000000000000000000000000000000600052604160045260246000fd5b7f4e487b7100000000000000000000000000000000000000000000000000000000600052602260045260246000fd5b600060028204905060018216806200028f57607f821691505b602082108103620002a557620002a462000247565b5b50919050565b60008190508160005260206000209050919050565b60006020601f8301049050919050565b600082821b905092915050565b6000600883026200030f7fffffffffffffffffffffffffffffffffffffffffffffffffffffffffffffffff82620002d0565b6200031b8683620002d0565b95508019841693508086168417925050509392505050565b6000819050919050565b6000819050919050565b600062000368620003626200035c8462000333565b6200033d565b62000333565b9050919050565b6000819050919050565b620003848362000347565b6200039c62000393826200036f565b848454620002dd565b825550505050565b600090565b620003b3620003a4565b620003c081848462000379565b505050565b5b81811015620003e857620003dc600082620003a9565b600181019050620003c6565b5050565b601f82111562000437576200040181620002ab565b6200040c84620002c0565b810160208510156200041c578190505b620004346200042b85620002c0565b830182620003c5565b50505b505050565b600082821c905092915050565b60006200045c600019846008026200043c565b1980831691505092915050565b600062000477838362000449565b9150826002028217905092915050565b62000492826200020d565b67ffffffffffffffff811115620004ae57620004ad62000218565b5b620004ba825462000276565b620004c7828285620003ec565b600060209050601f831160018114620004ff5760008415620004ea578287015190505b620004f6858262000469565b86555062000566565b601f1984166200050f86620002ab565b60005b82811015620005395784890151825560018201915060208501945060208101905062000512565b8683101562000559578489015162000555601f89168262000449565b8355505b6001600288020188555050505b505050505050565b61495d806200057e6000396000f3fe6080604052600436106101815760003560e01c806395d89b41116100d1578063d1a88ae51161008a578063e0391b0911610064578063e0391b0914610591578063e985e9c5146105bc578063ef2d1746146105f9578063fed9736c1461062457610181565b8063d1a88ae514610500578063db4bd57c1461052b578063dfbfc2bb1461056857610181565b806395d89b411461040e5780639b1225c414610439578063a22cb46514610455578063b88d4fde1461047e578063c322579c146104a7578063c87b56dd146104c357610181565b806342842e0e1161013e57806368f1945f1161011857806368f1945f1461033e57806370a08231146103695780637d787a24146103a65780638e264590146103d157610181565b806342842e0e146102ad578063629cb2e4146102d65780636352211e1461030157610181565b806301ffc9a71461018657806306fdde03146101c3578063081812fc146101ee578063095ea7b31461022b5780631bc523871461025457806323b872dd14610284575b600080fd5b34801561019257600080fd5b506101ad60048036038101906101a89190612e50565b610663565b6040516101ba9190612e98565b60405180910390f35b3480156101cf57600080fd5b506101d8610745565b6040516101e59190612f43565b60405180910390f35b3480156101fa57600080fd5b5061021560048036038101906102109190612f9b565b6107d7565b6040516102229190613009565b60405180910390f35b34801561023757600080fd5b50610252600480360381019061024d9190613050565b61081d565b005b61026e6004803603810190610269919061328d565b610934565b60405161027b9190613327565b60405180910390f35b34801561029057600080fd5b506102ab60048036038101906102a69190613342565b610978565b005b3480156102b957600080fd5b506102d460048036038101906102cf9190613342565b6109d8565b005b3480156102e257600080fd5b506102eb6109f8565b6040516102f891906134eb565b60405180910390f35b34801561030d57600080fd5b5061032860048036038101906103239190612f9b565b610e11565b6040516103359190613009565b60405180910390f35b34801561034a57600080fd5b50610353610e97565b6040516103609190613327565b60405180910390f35b34801561037557600080fd5b50610390600480360381019061038b919061350d565b610ea1565b60405161039d9190613327565b60405180910390f35b3480156103b257600080fd5b506103bb610f58565b6040516103c89190613599565b60405180910390f35b3480156103dd57600080fd5b506103f860048036038101906103f39190612f9b565b610f7e565b604051610405919061361c565b60405180910390f35b34801561041a57600080fd5b50610423611086565b6040516104309190612f43565b60405180910390f35b610453600480360381019061044e9190612f9b565b611118565b005b34801561046157600080fd5b5061047c60048036038101906104779190613663565b6111e9565b005b34801561048a57600080fd5b506104a560048036038101906104a09190613744565b6111ff565b005b6104c160048036038101906104bc9190612f9b565b611261565b005b3480156104cf57600080fd5b506104ea60048036038101906104e59190612f9b565b6112fb565b6040516104f79190612f43565b60405180910390f35b34801561050c57600080fd5b5061051561140d565b604051610522919061361c565b60405180910390f35b34801561053757600080fd5b50610552600480360381019061054d9190612f9b565b611522565b60405161055f9190612e98565b60405180910390f35b34801561057457600080fd5b5061058f600480360381019061058a9190613803565b611581565b005b34801561059d57600080fd5b506105a6611692565b6040516105b391906134eb565b60405180910390f35b3480156105c857600080fd5b506105e360048036038101906105de9190613843565b611864565b6040516105f09190612e98565b60405180910390f35b34801561060557600080fd5b5061060e6118f8565b60405161061b9190613327565b60405180910390f35b34801561063057600080fd5b5061064b60048036038101906106469190613883565b611909565b60405161065a939291906138d6565b60405180910390f35b60007f80ac58cd000000000000000000000000000000000000000000000000000000007bffffffffffffffffffffffffffffffffffffffffffffffffffffffff1916827bffffffffffffffffffffffffffffffffffffffffffffffffffffffff1916148061072e57507f5b5e139f000000000000000000000000000000000000000000000000000000007bffffffffffffffffffffffffffffffffffffffffffffffffffffffff1916827bffffffffffffffffffffffffffffffffffffffffffffffffffffffff1916145b8061073e575061073d8261196a565b5b9050919050565b6060600080546107549061393c565b80601f01602080910402602001604051908101604052809291908181526020018280546107809061393c565b80156107cd5780601f106107a2576101008083540402835291602001916107cd565b820191906000526020600020905b8154815290600101906020018083116107b057829003601f168201915b5050505050905090565b60006107e2826119d4565b6004600083815260200190815260200160002060009054906101000a900473ffffffffffffffffffffffffffffffffffffffff169050919050565b600061082882610e11565b90508073ffffffffffffffffffffffffffffffffffffffff168373ffffffffffffffffffffffffffffffffffffffff1603610898576040517f08c379a000000000000000000000000000000000000000000000000000000000815260040161088f906139df565b60405180910390fd5b8073ffffffffffffffffffffffffffffffffffffffff166108b7611a1f565b73ffffffffffffffffffffffffffffffffffffffff1614806108e657506108e5816108e0611a1f565b611864565b5b610925576040517f08c379a000000000000000000000000000000000000000000000000000000000815260040161091c90613a71565b60405180910390fd5b61092f8383611a27565b505050565b60006109406007611ae0565b600061094c6007611af6565b90506109583382611b04565b6109628186611b22565b61096d818585611b8f565b809150509392505050565b610989610983611a1f565b82611fc5565b6109c8576040517f08c379a00000000000000000000000000000000000000000000000000000000081526004016109bf90613b03565b60405180910390fd5b6109d383838361205a565b505050565b6109f3838383604051806020016040528060008152506111ff565b505050565b60606000610a066007611af6565b9050600080600080600090505b84811015610b48573373ffffffffffffffffffffffffffffffffffffffff16600c6000600184610a439190613b52565b815260200190815260200160002060010160009054906101000a900473ffffffffffffffffffffffffffffffffffffffff1673ffffffffffffffffffffffffffffffffffffffff161480610b0457503373ffffffffffffffffffffffffffffffffffffffff16600c6000600184610aba9190613b52565b815260200190815260200160002060020160009054906101000a900473ffffffffffffffffffffffffffffffffffffffff1673ffffffffffffffffffffffffffffffffffffffff16145b80610b205750610b1f600182610b1a9190613b52565b611522565b5b15610b3557600184610b329190613b52565b93505b8080610b4090613b86565b915050610a13565b5060008367ffffffffffffffff811115610b6557610b6461309a565b5b604051908082528060200260200182016040528015610b9e57816020015b610b8b612d87565b815260200190600190039081610b835790505b50905060005b85811015610e05573373ffffffffffffffffffffffffffffffffffffffff16600c6000600184610bd49190613b52565b815260200190815260200160002060010160009054906101000a900473ffffffffffffffffffffffffffffffffffffffff1673ffffffffffffffffffffffffffffffffffffffff161480610c9557503373ffffffffffffffffffffffffffffffffffffffff16600c6000600184610c4b9190613b52565b815260200190815260200160002060020160009054906101000a900473ffffffffffffffffffffffffffffffffffffffff1673ffffffffffffffffffffffffffffffffffffffff16145b80610cb15750610cb0600182610cab9190613b52565b611522565b5b15610df257600181610cc39190613b52565b92506000600c60008581526020019081526020016000209050806040518060a0016040529081600082015481526020016001820160009054906101000a900473ffffffffffffffffffffffffffffffffffffffff1673ffffffffffffffffffffffffffffffffffffffff1673ffffffffffffffffffffffffffffffffffffffff1681526020016002820160009054906101000a900473ffffffffffffffffffffffffffffffffffffffff1673ffffffffffffffffffffffffffffffffffffffff1673ffffffffffffffffffffffffffffffffffffffff168152602001600382015481526020016004820160009054906101000a900460ff161515151581525050838681518110610dd657610dd5613bce565b5b6020026020010181905250600185610dee9190613b52565b9450505b8080610dfd90613b86565b915050610ba4565b50809550505050505090565b600080610e1d83612353565b9050600073ffffffffffffffffffffffffffffffffffffffff168173ffffffffffffffffffffffffffffffffffffffff1603610e8e576040517f08c379a0000000000000000000000000000000000000000000000000000000008152600401610e8590613c49565b60405180910390fd5b80915050919050565b6000600a54905090565b60008073ffffffffffffffffffffffffffffffffffffffff168273ffffffffffffffffffffffffffffffffffffffff1603610f11576040517f08c379a0000000000000000000000000000000000000000000000000000000008152600401610f0890613cdb565b60405180910390fd5b600360008373ffffffffffffffffffffffffffffffffffffffff1673ffffffffffffffffffffffffffffffffffffffff168152602001908152602001600020549050919050565b600b60009054906101000a900473ffffffffffffffffffffffffffffffffffffffff1681565b610f86612d87565b600c60008381526020019081526020016000206040518060a0016040529081600082015481526020016001820160009054906101000a900473ffffffffffffffffffffffffffffffffffffffff1673ffffffffffffffffffffffffffffffffffffffff1673ffffffffffffffffffffffffffffffffffffffff1681526020016002820160009054906101000a900473ffffffffffffffffffffffffffffffffffffffff1673ffffffffffffffffffffffffffffffffffffffff1673ffffffffffffffffffffffffffffffffffffffff168152602001600382015481526020016004820160009054906101000a900460ff1615151515815250509050919050565b6060600180546110959061393c565b80601f01602080910402602001604051908101604052809291908181526020018280546110c19061393c565b801561110e5780601f106110e35761010080835404028352916020019161110e565b820191906000526020600020905b8154815290600101906020018083116110f157829003601f168201915b5050505050905090565b600e60003373ffffffffffffffffffffffffffffffffffffffff1673ffffffffffffffffffffffffffffffffffffffff1681526020019081526020016000206000828152602001908152602001600020604051806060016040528042815260200160008152602001600015158152509080600181540180825580915050600190039060005260206000209060030201600090919091909150600082015181600001556020820151816001015560408201518160020160006101000a81548160ff021916908315150217905550505050565b6111fb6111f4611a1f565b8383612390565b5050565b61121061120a611a1f565b83611fc5565b61124f576040517f08c379a000000000000000000000000000000000000000000000000000000000815260040161124690613b03565b60405180910390fd5b61125b848484846124fc565b50505050565b3373ffffffffffffffffffffffffffffffffffffffff16600960009054906101000a900473ffffffffffffffffffffffffffffffffffffffff1673ffffffffffffffffffffffffffffffffffffffff16146112f1576040517f08c379a00000000000000000000000000000000000000000000000000000000081526004016112e890613d6d565b60405180910390fd5b80600a8190555050565b6060611306826119d4565b60006006600084815260200190815260200160002080546113269061393c565b80601f01602080910402602001604051908101604052809291908181526020018280546113529061393c565b801561139f5780601f106113745761010080835404028352916020019161139f565b820191906000526020600020905b81548152906001019060200180831161138257829003601f168201915b5050505050905060006113b0612558565b905060008151036113c5578192505050611408565b6000825111156113fa5780826040516020016113e2929190613dc9565b60405160208183030381529060405292505050611408565b6114038461256f565b925050505b919050565b611415612d87565b60006114216007611af6565b9050600c60008281526020019081526020016000206040518060a0016040529081600082015481526020016001820160009054906101000a900473ffffffffffffffffffffffffffffffffffffffff1673ffffffffffffffffffffffffffffffffffffffff1673ffffffffffffffffffffffffffffffffffffffff1681526020016002820160009054906101000a900473ffffffffffffffffffffffffffffffffffffffff1673ffffffffffffffffffffffffffffffffffffffff1673ffffffffffffffffffffffffffffffffffffffff168152602001600382015481526020016004820160009054906101000a900460ff16151515158152505091505090565b600080600e60003373ffffffffffffffffffffffffffffffffffffffff1673ffffffffffffffffffffffffffffffffffffffff168152602001908152602001600020600084815260200190815260200160002080549050119050919050565b6000600e60003373ffffffffffffffffffffffffffffffffffffffff1673ffffffffffffffffffffffffffffffffffffffff16815260200190815260200160002060008481526020019081526020016000206040518060600160405280428152602001838152602001600115158152509080600181540180825580915050600190039060005260206000209060030201600090919091909150600082015181600001556020820151816001015560408201518160020160006101000a81548160ff02191690831515021790555050507fd3b7c92e23eceec2708293d061f2993aaa657abf4b474566027422cf5300c8b7338484846040516116859493929190613dfc565b60405180910390a1505050565b606060006116a06007611af6565b905060008167ffffffffffffffff8111156116be576116bd61309a565b5b6040519080825280602002602001820160405280156116f757816020015b6116e4612d87565b8152602001906001900390816116dc5790505b50905060008080600090505b84811015611859576001816117189190613b52565b91506000600c60008481526020019081526020016000209050806040518060a0016040529081600082015481526020016001820160009054906101000a900473ffffffffffffffffffffffffffffffffffffffff1673ffffffffffffffffffffffffffffffffffffffff1673ffffffffffffffffffffffffffffffffffffffff1681526020016002820160009054906101000a900473ffffffffffffffffffffffffffffffffffffffff1673ffffffffffffffffffffffffffffffffffffffff1673ffffffffffffffffffffffffffffffffffffffff168152602001600382015481526020016004820160009054906101000a900460ff16151515158152505085858151811061182b5761182a613bce565b5b60200260200101819052506001846118439190613b52565b935050808061185190613b86565b915050611703565b508294505050505090565b6000600560008473ffffffffffffffffffffffffffffffffffffffff1673ffffffffffffffffffffffffffffffffffffffff16815260200190815260200160002060008373ffffffffffffffffffffffffffffffffffffffff1673ffffffffffffffffffffffffffffffffffffffff16815260200190815260200160002060009054906101000a900460ff16905092915050565b60006119046007611af6565b905090565b600e602052826000526040600020602052816000526040600020818154811061193157600080fd5b906000526020600020906003020160009250925050508060000154908060010154908060020160009054906101000a900460ff16905083565b60007f01ffc9a7000000000000000000000000000000000000000000000000000000007bffffffffffffffffffffffffffffffffffffffffffffffffffffffff1916827bffffffffffffffffffffffffffffffffffffffffffffffffffffffff1916149050919050565b6119dd816125d7565b611a1c576040517f08c379a0000000000000000000000000000000000000000000000000000000008152600401611a1390613c49565b60405180910390fd5b50565b600033905090565b816004600083815260200190815260200160002060006101000a81548173ffffffffffffffffffffffffffffffffffffffff021916908373ffffffffffffffffffffffffffffffffffffffff160217905550808273ffffffffffffffffffffffffffffffffffffffff16611a9a83610e11565b73ffffffffffffffffffffffffffffffffffffffff167f8c5be1e5ebec7d5bd14f71427d1e84f3dd0314c0f7b2291e5b200ac8c7c3b92560405160405180910390a45050565b6001816000016000828254019250508190555050565b600081600001549050919050565b611b1e828260405180602001604052806000815250612618565b5050565b611b2b826125d7565b611b6a576040517f08c379a0000000000000000000000000000000000000000000000000000000008152600401611b6190613eb3565b60405180910390fd5b80600660008481526020019081526020016000209081611b8a9190614075565b505050565b600a543414611bd3576040517f08c379a0000000000000000000000000000000000000000000000000000000008152600401611bca906141b9565b60405180910390fd5b60008211611c16576040517f08c379a0000000000000000000000000000000000000000000000000000000008152600401611c0d9061424b565b60405180910390fd5b6000815167ffffffffffffffff811115611c3357611c3261309a565b5b604051908082528060200260200182016040528015611c615781602001602082028036833780820191505090505b50905060005b8251811015611d745760006377359400424488878681518110611c8d57611c8c613bce565b5b6020026020010151604051602001611ca8949392919061428c565b6040516020818303038152906040528051906020012060001c611ccb9190614309565b90506040518060400160405280878152602001858481518110611cf157611cf0613bce565b5b6020026020010151815250600d60008363ffffffff1663ffffffff168152602001908152602001600020600082015181600001556020820151816001015590505080838381518110611d4657611d45613bce565b5b602002602001019063ffffffff16908163ffffffff1681525050508080611d6c90613b86565b915050611c67565b506040518060a001604052808581526020013073ffffffffffffffffffffffffffffffffffffffff1681526020013373ffffffffffffffffffffffffffffffffffffffff16815260200184815260200160011515815250600c60008681526020019081526020016000206000820151816000015560208201518160010160006101000a81548173ffffffffffffffffffffffffffffffffffffffff021916908373ffffffffffffffffffffffffffffffffffffffff16021790555060408201518160020160006101000a81548173ffffffffffffffffffffffffffffffffffffffff021916908373ffffffffffffffffffffffffffffffffffffffff1602179055506060820151816003015560808201518160040160006101000a81548160ff021916908315150217905550905050600e60003373ffffffffffffffffffffffffffffffffffffffff1673ffffffffffffffffffffffffffffffffffffffff1681526020019081526020016000206000858152602001908152602001600020604051806060016040528042815260200160008152602001600115158152509080600181540180825580915050600190039060005260206000209060030201600090919091909150600082015181600001556020820151816001015560408201518160020160006101000a81548160ff0219169083151502179055505050611f7c33308661205a565b837fc4040261f8be5adfe9bf4bf60126c3e2f41dc032e6f5ee766c828fc34cd8c05630338660018787604051611fb7969594939291906144a7565b60405180910390a250505050565b600080611fd183610e11565b90508073ffffffffffffffffffffffffffffffffffffffff168473ffffffffffffffffffffffffffffffffffffffff16148061201357506120128185611864565b5b8061205157508373ffffffffffffffffffffffffffffffffffffffff16612039846107d7565b73ffffffffffffffffffffffffffffffffffffffff16145b91505092915050565b8273ffffffffffffffffffffffffffffffffffffffff1661207a82610e11565b73ffffffffffffffffffffffffffffffffffffffff16146120d0576040517f08c379a00000000000000000000000000000000000000000000000000000000081526004016120c790614588565b60405180910390fd5b600073ffffffffffffffffffffffffffffffffffffffff168273ffffffffffffffffffffffffffffffffffffffff160361213f576040517f08c379a00000000000000000000000000000000000000000000000000000000081526004016121369061461a565b60405180910390fd5b61214c8383836001612673565b8273ffffffffffffffffffffffffffffffffffffffff1661216c82610e11565b73ffffffffffffffffffffffffffffffffffffffff16146121c2576040517f08c379a00000000000000000000000000000000000000000000000000000000081526004016121b990614588565b60405180910390fd5b6004600082815260200190815260200160002060006101000a81549073ffffffffffffffffffffffffffffffffffffffff02191690556001600360008573ffffffffffffffffffffffffffffffffffffffff1673ffffffffffffffffffffffffffffffffffffffff168152602001908152602001600020600082825403925050819055506001600360008473ffffffffffffffffffffffffffffffffffffffff1673ffffffffffffffffffffffffffffffffffffffff16815260200190815260200160002060008282540192505081905550816002600083815260200190815260200160002060006101000a81548173ffffffffffffffffffffffffffffffffffffffff021916908373ffffffffffffffffffffffffffffffffffffffff160217905550808273ffffffffffffffffffffffffffffffffffffffff168473ffffffffffffffffffffffffffffffffffffffff167fddf252ad1be2c89b69c2b068fc378daa952ba7f163c4a11628f55a4df523b3ef60405160405180910390a461234e8383836001612799565b505050565b60006002600083815260200190815260200160002060009054906101000a900473ffffffffffffffffffffffffffffffffffffffff169050919050565b8173ffffffffffffffffffffffffffffffffffffffff168373ffffffffffffffffffffffffffffffffffffffff16036123fe576040517f08c379a00000000000000000000000000000000000000000000000000000000081526004016123f590614686565b60405180910390fd5b80600560008573ffffffffffffffffffffffffffffffffffffffff1673ffffffffffffffffffffffffffffffffffffffff16815260200190815260200160002060008473ffffffffffffffffffffffffffffffffffffffff1673ffffffffffffffffffffffffffffffffffffffff16815260200190815260200160002060006101000a81548160ff0219169083151502179055508173ffffffffffffffffffffffffffffffffffffffff168373ffffffffffffffffffffffffffffffffffffffff167f17307eab39ab6107e8899845ad3d59bd9653f200f220920489ca2b5937696c31836040516124ef9190612e98565b60405180910390a3505050565b61250784848461205a565b6125138484848461279f565b612552576040517f08c379a000000000000000000000000000000000000000000000000000000000815260040161254990614718565b60405180910390fd5b50505050565b606060405180602001604052806000815250905090565b606061257a826119d4565b6000612584612558565b905060008151116125a457604051806020016040528060008152506125cf565b806125ae84612926565b6040516020016125bf929190613dc9565b6040516020818303038152906040525b915050919050565b60008073ffffffffffffffffffffffffffffffffffffffff166125f983612353565b73ffffffffffffffffffffffffffffffffffffffff1614159050919050565b61262283836129f4565b61262f600084848461279f565b61266e576040517f08c379a000000000000000000000000000000000000000000000000000000000815260040161266590614718565b60405180910390fd5b505050565b600181111561279357600073ffffffffffffffffffffffffffffffffffffffff168473ffffffffffffffffffffffffffffffffffffffff16146127075780600360008673ffffffffffffffffffffffffffffffffffffffff1673ffffffffffffffffffffffffffffffffffffffff16815260200190815260200160002060008282546126ff9190614738565b925050819055505b600073ffffffffffffffffffffffffffffffffffffffff168373ffffffffffffffffffffffffffffffffffffffff16146127925780600360008573ffffffffffffffffffffffffffffffffffffffff1673ffffffffffffffffffffffffffffffffffffffff168152602001908152602001600020600082825461278a9190613b52565b925050819055505b5b50505050565b50505050565b60006127c08473ffffffffffffffffffffffffffffffffffffffff16612c11565b15612919578373ffffffffffffffffffffffffffffffffffffffff1663150b7a026127e9611a1f565b8786866040518563ffffffff1660e01b815260040161280b94939291906147c1565b6020604051808303816000875af192505050801561284757506040513d601f19601f820116820180604052508101906128449190614822565b60015b6128c9573d8060008114612877576040519150601f19603f3d011682016040523d82523d6000602084013e61287c565b606091505b5060008151036128c1576040517f08c379a00000000000000000000000000000000000000000000000000000000081526004016128b890614718565b60405180910390fd5b805181602001fd5b63150b7a0260e01b7bffffffffffffffffffffffffffffffffffffffffffffffffffffffff1916817bffffffffffffffffffffffffffffffffffffffffffffffffffffffff19161491505061291e565b600190505b949350505050565b60606000600161293584612c34565b01905060008167ffffffffffffffff8111156129545761295361309a565b5b6040519080825280601f01601f1916602001820160405280156129865781602001600182028036833780820191505090505b509050600082602001820190505b6001156129e9578080600190039150507f3031323334353637383961626364656600000000000000000000000000000000600a86061a8153600a85816129dd576129dc6142da565b5b04945060008503612994575b819350505050919050565b600073ffffffffffffffffffffffffffffffffffffffff168273ffffffffffffffffffffffffffffffffffffffff1603612a63576040517f08c379a0000000000000000000000000000000000000000000000000000000008152600401612a5a9061489b565b60405180910390fd5b612a6c816125d7565b15612aac576040517f08c379a0000000000000000000000000000000000000000000000000000000008152600401612aa390614907565b60405180910390fd5b612aba600083836001612673565b612ac3816125d7565b15612b03576040517f08c379a0000000000000000000000000000000000000000000000000000000008152600401612afa90614907565b60405180910390fd5b6001600360008473ffffffffffffffffffffffffffffffffffffffff1673ffffffffffffffffffffffffffffffffffffffff16815260200190815260200160002060008282540192505081905550816002600083815260200190815260200160002060006101000a81548173ffffffffffffffffffffffffffffffffffffffff021916908373ffffffffffffffffffffffffffffffffffffffff160217905550808273ffffffffffffffffffffffffffffffffffffffff16600073ffffffffffffffffffffffffffffffffffffffff167fddf252ad1be2c89b69c2b068fc378daa952ba7f163c4a11628f55a4df523b3ef60405160405180910390a4612c0d600083836001612799565b5050565b6000808273ffffffffffffffffffffffffffffffffffffffff163b119050919050565b600080600090507a184f03e93ff9f4daa797ed6e38ed64bf6a1f0100000000000000008310612c92577a184f03e93ff9f4daa797ed6e38ed64bf6a1f0100000000000000008381612c8857612c876142da565b5b0492506040810190505b6d04ee2d6d415b85acef81000000008310612ccf576d04ee2d6d415b85acef81000000008381612cc557612cc46142da565b5b0492506020810190505b662386f26fc100008310612cfe57662386f26fc100008381612cf457612cf36142da565b5b0492506010810190505b6305f5e1008310612d27576305f5e1008381612d1d57612d1c6142da565b5b0492506008810190505b6127108310612d4c576127108381612d4257612d416142da565b5b0492506004810190505b60648310612d6f5760648381612d6557612d646142da565b5b0492506002810190505b600a8310612d7e576001810190505b80915050919050565b6040518060a0016040528060008152602001600073ffffffffffffffffffffffffffffffffffffffff168152602001600073ffffffffffffffffffffffffffffffffffffffff168152602001600081526020016000151581525090565b6000604051905090565b600080fd5b600080fd5b60007fffffffff0000000000000000000000000000000000000000000000000000000082169050919050565b612e2d81612df8565b8114612e3857600080fd5b50565b600081359050612e4a81612e24565b92915050565b600060208284031215612e6657612e65612dee565b5b6000612e7484828501612e3b565b91505092915050565b60008115159050919050565b612e9281612e7d565b82525050565b6000602082019050612ead6000830184612e89565b92915050565b600081519050919050565b600082825260208201905092915050565b60005b83811015612eed578082015181840152602081019050612ed2565b60008484015250505050565b6000601f19601f8301169050919050565b6000612f1582612eb3565b612f1f8185612ebe565b9350612f2f818560208601612ecf565b612f3881612ef9565b840191505092915050565b60006020820190508181036000830152612f5d8184612f0a565b905092915050565b6000819050919050565b612f7881612f65565b8114612f8357600080fd5b50565b600081359050612f9581612f6f565b92915050565b600060208284031215612fb157612fb0612dee565b5b6000612fbf84828501612f86565b91505092915050565b600073ffffffffffffffffffffffffffffffffffffffff82169050919050565b6000612ff382612fc8565b9050919050565b61300381612fe8565b82525050565b600060208201905061301e6000830184612ffa565b92915050565b61302d81612fe8565b811461303857600080fd5b50565b60008135905061304a81613024565b92915050565b6000806040838503121561306757613066612dee565b5b60006130758582860161303b565b925050602061308685828601612f86565b9150509250929050565b600080fd5b600080fd5b7f4e487b7100000000000000000000000000000000000000000000000000000000600052604160045260246000fd5b6130d282612ef9565b810181811067ffffffffffffffff821117156130f1576130f061309a565b5b80604052505050565b6000613104612de4565b905061311082826130c9565b919050565b600067ffffffffffffffff8211156131305761312f61309a565b5b61313982612ef9565b9050602081019050919050565b82818337600083830152505050565b600061316861316384613115565b6130fa565b90508281526020810184848401111561318457613183613095565b5b61318f848285613146565b509392505050565b600082601f8301126131ac576131ab613090565b5b81356131bc848260208601613155565b91505092915050565b600067ffffffffffffffff8211156131e0576131df61309a565b5b602082029050602081019050919050565b600080fd5b6000613209613204846131c5565b6130fa565b9050808382526020820190506020840283018581111561322c5761322b6131f1565b5b835b8181101561325557806132418882612f86565b84526020840193505060208101905061322e565b5050509392505050565b600082601f83011261327457613273613090565b5b81356132848482602086016131f6565b91505092915050565b6000806000606084860312156132a6576132a5612dee565b5b600084013567ffffffffffffffff8111156132c4576132c3612df3565b5b6132d086828701613197565b93505060206132e186828701612f86565b925050604084013567ffffffffffffffff81111561330257613301612df3565b5b61330e8682870161325f565b9150509250925092565b61332181612f65565b82525050565b600060208201905061333c6000830184613318565b92915050565b60008060006060848603121561335b5761335a612dee565b5b60006133698682870161303b565b935050602061337a8682870161303b565b925050604061338b86828701612f86565b9150509250925092565b600081519050919050565b600082825260208201905092915050565b6000819050602082019050919050565b6133ca81612f65565b82525050565b60006133db82612fc8565b9050919050565b6133eb816133d0565b82525050565b6133fa81612e7d565b82525050565b60a08201600082015161341660008501826133c1565b50602082015161342960208501826133e2565b50604082015161343c60408501826133e2565b50606082015161344f60608501826133c1565b50608082015161346260808501826133f1565b50505050565b60006134748383613400565b60a08301905092915050565b6000602082019050919050565b600061349882613395565b6134a281856133a0565b93506134ad836133b1565b8060005b838110156134de5781516134c58882613468565b97506134d083613480565b9250506001810190506134b1565b5085935050505092915050565b60006020820190508181036000830152613505818461348d565b905092915050565b60006020828403121561352357613522612dee565b5b60006135318482850161303b565b91505092915050565b6000819050919050565b600061355f61355a61355584612fc8565b61353a565b612fc8565b9050919050565b600061357182613544565b9050919050565b600061358382613566565b9050919050565b61359381613578565b82525050565b60006020820190506135ae600083018461358a565b92915050565b60a0820160008201516135ca60008501826133c1565b5060208201516135dd60208501826133e2565b5060408201516135f060408501826133e2565b50606082015161360360608501826133c1565b50608082015161361660808501826133f1565b50505050565b600060a08201905061363160008301846135b4565b92915050565b61364081612e7d565b811461364b57600080fd5b50565b60008135905061365d81613637565b92915050565b6000806040838503121561367a57613679612dee565b5b60006136888582860161303b565b92505060206136998582860161364e565b9150509250929050565b600067ffffffffffffffff8211156136be576136bd61309a565b5b6136c782612ef9565b9050602081019050919050565b60006136e76136e2846136a3565b6130fa565b90508281526020810184848401111561370357613702613095565b5b61370e848285613146565b509392505050565b600082601f83011261372b5761372a613090565b5b813561373b8482602086016136d4565b91505092915050565b6000806000806080858703121561375e5761375d612dee565b5b600061376c8782880161303b565b945050602061377d8782880161303b565b935050604061378e87828801612f86565b925050606085013567ffffffffffffffff8111156137af576137ae612df3565b5b6137bb87828801613716565b91505092959194509250565b600063ffffffff82169050919050565b6137e0816137c7565b81146137eb57600080fd5b50565b6000813590506137fd816137d7565b92915050565b6000806040838503121561381a57613819612dee565b5b600061382885828601612f86565b9250506020613839858286016137ee565b9150509250929050565b6000806040838503121561385a57613859612dee565b5b60006138688582860161303b565b92505060206138798582860161303b565b9150509250929050565b60008060006060848603121561389c5761389b612dee565b5b60006138aa8682870161303b565b93505060206138bb86828701612f86565b92505060406138cc86828701612f86565b9150509250925092565b60006060820190506138eb6000830186613318565b6138f86020830185613318565b6139056040830184612e89565b949350505050565b7f4e487b7100000000000000000000000000000000000000000000000000000000600052602260045260246000fd5b6000600282049050600182168061395457607f821691505b6020821081036139675761396661390d565b5b50919050565b7f4552433732313a20617070726f76616c20746f2063757272656e74206f776e6560008201527f7200000000000000000000000000000000000000000000000000000000000000602082015250565b60006139c9602183612ebe565b91506139d48261396d565b604082019050919050565b600060208201905081810360008301526139f8816139bc565b9050919050565b7f4552433732313a20617070726f76652063616c6c6572206973206e6f7420746f60008201527f6b656e206f776e6572206f7220617070726f76656420666f7220616c6c000000602082015250565b6000613a5b603d83612ebe565b9150613a66826139ff565b604082019050919050565b60006020820190508181036000830152613a8a81613a4e565b9050919050565b7f4552433732313a2063616c6c6572206973206e6f7420746f6b656e206f776e6560008201527f72206f7220617070726f76656400000000000000000000000000000000000000602082015250565b6000613aed602d83612ebe565b9150613af882613a91565b604082019050919050565b60006020820190508181036000830152613b1c81613ae0565b9050919050565b7f4e487b7100000000000000000000000000000000000000000000000000000000600052601160045260246000fd5b6000613b5d82612f65565b9150613b6883612f65565b9250828201905080821115613b8057613b7f613b23565b5b92915050565b6000613b9182612f65565b91507fffffffffffffffffffffffffffffffffffffffffffffffffffffffffffffffff8203613bc357613bc2613b23565b5b600182019050919050565b7f4e487b7100000000000000000000000000000000000000000000000000000000600052603260045260246000fd5b7f4552433732313a20696e76616c696420746f6b656e2049440000000000000000600082015250565b6000613c33601883612ebe565b9150613c3e82613bfd565b602082019050919050565b60006020820190508181036000830152613c6281613c26565b9050919050565b7f4552433732313a2061646472657373207a65726f206973206e6f74206120766160008201527f6c6964206f776e65720000000000000000000000000000000000000000000000602082015250565b6000613cc5602983612ebe565b9150613cd082613c69565b604082019050919050565b60006020820190508181036000830152613cf481613cb8565b9050919050565b7f4f6e6c79206f776e65722063616e20757064617465206c697374696e6720707260008201527f6963650000000000000000000000000000000000000000000000000000000000602082015250565b6000613d57602383612ebe565b9150613d6282613cfb565b604082019050919050565b60006020820190508181036000830152613d8681613d4a565b9050919050565b600081905092915050565b6000613da382612eb3565b613dad8185613d8d565b9350613dbd818560208601612ecf565b80840191505092915050565b6000613dd58285613d98565b9150613de18284613d98565b91508190509392505050565b613df6816137c7565b82525050565b6000608082019050613e116000830187612ffa565b613e1e6020830186613318565b613e2b6040830185613ded565b613e386060830184613318565b95945050505050565b7f45524337323155524953746f726167653a2055524920736574206f66206e6f6e60008201527f6578697374656e7420746f6b656e000000000000000000000000000000000000602082015250565b6000613e9d602e83612ebe565b9150613ea882613e41565b604082019050919050565b60006020820190508181036000830152613ecc81613e90565b9050919050565b60008190508160005260206000209050919050565b60006020601f8301049050919050565b600082821b905092915050565b600060088302613f357fffffffffffffffffffffffffffffffffffffffffffffffffffffffffffffffff82613ef8565b613f3f8683613ef8565b95508019841693508086168417925050509392505050565b6000613f72613f6d613f6884612f65565b61353a565b612f65565b9050919050565b6000819050919050565b613f8c83613f57565b613fa0613f9882613f79565b848454613f05565b825550505050565b600090565b613fb5613fa8565b613fc0818484613f83565b505050565b5b81811015613fe457613fd9600082613fad565b600181019050613fc6565b5050565b601f82111561402957613ffa81613ed3565b61400384613ee8565b81016020851015614012578190505b61402661401e85613ee8565b830182613fc5565b50505b505050565b600082821c905092915050565b600061404c6000198460080261402e565b1980831691505092915050565b6000614065838361403b565b9150826002028217905092915050565b61407e82612eb3565b67ffffffffffffffff8111156140975761409661309a565b5b6140a1825461393c565b6140ac828285613fe8565b600060209050601f8311600181146140df57600084156140cd578287015190505b6140d78582614059565b86555061413f565b601f1984166140ed86613ed3565b60005b82811015614115578489015182556001820191506020850194506020810190506140f0565b86831015614132578489015161412e601f89168261403b565b8355505b6001600288020188555050505b505050505050565b7f486f706566756c6c792073656e64696e672074686520636f727265637420707260008201527f6963650000000000000000000000000000000000000000000000000000000000602082015250565b60006141a3602383612ebe565b91506141ae82614147565b604082019050919050565b600060208201905081810360008301526141d281614196565b9050919050565b7f4d616b652073757265207468652070726963652069736e2774206e656761746960008201527f7665000000000000000000000000000000000000000000000000000000000000602082015250565b6000614235602283612ebe565b9150614240826141d9565b604082019050919050565b6000602082019050818103600083015261426481614228565b9050919050565b6000819050919050565b61428661428182612f65565b61426b565b82525050565b60006142988287614275565b6020820191506142a88286614275565b6020820191506142b88285614275565b6020820191506142c88284614275565b60208201915081905095945050505050565b7f4e487b7100000000000000000000000000000000000000000000000000000000600052601260045260246000fd5b600061431482612f65565b915061431f83612f65565b92508261432f5761432e6142da565b5b828206905092915050565b600081519050919050565b600082825260208201905092915050565b6000819050602082019050919050565b600061437283836133c1565b60208301905092915050565b6000602082019050919050565b60006143968261433a565b6143a08185614345565b93506143ab83614356565b8060005b838110156143dc5781516143c38882614366565b97506143ce8361437e565b9250506001810190506143af565b5085935050505092915050565b600081519050919050565b600082825260208201905092915050565b6000819050602082019050919050565b61441e816137c7565b82525050565b60006144308383614415565b60208301905092915050565b6000602082019050919050565b6000614454826143e9565b61445e81856143f4565b935061446983614405565b8060005b8381101561449a5781516144818882614424565b975061448c8361443c565b92505060018101905061446d565b5085935050505092915050565b600060c0820190506144bc6000830189612ffa565b6144c96020830188612ffa565b6144d66040830187613318565b6144e36060830186612e89565b81810360808301526144f5818561438b565b905081810360a08301526145098184614449565b9050979650505050505050565b7f4552433732313a207472616e736665722066726f6d20696e636f72726563742060008201527f6f776e6572000000000000000000000000000000000000000000000000000000602082015250565b6000614572602583612ebe565b915061457d82614516565b604082019050919050565b600060208201905081810360008301526145a181614565565b9050919050565b7f4552433732313a207472616e7366657220746f20746865207a65726f2061646460008201527f7265737300000000000000000000000000000000000000000000000000000000602082015250565b6000614604602483612ebe565b915061460f826145a8565b604082019050919050565b60006020820190508181036000830152614633816145f7565b9050919050565b7f4552433732313a20617070726f766520746f2063616c6c657200000000000000600082015250565b6000614670601983612ebe565b915061467b8261463a565b602082019050919050565b6000602082019050818103600083015261469f81614663565b9050919050565b7f4552433732313a207472616e7366657220746f206e6f6e20455243373231526560008201527f63656976657220696d706c656d656e7465720000000000000000000000000000602082015250565b6000614702603283612ebe565b915061470d826146a6565b604082019050919050565b60006020820190508181036000830152614731816146f5565b9050919050565b600061474382612f65565b915061474e83612f65565b925082820390508181111561476657614765613b23565b5b92915050565b600081519050919050565b600082825260208201905092915050565b60006147938261476c565b61479d8185614777565b93506147ad818560208601612ecf565b6147b681612ef9565b840191505092915050565b60006080820190506147d66000830187612ffa565b6147e36020830186612ffa565b6147f06040830185613318565b81810360608301526148028184614788565b905095945050505050565b60008151905061481c81612e24565b92915050565b60006020828403121561483857614837612dee565b5b60006148468482850161480d565b91505092915050565b7f4552433732313a206d696e7420746f20746865207a65726f2061646472657373600082015250565b6000614885602083612ebe565b91506148908261484f565b602082019050919050565b600060208201905081810360008301526148b481614878565b9050919050565b7f4552433732313a20746f6b656e20616c7265616479206d696e74656400000000600082015250565b60006148f1601c83612ebe565b91506148fc826148bb565b602082019050919050565b60006020820190508181036000830152614920816148e4565b905091905056fea26469706673582212207dc411cf29afcbb3887e88ba51815e5b5b0b619bc3d277b9385e3d30f584b4f464736f6c63430008110033",
  "immutableReferences": {},
  "source": "//SPDX-License-Identifier: Unlicense\r\npragma solidity ^0.8.0;\r\n\r\nimport './RWDToken.sol';\r\n\r\nimport \"@openzeppelin/contracts/utils/Counters.sol\";\r\nimport \"@openzeppelin/contracts/token/ERC721/extensions/ERC721URIStorage.sol\";\r\nimport \"@openzeppelin/contracts/token/ERC721/ERC721.sol\";\r\n\r\ncontract NFTMarketplace is ERC721URIStorage {\r\n\r\n    using Counters for Counters.Counter;\r\n    //_tokenIds variable has the most recent minted tokenId\r\n    Counters.Counter private _tokenIds;\r\n    //Keeps track of the number of items sold on the marketplace\r\n    Counters.Counter private _itemsSold;\r\n    //owner is the contract address that created the smart contract\r\n    address owner;\r\n    //The fee charged by the marketplace to be allowed to list an NFT\r\n    uint256 listPrice = 0.01 ether;\r\n    RWDToken public rwdToken;\r\n\r\n    //The structure to store info about a listed token\r\n    struct ListedToken {\r\n        uint256 tokenId;\r\n        address payable owner;\r\n        address payable seller;\r\n        uint256 price;\r\n        bool currentlyListed;\r\n    }\r\n\r\n    struct MintToken {\r\n        uint256 tokenId;\r\n        uint256 mintValue;\r\n    }\r\n\r\n    //The structure to store info mountabout a nft owner for a nft\r\n    struct NFTRedeemState {\r\n        uint issueDate;\r\n        uint256 mintValue;\r\n        bool hasRedeemed;\r\n    }\r\n\r\n    //the event emitted when a token is successfully listed\r\n    event TokenListedSuccess (\r\n        uint256 indexed tokenId,\r\n        address owner,\r\n        address seller,\r\n        uint256 price,\r\n        bool currentlyListed,\r\n        uint256[] mintVal,\r\n        uint32[] redeemCodes\r\n    );\r\n\r\n    event NFTRedeemed(address user, uint256 tokenId, uint32 redeemCode, uint256 mintValue);\r\n\r\n    //tokenId to NFT\r\n    mapping(uint256 => ListedToken) private idToListedToken;\r\n\r\n    // redeem code to mint token\r\n    mapping(uint32 => MintToken) private codeToMintToken;\r\n\r\n    //NFTOwners to NFT to NFT Redeem State\r\n    mapping (address => mapping(uint256 => NFTRedeemState[])) public nftOwners;\r\n\r\n    constructor(RWDToken _rwdToken) ERC721(\"NFTMarketplace\", \"NFTM\") {\r\n        owner = msg.sender;\r\n        rwdToken = _rwdToken;\r\n    }\r\n\r\n    function updateListPrice(uint256 _listPrice) public payable {\r\n        require(owner == msg.sender, \"Only owner can update listing price\");\r\n        listPrice = _listPrice;\r\n    }\r\n\r\n    function getListPrice() public view returns (uint256) {\r\n        return listPrice;\r\n    }\r\n\r\n    function getLatestIdToListedToken() public view returns (ListedToken memory) {\r\n        uint256 currentTokenId = _tokenIds.current();\r\n        return idToListedToken[currentTokenId];\r\n    }\r\n\r\n    function getListedTokenForId(uint256 tokenId) public view returns (ListedToken memory) {\r\n        return idToListedToken[tokenId];\r\n    }\r\n\r\n    function getCurrentToken() public view returns (uint256) {\r\n        return _tokenIds.current();\r\n    }\r\n\r\n    //The first time a token is created, it is listed here\r\n    function createToken(string memory tokenURI, uint256 price, uint256[] memory mintVal) public payable returns (uint) {\r\n        //Increment the tokenId counter, which is keeping track of the number of minted NFTs\r\n        _tokenIds.increment();\r\n        uint256 newTokenId = _tokenIds.current();\r\n\r\n        //Mint the NFT with tokenId newTokenId to the address who called createToken\r\n        _safeMint(msg.sender, newTokenId);\r\n\r\n        //Map the tokenId to the tokenURI (which is an IPFS URL with the NFT metadata)\r\n        _setTokenURI(newTokenId, tokenURI);\r\n\r\n        //Helper function to update Global variables and emit an event\r\n        createListedToken(newTokenId, price, mintVal);\r\n\r\n        return newTokenId;\r\n    }\r\n\r\n    function createListedToken(uint256 tokenId, uint256 price, uint256[] memory mintVal) private {\r\n        //Make sure the sender sent enough ETH to pay for listing\r\n        require(msg.value == listPrice, \"Hopefully sending the correct price\");\r\n        //Just sanity check\r\n        require(price > 0, \"Make sure the price isn't negative\");\r\n\r\n        /* Generate Random String Coupon code */\r\n        uint32[] memory redeemCodes = new uint32[](mintVal.length);\r\n        for(uint i = 0; i < mintVal.length; i++)\r\n        {\r\n            uint32 code = uint32(uint256(keccak256(abi.encodePacked(block.timestamp, block.difficulty, tokenId, mintVal[i])))%2000000000);\r\n            codeToMintToken[code] = MintToken({\r\n                tokenId: tokenId,\r\n                mintValue: mintVal[i]\r\n            });\r\n            redeemCodes[i] = code;\r\n        }\r\n\r\n        //Update the mapping of tokenId's to Token details, useful for retrieval functions\r\n        idToListedToken[tokenId] = ListedToken({\r\n            tokenId: tokenId,\r\n            owner: payable(address(this)),\r\n            seller: payable(msg.sender),\r\n            price: price,\r\n            currentlyListed: true\r\n        });\r\n\r\n        nftOwners[msg.sender][tokenId].push(NFTRedeemState({\r\n                issueDate: block.timestamp, \r\n                mintValue:0, \r\n                hasRedeemed: true\r\n                }));\r\n\r\n        _transfer(msg.sender, address(this), tokenId);\r\n        //Emit the event for successful transfer. The frontend parses this message and updates the end user\r\n        emit TokenListedSuccess(\r\n            tokenId,\r\n            address(this),\r\n            msg.sender,\r\n            price,\r\n            true,\r\n            mintVal,\r\n            redeemCodes\r\n        );\r\n    }\r\n    \r\n    //This will return all the NFTs currently listed to be sold on the marketplace\r\n    function getAllNFTs() public view returns (ListedToken[] memory) {\r\n        uint nftCount = _tokenIds.current();\r\n        ListedToken[] memory tokens = new ListedToken[](nftCount);\r\n        uint currentIndex = 0;\r\n        uint currentId;\r\n        //at the moment currentlyListed is true for all, if it becomes false in the future we will \r\n        //filter out currentlyListed == false over here\r\n        for(uint i = 0; i < nftCount; i++)\r\n        {\r\n            currentId = i + 1;\r\n            ListedToken storage currentItem = idToListedToken[currentId];\r\n            tokens[currentIndex] = currentItem;\r\n            currentIndex += 1;\r\n        }\r\n        //the array 'tokens' has the list of all NFTs in the marketplace\r\n        return tokens;\r\n    }\r\n    \r\n    //Returns all the NFTs that the current user is owner or seller in\r\n    function getMyNFTs() public view returns (ListedToken[] memory) {\r\n        uint totalItemCount = _tokenIds.current();\r\n        uint itemCount = 0;\r\n        uint currentIndex = 0;\r\n        uint currentId;\r\n        //Important to get a count of all the NFTs that belong to the user before we can make an array for them\r\n        for(uint i=0; i < totalItemCount; i++)\r\n        {\r\n            if(idToListedToken[i+1].owner == msg.sender || idToListedToken[i+1].seller == msg.sender || checkWalletNFT(i+1)){\r\n                itemCount += 1;\r\n            }\r\n        }\r\n\r\n        //Once you have the count of relevant NFTs, create an array then store all the NFTs in it\r\n        ListedToken[] memory items = new ListedToken[](itemCount);\r\n        for(uint i=0; i < totalItemCount; i++) {\r\n            if(idToListedToken[i+1].owner == msg.sender || idToListedToken[i+1].seller == msg.sender || checkWalletNFT(i+1)) {\r\n                currentId = i+1;\r\n                ListedToken storage currentItem = idToListedToken[currentId];\r\n                items[currentIndex] = currentItem;\r\n                currentIndex += 1;\r\n            }\r\n        }\r\n        return items;\r\n    }\r\n\r\n    function executeSale(uint256 tokenId) public payable{\r\n        // uint price = idToListedToken[tokenId].price;\r\n        // address seller = idToListedToken[tokenId].seller;\r\n        // require(msg.value == price, \"Please submit the asking price in order to complete the purchase\");\r\n\r\n        // //update the details of the token\r\n        // idToListedToken[tokenId].currentlyListed = true;\r\n        // idToListedToken[tokenId].seller = payable(msg.sender);\r\n        // _itemsSold.increment();\r\n\r\n        // //Actually transfer the token to the new owner\r\n        // _transfer(address(this), msg.sender, tokenId);\r\n        // //approve the marketplace to sell NFTs on your behalf\r\n        // approve(address(this), tokenId);\r\n\r\n        // //Transfer the listing fee to the marketplace creator\r\n        // payable(owner).transfer(listPrice);\r\n        // //Transfer the proceeds from the sale to the seller of the NFT\r\n        // payable(seller).transfer(msg.value);\r\n\r\n        nftOwners[msg.sender][tokenId].push(NFTRedeemState({\r\n                issueDate: block.timestamp, \r\n                mintValue: 0, \r\n                hasRedeemed: false\r\n                }));\r\n    }\r\n\r\n    function getLastRedeemState(NFTRedeemState[] memory redeemStates) private pure returns (NFTRedeemState memory){\r\n        uint lastIndex = redeemStates.length - 1;\r\n        return redeemStates[lastIndex];\r\n    }\r\n\r\n    function redeemNFT(uint256 tokenId, uint32 redeemCode) public{\r\n\r\n        // require(checkWalletNFT(tokenId) && codeToMintToken[redeemCode].tokenId == tokenId && !getLastRedeemState(nftOwners[msg.sender][tokenId]).hasRedeemed, \"Invalid Redeem Code for NFT\");\r\n        // require(codeToMintToken[redeemCode].tokenId == tokenId, \"1. Invalid Redeem Code for NFT\");\r\n        // require(!(getLastRedeemState(nftOwners[msg.sender][tokenId]).hasRedeemed), \"2. Invalid Redeem Code for NFT\");\r\n\r\n        // uint256 mintValue = codeToMintToken[redeemCode].mintValue;\r\n        uint256 mintValue = 0;\r\n\r\n        // rwdToken.transfer(msg.sender, mintValue);\r\n\r\n        nftOwners[msg.sender][tokenId].push(NFTRedeemState({\r\n                issueDate: block.timestamp, \r\n                mintValue: mintValue, \r\n                hasRedeemed: true\r\n        }));\r\n\r\n        emit NFTRedeemed(msg.sender, tokenId, redeemCode, mintValue);\r\n    }\r\n\r\n      function checkWalletNFT(uint256 tokenId) public view returns (bool) {\r\n        return (nftOwners[msg.sender][tokenId]).length > 0;\r\n    }\r\n}",
  "sourcePath": "D:\\Documents\\Events\\2023\\2. KL Mini Hack\\polygon-zkevm-truffle\\contracts\\NFTMarketplace.sol",
  "compiler": {
    "name": "solc",
    "version": "0.8.17+commit.8df45f5f.Emscripten.clang"
  },
  "schemaVersion": "3.4.11",
  "updatedAt": "2023-02-15T14:13:09.989Z",
  "networkType": "ethereum",
  "devdoc": {
    "kind": "dev",
    "methods": {
      "approve(address,uint256)": {
        "details": "See {IERC721-approve}."
      },
      "balanceOf(address)": {
        "details": "See {IERC721-balanceOf}."
      },
      "getApproved(uint256)": {
        "details": "See {IERC721-getApproved}."
      },
      "isApprovedForAll(address,address)": {
        "details": "See {IERC721-isApprovedForAll}."
      },
      "name()": {
        "details": "See {IERC721Metadata-name}."
      },
      "ownerOf(uint256)": {
        "details": "See {IERC721-ownerOf}."
      },
      "safeTransferFrom(address,address,uint256)": {
        "details": "See {IERC721-safeTransferFrom}."
      },
      "safeTransferFrom(address,address,uint256,bytes)": {
        "details": "See {IERC721-safeTransferFrom}."
      },
      "setApprovalForAll(address,bool)": {
        "details": "See {IERC721-setApprovalForAll}."
      },
      "supportsInterface(bytes4)": {
        "details": "See {IERC165-supportsInterface}."
      },
      "symbol()": {
        "details": "See {IERC721Metadata-symbol}."
      },
      "tokenURI(uint256)": {
        "details": "See {IERC721Metadata-tokenURI}."
      },
      "transferFrom(address,address,uint256)": {
        "details": "See {IERC721-transferFrom}."
      }
    },
    "version": 1
  },
  "userdoc": {
    "kind": "user",
    "methods": {},
    "version": 1
  }
}