{
  "contractName": "NFTMarketplace",
  "abi": [
    {
      "inputs": [
        {
          "internalType": "contract RWDToken",
          "name": "_rwdToken",
          "type": "address"
        }
      ],
      "stateMutability": "nonpayable",
      "type": "constructor"
    },
    {
      "anonymous": false,
      "inputs": [
        {
          "indexed": true,
          "internalType": "address",
          "name": "owner",
          "type": "address"
        },
        {
          "indexed": true,
          "internalType": "address",
          "name": "approved",
          "type": "address"
        },
        {
          "indexed": true,
          "internalType": "uint256",
          "name": "tokenId",
          "type": "uint256"
        }
      ],
      "name": "Approval",
      "type": "event"
    },
    {
      "anonymous": false,
      "inputs": [
        {
          "indexed": true,
          "internalType": "address",
          "name": "owner",
          "type": "address"
        },
        {
          "indexed": true,
          "internalType": "address",
          "name": "operator",
          "type": "address"
        },
        {
          "indexed": false,
          "internalType": "bool",
          "name": "approved",
          "type": "bool"
        }
      ],
      "name": "ApprovalForAll",
      "type": "event"
    },
    {
      "anonymous": false,
      "inputs": [
        {
          "indexed": false,
          "internalType": "address",
          "name": "user",
          "type": "address"
        },
        {
          "indexed": false,
          "internalType": "uint256",
          "name": "tokenId",
          "type": "uint256"
        },
        {
          "indexed": false,
          "internalType": "uint32",
          "name": "redeemCode",
          "type": "uint32"
        },
        {
          "indexed": false,
          "internalType": "uint256",
          "name": "mintValue",
          "type": "uint256"
        },
        {
          "indexed": false,
          "internalType": "uint256",
          "name": "redeemStatesLen",
          "type": "uint256"
        },
        {
          "indexed": false,
          "internalType": "uint256",
          "name": "oldBalance",
          "type": "uint256"
        },
        {
          "indexed": false,
          "internalType": "uint256",
          "name": "newBalance",
          "type": "uint256"
        }
      ],
      "name": "NFTRedeemed",
      "type": "event"
    },
    {
      "anonymous": false,
      "inputs": [
        {
          "indexed": true,
          "internalType": "uint256",
          "name": "tokenId",
          "type": "uint256"
        },
        {
          "indexed": false,
          "internalType": "address",
          "name": "owner",
          "type": "address"
        },
        {
          "indexed": false,
          "internalType": "address",
          "name": "seller",
          "type": "address"
        },
        {
          "indexed": false,
          "internalType": "uint256",
          "name": "price",
          "type": "uint256"
        },
        {
          "indexed": false,
          "internalType": "bool",
          "name": "currentlyListed",
          "type": "bool"
        },
        {
          "indexed": false,
          "internalType": "uint256[]",
          "name": "mintVal",
          "type": "uint256[]"
        },
        {
          "indexed": false,
          "internalType": "uint32[]",
          "name": "redeemCodes",
          "type": "uint32[]"
        }
      ],
      "name": "TokenListedSuccess",
      "type": "event"
    },
    {
      "anonymous": false,
      "inputs": [
        {
          "indexed": true,
          "internalType": "address",
          "name": "from",
          "type": "address"
        },
        {
          "indexed": true,
          "internalType": "address",
          "name": "to",
          "type": "address"
        },
        {
          "indexed": true,
          "internalType": "uint256",
          "name": "tokenId",
          "type": "uint256"
        }
      ],
      "name": "Transfer",
      "type": "event"
    },
    {
      "inputs": [
        {
          "internalType": "address",
          "name": "to",
          "type": "address"
        },
        {
          "internalType": "uint256",
          "name": "tokenId",
          "type": "uint256"
        }
      ],
      "name": "approve",
      "outputs": [],
      "stateMutability": "nonpayable",
      "type": "function"
    },
    {
      "inputs": [
        {
          "internalType": "address",
          "name": "owner",
          "type": "address"
        }
      ],
      "name": "balanceOf",
      "outputs": [
        {
          "internalType": "uint256",
          "name": "",
          "type": "uint256"
        }
      ],
      "stateMutability": "view",
      "type": "function",
      "constant": true
    },
    {
      "inputs": [
        {
          "internalType": "uint256",
          "name": "tokenId",
          "type": "uint256"
        }
      ],
      "name": "getApproved",
      "outputs": [
        {
          "internalType": "address",
          "name": "",
          "type": "address"
        }
      ],
      "stateMutability": "view",
      "type": "function",
      "constant": true
    },
    {
      "inputs": [
        {
          "internalType": "address",
          "name": "owner",
          "type": "address"
        },
        {
          "internalType": "address",
          "name": "operator",
          "type": "address"
        }
      ],
      "name": "isApprovedForAll",
      "outputs": [
        {
          "internalType": "bool",
          "name": "",
          "type": "bool"
        }
      ],
      "stateMutability": "view",
      "type": "function",
      "constant": true
    },
    {
      "inputs": [],
      "name": "name",
      "outputs": [
        {
          "internalType": "string",
          "name": "",
          "type": "string"
        }
      ],
      "stateMutability": "view",
      "type": "function",
      "constant": true
    },
    {
      "inputs": [
        {
          "internalType": "address",
          "name": "",
          "type": "address"
        },
        {
          "internalType": "uint256",
          "name": "",
          "type": "uint256"
        },
        {
          "internalType": "uint256",
          "name": "",
          "type": "uint256"
        }
      ],
      "name": "nftOwners",
      "outputs": [
        {
          "internalType": "uint256",
          "name": "issueDate",
          "type": "uint256"
        },
        {
          "internalType": "uint256",
          "name": "mintValue",
          "type": "uint256"
        },
        {
          "internalType": "bool",
          "name": "hasRedeemed",
          "type": "bool"
        }
      ],
      "stateMutability": "view",
      "type": "function",
      "constant": true
    },
    {
      "inputs": [
        {
          "internalType": "uint256",
          "name": "tokenId",
          "type": "uint256"
        }
      ],
      "name": "ownerOf",
      "outputs": [
        {
          "internalType": "address",
          "name": "",
          "type": "address"
        }
      ],
      "stateMutability": "view",
      "type": "function",
      "constant": true
    },
    {
      "inputs": [],
      "name": "rwdToken",
      "outputs": [
        {
          "internalType": "contract RWDToken",
          "name": "",
          "type": "address"
        }
      ],
      "stateMutability": "view",
      "type": "function",
      "constant": true
    },
    {
      "inputs": [
        {
          "internalType": "address",
          "name": "from",
          "type": "address"
        },
        {
          "internalType": "address",
          "name": "to",
          "type": "address"
        },
        {
          "internalType": "uint256",
          "name": "tokenId",
          "type": "uint256"
        }
      ],
      "name": "safeTransferFrom",
      "outputs": [],
      "stateMutability": "nonpayable",
      "type": "function"
    },
    {
      "inputs": [
        {
          "internalType": "address",
          "name": "from",
          "type": "address"
        },
        {
          "internalType": "address",
          "name": "to",
          "type": "address"
        },
        {
          "internalType": "uint256",
          "name": "tokenId",
          "type": "uint256"
        },
        {
          "internalType": "bytes",
          "name": "data",
          "type": "bytes"
        }
      ],
      "name": "safeTransferFrom",
      "outputs": [],
      "stateMutability": "nonpayable",
      "type": "function"
    },
    {
      "inputs": [
        {
          "internalType": "address",
          "name": "operator",
          "type": "address"
        },
        {
          "internalType": "bool",
          "name": "approved",
          "type": "bool"
        }
      ],
      "name": "setApprovalForAll",
      "outputs": [],
      "stateMutability": "nonpayable",
      "type": "function"
    },
    {
      "inputs": [
        {
          "internalType": "bytes4",
          "name": "interfaceId",
          "type": "bytes4"
        }
      ],
      "name": "supportsInterface",
      "outputs": [
        {
          "internalType": "bool",
          "name": "",
          "type": "bool"
        }
      ],
      "stateMutability": "view",
      "type": "function",
      "constant": true
    },
    {
      "inputs": [],
      "name": "symbol",
      "outputs": [
        {
          "internalType": "string",
          "name": "",
          "type": "string"
        }
      ],
      "stateMutability": "view",
      "type": "function",
      "constant": true
    },
    {
      "inputs": [
        {
          "internalType": "uint256",
          "name": "tokenId",
          "type": "uint256"
        }
      ],
      "name": "tokenURI",
      "outputs": [
        {
          "internalType": "string",
          "name": "",
          "type": "string"
        }
      ],
      "stateMutability": "view",
      "type": "function",
      "constant": true
    },
    {
      "inputs": [
        {
          "internalType": "address",
          "name": "from",
          "type": "address"
        },
        {
          "internalType": "address",
          "name": "to",
          "type": "address"
        },
        {
          "internalType": "uint256",
          "name": "tokenId",
          "type": "uint256"
        }
      ],
      "name": "transferFrom",
      "outputs": [],
      "stateMutability": "nonpayable",
      "type": "function"
    },
    {
      "inputs": [
        {
          "internalType": "uint256",
          "name": "_listPrice",
          "type": "uint256"
        }
      ],
      "name": "updateListPrice",
      "outputs": [],
      "stateMutability": "payable",
      "type": "function",
      "payable": true
    },
    {
      "inputs": [],
      "name": "getListPrice",
      "outputs": [
        {
          "internalType": "uint256",
          "name": "",
          "type": "uint256"
        }
      ],
      "stateMutability": "view",
      "type": "function",
      "constant": true
    },
    {
      "inputs": [],
      "name": "getLatestIdToListedToken",
      "outputs": [
        {
          "components": [
            {
              "internalType": "uint256",
              "name": "tokenId",
              "type": "uint256"
            },
            {
              "internalType": "address payable",
              "name": "owner",
              "type": "address"
            },
            {
              "internalType": "address payable",
              "name": "seller",
              "type": "address"
            },
            {
              "internalType": "uint256",
              "name": "price",
              "type": "uint256"
            },
            {
              "internalType": "bool",
              "name": "currentlyListed",
              "type": "bool"
            }
          ],
          "internalType": "struct NFTMarketplace.ListedToken",
          "name": "",
          "type": "tuple"
        }
      ],
      "stateMutability": "view",
      "type": "function",
      "constant": true
    },
    {
      "inputs": [
        {
          "internalType": "uint256",
          "name": "tokenId",
          "type": "uint256"
        }
      ],
      "name": "getListedTokenForId",
      "outputs": [
        {
          "components": [
            {
              "internalType": "uint256",
              "name": "tokenId",
              "type": "uint256"
            },
            {
              "internalType": "address payable",
              "name": "owner",
              "type": "address"
            },
            {
              "internalType": "address payable",
              "name": "seller",
              "type": "address"
            },
            {
              "internalType": "uint256",
              "name": "price",
              "type": "uint256"
            },
            {
              "internalType": "bool",
              "name": "currentlyListed",
              "type": "bool"
            }
          ],
          "internalType": "struct NFTMarketplace.ListedToken",
          "name": "",
          "type": "tuple"
        }
      ],
      "stateMutability": "view",
      "type": "function",
      "constant": true
    },
    {
      "inputs": [],
      "name": "getCurrentToken",
      "outputs": [
        {
          "internalType": "uint256",
          "name": "",
          "type": "uint256"
        }
      ],
      "stateMutability": "view",
      "type": "function",
      "constant": true
    },
    {
      "inputs": [
        {
          "internalType": "string",
          "name": "tokenURI",
          "type": "string"
        },
        {
          "internalType": "uint256",
          "name": "price",
          "type": "uint256"
        },
        {
          "internalType": "uint256[]",
          "name": "mintVal",
          "type": "uint256[]"
        }
      ],
      "name": "createToken",
      "outputs": [
        {
          "internalType": "uint256",
          "name": "",
          "type": "uint256"
        }
      ],
      "stateMutability": "payable",
      "type": "function",
      "payable": true
    },
    {
      "inputs": [],
      "name": "getAllNFTs",
      "outputs": [
        {
          "components": [
            {
              "internalType": "uint256",
              "name": "tokenId",
              "type": "uint256"
            },
            {
              "internalType": "address payable",
              "name": "owner",
              "type": "address"
            },
            {
              "internalType": "address payable",
              "name": "seller",
              "type": "address"
            },
            {
              "internalType": "uint256",
              "name": "price",
              "type": "uint256"
            },
            {
              "internalType": "bool",
              "name": "currentlyListed",
              "type": "bool"
            }
          ],
          "internalType": "struct NFTMarketplace.ListedToken[]",
          "name": "",
          "type": "tuple[]"
        }
      ],
      "stateMutability": "view",
      "type": "function",
      "constant": true
    },
    {
      "inputs": [],
      "name": "getMyNFTs",
      "outputs": [
        {
          "components": [
            {
              "internalType": "uint256",
              "name": "tokenId",
              "type": "uint256"
            },
            {
              "internalType": "address payable",
              "name": "owner",
              "type": "address"
            },
            {
              "internalType": "address payable",
              "name": "seller",
              "type": "address"
            },
            {
              "internalType": "uint256",
              "name": "price",
              "type": "uint256"
            },
            {
              "internalType": "bool",
              "name": "currentlyListed",
              "type": "bool"
            }
          ],
          "internalType": "struct NFTMarketplace.ListedToken[]",
          "name": "",
          "type": "tuple[]"
        }
      ],
      "stateMutability": "view",
      "type": "function",
      "constant": true
    },
    {
      "inputs": [
        {
          "internalType": "uint256",
          "name": "tokenId",
          "type": "uint256"
        }
      ],
      "name": "executeSale",
      "outputs": [],
      "stateMutability": "payable",
      "type": "function",
      "payable": true
    },
    {
      "inputs": [
        {
          "internalType": "uint256",
          "name": "tokenId",
          "type": "uint256"
        },
        {
          "internalType": "address[]",
          "name": "walletAddr",
          "type": "address[]"
        }
      ],
      "name": "issueNFT",
      "outputs": [],
      "stateMutability": "nonpayable",
      "type": "function"
    },
    {
      "inputs": [
        {
          "internalType": "uint256",
          "name": "tokenId",
          "type": "uint256"
        },
        {
          "internalType": "uint32",
          "name": "redeemCode",
          "type": "uint32"
        }
      ],
      "name": "redeemNFT",
      "outputs": [],
      "stateMutability": "nonpayable",
      "type": "function"
    },
    {
      "inputs": [
        {
          "internalType": "uint256",
          "name": "tokenId",
          "type": "uint256"
        }
      ],
      "name": "checkWalletNFT",
      "outputs": [
        {
          "internalType": "bool",
          "name": "",
          "type": "bool"
        }
      ],
      "stateMutability": "view",
      "type": "function",
      "constant": true
    }
  ],
  "bytecode": "0x6080604052662386f26fc10000600a553480156200001c57600080fd5b506040516200597c3803806200597c8339818101604052810190620000429190620001db565b6040518060400160405280600e81526020017f4e46544d61726b6574706c6163650000000000000000000000000000000000008152506040518060400160405280600481526020017f4e46544d000000000000000000000000000000000000000000000000000000008152508160009081620000bf919062000487565b508060019081620000d1919062000487565b50505033600960006101000a81548173ffffffffffffffffffffffffffffffffffffffff021916908373ffffffffffffffffffffffffffffffffffffffff16021790555080600b60006101000a81548173ffffffffffffffffffffffffffffffffffffffff021916908373ffffffffffffffffffffffffffffffffffffffff160217905550506200056e565b600080fd5b600073ffffffffffffffffffffffffffffffffffffffff82169050919050565b60006200018f8262000162565b9050919050565b6000620001a38262000182565b9050919050565b620001b58162000196565b8114620001c157600080fd5b50565b600081519050620001d581620001aa565b92915050565b600060208284031215620001f457620001f36200015d565b5b60006200020484828501620001c4565b91505092915050565b600081519050919050565b7f4e487b7100000000000000000000000000000000000000000000000000000000600052604160045260246000fd5b7f4e487b7100000000000000000000000000000000000000000000000000000000600052602260045260246000fd5b600060028204905060018216806200028f57607f821691505b602082108103620002a557620002a462000247565b5b50919050565b60008190508160005260206000209050919050565b60006020601f8301049050919050565b600082821b905092915050565b6000600883026200030f7fffffffffffffffffffffffffffffffffffffffffffffffffffffffffffffffff82620002d0565b6200031b8683620002d0565b95508019841693508086168417925050509392505050565b6000819050919050565b6000819050919050565b600062000368620003626200035c8462000333565b6200033d565b62000333565b9050919050565b6000819050919050565b620003848362000347565b6200039c62000393826200036f565b848454620002dd565b825550505050565b600090565b620003b3620003a4565b620003c081848462000379565b505050565b5b81811015620003e857620003dc600082620003a9565b600181019050620003c6565b5050565b601f82111562000437576200040181620002ab565b6200040c84620002c0565b810160208510156200041c578190505b620004346200042b85620002c0565b830182620003c5565b50505b505050565b600082821c905092915050565b60006200045c600019846008026200043c565b1980831691505092915050565b600062000477838362000449565b9150826002028217905092915050565b62000492826200020d565b67ffffffffffffffff811115620004ae57620004ad62000218565b5b620004ba825462000276565b620004c7828285620003ec565b600060209050601f831160018114620004ff5760008415620004ea578287015190505b620004f6858262000469565b86555062000566565b601f1984166200050f86620002ab565b60005b82811015620005395784890151825560018201915060208501945060208101905062000512565b8683101562000559578489015162000555601f89168262000449565b8355505b6001600288020188555050505b505050505050565b6153fe806200057e6000396000f3fe60806040526004361061019c5760003560e01c806395d89b41116100ec578063db4bd57c1161008a578063e0391b0911610064578063e0391b09146105d5578063e985e9c514610600578063ef2d17461461063d578063fed9736c146106685761019c565b8063db4bd57c14610546578063dfbb136214610583578063dfbfc2bb146105ac5761019c565b8063b88d4fde116100c6578063b88d4fde14610499578063c322579c146104c2578063c87b56dd146104de578063d1a88ae51461051b5761019c565b806395d89b41146104295780639b1225c414610454578063a22cb465146104705761019c565b806342842e0e1161015957806368f1945f1161013357806368f1945f1461035957806370a08231146103845780637d787a24146103c15780638e264590146103ec5761019c565b806342842e0e146102c8578063629cb2e4146102f15780636352211e1461031c5761019c565b806301ffc9a7146101a157806306fdde03146101de578063081812fc14610209578063095ea7b3146102465780631bc523871461026f57806323b872dd1461029f575b600080fd5b3480156101ad57600080fd5b506101c860048036038101906101c39190613623565b6106a7565b6040516101d5919061366b565b60405180910390f35b3480156101ea57600080fd5b506101f3610789565b6040516102009190613716565b60405180910390f35b34801561021557600080fd5b50610230600480360381019061022b919061376e565b61081b565b60405161023d91906137dc565b60405180910390f35b34801561025257600080fd5b5061026d60048036038101906102689190613823565b610861565b005b61028960048036038101906102849190613a60565b610978565b6040516102969190613afa565b60405180910390f35b3480156102ab57600080fd5b506102c660048036038101906102c19190613b15565b6109bc565b005b3480156102d457600080fd5b506102ef60048036038101906102ea9190613b15565b610a1c565b005b3480156102fd57600080fd5b50610306610a3c565b6040516103139190613cbe565b60405180910390f35b34801561032857600080fd5b50610343600480360381019061033e919061376e565b610e8f565b60405161035091906137dc565b60405180910390f35b34801561036557600080fd5b5061036e610f15565b60405161037b9190613afa565b60405180910390f35b34801561039057600080fd5b506103ab60048036038101906103a69190613ce0565b610f1f565b6040516103b89190613afa565b60405180910390f35b3480156103cd57600080fd5b506103d6610fd6565b6040516103e39190613d6c565b60405180910390f35b3480156103f857600080fd5b50610413600480360381019061040e919061376e565b610ffc565b6040516104209190613def565b60405180910390f35b34801561043557600080fd5b5061043e611104565b60405161044b9190613716565b60405180910390f35b61046e6004803603810190610469919061376e565b611196565b005b34801561047c57600080fd5b5061049760048036038101906104929190613e36565b611267565b005b3480156104a557600080fd5b506104c060048036038101906104bb9190613f17565b61127d565b005b6104dc60048036038101906104d7919061376e565b6112df565b005b3480156104ea57600080fd5b506105056004803603810190610500919061376e565b611379565b6040516105129190613716565b60405180910390f35b34801561052757600080fd5b5061053061148b565b60405161053d9190613def565b60405180910390f35b34801561055257600080fd5b5061056d6004803603810190610568919061376e565b6115a0565b60405161057a919061366b565b60405180910390f35b34801561058f57600080fd5b506105aa60048036038101906105a5919061405d565b6115ff565b005b3480156105b857600080fd5b506105d360048036038101906105ce91906140f5565b61170b565b005b3480156105e157600080fd5b506105ea611b94565b6040516105f79190613cbe565b60405180910390f35b34801561060c57600080fd5b5061062760048036038101906106229190614135565b611d66565b604051610634919061366b565b60405180910390f35b34801561064957600080fd5b50610652611dfa565b60405161065f9190613afa565b60405180910390f35b34801561067457600080fd5b5061068f600480360381019061068a9190614175565b611e0b565b60405161069e939291906141c8565b60405180910390f35b60007f80ac58cd000000000000000000000000000000000000000000000000000000007bffffffffffffffffffffffffffffffffffffffffffffffffffffffff1916827bffffffffffffffffffffffffffffffffffffffffffffffffffffffff1916148061077257507f5b5e139f000000000000000000000000000000000000000000000000000000007bffffffffffffffffffffffffffffffffffffffffffffffffffffffff1916827bffffffffffffffffffffffffffffffffffffffffffffffffffffffff1916145b80610782575061078182611e6c565b5b9050919050565b6060600080546107989061422e565b80601f01602080910402602001604051908101604052809291908181526020018280546107c49061422e565b80156108115780601f106107e657610100808354040283529160200191610811565b820191906000526020600020905b8154815290600101906020018083116107f457829003601f168201915b5050505050905090565b600061082682611ed6565b6004600083815260200190815260200160002060009054906101000a900473ffffffffffffffffffffffffffffffffffffffff169050919050565b600061086c82610e8f565b90508073ffffffffffffffffffffffffffffffffffffffff168373ffffffffffffffffffffffffffffffffffffffff16036108dc576040517f08c379a00000000000000000000000000000000000000000000000000000000081526004016108d3906142d1565b60405180910390fd5b8073ffffffffffffffffffffffffffffffffffffffff166108fb611f21565b73ffffffffffffffffffffffffffffffffffffffff16148061092a575061092981610924611f21565b611d66565b5b610969576040517f08c379a000000000000000000000000000000000000000000000000000000000815260040161096090614363565b60405180910390fd5b6109738383611f29565b505050565b60006109846007611fe2565b60006109906007611ff8565b905061099c3382612006565b6109a68186612024565b6109b1818585612091565b809150509392505050565b6109cd6109c7611f21565b826124c7565b610a0c576040517f08c379a0000000000000000000000000000000000000000000000000000000008152600401610a03906143f5565b60405180910390fd5b610a1783838361255c565b505050565b610a378383836040518060200160405280600081525061127d565b505050565b60606000610a4a6007611ff8565b9050600080600080600090505b84811015610ba9573373ffffffffffffffffffffffffffffffffffffffff16600c6000600184610a879190614444565b815260200190815260200160002060010160009054906101000a900473ffffffffffffffffffffffffffffffffffffffff1673ffffffffffffffffffffffffffffffffffffffff161480610b4857503373ffffffffffffffffffffffffffffffffffffffff16600c6000600184610afe9190614444565b815260200190815260200160002060020160009054906101000a900473ffffffffffffffffffffffffffffffffffffffff1673ffffffffffffffffffffffffffffffffffffffff16145b80610b815750610b63600182610b5e9190614444565b6115a0565b8015610b805750610b7f600182610b7a9190614444565b612855565b5b5b15610b9657600184610b939190614444565b93505b8080610ba190614478565b915050610a57565b5060008367ffffffffffffffff811115610bc657610bc561386d565b5b604051908082528060200260200182016040528015610bff57816020015b610bec613537565b815260200190600190039081610be45790505b50905060005b85811015610e83573373ffffffffffffffffffffffffffffffffffffffff16600c6000600184610c359190614444565b815260200190815260200160002060010160009054906101000a900473ffffffffffffffffffffffffffffffffffffffff1673ffffffffffffffffffffffffffffffffffffffff161480610cf657503373ffffffffffffffffffffffffffffffffffffffff16600c6000600184610cac9190614444565b815260200190815260200160002060020160009054906101000a900473ffffffffffffffffffffffffffffffffffffffff1673ffffffffffffffffffffffffffffffffffffffff16145b80610d2f5750610d11600182610d0c9190614444565b6115a0565b8015610d2e5750610d2d600182610d289190614444565b612855565b5b5b15610e7057600181610d419190614444565b92506000600c60008581526020019081526020016000209050806040518060a0016040529081600082015481526020016001820160009054906101000a900473ffffffffffffffffffffffffffffffffffffffff1673ffffffffffffffffffffffffffffffffffffffff1673ffffffffffffffffffffffffffffffffffffffff1681526020016002820160009054906101000a900473ffffffffffffffffffffffffffffffffffffffff1673ffffffffffffffffffffffffffffffffffffffff1673ffffffffffffffffffffffffffffffffffffffff168152602001600382015481526020016004820160009054906101000a900460ff161515151581525050838681518110610e5457610e536144c0565b5b6020026020010181905250600185610e6c9190614444565b9450505b8080610e7b90614478565b915050610c05565b50809550505050505090565b600080610e9b83612989565b9050600073ffffffffffffffffffffffffffffffffffffffff168173ffffffffffffffffffffffffffffffffffffffff1603610f0c576040517f08c379a0000000000000000000000000000000000000000000000000000000008152600401610f039061453b565b60405180910390fd5b80915050919050565b6000600a54905090565b60008073ffffffffffffffffffffffffffffffffffffffff168273ffffffffffffffffffffffffffffffffffffffff1603610f8f576040517f08c379a0000000000000000000000000000000000000000000000000000000008152600401610f86906145cd565b60405180910390fd5b600360008373ffffffffffffffffffffffffffffffffffffffff1673ffffffffffffffffffffffffffffffffffffffff168152602001908152602001600020549050919050565b600b60009054906101000a900473ffffffffffffffffffffffffffffffffffffffff1681565b611004613537565b600c60008381526020019081526020016000206040518060a0016040529081600082015481526020016001820160009054906101000a900473ffffffffffffffffffffffffffffffffffffffff1673ffffffffffffffffffffffffffffffffffffffff1673ffffffffffffffffffffffffffffffffffffffff1681526020016002820160009054906101000a900473ffffffffffffffffffffffffffffffffffffffff1673ffffffffffffffffffffffffffffffffffffffff1673ffffffffffffffffffffffffffffffffffffffff168152602001600382015481526020016004820160009054906101000a900460ff1615151515815250509050919050565b6060600180546111139061422e565b80601f016020809104026020016040519081016040528092919081815260200182805461113f9061422e565b801561118c5780601f106111615761010080835404028352916020019161118c565b820191906000526020600020905b81548152906001019060200180831161116f57829003601f168201915b5050505050905090565b600e60003373ffffffffffffffffffffffffffffffffffffffff1673ffffffffffffffffffffffffffffffffffffffff1681526020019081526020016000206000828152602001908152602001600020604051806060016040528042815260200160008152602001600015158152509080600181540180825580915050600190039060005260206000209060030201600090919091909150600082015181600001556020820151816001015560408201518160020160006101000a81548160ff021916908315150217905550505050565b611279611272611f21565b83836129c6565b5050565b61128e611288611f21565b836124c7565b6112cd576040517f08c379a00000000000000000000000000000000000000000000000000000000081526004016112c4906143f5565b60405180910390fd5b6112d984848484612b32565b50505050565b3373ffffffffffffffffffffffffffffffffffffffff16600960009054906101000a900473ffffffffffffffffffffffffffffffffffffffff1673ffffffffffffffffffffffffffffffffffffffff161461136f576040517f08c379a00000000000000000000000000000000000000000000000000000000081526004016113669061465f565b60405180910390fd5b80600a8190555050565b606061138482611ed6565b60006006600084815260200190815260200160002080546113a49061422e565b80601f01602080910402602001604051908101604052809291908181526020018280546113d09061422e565b801561141d5780601f106113f25761010080835404028352916020019161141d565b820191906000526020600020905b81548152906001019060200180831161140057829003601f168201915b50505050509050600061142e612b8e565b90506000815103611443578192505050611486565b6000825111156114785780826040516020016114609291906146bb565b60405160208183030381529060405292505050611486565b61148184612ba5565b925050505b919050565b611493613537565b600061149f6007611ff8565b9050600c60008281526020019081526020016000206040518060a0016040529081600082015481526020016001820160009054906101000a900473ffffffffffffffffffffffffffffffffffffffff1673ffffffffffffffffffffffffffffffffffffffff1673ffffffffffffffffffffffffffffffffffffffff1681526020016002820160009054906101000a900473ffffffffffffffffffffffffffffffffffffffff1673ffffffffffffffffffffffffffffffffffffffff1673ffffffffffffffffffffffffffffffffffffffff168152602001600382015481526020016004820160009054906101000a900460ff16151515158152505091505090565b600080600e60003373ffffffffffffffffffffffffffffffffffffffff1673ffffffffffffffffffffffffffffffffffffffff168152602001908152602001600020600084815260200190815260200160002080549050119050919050565b60005b815181101561170657600e6000838381518110611622576116216144c0565b5b602002602001015173ffffffffffffffffffffffffffffffffffffffff1673ffffffffffffffffffffffffffffffffffffffff1681526020019081526020016000206000848152602001908152602001600020604051806060016040528042815260200160008152602001600015158152509080600181540180825580915050600190039060005260206000209060030201600090919091909150600082015181600001556020820151816001015560408201518160020160006101000a81548160ff021916908315150217905550505080806116fe90614478565b915050611602565b505050565b81600d60008363ffffffff1663ffffffff168152602001908152602001600020600001541461176f576040517f08c379a00000000000000000000000000000000000000000000000000000000081526004016117669061472b565b60405180910390fd5b611778826115a0565b801561178e575061178882612c0d565b60400151155b6117cd576040517f08c379a00000000000000000000000000000000000000000000000000000000081526004016117c490614797565b60405180910390fd5b6000600d60008363ffffffff1663ffffffff1681526020019081526020016000206001015490506000600e60003373ffffffffffffffffffffffffffffffffffffffff1673ffffffffffffffffffffffffffffffffffffffff168152602001908152602001600020600085815260200190815260200160002080549050905081600e60003373ffffffffffffffffffffffffffffffffffffffff1673ffffffffffffffffffffffffffffffffffffffff16815260200190815260200160002060008681526020019081526020016000206001836118aa91906147b7565b815481106118bb576118ba6144c0565b5b9060005260206000209060030201600101819055506001600e60003373ffffffffffffffffffffffffffffffffffffffff1673ffffffffffffffffffffffffffffffffffffffff168152602001908152602001600020600086815260200190815260200160002060018361192f91906147b7565b815481106119405761193f6144c0565b5b906000526020600020906003020160020160006101000a81548160ff0219169083151502179055506000600b60009054906101000a900473ffffffffffffffffffffffffffffffffffffffff1673ffffffffffffffffffffffffffffffffffffffff166370a08231336040518263ffffffff1660e01b81526004016119c591906137dc565b602060405180830381865afa1580156119e2573d6000803e3d6000fd5b505050506040513d601f19601f82011682018060405250810190611a069190614800565b9050600b60009054906101000a900473ffffffffffffffffffffffffffffffffffffffff1673ffffffffffffffffffffffffffffffffffffffff1663a9059cbb33856040518363ffffffff1660e01b8152600401611a6592919061482d565b6020604051808303816000875af1158015611a84573d6000803e3d6000fd5b505050506040513d601f19601f82011682018060405250810190611aa8919061486b565b506000600b60009054906101000a900473ffffffffffffffffffffffffffffffffffffffff1673ffffffffffffffffffffffffffffffffffffffff166370a08231336040518263ffffffff1660e01b8152600401611b0691906137dc565b602060405180830381865afa158015611b23573d6000803e3d6000fd5b505050506040513d601f19601f82011682018060405250810190611b479190614800565b90507f734e483d957fd97a0d3deb88ceb43b1562af26f5520422b6713a431dd8cc408133878787878787604051611b8497969594939291906148a7565b60405180910390a1505050505050565b60606000611ba26007611ff8565b905060008167ffffffffffffffff811115611bc057611bbf61386d565b5b604051908082528060200260200182016040528015611bf957816020015b611be6613537565b815260200190600190039081611bde5790505b50905060008080600090505b84811015611d5b57600181611c1a9190614444565b91506000600c60008481526020019081526020016000209050806040518060a0016040529081600082015481526020016001820160009054906101000a900473ffffffffffffffffffffffffffffffffffffffff1673ffffffffffffffffffffffffffffffffffffffff1673ffffffffffffffffffffffffffffffffffffffff1681526020016002820160009054906101000a900473ffffffffffffffffffffffffffffffffffffffff1673ffffffffffffffffffffffffffffffffffffffff1673ffffffffffffffffffffffffffffffffffffffff168152602001600382015481526020016004820160009054906101000a900460ff161515151581525050858581518110611d2d57611d2c6144c0565b5b6020026020010181905250600184611d459190614444565b9350508080611d5390614478565b915050611c05565b508294505050505090565b6000600560008473ffffffffffffffffffffffffffffffffffffffff1673ffffffffffffffffffffffffffffffffffffffff16815260200190815260200160002060008373ffffffffffffffffffffffffffffffffffffffff1673ffffffffffffffffffffffffffffffffffffffff16815260200190815260200160002060009054906101000a900460ff16905092915050565b6000611e066007611ff8565b905090565b600e6020528260005260406000206020528160005260406000208181548110611e3357600080fd5b906000526020600020906003020160009250925050508060000154908060010154908060020160009054906101000a900460ff16905083565b60007f01ffc9a7000000000000000000000000000000000000000000000000000000007bffffffffffffffffffffffffffffffffffffffffffffffffffffffff1916827bffffffffffffffffffffffffffffffffffffffffffffffffffffffff1916149050919050565b611edf81612d25565b611f1e576040517f08c379a0000000000000000000000000000000000000000000000000000000008152600401611f159061453b565b60405180910390fd5b50565b600033905090565b816004600083815260200190815260200160002060006101000a81548173ffffffffffffffffffffffffffffffffffffffff021916908373ffffffffffffffffffffffffffffffffffffffff160217905550808273ffffffffffffffffffffffffffffffffffffffff16611f9c83610e8f565b73ffffffffffffffffffffffffffffffffffffffff167f8c5be1e5ebec7d5bd14f71427d1e84f3dd0314c0f7b2291e5b200ac8c7c3b92560405160405180910390a45050565b6001816000016000828254019250508190555050565b600081600001549050919050565b612020828260405180602001604052806000815250612d66565b5050565b61202d82612d25565b61206c576040517f08c379a000000000000000000000000000000000000000000000000000000000815260040161206390614988565b60405180910390fd5b8060066000848152602001908152602001600020908161208c9190614b4a565b505050565b600a5434146120d5576040517f08c379a00000000000000000000000000000000000000000000000000000000081526004016120cc90614c8e565b60405180910390fd5b60008211612118576040517f08c379a000000000000000000000000000000000000000000000000000000000815260040161210f90614d20565b60405180910390fd5b6000815167ffffffffffffffff8111156121355761213461386d565b5b6040519080825280602002602001820160405280156121635781602001602082028036833780820191505090505b50905060005b8251811015612276576000637735940042448887868151811061218f5761218e6144c0565b5b60200260200101516040516020016121aa9493929190614d61565b6040516020818303038152906040528051906020012060001c6121cd9190614dde565b905060405180604001604052808781526020018584815181106121f3576121f26144c0565b5b6020026020010151815250600d60008363ffffffff1663ffffffff168152602001908152602001600020600082015181600001556020820151816001015590505080838381518110612248576122476144c0565b5b602002602001019063ffffffff16908163ffffffff168152505050808061226e90614478565b915050612169565b506040518060a001604052808581526020013073ffffffffffffffffffffffffffffffffffffffff1681526020013373ffffffffffffffffffffffffffffffffffffffff16815260200184815260200160011515815250600c60008681526020019081526020016000206000820151816000015560208201518160010160006101000a81548173ffffffffffffffffffffffffffffffffffffffff021916908373ffffffffffffffffffffffffffffffffffffffff16021790555060408201518160020160006101000a81548173ffffffffffffffffffffffffffffffffffffffff021916908373ffffffffffffffffffffffffffffffffffffffff1602179055506060820151816003015560808201518160040160006101000a81548160ff021916908315150217905550905050600e60003373ffffffffffffffffffffffffffffffffffffffff1673ffffffffffffffffffffffffffffffffffffffff1681526020019081526020016000206000858152602001908152602001600020604051806060016040528042815260200160008152602001600115158152509080600181540180825580915050600190039060005260206000209060030201600090919091909150600082015181600001556020820151816001015560408201518160020160006101000a81548160ff021916908315150217905550505061247e33308661255c565b837fc4040261f8be5adfe9bf4bf60126c3e2f41dc032e6f5ee766c828fc34cd8c056303386600187876040516124b996959493929190614f7c565b60405180910390a250505050565b6000806124d383610e8f565b90508073ffffffffffffffffffffffffffffffffffffffff168473ffffffffffffffffffffffffffffffffffffffff16148061251557506125148185611d66565b5b8061255357508373ffffffffffffffffffffffffffffffffffffffff1661253b8461081b565b73ffffffffffffffffffffffffffffffffffffffff16145b91505092915050565b8273ffffffffffffffffffffffffffffffffffffffff1661257c82610e8f565b73ffffffffffffffffffffffffffffffffffffffff16146125d2576040517f08c379a00000000000000000000000000000000000000000000000000000000081526004016125c99061505d565b60405180910390fd5b600073ffffffffffffffffffffffffffffffffffffffff168273ffffffffffffffffffffffffffffffffffffffff1603612641576040517f08c379a0000000000000000000000000000000000000000000000000000000008152600401612638906150ef565b60405180910390fd5b61264e8383836001612dc1565b8273ffffffffffffffffffffffffffffffffffffffff1661266e82610e8f565b73ffffffffffffffffffffffffffffffffffffffff16146126c4576040517f08c379a00000000000000000000000000000000000000000000000000000000081526004016126bb9061505d565b60405180910390fd5b6004600082815260200190815260200160002060006101000a81549073ffffffffffffffffffffffffffffffffffffffff02191690556001600360008573ffffffffffffffffffffffffffffffffffffffff1673ffffffffffffffffffffffffffffffffffffffff168152602001908152602001600020600082825403925050819055506001600360008473ffffffffffffffffffffffffffffffffffffffff1673ffffffffffffffffffffffffffffffffffffffff16815260200190815260200160002060008282540192505081905550816002600083815260200190815260200160002060006101000a81548173ffffffffffffffffffffffffffffffffffffffff021916908373ffffffffffffffffffffffffffffffffffffffff160217905550808273ffffffffffffffffffffffffffffffffffffffff168473ffffffffffffffffffffffffffffffffffffffff167fddf252ad1be2c89b69c2b068fc378daa952ba7f163c4a11628f55a4df523b3ef60405160405180910390a46128508383836001612ee7565b505050565b600080600e60003373ffffffffffffffffffffffffffffffffffffffff1673ffffffffffffffffffffffffffffffffffffffff1681526020019081526020016000206000848152602001908152602001600020805480602002602001604051908101604052809291908181526020016000905b82821015612929578382906000526020600020906003020160405180606001604052908160008201548152602001600182015481526020016002820160009054906101000a900460ff161515151581525050815260200190600101906128c8565b50505050905060005b815181101561297d5781818151811061294e5761294d6144c0565b5b6020026020010151604001511561296a57600192505050612984565b808061297590614478565b915050612932565b5060009150505b919050565b60006002600083815260200190815260200160002060009054906101000a900473ffffffffffffffffffffffffffffffffffffffff169050919050565b8173ffffffffffffffffffffffffffffffffffffffff168373ffffffffffffffffffffffffffffffffffffffff1603612a34576040517f08c379a0000000000000000000000000000000000000000000000000000000008152600401612a2b9061515b565b60405180910390fd5b80600560008573ffffffffffffffffffffffffffffffffffffffff1673ffffffffffffffffffffffffffffffffffffffff16815260200190815260200160002060008473ffffffffffffffffffffffffffffffffffffffff1673ffffffffffffffffffffffffffffffffffffffff16815260200190815260200160002060006101000a81548160ff0219169083151502179055508173ffffffffffffffffffffffffffffffffffffffff168373ffffffffffffffffffffffffffffffffffffffff167f17307eab39ab6107e8899845ad3d59bd9653f200f220920489ca2b5937696c3183604051612b25919061366b565b60405180910390a3505050565b612b3d84848461255c565b612b4984848484612eed565b612b88576040517f08c379a0000000000000000000000000000000000000000000000000000000008152600401612b7f906151ed565b60405180910390fd5b50505050565b606060405180602001604052806000815250905090565b6060612bb082611ed6565b6000612bba612b8e565b90506000815111612bda5760405180602001604052806000815250612c05565b80612be484613074565b604051602001612bf59291906146bb565b6040516020818303038152906040525b915050919050565b612c15613594565b6000600e60003373ffffffffffffffffffffffffffffffffffffffff1673ffffffffffffffffffffffffffffffffffffffff1681526020019081526020016000206000848152602001908152602001600020805480602002602001604051908101604052809291908181526020016000905b82821015612ce8578382906000526020600020906003020160405180606001604052908160008201548152602001600182015481526020016002820160009054906101000a900460ff16151515158152505081526020019060010190612c87565b505050509050806001612cfa85613142565b612d0491906147b7565b81518110612d1557612d146144c0565b5b6020026020010151915050919050565b60008073ffffffffffffffffffffffffffffffffffffffff16612d4783612989565b73ffffffffffffffffffffffffffffffffffffffff1614159050919050565b612d7083836131a4565b612d7d6000848484612eed565b612dbc576040517f08c379a0000000000000000000000000000000000000000000000000000000008152600401612db3906151ed565b60405180910390fd5b505050565b6001811115612ee157600073ffffffffffffffffffffffffffffffffffffffff168473ffffffffffffffffffffffffffffffffffffffff1614612e555780600360008673ffffffffffffffffffffffffffffffffffffffff1673ffffffffffffffffffffffffffffffffffffffff1681526020019081526020016000206000828254612e4d91906147b7565b925050819055505b600073ffffffffffffffffffffffffffffffffffffffff168373ffffffffffffffffffffffffffffffffffffffff1614612ee05780600360008573ffffffffffffffffffffffffffffffffffffffff1673ffffffffffffffffffffffffffffffffffffffff1681526020019081526020016000206000828254612ed89190614444565b925050819055505b5b50505050565b50505050565b6000612f0e8473ffffffffffffffffffffffffffffffffffffffff166133c1565b15613067578373ffffffffffffffffffffffffffffffffffffffff1663150b7a02612f37611f21565b8786866040518563ffffffff1660e01b8152600401612f599493929190615262565b6020604051808303816000875af1925050508015612f9557506040513d601f19601f82011682018060405250810190612f9291906152c3565b60015b613017573d8060008114612fc5576040519150601f19603f3d011682016040523d82523d6000602084013e612fca565b606091505b50600081510361300f576040517f08c379a0000000000000000000000000000000000000000000000000000000008152600401613006906151ed565b60405180910390fd5b805181602001fd5b63150b7a0260e01b7bffffffffffffffffffffffffffffffffffffffffffffffffffffffff1916817bffffffffffffffffffffffffffffffffffffffffffffffffffffffff19161491505061306c565b600190505b949350505050565b606060006001613083846133e4565b01905060008167ffffffffffffffff8111156130a2576130a161386d565b5b6040519080825280601f01601f1916602001820160405280156130d45781602001600182028036833780820191505090505b509050600082602001820190505b600115613137578080600190039150507f3031323334353637383961626364656600000000000000000000000000000000600a86061a8153600a858161312b5761312a614daf565b5b049450600085036130e2575b819350505050919050565b600080600e60003373ffffffffffffffffffffffffffffffffffffffff1673ffffffffffffffffffffffffffffffffffffffff168152602001908152602001600020600084815260200190815260200160002080549050905080915050919050565b600073ffffffffffffffffffffffffffffffffffffffff168273ffffffffffffffffffffffffffffffffffffffff1603613213576040517f08c379a000000000000000000000000000000000000000000000000000000000815260040161320a9061533c565b60405180910390fd5b61321c81612d25565b1561325c576040517f08c379a0000000000000000000000000000000000000000000000000000000008152600401613253906153a8565b60405180910390fd5b61326a600083836001612dc1565b61327381612d25565b156132b3576040517f08c379a00000000000000000000000000000000000000000000000000000000081526004016132aa906153a8565b60405180910390fd5b6001600360008473ffffffffffffffffffffffffffffffffffffffff1673ffffffffffffffffffffffffffffffffffffffff16815260200190815260200160002060008282540192505081905550816002600083815260200190815260200160002060006101000a81548173ffffffffffffffffffffffffffffffffffffffff021916908373ffffffffffffffffffffffffffffffffffffffff160217905550808273ffffffffffffffffffffffffffffffffffffffff16600073ffffffffffffffffffffffffffffffffffffffff167fddf252ad1be2c89b69c2b068fc378daa952ba7f163c4a11628f55a4df523b3ef60405160405180910390a46133bd600083836001612ee7565b5050565b6000808273ffffffffffffffffffffffffffffffffffffffff163b119050919050565b600080600090507a184f03e93ff9f4daa797ed6e38ed64bf6a1f0100000000000000008310613442577a184f03e93ff9f4daa797ed6e38ed64bf6a1f010000000000000000838161343857613437614daf565b5b0492506040810190505b6d04ee2d6d415b85acef8100000000831061347f576d04ee2d6d415b85acef8100000000838161347557613474614daf565b5b0492506020810190505b662386f26fc1000083106134ae57662386f26fc1000083816134a4576134a3614daf565b5b0492506010810190505b6305f5e10083106134d7576305f5e10083816134cd576134cc614daf565b5b0492506008810190505b61271083106134fc5761271083816134f2576134f1614daf565b5b0492506004810190505b6064831061351f576064838161351557613514614daf565b5b0492506002810190505b600a831061352e576001810190505b80915050919050565b6040518060a0016040528060008152602001600073ffffffffffffffffffffffffffffffffffffffff168152602001600073ffffffffffffffffffffffffffffffffffffffff168152602001600081526020016000151581525090565b604051806060016040528060008152602001600081526020016000151581525090565b6000604051905090565b600080fd5b600080fd5b60007fffffffff0000000000000000000000000000000000000000000000000000000082169050919050565b613600816135cb565b811461360b57600080fd5b50565b60008135905061361d816135f7565b92915050565b600060208284031215613639576136386135c1565b5b60006136478482850161360e565b91505092915050565b60008115159050919050565b61366581613650565b82525050565b6000602082019050613680600083018461365c565b92915050565b600081519050919050565b600082825260208201905092915050565b60005b838110156136c05780820151818401526020810190506136a5565b60008484015250505050565b6000601f19601f8301169050919050565b60006136e882613686565b6136f28185613691565b93506137028185602086016136a2565b61370b816136cc565b840191505092915050565b6000602082019050818103600083015261373081846136dd565b905092915050565b6000819050919050565b61374b81613738565b811461375657600080fd5b50565b60008135905061376881613742565b92915050565b600060208284031215613784576137836135c1565b5b600061379284828501613759565b91505092915050565b600073ffffffffffffffffffffffffffffffffffffffff82169050919050565b60006137c68261379b565b9050919050565b6137d6816137bb565b82525050565b60006020820190506137f160008301846137cd565b92915050565b613800816137bb565b811461380b57600080fd5b50565b60008135905061381d816137f7565b92915050565b6000806040838503121561383a576138396135c1565b5b60006138488582860161380e565b925050602061385985828601613759565b9150509250929050565b600080fd5b600080fd5b7f4e487b7100000000000000000000000000000000000000000000000000000000600052604160045260246000fd5b6138a5826136cc565b810181811067ffffffffffffffff821117156138c4576138c361386d565b5b80604052505050565b60006138d76135b7565b90506138e3828261389c565b919050565b600067ffffffffffffffff8211156139035761390261386d565b5b61390c826136cc565b9050602081019050919050565b82818337600083830152505050565b600061393b613936846138e8565b6138cd565b90508281526020810184848401111561395757613956613868565b5b613962848285613919565b509392505050565b600082601f83011261397f5761397e613863565b5b813561398f848260208601613928565b91505092915050565b600067ffffffffffffffff8211156139b3576139b261386d565b5b602082029050602081019050919050565b600080fd5b60006139dc6139d784613998565b6138cd565b905080838252602082019050602084028301858111156139ff576139fe6139c4565b5b835b81811015613a285780613a148882613759565b845260208401935050602081019050613a01565b5050509392505050565b600082601f830112613a4757613a46613863565b5b8135613a578482602086016139c9565b91505092915050565b600080600060608486031215613a7957613a786135c1565b5b600084013567ffffffffffffffff811115613a9757613a966135c6565b5b613aa38682870161396a565b9350506020613ab486828701613759565b925050604084013567ffffffffffffffff811115613ad557613ad46135c6565b5b613ae186828701613a32565b9150509250925092565b613af481613738565b82525050565b6000602082019050613b0f6000830184613aeb565b92915050565b600080600060608486031215613b2e57613b2d6135c1565b5b6000613b3c8682870161380e565b9350506020613b4d8682870161380e565b9250506040613b5e86828701613759565b9150509250925092565b600081519050919050565b600082825260208201905092915050565b6000819050602082019050919050565b613b9d81613738565b82525050565b6000613bae8261379b565b9050919050565b613bbe81613ba3565b82525050565b613bcd81613650565b82525050565b60a082016000820151613be96000850182613b94565b506020820151613bfc6020850182613bb5565b506040820151613c0f6040850182613bb5565b506060820151613c226060850182613b94565b506080820151613c356080850182613bc4565b50505050565b6000613c478383613bd3565b60a08301905092915050565b6000602082019050919050565b6000613c6b82613b68565b613c758185613b73565b9350613c8083613b84565b8060005b83811015613cb1578151613c988882613c3b565b9750613ca383613c53565b925050600181019050613c84565b5085935050505092915050565b60006020820190508181036000830152613cd88184613c60565b905092915050565b600060208284031215613cf657613cf56135c1565b5b6000613d048482850161380e565b91505092915050565b6000819050919050565b6000613d32613d2d613d288461379b565b613d0d565b61379b565b9050919050565b6000613d4482613d17565b9050919050565b6000613d5682613d39565b9050919050565b613d6681613d4b565b82525050565b6000602082019050613d816000830184613d5d565b92915050565b60a082016000820151613d9d6000850182613b94565b506020820151613db06020850182613bb5565b506040820151613dc36040850182613bb5565b506060820151613dd66060850182613b94565b506080820151613de96080850182613bc4565b50505050565b600060a082019050613e046000830184613d87565b92915050565b613e1381613650565b8114613e1e57600080fd5b50565b600081359050613e3081613e0a565b92915050565b60008060408385031215613e4d57613e4c6135c1565b5b6000613e5b8582860161380e565b9250506020613e6c85828601613e21565b9150509250929050565b600067ffffffffffffffff821115613e9157613e9061386d565b5b613e9a826136cc565b9050602081019050919050565b6000613eba613eb584613e76565b6138cd565b905082815260208101848484011115613ed657613ed5613868565b5b613ee1848285613919565b509392505050565b600082601f830112613efe57613efd613863565b5b8135613f0e848260208601613ea7565b91505092915050565b60008060008060808587031215613f3157613f306135c1565b5b6000613f3f8782880161380e565b9450506020613f508782880161380e565b9350506040613f6187828801613759565b925050606085013567ffffffffffffffff811115613f8257613f816135c6565b5b613f8e87828801613ee9565b91505092959194509250565b600067ffffffffffffffff821115613fb557613fb461386d565b5b602082029050602081019050919050565b6000613fd9613fd484613f9a565b6138cd565b90508083825260208201905060208402830185811115613ffc57613ffb6139c4565b5b835b818110156140255780614011888261380e565b845260208401935050602081019050613ffe565b5050509392505050565b600082601f83011261404457614043613863565b5b8135614054848260208601613fc6565b91505092915050565b60008060408385031215614074576140736135c1565b5b600061408285828601613759565b925050602083013567ffffffffffffffff8111156140a3576140a26135c6565b5b6140af8582860161402f565b9150509250929050565b600063ffffffff82169050919050565b6140d2816140b9565b81146140dd57600080fd5b50565b6000813590506140ef816140c9565b92915050565b6000806040838503121561410c5761410b6135c1565b5b600061411a85828601613759565b925050602061412b858286016140e0565b9150509250929050565b6000806040838503121561414c5761414b6135c1565b5b600061415a8582860161380e565b925050602061416b8582860161380e565b9150509250929050565b60008060006060848603121561418e5761418d6135c1565b5b600061419c8682870161380e565b93505060206141ad86828701613759565b92505060406141be86828701613759565b9150509250925092565b60006060820190506141dd6000830186613aeb565b6141ea6020830185613aeb565b6141f7604083018461365c565b949350505050565b7f4e487b7100000000000000000000000000000000000000000000000000000000600052602260045260246000fd5b6000600282049050600182168061424657607f821691505b602082108103614259576142586141ff565b5b50919050565b7f4552433732313a20617070726f76616c20746f2063757272656e74206f776e6560008201527f7200000000000000000000000000000000000000000000000000000000000000602082015250565b60006142bb602183613691565b91506142c68261425f565b604082019050919050565b600060208201905081810360008301526142ea816142ae565b9050919050565b7f4552433732313a20617070726f76652063616c6c6572206973206e6f7420746f60008201527f6b656e206f776e6572206f7220617070726f76656420666f7220616c6c000000602082015250565b600061434d603d83613691565b9150614358826142f1565b604082019050919050565b6000602082019050818103600083015261437c81614340565b9050919050565b7f4552433732313a2063616c6c6572206973206e6f7420746f6b656e206f776e6560008201527f72206f7220617070726f76656400000000000000000000000000000000000000602082015250565b60006143df602d83613691565b91506143ea82614383565b604082019050919050565b6000602082019050818103600083015261440e816143d2565b9050919050565b7f4e487b7100000000000000000000000000000000000000000000000000000000600052601160045260246000fd5b600061444f82613738565b915061445a83613738565b925082820190508082111561447257614471614415565b5b92915050565b600061448382613738565b91507fffffffffffffffffffffffffffffffffffffffffffffffffffffffffffffffff82036144b5576144b4614415565b5b600182019050919050565b7f4e487b7100000000000000000000000000000000000000000000000000000000600052603260045260246000fd5b7f4552433732313a20696e76616c696420746f6b656e2049440000000000000000600082015250565b6000614525601883613691565b9150614530826144ef565b602082019050919050565b6000602082019050818103600083015261455481614518565b9050919050565b7f4552433732313a2061646472657373207a65726f206973206e6f74206120766160008201527f6c6964206f776e65720000000000000000000000000000000000000000000000602082015250565b60006145b7602983613691565b91506145c28261455b565b604082019050919050565b600060208201905081810360008301526145e6816145aa565b9050919050565b7f4f6e6c79206f776e65722063616e20757064617465206c697374696e6720707260008201527f6963650000000000000000000000000000000000000000000000000000000000602082015250565b6000614649602383613691565b9150614654826145ed565b604082019050919050565b600060208201905081810360008301526146788161463c565b9050919050565b600081905092915050565b600061469582613686565b61469f818561467f565b93506146af8185602086016136a2565b80840191505092915050565b60006146c7828561468a565b91506146d3828461468a565b91508190509392505050565b7f312e20496e76616c69642052656465656d20436f646520666f72204e46540000600082015250565b6000614715601e83613691565b9150614720826146df565b602082019050919050565b6000602082019050818103600083015261474481614708565b9050919050565b7f322e20496e76616c69642052656465656d20436f646520666f72204e46540000600082015250565b6000614781601e83613691565b915061478c8261474b565b602082019050919050565b600060208201905081810360008301526147b081614774565b9050919050565b60006147c282613738565b91506147cd83613738565b92508282039050818111156147e5576147e4614415565b5b92915050565b6000815190506147fa81613742565b92915050565b600060208284031215614816576148156135c1565b5b6000614824848285016147eb565b91505092915050565b600060408201905061484260008301856137cd565b61484f6020830184613aeb565b9392505050565b60008151905061486581613e0a565b92915050565b600060208284031215614881576148806135c1565b5b600061488f84828501614856565b91505092915050565b6148a1816140b9565b82525050565b600060e0820190506148bc600083018a6137cd565b6148c96020830189613aeb565b6148d66040830188614898565b6148e36060830187613aeb565b6148f06080830186613aeb565b6148fd60a0830185613aeb565b61490a60c0830184613aeb565b98975050505050505050565b7f45524337323155524953746f726167653a2055524920736574206f66206e6f6e60008201527f6578697374656e7420746f6b656e000000000000000000000000000000000000602082015250565b6000614972602e83613691565b915061497d82614916565b604082019050919050565b600060208201905081810360008301526149a181614965565b9050919050565b60008190508160005260206000209050919050565b60006020601f8301049050919050565b600082821b905092915050565b600060088302614a0a7fffffffffffffffffffffffffffffffffffffffffffffffffffffffffffffffff826149cd565b614a1486836149cd565b95508019841693508086168417925050509392505050565b6000614a47614a42614a3d84613738565b613d0d565b613738565b9050919050565b6000819050919050565b614a6183614a2c565b614a75614a6d82614a4e565b8484546149da565b825550505050565b600090565b614a8a614a7d565b614a95818484614a58565b505050565b5b81811015614ab957614aae600082614a82565b600181019050614a9b565b5050565b601f821115614afe57614acf816149a8565b614ad8846149bd565b81016020851015614ae7578190505b614afb614af3856149bd565b830182614a9a565b50505b505050565b600082821c905092915050565b6000614b2160001984600802614b03565b1980831691505092915050565b6000614b3a8383614b10565b9150826002028217905092915050565b614b5382613686565b67ffffffffffffffff811115614b6c57614b6b61386d565b5b614b76825461422e565b614b81828285614abd565b600060209050601f831160018114614bb45760008415614ba2578287015190505b614bac8582614b2e565b865550614c14565b601f198416614bc2866149a8565b60005b82811015614bea57848901518255600182019150602085019450602081019050614bc5565b86831015614c075784890151614c03601f891682614b10565b8355505b6001600288020188555050505b505050505050565b7f486f706566756c6c792073656e64696e672074686520636f727265637420707260008201527f6963650000000000000000000000000000000000000000000000000000000000602082015250565b6000614c78602383613691565b9150614c8382614c1c565b604082019050919050565b60006020820190508181036000830152614ca781614c6b565b9050919050565b7f4d616b652073757265207468652070726963652069736e2774206e656761746960008201527f7665000000000000000000000000000000000000000000000000000000000000602082015250565b6000614d0a602283613691565b9150614d1582614cae565b604082019050919050565b60006020820190508181036000830152614d3981614cfd565b9050919050565b6000819050919050565b614d5b614d5682613738565b614d40565b82525050565b6000614d6d8287614d4a565b602082019150614d7d8286614d4a565b602082019150614d8d8285614d4a565b602082019150614d9d8284614d4a565b60208201915081905095945050505050565b7f4e487b7100000000000000000000000000000000000000000000000000000000600052601260045260246000fd5b6000614de982613738565b9150614df483613738565b925082614e0457614e03614daf565b5b828206905092915050565b600081519050919050565b600082825260208201905092915050565b6000819050602082019050919050565b6000614e478383613b94565b60208301905092915050565b6000602082019050919050565b6000614e6b82614e0f565b614e758185614e1a565b9350614e8083614e2b565b8060005b83811015614eb1578151614e988882614e3b565b9750614ea383614e53565b925050600181019050614e84565b5085935050505092915050565b600081519050919050565b600082825260208201905092915050565b6000819050602082019050919050565b614ef3816140b9565b82525050565b6000614f058383614eea565b60208301905092915050565b6000602082019050919050565b6000614f2982614ebe565b614f338185614ec9565b9350614f3e83614eda565b8060005b83811015614f6f578151614f568882614ef9565b9750614f6183614f11565b925050600181019050614f42565b5085935050505092915050565b600060c082019050614f9160008301896137cd565b614f9e60208301886137cd565b614fab6040830187613aeb565b614fb8606083018661365c565b8181036080830152614fca8185614e60565b905081810360a0830152614fde8184614f1e565b9050979650505050505050565b7f4552433732313a207472616e736665722066726f6d20696e636f72726563742060008201527f6f776e6572000000000000000000000000000000000000000000000000000000602082015250565b6000615047602583613691565b915061505282614feb565b604082019050919050565b600060208201905081810360008301526150768161503a565b9050919050565b7f4552433732313a207472616e7366657220746f20746865207a65726f2061646460008201527f7265737300000000000000000000000000000000000000000000000000000000602082015250565b60006150d9602483613691565b91506150e48261507d565b604082019050919050565b60006020820190508181036000830152615108816150cc565b9050919050565b7f4552433732313a20617070726f766520746f2063616c6c657200000000000000600082015250565b6000615145601983613691565b91506151508261510f565b602082019050919050565b6000602082019050818103600083015261517481615138565b9050919050565b7f4552433732313a207472616e7366657220746f206e6f6e20455243373231526560008201527f63656976657220696d706c656d656e7465720000000000000000000000000000602082015250565b60006151d7603283613691565b91506151e28261517b565b604082019050919050565b60006020820190508181036000830152615206816151ca565b9050919050565b600081519050919050565b600082825260208201905092915050565b60006152348261520d565b61523e8185615218565b935061524e8185602086016136a2565b615257816136cc565b840191505092915050565b600060808201905061527760008301876137cd565b61528460208301866137cd565b6152916040830185613aeb565b81810360608301526152a38184615229565b905095945050505050565b6000815190506152bd816135f7565b92915050565b6000602082840312156152d9576152d86135c1565b5b60006152e7848285016152ae565b91505092915050565b7f4552433732313a206d696e7420746f20746865207a65726f2061646472657373600082015250565b6000615326602083613691565b9150615331826152f0565b602082019050919050565b6000602082019050818103600083015261535581615319565b9050919050565b7f4552433732313a20746f6b656e20616c7265616479206d696e74656400000000600082015250565b6000615392601c83613691565b915061539d8261535c565b602082019050919050565b600060208201905081810360008301526153c181615385565b905091905056fea2646970667358221220616e76de5112987adeebf229b757e261790e9550ef3b40e0b69d23527bcc416664736f6c63430008110033",
  "immutableReferences": {},
  "source": "//SPDX-License-Identifier: Unlicense\r\npragma solidity ^0.8.0;\r\n\r\nimport './RWDToken.sol';\r\n\r\nimport \"@openzeppelin/contracts/utils/Counters.sol\";\r\nimport \"@openzeppelin/contracts/token/ERC721/extensions/ERC721URIStorage.sol\";\r\nimport \"@openzeppelin/contracts/token/ERC721/ERC721.sol\";\r\n\r\ncontract NFTMarketplace is ERC721URIStorage {\r\n\r\n    using Counters for Counters.Counter;\r\n    //_tokenIds variable has the most recent minted tokenId\r\n    Counters.Counter private _tokenIds;\r\n    //Keeps track of the number of items sold on the marketplace\r\n    Counters.Counter private _itemsSold;\r\n    //owner is the contract address that created the smart contract\r\n    address owner;\r\n    //The fee charged by the marketplace to be allowed to list an NFT\r\n    uint256 listPrice = 0.01 ether;\r\n    RWDToken public rwdToken;\r\n\r\n    //The structure to store info about a listed token\r\n    struct ListedToken {\r\n        uint256 tokenId;\r\n        address payable owner;\r\n        address payable seller;\r\n        uint256 price;\r\n        bool currentlyListed;\r\n    }\r\n\r\n    struct MintToken {\r\n        uint256 tokenId;\r\n        uint256 mintValue;\r\n    }\r\n\r\n    //The structure to store info mountabout a nft owner for a nft\r\n    struct NFTRedeemState {\r\n        uint issueDate;\r\n        uint256 mintValue;\r\n        bool hasRedeemed;\r\n    }\r\n\r\n    //the event emitted when a token is successfully listed\r\n    event TokenListedSuccess (\r\n        uint256 indexed tokenId,\r\n        address owner,\r\n        address seller,\r\n        uint256 price,\r\n        bool currentlyListed,\r\n        uint256[] mintVal,\r\n        uint32[] redeemCodes\r\n    );\r\n\r\n    event NFTRedeemed(address user, uint256 tokenId, uint32 redeemCode, uint256 mintValue, uint256 redeemStatesLen, uint256 oldBalance, uint256 newBalance);\r\n\r\n    //tokenId to NFT\r\n    mapping(uint256 => ListedToken) private idToListedToken;\r\n\r\n    // redeem code to mint token\r\n    mapping(uint32 => MintToken) private codeToMintToken;\r\n\r\n    //NFTOwners to NFT to NFT Redeem State\r\n    mapping (address => mapping(uint256 => NFTRedeemState[])) public nftOwners;\r\n\r\n    constructor(RWDToken _rwdToken) ERC721(\"NFTMarketplace\", \"NFTM\") {\r\n        owner = msg.sender;\r\n        rwdToken = _rwdToken;\r\n    }\r\n\r\n    function updateListPrice(uint256 _listPrice) public payable {\r\n        require(owner == msg.sender, \"Only owner can update listing price\");\r\n        listPrice = _listPrice;\r\n    }\r\n\r\n    function getListPrice() public view returns (uint256) {\r\n        return listPrice;\r\n    }\r\n\r\n    function getLatestIdToListedToken() public view returns (ListedToken memory) {\r\n        uint256 currentTokenId = _tokenIds.current();\r\n        return idToListedToken[currentTokenId];\r\n    }\r\n\r\n    function getListedTokenForId(uint256 tokenId) public view returns (ListedToken memory) {\r\n        return idToListedToken[tokenId];\r\n    }\r\n\r\n    function getCurrentToken() public view returns (uint256) {\r\n        return _tokenIds.current();\r\n    }\r\n\r\n    //The first time a token is created, it is listed here\r\n    function createToken(string memory tokenURI, uint256 price, uint256[] memory mintVal) public payable returns (uint) {\r\n        //Increment the tokenId counter, which is keeping track of the number of minted NFTs\r\n        _tokenIds.increment();\r\n        uint256 newTokenId = _tokenIds.current();\r\n\r\n        //Mint the NFT with tokenId newTokenId to the address who called createToken\r\n        _safeMint(msg.sender, newTokenId);\r\n\r\n        //Map the tokenId to the tokenURI (which is an IPFS URL with the NFT metadata)\r\n        _setTokenURI(newTokenId, tokenURI);\r\n\r\n        //Helper function to update Global variables and emit an event\r\n        createListedToken(newTokenId, price, mintVal);\r\n\r\n        return newTokenId;\r\n    }\r\n\r\n    function createListedToken(uint256 tokenId, uint256 price, uint256[] memory mintVal) private {\r\n        //Make sure the sender sent enough ETH to pay for listing\r\n        require(msg.value == listPrice, \"Hopefully sending the correct price\");\r\n        //Just sanity check\r\n        require(price > 0, \"Make sure the price isn't negative\");\r\n\r\n        /* Generate Random String Coupon code */\r\n        uint32[] memory redeemCodes = new uint32[](mintVal.length);\r\n        for(uint i = 0; i < mintVal.length; i++)\r\n        {\r\n            uint32 code = uint32(uint256(keccak256(abi.encodePacked(block.timestamp, block.difficulty, tokenId, mintVal[i])))%2000000000);\r\n            codeToMintToken[code] = MintToken({\r\n                tokenId: tokenId,\r\n                mintValue: mintVal[i]\r\n            });\r\n            redeemCodes[i] = code;\r\n        }\r\n\r\n        //Update the mapping of tokenId's to Token details, useful for retrieval functions\r\n        idToListedToken[tokenId] = ListedToken({\r\n            tokenId: tokenId,\r\n            owner: payable(address(this)),\r\n            seller: payable(msg.sender),\r\n            price: price,\r\n            currentlyListed: true\r\n        });\r\n\r\n        nftOwners[msg.sender][tokenId].push(NFTRedeemState({\r\n                issueDate: block.timestamp, \r\n                mintValue:0, \r\n                hasRedeemed: true\r\n                }));\r\n\r\n        _transfer(msg.sender, address(this), tokenId);\r\n        //Emit the event for successful transfer. The frontend parses this message and updates the end user\r\n        emit TokenListedSuccess(\r\n            tokenId,\r\n            address(this),\r\n            msg.sender,\r\n            price,\r\n            true,\r\n            mintVal,\r\n            redeemCodes\r\n        );\r\n    }\r\n    \r\n    //This will return all the NFTs currently listed to be sold on the marketplace\r\n    function getAllNFTs() public view returns (ListedToken[] memory) {\r\n        uint nftCount = _tokenIds.current();\r\n        ListedToken[] memory tokens = new ListedToken[](nftCount);\r\n        uint currentIndex = 0;\r\n        uint currentId;\r\n        //at the moment currentlyListed is true for all, if it becomes false in the future we will \r\n        //filter out currentlyListed == false over here\r\n        for(uint i = 0; i < nftCount; i++)\r\n        {\r\n            currentId = i + 1;\r\n            ListedToken storage currentItem = idToListedToken[currentId];\r\n            tokens[currentIndex] = currentItem;\r\n            currentIndex += 1;\r\n        }\r\n        //the array 'tokens' has the list of all NFTs in the marketplace\r\n        return tokens;\r\n    }\r\n    \r\n    //Returns all the NFTs that the current user is owner or seller in\r\n    function getMyNFTs() public view returns (ListedToken[] memory) {\r\n        uint totalItemCount = _tokenIds.current();\r\n        uint itemCount = 0;\r\n        uint currentIndex = 0;\r\n        uint currentId;\r\n        //Important to get a count of all the NFTs that belong to the user before we can make an array for them\r\n        for(uint i=0; i < totalItemCount; i++)\r\n        {\r\n            if(idToListedToken[i+1].owner == msg.sender || idToListedToken[i+1].seller == msg.sender || (checkWalletNFT(i + 1) && getFirstOccuringRedeemState(i+1))){\r\n                itemCount += 1;\r\n            }\r\n        }\r\n\r\n        //Once you have the count of relevant NFTs, create an array then store all the NFTs in it\r\n        ListedToken[] memory items = new ListedToken[](itemCount);\r\n        for(uint i=0; i < totalItemCount; i++) {\r\n            if(idToListedToken[i+1].owner == msg.sender || idToListedToken[i+1].seller == msg.sender || (checkWalletNFT(i + 1) && getFirstOccuringRedeemState(i+1))){\r\n                currentId = i+1;\r\n                ListedToken storage currentItem = idToListedToken[currentId];\r\n                items[currentIndex] = currentItem;\r\n                currentIndex += 1;\r\n            }\r\n        }\r\n        return items;\r\n    }\r\n\r\n    function executeSale(uint256 tokenId) public payable{\r\n        // uint price = idToListedToken[tokenId].price;\r\n        // address seller = idToListedToken[tokenId].seller;\r\n        // require(msg.value == price, \"Please submit the asking price in order to complete the purchase\");\r\n\r\n        // //update the details of the token\r\n        // idToListedToken[tokenId].currentlyListed = true;\r\n        // idToListedToken[tokenId].seller = payable(msg.sender);\r\n        // _itemsSold.increment();\r\n\r\n        // //Actually transfer the token to the new owner\r\n        // _transfer(address(this), msg.sender, tokenId);\r\n        // //approve the marketplace to sell NFTs on your behalf\r\n        // approve(address(this), tokenId);\r\n\r\n        // //Transfer the listing fee to the marketplace creator\r\n        // payable(owner).transfer(listPrice);\r\n        // //Transfer the proceeds from the sale to the seller of the NFT\r\n        // payable(seller).transfer(msg.value);\r\n\r\n        nftOwners[msg.sender][tokenId].push(NFTRedeemState({\r\n                issueDate: block.timestamp, \r\n                mintValue: 0, \r\n                hasRedeemed: false\r\n                }));\r\n    }\r\n\r\n    function getRedeemStatesLen(uint256 tokenId) private view returns (uint256){\r\n        uint256 redeemStatesLen = (nftOwners[msg.sender][tokenId]).length;\r\n        return redeemStatesLen;\r\n    }\r\n\r\n    function getFirstOccuringRedeemState(uint256 tokenId) private view returns (bool){\r\n        NFTRedeemState[] memory redeemStates = nftOwners[msg.sender][tokenId];\r\n        for (uint256 i = 0; i < redeemStates.length; i++){\r\n            if (redeemStates[i].hasRedeemed){\r\n                return true;\r\n            }\r\n        }\r\n        return false;\r\n    }\r\n\r\n    function getLastRedeemState(uint256 tokenId) private view returns (NFTRedeemState memory){\r\n        NFTRedeemState[] memory redeemStates = nftOwners[msg.sender][tokenId];\r\n        return redeemStates[getRedeemStatesLen(tokenId) - 1];\r\n    }\r\n\r\n    function issueNFT(uint256 tokenId, address[] memory walletAddr) public{\r\n        for (uint i = 0; i < walletAddr.length; i++){\r\n            nftOwners[walletAddr[i]][tokenId].push(NFTRedeemState({\r\n                    issueDate: block.timestamp, \r\n                    mintValue: 0, \r\n                    hasRedeemed: false\r\n                    }));\r\n        }\r\n    }\r\n\r\n    function redeemNFT(uint256 tokenId, uint32 redeemCode) public{\r\n        require(codeToMintToken[redeemCode].tokenId == tokenId, \"1. Invalid Redeem Code for NFT\");\r\n        require(checkWalletNFT(tokenId) && !((getLastRedeemState(tokenId)).hasRedeemed), \"2. Invalid Redeem Code for NFT\");\r\n\r\n        uint256 mintValue = codeToMintToken[redeemCode].mintValue;\r\n        uint256 redeemStatesLen = (nftOwners[msg.sender][tokenId]).length;\r\n        nftOwners[msg.sender][tokenId][redeemStatesLen - 1].mintValue = mintValue;\r\n        nftOwners[msg.sender][tokenId][redeemStatesLen - 1].hasRedeemed = true;\r\n\r\n        uint256 oldBalance = rwdToken.balanceOf(msg.sender);\r\n        rwdToken.transfer(msg.sender, mintValue);\r\n        uint256 newBalance = rwdToken.balanceOf(msg.sender);\r\n\r\n        emit NFTRedeemed(msg.sender, tokenId, redeemCode, mintValue, redeemStatesLen, oldBalance, newBalance);\r\n    }\r\n\r\n    function checkWalletNFT(uint256 tokenId) public view returns (bool) {\r\n        return (nftOwners[msg.sender][tokenId]).length > 0;\r\n    }\r\n}",
  "sourcePath": "D:\\Documents\\Events\\2023\\2. KL Mini Hack\\polygon-zkevm-truffle\\contracts\\NFTMarketplace.sol",
  "compiler": {
    "name": "solc",
    "version": "0.8.17+commit.8df45f5f.Emscripten.clang"
  },
  "schemaVersion": "3.4.11",
  "updatedAt": "2023-02-16T06:22:44.391Z",
  "networkType": "ethereum",
  "devdoc": {
    "kind": "dev",
    "methods": {
      "approve(address,uint256)": {
        "details": "See {IERC721-approve}."
      },
      "balanceOf(address)": {
        "details": "See {IERC721-balanceOf}."
      },
      "getApproved(uint256)": {
        "details": "See {IERC721-getApproved}."
      },
      "isApprovedForAll(address,address)": {
        "details": "See {IERC721-isApprovedForAll}."
      },
      "name()": {
        "details": "See {IERC721Metadata-name}."
      },
      "ownerOf(uint256)": {
        "details": "See {IERC721-ownerOf}."
      },
      "safeTransferFrom(address,address,uint256)": {
        "details": "See {IERC721-safeTransferFrom}."
      },
      "safeTransferFrom(address,address,uint256,bytes)": {
        "details": "See {IERC721-safeTransferFrom}."
      },
      "setApprovalForAll(address,bool)": {
        "details": "See {IERC721-setApprovalForAll}."
      },
      "supportsInterface(bytes4)": {
        "details": "See {IERC165-supportsInterface}."
      },
      "symbol()": {
        "details": "See {IERC721Metadata-symbol}."
      },
      "tokenURI(uint256)": {
        "details": "See {IERC721Metadata-tokenURI}."
      },
      "transferFrom(address,address,uint256)": {
        "details": "See {IERC721-transferFrom}."
      }
    },
    "version": 1
  },
  "userdoc": {
    "kind": "user",
    "methods": {},
    "version": 1
  }
}