{
  "contractName": "NFTMarketplace",
  "abi": [
    {
      "inputs": [],
      "stateMutability": "nonpayable",
      "type": "constructor"
    },
    {
      "anonymous": false,
      "inputs": [
        {
          "indexed": true,
          "internalType": "address",
          "name": "owner",
          "type": "address"
        },
        {
          "indexed": true,
          "internalType": "address",
          "name": "approved",
          "type": "address"
        },
        {
          "indexed": true,
          "internalType": "uint256",
          "name": "tokenId",
          "type": "uint256"
        }
      ],
      "name": "Approval",
      "type": "event"
    },
    {
      "anonymous": false,
      "inputs": [
        {
          "indexed": true,
          "internalType": "address",
          "name": "owner",
          "type": "address"
        },
        {
          "indexed": true,
          "internalType": "address",
          "name": "operator",
          "type": "address"
        },
        {
          "indexed": false,
          "internalType": "bool",
          "name": "approved",
          "type": "bool"
        }
      ],
      "name": "ApprovalForAll",
      "type": "event"
    },
    {
      "anonymous": false,
      "inputs": [
        {
          "indexed": true,
          "internalType": "uint256",
          "name": "tokenId",
          "type": "uint256"
        },
        {
          "indexed": false,
          "internalType": "address",
          "name": "owner",
          "type": "address"
        },
        {
          "indexed": false,
          "internalType": "address",
          "name": "seller",
          "type": "address"
        },
        {
          "indexed": false,
          "internalType": "uint256",
          "name": "price",
          "type": "uint256"
        },
        {
          "indexed": false,
          "internalType": "bool",
          "name": "currentlyListed",
          "type": "bool"
        }
      ],
      "name": "TokenListedSuccess",
      "type": "event"
    },
    {
      "anonymous": false,
      "inputs": [
        {
          "indexed": true,
          "internalType": "address",
          "name": "from",
          "type": "address"
        },
        {
          "indexed": true,
          "internalType": "address",
          "name": "to",
          "type": "address"
        },
        {
          "indexed": true,
          "internalType": "uint256",
          "name": "tokenId",
          "type": "uint256"
        }
      ],
      "name": "Transfer",
      "type": "event"
    },
    {
      "inputs": [
        {
          "internalType": "address",
          "name": "to",
          "type": "address"
        },
        {
          "internalType": "uint256",
          "name": "tokenId",
          "type": "uint256"
        }
      ],
      "name": "approve",
      "outputs": [],
      "stateMutability": "nonpayable",
      "type": "function"
    },
    {
      "inputs": [
        {
          "internalType": "address",
          "name": "owner",
          "type": "address"
        }
      ],
      "name": "balanceOf",
      "outputs": [
        {
          "internalType": "uint256",
          "name": "",
          "type": "uint256"
        }
      ],
      "stateMutability": "view",
      "type": "function",
      "constant": true
    },
    {
      "inputs": [
        {
          "internalType": "uint256",
          "name": "tokenId",
          "type": "uint256"
        }
      ],
      "name": "getApproved",
      "outputs": [
        {
          "internalType": "address",
          "name": "",
          "type": "address"
        }
      ],
      "stateMutability": "view",
      "type": "function",
      "constant": true
    },
    {
      "inputs": [
        {
          "internalType": "address",
          "name": "owner",
          "type": "address"
        },
        {
          "internalType": "address",
          "name": "operator",
          "type": "address"
        }
      ],
      "name": "isApprovedForAll",
      "outputs": [
        {
          "internalType": "bool",
          "name": "",
          "type": "bool"
        }
      ],
      "stateMutability": "view",
      "type": "function",
      "constant": true
    },
    {
      "inputs": [],
      "name": "name",
      "outputs": [
        {
          "internalType": "string",
          "name": "",
          "type": "string"
        }
      ],
      "stateMutability": "view",
      "type": "function",
      "constant": true
    },
    {
      "inputs": [
        {
          "internalType": "uint256",
          "name": "tokenId",
          "type": "uint256"
        }
      ],
      "name": "ownerOf",
      "outputs": [
        {
          "internalType": "address",
          "name": "",
          "type": "address"
        }
      ],
      "stateMutability": "view",
      "type": "function",
      "constant": true
    },
    {
      "inputs": [
        {
          "internalType": "address",
          "name": "from",
          "type": "address"
        },
        {
          "internalType": "address",
          "name": "to",
          "type": "address"
        },
        {
          "internalType": "uint256",
          "name": "tokenId",
          "type": "uint256"
        }
      ],
      "name": "safeTransferFrom",
      "outputs": [],
      "stateMutability": "nonpayable",
      "type": "function"
    },
    {
      "inputs": [
        {
          "internalType": "address",
          "name": "from",
          "type": "address"
        },
        {
          "internalType": "address",
          "name": "to",
          "type": "address"
        },
        {
          "internalType": "uint256",
          "name": "tokenId",
          "type": "uint256"
        },
        {
          "internalType": "bytes",
          "name": "data",
          "type": "bytes"
        }
      ],
      "name": "safeTransferFrom",
      "outputs": [],
      "stateMutability": "nonpayable",
      "type": "function"
    },
    {
      "inputs": [
        {
          "internalType": "address",
          "name": "operator",
          "type": "address"
        },
        {
          "internalType": "bool",
          "name": "approved",
          "type": "bool"
        }
      ],
      "name": "setApprovalForAll",
      "outputs": [],
      "stateMutability": "nonpayable",
      "type": "function"
    },
    {
      "inputs": [
        {
          "internalType": "bytes4",
          "name": "interfaceId",
          "type": "bytes4"
        }
      ],
      "name": "supportsInterface",
      "outputs": [
        {
          "internalType": "bool",
          "name": "",
          "type": "bool"
        }
      ],
      "stateMutability": "view",
      "type": "function",
      "constant": true
    },
    {
      "inputs": [],
      "name": "symbol",
      "outputs": [
        {
          "internalType": "string",
          "name": "",
          "type": "string"
        }
      ],
      "stateMutability": "view",
      "type": "function",
      "constant": true
    },
    {
      "inputs": [
        {
          "internalType": "uint256",
          "name": "tokenId",
          "type": "uint256"
        }
      ],
      "name": "tokenURI",
      "outputs": [
        {
          "internalType": "string",
          "name": "",
          "type": "string"
        }
      ],
      "stateMutability": "view",
      "type": "function",
      "constant": true
    },
    {
      "inputs": [
        {
          "internalType": "address",
          "name": "from",
          "type": "address"
        },
        {
          "internalType": "address",
          "name": "to",
          "type": "address"
        },
        {
          "internalType": "uint256",
          "name": "tokenId",
          "type": "uint256"
        }
      ],
      "name": "transferFrom",
      "outputs": [],
      "stateMutability": "nonpayable",
      "type": "function"
    },
    {
      "inputs": [
        {
          "internalType": "uint256",
          "name": "_listPrice",
          "type": "uint256"
        }
      ],
      "name": "updateListPrice",
      "outputs": [],
      "stateMutability": "payable",
      "type": "function",
      "payable": true
    },
    {
      "inputs": [],
      "name": "getListPrice",
      "outputs": [
        {
          "internalType": "uint256",
          "name": "",
          "type": "uint256"
        }
      ],
      "stateMutability": "view",
      "type": "function",
      "constant": true
    },
    {
      "inputs": [],
      "name": "getLatestIdToListedToken",
      "outputs": [
        {
          "components": [
            {
              "internalType": "uint256",
              "name": "tokenId",
              "type": "uint256"
            },
            {
              "internalType": "address payable",
              "name": "owner",
              "type": "address"
            },
            {
              "internalType": "address payable",
              "name": "seller",
              "type": "address"
            },
            {
              "internalType": "uint256",
              "name": "price",
              "type": "uint256"
            },
            {
              "internalType": "bool",
              "name": "currentlyListed",
              "type": "bool"
            }
          ],
          "internalType": "struct NFTMarketplace.ListedToken",
          "name": "",
          "type": "tuple"
        }
      ],
      "stateMutability": "view",
      "type": "function",
      "constant": true
    },
    {
      "inputs": [
        {
          "internalType": "uint256",
          "name": "tokenId",
          "type": "uint256"
        }
      ],
      "name": "getListedTokenForId",
      "outputs": [
        {
          "components": [
            {
              "internalType": "uint256",
              "name": "tokenId",
              "type": "uint256"
            },
            {
              "internalType": "address payable",
              "name": "owner",
              "type": "address"
            },
            {
              "internalType": "address payable",
              "name": "seller",
              "type": "address"
            },
            {
              "internalType": "uint256",
              "name": "price",
              "type": "uint256"
            },
            {
              "internalType": "bool",
              "name": "currentlyListed",
              "type": "bool"
            }
          ],
          "internalType": "struct NFTMarketplace.ListedToken",
          "name": "",
          "type": "tuple"
        }
      ],
      "stateMutability": "view",
      "type": "function",
      "constant": true
    },
    {
      "inputs": [],
      "name": "getCurrentToken",
      "outputs": [
        {
          "internalType": "uint256",
          "name": "",
          "type": "uint256"
        }
      ],
      "stateMutability": "view",
      "type": "function",
      "constant": true
    },
    {
      "inputs": [
        {
          "internalType": "string",
          "name": "tokenURI",
          "type": "string"
        },
        {
          "internalType": "uint256",
          "name": "price",
          "type": "uint256"
        }
      ],
      "name": "createToken",
      "outputs": [
        {
          "internalType": "uint256",
          "name": "",
          "type": "uint256"
        }
      ],
      "stateMutability": "payable",
      "type": "function",
      "payable": true
    },
    {
      "inputs": [],
      "name": "getAllNFTs",
      "outputs": [
        {
          "components": [
            {
              "internalType": "uint256",
              "name": "tokenId",
              "type": "uint256"
            },
            {
              "internalType": "address payable",
              "name": "owner",
              "type": "address"
            },
            {
              "internalType": "address payable",
              "name": "seller",
              "type": "address"
            },
            {
              "internalType": "uint256",
              "name": "price",
              "type": "uint256"
            },
            {
              "internalType": "bool",
              "name": "currentlyListed",
              "type": "bool"
            }
          ],
          "internalType": "struct NFTMarketplace.ListedToken[]",
          "name": "",
          "type": "tuple[]"
        }
      ],
      "stateMutability": "view",
      "type": "function",
      "constant": true
    },
    {
      "inputs": [],
      "name": "getMyNFTs",
      "outputs": [
        {
          "components": [
            {
              "internalType": "uint256",
              "name": "tokenId",
              "type": "uint256"
            },
            {
              "internalType": "address payable",
              "name": "owner",
              "type": "address"
            },
            {
              "internalType": "address payable",
              "name": "seller",
              "type": "address"
            },
            {
              "internalType": "uint256",
              "name": "price",
              "type": "uint256"
            },
            {
              "internalType": "bool",
              "name": "currentlyListed",
              "type": "bool"
            }
          ],
          "internalType": "struct NFTMarketplace.ListedToken[]",
          "name": "",
          "type": "tuple[]"
        }
      ],
      "stateMutability": "view",
      "type": "function",
      "constant": true
    },
    {
      "inputs": [
        {
          "internalType": "uint256",
          "name": "tokenId",
          "type": "uint256"
        }
      ],
      "name": "executeSale",
      "outputs": [],
      "stateMutability": "payable",
      "type": "function",
      "payable": true
    }
  ],
  "bytecode": "0x6080604052662386f26fc10000600a553480156200001c57600080fd5b506040518060400160405280600e81526020017f4e46544d61726b6574706c6163650000000000000000000000000000000000008152506040518060400160405280600481526020017f4e46544d0000000000000000000000000000000000000000000000000000000081525081600090816200009a919062000370565b508060019081620000ac919062000370565b50505033600960006101000a81548173ffffffffffffffffffffffffffffffffffffffff021916908373ffffffffffffffffffffffffffffffffffffffff16021790555062000457565b600081519050919050565b7f4e487b7100000000000000000000000000000000000000000000000000000000600052604160045260246000fd5b7f4e487b7100000000000000000000000000000000000000000000000000000000600052602260045260246000fd5b600060028204905060018216806200017857607f821691505b6020821081036200018e576200018d62000130565b5b50919050565b60008190508160005260206000209050919050565b60006020601f8301049050919050565b600082821b905092915050565b600060088302620001f87fffffffffffffffffffffffffffffffffffffffffffffffffffffffffffffffff82620001b9565b620002048683620001b9565b95508019841693508086168417925050509392505050565b6000819050919050565b6000819050919050565b6000620002516200024b62000245846200021c565b62000226565b6200021c565b9050919050565b6000819050919050565b6200026d8362000230565b620002856200027c8262000258565b848454620001c6565b825550505050565b600090565b6200029c6200028d565b620002a981848462000262565b505050565b5b81811015620002d157620002c560008262000292565b600181019050620002af565b5050565b601f8211156200032057620002ea8162000194565b620002f584620001a9565b8101602085101562000305578190505b6200031d6200031485620001a9565b830182620002ae565b50505b505050565b600082821c905092915050565b6000620003456000198460080262000325565b1980831691505092915050565b600062000360838362000332565b9150826002028217905092915050565b6200037b82620000f6565b67ffffffffffffffff81111562000397576200039662000101565b5b620003a382546200015f565b620003b0828285620002d5565b600060209050601f831160018114620003e85760008415620003d3578287015190505b620003df858262000352565b8655506200044f565b601f198416620003f88662000194565b60005b828110156200042257848901518255600182019150602085019450602081019050620003fb565b868310156200044257848901516200043e601f89168262000332565b8355505b6001600288020188555050505b505050505050565b61409880620004676000396000f3fe6080604052600436106101355760003560e01c80638e264590116100ab578063c322579c1161006f578063c322579c14610430578063c87b56dd1461044c578063d1a88ae514610489578063e0391b09146104b4578063e985e9c5146104df578063ef2d17461461051c57610135565b80638e2645901461035a57806395d89b41146103975780639b1225c4146103c2578063a22cb465146103de578063b88d4fde1461040757610135565b806342842e0e116100fd57806342842e0e14610231578063629cb2e41461025a5780636352211e1461028557806368f1945f146102c257806370a08231146102ed57806372b3b6201461032a57610135565b806301ffc9a71461013a57806306fdde0314610177578063081812fc146101a2578063095ea7b3146101df57806323b872dd14610208575b600080fd5b34801561014657600080fd5b50610161600480360381019061015c91906129f1565b610547565b60405161016e9190612a39565b60405180910390f35b34801561018357600080fd5b5061018c610629565b6040516101999190612ae4565b60405180910390f35b3480156101ae57600080fd5b506101c960048036038101906101c49190612b3c565b6106bb565b6040516101d69190612baa565b60405180910390f35b3480156101eb57600080fd5b5061020660048036038101906102019190612bf1565b610701565b005b34801561021457600080fd5b5061022f600480360381019061022a9190612c31565b610818565b005b34801561023d57600080fd5b5061025860048036038101906102539190612c31565b610878565b005b34801561026657600080fd5b5061026f610898565b60405161027c9190612dda565b60405180910390f35b34801561029157600080fd5b506102ac60048036038101906102a79190612b3c565b610c79565b6040516102b99190612baa565b60405180910390f35b3480156102ce57600080fd5b506102d7610cff565b6040516102e49190612e0b565b60405180910390f35b3480156102f957600080fd5b50610314600480360381019061030f9190612e26565b610d09565b6040516103219190612e0b565b60405180910390f35b610344600480360381019061033f9190612f88565b610dc0565b6040516103519190612e0b565b60405180910390f35b34801561036657600080fd5b50610381600480360381019061037c9190612b3c565b610e02565b60405161038e919061304c565b60405180910390f35b3480156103a357600080fd5b506103ac610f0a565b6040516103b99190612ae4565b60405180910390f35b6103dc60048036038101906103d79190612b3c565b610f9c565b005b3480156103ea57600080fd5b5061040560048036038101906104009190613093565b61118e565b005b34801561041357600080fd5b5061042e60048036038101906104299190613174565b6111a4565b005b61044a60048036038101906104459190612b3c565b611206565b005b34801561045857600080fd5b50610473600480360381019061046e9190612b3c565b6112a0565b6040516104809190612ae4565b60405180910390f35b34801561049557600080fd5b5061049e6113b2565b6040516104ab919061304c565b60405180910390f35b3480156104c057600080fd5b506104c96114c7565b6040516104d69190612dda565b60405180910390f35b3480156104eb57600080fd5b50610506600480360381019061050191906131f7565b611699565b6040516105139190612a39565b60405180910390f35b34801561052857600080fd5b5061053161172d565b60405161053e9190612e0b565b60405180910390f35b60007f80ac58cd000000000000000000000000000000000000000000000000000000007bffffffffffffffffffffffffffffffffffffffffffffffffffffffff1916827bffffffffffffffffffffffffffffffffffffffffffffffffffffffff1916148061061257507f5b5e139f000000000000000000000000000000000000000000000000000000007bffffffffffffffffffffffffffffffffffffffffffffffffffffffff1916827bffffffffffffffffffffffffffffffffffffffffffffffffffffffff1916145b8061062257506106218261173e565b5b9050919050565b60606000805461063890613266565b80601f016020809104026020016040519081016040528092919081815260200182805461066490613266565b80156106b15780601f10610686576101008083540402835291602001916106b1565b820191906000526020600020905b81548152906001019060200180831161069457829003601f168201915b5050505050905090565b60006106c6826117a8565b6004600083815260200190815260200160002060009054906101000a900473ffffffffffffffffffffffffffffffffffffffff169050919050565b600061070c82610c79565b90508073ffffffffffffffffffffffffffffffffffffffff168373ffffffffffffffffffffffffffffffffffffffff160361077c576040517f08c379a000000000000000000000000000000000000000000000000000000000815260040161077390613309565b60405180910390fd5b8073ffffffffffffffffffffffffffffffffffffffff1661079b6117f3565b73ffffffffffffffffffffffffffffffffffffffff1614806107ca57506107c9816107c46117f3565b611699565b5b610809576040517f08c379a00000000000000000000000000000000000000000000000000000000081526004016108009061339b565b60405180910390fd5b61081383836117fb565b505050565b6108296108236117f3565b826118b4565b610868576040517f08c379a000000000000000000000000000000000000000000000000000000000815260040161085f9061342d565b60405180910390fd5b610873838383611949565b505050565b610893838383604051806020016040528060008152506111a4565b505050565b606060006108a66007611c42565b9050600080600080600090505b848110156109cc573373ffffffffffffffffffffffffffffffffffffffff16600b60006001846108e3919061347c565b815260200190815260200160002060010160009054906101000a900473ffffffffffffffffffffffffffffffffffffffff1673ffffffffffffffffffffffffffffffffffffffff1614806109a457503373ffffffffffffffffffffffffffffffffffffffff16600b600060018461095a919061347c565b815260200190815260200160002060020160009054906101000a900473ffffffffffffffffffffffffffffffffffffffff1673ffffffffffffffffffffffffffffffffffffffff16145b156109b9576001846109b6919061347c565b93505b80806109c4906134b0565b9150506108b3565b5060008367ffffffffffffffff8111156109e9576109e8612e5d565b5b604051908082528060200260200182016040528015610a2257816020015b610a0f612928565b815260200190600190039081610a075790505b50905060005b85811015610c6d573373ffffffffffffffffffffffffffffffffffffffff16600b6000600184610a58919061347c565b815260200190815260200160002060010160009054906101000a900473ffffffffffffffffffffffffffffffffffffffff1673ffffffffffffffffffffffffffffffffffffffff161480610b1957503373ffffffffffffffffffffffffffffffffffffffff16600b6000600184610acf919061347c565b815260200190815260200160002060020160009054906101000a900473ffffffffffffffffffffffffffffffffffffffff1673ffffffffffffffffffffffffffffffffffffffff16145b15610c5a57600181610b2b919061347c565b92506000600b60008581526020019081526020016000209050806040518060a0016040529081600082015481526020016001820160009054906101000a900473ffffffffffffffffffffffffffffffffffffffff1673ffffffffffffffffffffffffffffffffffffffff1673ffffffffffffffffffffffffffffffffffffffff1681526020016002820160009054906101000a900473ffffffffffffffffffffffffffffffffffffffff1673ffffffffffffffffffffffffffffffffffffffff1673ffffffffffffffffffffffffffffffffffffffff168152602001600382015481526020016004820160009054906101000a900460ff161515151581525050838681518110610c3e57610c3d6134f8565b5b6020026020010181905250600185610c56919061347c565b9450505b8080610c65906134b0565b915050610a28565b50809550505050505090565b600080610c8583611c50565b9050600073ffffffffffffffffffffffffffffffffffffffff168173ffffffffffffffffffffffffffffffffffffffff1603610cf6576040517f08c379a0000000000000000000000000000000000000000000000000000000008152600401610ced90613573565b60405180910390fd5b80915050919050565b6000600a54905090565b60008073ffffffffffffffffffffffffffffffffffffffff168273ffffffffffffffffffffffffffffffffffffffff1603610d79576040517f08c379a0000000000000000000000000000000000000000000000000000000008152600401610d7090613605565b60405180910390fd5b600360008373ffffffffffffffffffffffffffffffffffffffff1673ffffffffffffffffffffffffffffffffffffffff168152602001908152602001600020549050919050565b6000610dcc6007611c8d565b6000610dd86007611c42565b9050610de43382611ca3565b610dee8185611cc1565b610df88184611d2e565b8091505092915050565b610e0a612928565b600b60008381526020019081526020016000206040518060a0016040529081600082015481526020016001820160009054906101000a900473ffffffffffffffffffffffffffffffffffffffff1673ffffffffffffffffffffffffffffffffffffffff1673ffffffffffffffffffffffffffffffffffffffff1681526020016002820160009054906101000a900473ffffffffffffffffffffffffffffffffffffffff1673ffffffffffffffffffffffffffffffffffffffff1673ffffffffffffffffffffffffffffffffffffffff168152602001600382015481526020016004820160009054906101000a900460ff1615151515815250509050919050565b606060018054610f1990613266565b80601f0160208091040260200160405190810160405280929190818152602001828054610f4590613266565b8015610f925780601f10610f6757610100808354040283529160200191610f92565b820191906000526020600020905b815481529060010190602001808311610f7557829003601f168201915b5050505050905090565b6000600b60008381526020019081526020016000206003015490506000600b600084815260200190815260200160002060020160009054906101000a900473ffffffffffffffffffffffffffffffffffffffff169050813414611034576040517f08c379a000000000000000000000000000000000000000000000000000000000815260040161102b90613697565b60405180910390fd5b6001600b600085815260200190815260200160002060040160006101000a81548160ff02191690831515021790555033600b600085815260200190815260200160002060020160006101000a81548173ffffffffffffffffffffffffffffffffffffffff021916908373ffffffffffffffffffffffffffffffffffffffff1602179055506110c26008611c8d565b6110cd303385611949565b6110d73084610701565b600960009054906101000a900473ffffffffffffffffffffffffffffffffffffffff1673ffffffffffffffffffffffffffffffffffffffff166108fc600a549081150290604051600060405180830381858888f19350505050158015611141573d6000803e3d6000fd5b508073ffffffffffffffffffffffffffffffffffffffff166108fc349081150290604051600060405180830381858888f19350505050158015611188573d6000803e3d6000fd5b50505050565b6111a06111996117f3565b8383611f31565b5050565b6111b56111af6117f3565b836118b4565b6111f4576040517f08c379a00000000000000000000000000000000000000000000000000000000081526004016111eb9061342d565b60405180910390fd5b6112008484848461209d565b50505050565b3373ffffffffffffffffffffffffffffffffffffffff16600960009054906101000a900473ffffffffffffffffffffffffffffffffffffffff1673ffffffffffffffffffffffffffffffffffffffff1614611296576040517f08c379a000000000000000000000000000000000000000000000000000000000815260040161128d90613729565b60405180910390fd5b80600a8190555050565b60606112ab826117a8565b60006006600084815260200190815260200160002080546112cb90613266565b80601f01602080910402602001604051908101604052809291908181526020018280546112f790613266565b80156113445780601f1061131957610100808354040283529160200191611344565b820191906000526020600020905b81548152906001019060200180831161132757829003601f168201915b5050505050905060006113556120f9565b9050600081510361136a5781925050506113ad565b60008251111561139f578082604051602001611387929190613785565b604051602081830303815290604052925050506113ad565b6113a884612110565b925050505b919050565b6113ba612928565b60006113c66007611c42565b9050600b60008281526020019081526020016000206040518060a0016040529081600082015481526020016001820160009054906101000a900473ffffffffffffffffffffffffffffffffffffffff1673ffffffffffffffffffffffffffffffffffffffff1673ffffffffffffffffffffffffffffffffffffffff1681526020016002820160009054906101000a900473ffffffffffffffffffffffffffffffffffffffff1673ffffffffffffffffffffffffffffffffffffffff1673ffffffffffffffffffffffffffffffffffffffff168152602001600382015481526020016004820160009054906101000a900460ff16151515158152505091505090565b606060006114d56007611c42565b905060008167ffffffffffffffff8111156114f3576114f2612e5d565b5b60405190808252806020026020018201604052801561152c57816020015b611519612928565b8152602001906001900390816115115790505b50905060008080600090505b8481101561168e5760018161154d919061347c565b91506000600b60008481526020019081526020016000209050806040518060a0016040529081600082015481526020016001820160009054906101000a900473ffffffffffffffffffffffffffffffffffffffff1673ffffffffffffffffffffffffffffffffffffffff1673ffffffffffffffffffffffffffffffffffffffff1681526020016002820160009054906101000a900473ffffffffffffffffffffffffffffffffffffffff1673ffffffffffffffffffffffffffffffffffffffff1673ffffffffffffffffffffffffffffffffffffffff168152602001600382015481526020016004820160009054906101000a900460ff1615151515815250508585815181106116605761165f6134f8565b5b6020026020010181905250600184611678919061347c565b9350508080611686906134b0565b915050611538565b508294505050505090565b6000600560008473ffffffffffffffffffffffffffffffffffffffff1673ffffffffffffffffffffffffffffffffffffffff16815260200190815260200160002060008373ffffffffffffffffffffffffffffffffffffffff1673ffffffffffffffffffffffffffffffffffffffff16815260200190815260200160002060009054906101000a900460ff16905092915050565b60006117396007611c42565b905090565b60007f01ffc9a7000000000000000000000000000000000000000000000000000000007bffffffffffffffffffffffffffffffffffffffffffffffffffffffff1916827bffffffffffffffffffffffffffffffffffffffffffffffffffffffff1916149050919050565b6117b181612178565b6117f0576040517f08c379a00000000000000000000000000000000000000000000000000000000081526004016117e790613573565b60405180910390fd5b50565b600033905090565b816004600083815260200190815260200160002060006101000a81548173ffffffffffffffffffffffffffffffffffffffff021916908373ffffffffffffffffffffffffffffffffffffffff160217905550808273ffffffffffffffffffffffffffffffffffffffff1661186e83610c79565b73ffffffffffffffffffffffffffffffffffffffff167f8c5be1e5ebec7d5bd14f71427d1e84f3dd0314c0f7b2291e5b200ac8c7c3b92560405160405180910390a45050565b6000806118c083610c79565b90508073ffffffffffffffffffffffffffffffffffffffff168473ffffffffffffffffffffffffffffffffffffffff16148061190257506119018185611699565b5b8061194057508373ffffffffffffffffffffffffffffffffffffffff16611928846106bb565b73ffffffffffffffffffffffffffffffffffffffff16145b91505092915050565b8273ffffffffffffffffffffffffffffffffffffffff1661196982610c79565b73ffffffffffffffffffffffffffffffffffffffff16146119bf576040517f08c379a00000000000000000000000000000000000000000000000000000000081526004016119b69061381b565b60405180910390fd5b600073ffffffffffffffffffffffffffffffffffffffff168273ffffffffffffffffffffffffffffffffffffffff1603611a2e576040517f08c379a0000000000000000000000000000000000000000000000000000000008152600401611a25906138ad565b60405180910390fd5b611a3b83838360016121b9565b8273ffffffffffffffffffffffffffffffffffffffff16611a5b82610c79565b73ffffffffffffffffffffffffffffffffffffffff1614611ab1576040517f08c379a0000000000000000000000000000000000000000000000000000000008152600401611aa89061381b565b60405180910390fd5b6004600082815260200190815260200160002060006101000a81549073ffffffffffffffffffffffffffffffffffffffff02191690556001600360008573ffffffffffffffffffffffffffffffffffffffff1673ffffffffffffffffffffffffffffffffffffffff168152602001908152602001600020600082825403925050819055506001600360008473ffffffffffffffffffffffffffffffffffffffff1673ffffffffffffffffffffffffffffffffffffffff16815260200190815260200160002060008282540192505081905550816002600083815260200190815260200160002060006101000a81548173ffffffffffffffffffffffffffffffffffffffff021916908373ffffffffffffffffffffffffffffffffffffffff160217905550808273ffffffffffffffffffffffffffffffffffffffff168473ffffffffffffffffffffffffffffffffffffffff167fddf252ad1be2c89b69c2b068fc378daa952ba7f163c4a11628f55a4df523b3ef60405160405180910390a4611c3d83838360016122df565b505050565b600081600001549050919050565b60006002600083815260200190815260200160002060009054906101000a900473ffffffffffffffffffffffffffffffffffffffff169050919050565b6001816000016000828254019250508190555050565b611cbd8282604051806020016040528060008152506122e5565b5050565b611cca82612178565b611d09576040517f08c379a0000000000000000000000000000000000000000000000000000000008152600401611d009061393f565b60405180910390fd5b80600660008481526020019081526020016000209081611d299190613b0b565b505050565b600a543414611d72576040517f08c379a0000000000000000000000000000000000000000000000000000000008152600401611d6990613c4f565b60405180910390fd5b60008111611db5576040517f08c379a0000000000000000000000000000000000000000000000000000000008152600401611dac90613ce1565b60405180910390fd5b6040518060a001604052808381526020013073ffffffffffffffffffffffffffffffffffffffff1681526020013373ffffffffffffffffffffffffffffffffffffffff16815260200182815260200160011515815250600b60008481526020019081526020016000206000820151816000015560208201518160010160006101000a81548173ffffffffffffffffffffffffffffffffffffffff021916908373ffffffffffffffffffffffffffffffffffffffff16021790555060408201518160020160006101000a81548173ffffffffffffffffffffffffffffffffffffffff021916908373ffffffffffffffffffffffffffffffffffffffff1602179055506060820151816003015560808201518160040160006101000a81548160ff021916908315150217905550905050611eee333084611949565b817f9339409317fd01fabff48b703019016f49159bacc801ae872d2ca637d226e4c03033846001604051611f259493929190613d01565b60405180910390a25050565b8173ffffffffffffffffffffffffffffffffffffffff168373ffffffffffffffffffffffffffffffffffffffff1603611f9f576040517f08c379a0000000000000000000000000000000000000000000000000000000008152600401611f9690613d92565b60405180910390fd5b80600560008573ffffffffffffffffffffffffffffffffffffffff1673ffffffffffffffffffffffffffffffffffffffff16815260200190815260200160002060008473ffffffffffffffffffffffffffffffffffffffff1673ffffffffffffffffffffffffffffffffffffffff16815260200190815260200160002060006101000a81548160ff0219169083151502179055508173ffffffffffffffffffffffffffffffffffffffff168373ffffffffffffffffffffffffffffffffffffffff167f17307eab39ab6107e8899845ad3d59bd9653f200f220920489ca2b5937696c31836040516120909190612a39565b60405180910390a3505050565b6120a8848484611949565b6120b484848484612340565b6120f3576040517f08c379a00000000000000000000000000000000000000000000000000000000081526004016120ea90613e24565b60405180910390fd5b50505050565b606060405180602001604052806000815250905090565b606061211b826117a8565b60006121256120f9565b905060008151116121455760405180602001604052806000815250612170565b8061214f846124c7565b604051602001612160929190613785565b6040516020818303038152906040525b915050919050565b60008073ffffffffffffffffffffffffffffffffffffffff1661219a83611c50565b73ffffffffffffffffffffffffffffffffffffffff1614159050919050565b60018111156122d957600073ffffffffffffffffffffffffffffffffffffffff168473ffffffffffffffffffffffffffffffffffffffff161461224d5780600360008673ffffffffffffffffffffffffffffffffffffffff1673ffffffffffffffffffffffffffffffffffffffff16815260200190815260200160002060008282546122459190613e44565b925050819055505b600073ffffffffffffffffffffffffffffffffffffffff168373ffffffffffffffffffffffffffffffffffffffff16146122d85780600360008573ffffffffffffffffffffffffffffffffffffffff1673ffffffffffffffffffffffffffffffffffffffff16815260200190815260200160002060008282546122d0919061347c565b925050819055505b5b50505050565b50505050565b6122ef8383612595565b6122fc6000848484612340565b61233b576040517f08c379a000000000000000000000000000000000000000000000000000000000815260040161233290613e24565b60405180910390fd5b505050565b60006123618473ffffffffffffffffffffffffffffffffffffffff166127b2565b156124ba578373ffffffffffffffffffffffffffffffffffffffff1663150b7a0261238a6117f3565b8786866040518563ffffffff1660e01b81526004016123ac9493929190613ecd565b6020604051808303816000875af19250505080156123e857506040513d601f19601f820116820180604052508101906123e59190613f2e565b60015b61246a573d8060008114612418576040519150601f19603f3d011682016040523d82523d6000602084013e61241d565b606091505b506000815103612462576040517f08c379a000000000000000000000000000000000000000000000000000000000815260040161245990613e24565b60405180910390fd5b805181602001fd5b63150b7a0260e01b7bffffffffffffffffffffffffffffffffffffffffffffffffffffffff1916817bffffffffffffffffffffffffffffffffffffffffffffffffffffffff1916149150506124bf565b600190505b949350505050565b6060600060016124d6846127d5565b01905060008167ffffffffffffffff8111156124f5576124f4612e5d565b5b6040519080825280601f01601f1916602001820160405280156125275781602001600182028036833780820191505090505b509050600082602001820190505b60011561258a578080600190039150507f3031323334353637383961626364656600000000000000000000000000000000600a86061a8153600a858161257e5761257d613f5b565b5b04945060008503612535575b819350505050919050565b600073ffffffffffffffffffffffffffffffffffffffff168273ffffffffffffffffffffffffffffffffffffffff1603612604576040517f08c379a00000000000000000000000000000000000000000000000000000000081526004016125fb90613fd6565b60405180910390fd5b61260d81612178565b1561264d576040517f08c379a000000000000000000000000000000000000000000000000000000000815260040161264490614042565b60405180910390fd5b61265b6000838360016121b9565b61266481612178565b156126a4576040517f08c379a000000000000000000000000000000000000000000000000000000000815260040161269b90614042565b60405180910390fd5b6001600360008473ffffffffffffffffffffffffffffffffffffffff1673ffffffffffffffffffffffffffffffffffffffff16815260200190815260200160002060008282540192505081905550816002600083815260200190815260200160002060006101000a81548173ffffffffffffffffffffffffffffffffffffffff021916908373ffffffffffffffffffffffffffffffffffffffff160217905550808273ffffffffffffffffffffffffffffffffffffffff16600073ffffffffffffffffffffffffffffffffffffffff167fddf252ad1be2c89b69c2b068fc378daa952ba7f163c4a11628f55a4df523b3ef60405160405180910390a46127ae6000838360016122df565b5050565b6000808273ffffffffffffffffffffffffffffffffffffffff163b119050919050565b600080600090507a184f03e93ff9f4daa797ed6e38ed64bf6a1f0100000000000000008310612833577a184f03e93ff9f4daa797ed6e38ed64bf6a1f010000000000000000838161282957612828613f5b565b5b0492506040810190505b6d04ee2d6d415b85acef81000000008310612870576d04ee2d6d415b85acef8100000000838161286657612865613f5b565b5b0492506020810190505b662386f26fc10000831061289f57662386f26fc10000838161289557612894613f5b565b5b0492506010810190505b6305f5e10083106128c8576305f5e10083816128be576128bd613f5b565b5b0492506008810190505b61271083106128ed5761271083816128e3576128e2613f5b565b5b0492506004810190505b60648310612910576064838161290657612905613f5b565b5b0492506002810190505b600a831061291f576001810190505b80915050919050565b6040518060a0016040528060008152602001600073ffffffffffffffffffffffffffffffffffffffff168152602001600073ffffffffffffffffffffffffffffffffffffffff168152602001600081526020016000151581525090565b6000604051905090565b600080fd5b600080fd5b60007fffffffff0000000000000000000000000000000000000000000000000000000082169050919050565b6129ce81612999565b81146129d957600080fd5b50565b6000813590506129eb816129c5565b92915050565b600060208284031215612a0757612a0661298f565b5b6000612a15848285016129dc565b91505092915050565b60008115159050919050565b612a3381612a1e565b82525050565b6000602082019050612a4e6000830184612a2a565b92915050565b600081519050919050565b600082825260208201905092915050565b60005b83811015612a8e578082015181840152602081019050612a73565b60008484015250505050565b6000601f19601f8301169050919050565b6000612ab682612a54565b612ac08185612a5f565b9350612ad0818560208601612a70565b612ad981612a9a565b840191505092915050565b60006020820190508181036000830152612afe8184612aab565b905092915050565b6000819050919050565b612b1981612b06565b8114612b2457600080fd5b50565b600081359050612b3681612b10565b92915050565b600060208284031215612b5257612b5161298f565b5b6000612b6084828501612b27565b91505092915050565b600073ffffffffffffffffffffffffffffffffffffffff82169050919050565b6000612b9482612b69565b9050919050565b612ba481612b89565b82525050565b6000602082019050612bbf6000830184612b9b565b92915050565b612bce81612b89565b8114612bd957600080fd5b50565b600081359050612beb81612bc5565b92915050565b60008060408385031215612c0857612c0761298f565b5b6000612c1685828601612bdc565b9250506020612c2785828601612b27565b9150509250929050565b600080600060608486031215612c4a57612c4961298f565b5b6000612c5886828701612bdc565b9350506020612c6986828701612bdc565b9250506040612c7a86828701612b27565b9150509250925092565b600081519050919050565b600082825260208201905092915050565b6000819050602082019050919050565b612cb981612b06565b82525050565b6000612cca82612b69565b9050919050565b612cda81612cbf565b82525050565b612ce981612a1e565b82525050565b60a082016000820151612d056000850182612cb0565b506020820151612d186020850182612cd1565b506040820151612d2b6040850182612cd1565b506060820151612d3e6060850182612cb0565b506080820151612d516080850182612ce0565b50505050565b6000612d638383612cef565b60a08301905092915050565b6000602082019050919050565b6000612d8782612c84565b612d918185612c8f565b9350612d9c83612ca0565b8060005b83811015612dcd578151612db48882612d57565b9750612dbf83612d6f565b925050600181019050612da0565b5085935050505092915050565b60006020820190508181036000830152612df48184612d7c565b905092915050565b612e0581612b06565b82525050565b6000602082019050612e206000830184612dfc565b92915050565b600060208284031215612e3c57612e3b61298f565b5b6000612e4a84828501612bdc565b91505092915050565b600080fd5b600080fd5b7f4e487b7100000000000000000000000000000000000000000000000000000000600052604160045260246000fd5b612e9582612a9a565b810181811067ffffffffffffffff82111715612eb457612eb3612e5d565b5b80604052505050565b6000612ec7612985565b9050612ed38282612e8c565b919050565b600067ffffffffffffffff821115612ef357612ef2612e5d565b5b612efc82612a9a565b9050602081019050919050565b82818337600083830152505050565b6000612f2b612f2684612ed8565b612ebd565b905082815260208101848484011115612f4757612f46612e58565b5b612f52848285612f09565b509392505050565b600082601f830112612f6f57612f6e612e53565b5b8135612f7f848260208601612f18565b91505092915050565b60008060408385031215612f9f57612f9e61298f565b5b600083013567ffffffffffffffff811115612fbd57612fbc612994565b5b612fc985828601612f5a565b9250506020612fda85828601612b27565b9150509250929050565b60a082016000820151612ffa6000850182612cb0565b50602082015161300d6020850182612cd1565b5060408201516130206040850182612cd1565b5060608201516130336060850182612cb0565b5060808201516130466080850182612ce0565b50505050565b600060a0820190506130616000830184612fe4565b92915050565b61307081612a1e565b811461307b57600080fd5b50565b60008135905061308d81613067565b92915050565b600080604083850312156130aa576130a961298f565b5b60006130b885828601612bdc565b92505060206130c98582860161307e565b9150509250929050565b600067ffffffffffffffff8211156130ee576130ed612e5d565b5b6130f782612a9a565b9050602081019050919050565b6000613117613112846130d3565b612ebd565b90508281526020810184848401111561313357613132612e58565b5b61313e848285612f09565b509392505050565b600082601f83011261315b5761315a612e53565b5b813561316b848260208601613104565b91505092915050565b6000806000806080858703121561318e5761318d61298f565b5b600061319c87828801612bdc565b94505060206131ad87828801612bdc565b93505060406131be87828801612b27565b925050606085013567ffffffffffffffff8111156131df576131de612994565b5b6131eb87828801613146565b91505092959194509250565b6000806040838503121561320e5761320d61298f565b5b600061321c85828601612bdc565b925050602061322d85828601612bdc565b9150509250929050565b7f4e487b7100000000000000000000000000000000000000000000000000000000600052602260045260246000fd5b6000600282049050600182168061327e57607f821691505b60208210810361329157613290613237565b5b50919050565b7f4552433732313a20617070726f76616c20746f2063757272656e74206f776e6560008201527f7200000000000000000000000000000000000000000000000000000000000000602082015250565b60006132f3602183612a5f565b91506132fe82613297565b604082019050919050565b60006020820190508181036000830152613322816132e6565b9050919050565b7f4552433732313a20617070726f76652063616c6c6572206973206e6f7420746f60008201527f6b656e206f776e6572206f7220617070726f76656420666f7220616c6c000000602082015250565b6000613385603d83612a5f565b915061339082613329565b604082019050919050565b600060208201905081810360008301526133b481613378565b9050919050565b7f4552433732313a2063616c6c6572206973206e6f7420746f6b656e206f776e6560008201527f72206f7220617070726f76656400000000000000000000000000000000000000602082015250565b6000613417602d83612a5f565b9150613422826133bb565b604082019050919050565b600060208201905081810360008301526134468161340a565b9050919050565b7f4e487b7100000000000000000000000000000000000000000000000000000000600052601160045260246000fd5b600061348782612b06565b915061349283612b06565b92508282019050808211156134aa576134a961344d565b5b92915050565b60006134bb82612b06565b91507fffffffffffffffffffffffffffffffffffffffffffffffffffffffffffffffff82036134ed576134ec61344d565b5b600182019050919050565b7f4e487b7100000000000000000000000000000000000000000000000000000000600052603260045260246000fd5b7f4552433732313a20696e76616c696420746f6b656e2049440000000000000000600082015250565b600061355d601883612a5f565b915061356882613527565b602082019050919050565b6000602082019050818103600083015261358c81613550565b9050919050565b7f4552433732313a2061646472657373207a65726f206973206e6f74206120766160008201527f6c6964206f776e65720000000000000000000000000000000000000000000000602082015250565b60006135ef602983612a5f565b91506135fa82613593565b604082019050919050565b6000602082019050818103600083015261361e816135e2565b9050919050565b7f506c65617365207375626d6974207468652061736b696e67207072696365206960008201527f6e206f7264657220746f20636f6d706c65746520746865207075726368617365602082015250565b6000613681604083612a5f565b915061368c82613625565b604082019050919050565b600060208201905081810360008301526136b081613674565b9050919050565b7f4f6e6c79206f776e65722063616e20757064617465206c697374696e6720707260008201527f6963650000000000000000000000000000000000000000000000000000000000602082015250565b6000613713602383612a5f565b915061371e826136b7565b604082019050919050565b6000602082019050818103600083015261374281613706565b9050919050565b600081905092915050565b600061375f82612a54565b6137698185613749565b9350613779818560208601612a70565b80840191505092915050565b60006137918285613754565b915061379d8284613754565b91508190509392505050565b7f4552433732313a207472616e736665722066726f6d20696e636f72726563742060008201527f6f776e6572000000000000000000000000000000000000000000000000000000602082015250565b6000613805602583612a5f565b9150613810826137a9565b604082019050919050565b60006020820190508181036000830152613834816137f8565b9050919050565b7f4552433732313a207472616e7366657220746f20746865207a65726f2061646460008201527f7265737300000000000000000000000000000000000000000000000000000000602082015250565b6000613897602483612a5f565b91506138a28261383b565b604082019050919050565b600060208201905081810360008301526138c68161388a565b9050919050565b7f45524337323155524953746f726167653a2055524920736574206f66206e6f6e60008201527f6578697374656e7420746f6b656e000000000000000000000000000000000000602082015250565b6000613929602e83612a5f565b9150613934826138cd565b604082019050919050565b600060208201905081810360008301526139588161391c565b9050919050565b60008190508160005260206000209050919050565b60006020601f8301049050919050565b600082821b905092915050565b6000600883026139c17fffffffffffffffffffffffffffffffffffffffffffffffffffffffffffffffff82613984565b6139cb8683613984565b95508019841693508086168417925050509392505050565b6000819050919050565b6000613a08613a036139fe84612b06565b6139e3565b612b06565b9050919050565b6000819050919050565b613a22836139ed565b613a36613a2e82613a0f565b848454613991565b825550505050565b600090565b613a4b613a3e565b613a56818484613a19565b505050565b5b81811015613a7a57613a6f600082613a43565b600181019050613a5c565b5050565b601f821115613abf57613a908161395f565b613a9984613974565b81016020851015613aa8578190505b613abc613ab485613974565b830182613a5b565b50505b505050565b600082821c905092915050565b6000613ae260001984600802613ac4565b1980831691505092915050565b6000613afb8383613ad1565b9150826002028217905092915050565b613b1482612a54565b67ffffffffffffffff811115613b2d57613b2c612e5d565b5b613b378254613266565b613b42828285613a7e565b600060209050601f831160018114613b755760008415613b63578287015190505b613b6d8582613aef565b865550613bd5565b601f198416613b838661395f565b60005b82811015613bab57848901518255600182019150602085019450602081019050613b86565b86831015613bc85784890151613bc4601f891682613ad1565b8355505b6001600288020188555050505b505050505050565b7f486f706566756c6c792073656e64696e672074686520636f727265637420707260008201527f6963650000000000000000000000000000000000000000000000000000000000602082015250565b6000613c39602383612a5f565b9150613c4482613bdd565b604082019050919050565b60006020820190508181036000830152613c6881613c2c565b9050919050565b7f4d616b652073757265207468652070726963652069736e2774206e656761746960008201527f7665000000000000000000000000000000000000000000000000000000000000602082015250565b6000613ccb602283612a5f565b9150613cd682613c6f565b604082019050919050565b60006020820190508181036000830152613cfa81613cbe565b9050919050565b6000608082019050613d166000830187612b9b565b613d236020830186612b9b565b613d306040830185612dfc565b613d3d6060830184612a2a565b95945050505050565b7f4552433732313a20617070726f766520746f2063616c6c657200000000000000600082015250565b6000613d7c601983612a5f565b9150613d8782613d46565b602082019050919050565b60006020820190508181036000830152613dab81613d6f565b9050919050565b7f4552433732313a207472616e7366657220746f206e6f6e20455243373231526560008201527f63656976657220696d706c656d656e7465720000000000000000000000000000602082015250565b6000613e0e603283612a5f565b9150613e1982613db2565b604082019050919050565b60006020820190508181036000830152613e3d81613e01565b9050919050565b6000613e4f82612b06565b9150613e5a83612b06565b9250828203905081811115613e7257613e7161344d565b5b92915050565b600081519050919050565b600082825260208201905092915050565b6000613e9f82613e78565b613ea98185613e83565b9350613eb9818560208601612a70565b613ec281612a9a565b840191505092915050565b6000608082019050613ee26000830187612b9b565b613eef6020830186612b9b565b613efc6040830185612dfc565b8181036060830152613f0e8184613e94565b905095945050505050565b600081519050613f28816129c5565b92915050565b600060208284031215613f4457613f4361298f565b5b6000613f5284828501613f19565b91505092915050565b7f4e487b7100000000000000000000000000000000000000000000000000000000600052601260045260246000fd5b7f4552433732313a206d696e7420746f20746865207a65726f2061646472657373600082015250565b6000613fc0602083612a5f565b9150613fcb82613f8a565b602082019050919050565b60006020820190508181036000830152613fef81613fb3565b9050919050565b7f4552433732313a20746f6b656e20616c7265616479206d696e74656400000000600082015250565b600061402c601c83612a5f565b915061403782613ff6565b602082019050919050565b6000602082019050818103600083015261405b8161401f565b905091905056fea2646970667358221220746c75061769488f35073470519fd372d33b33ffde500b0d0653c29037271c5264736f6c63430008110033",
  "immutableReferences": {},
  "source": "//SPDX-License-Identifier: Unlicense\r\npragma solidity ^0.8.0;\r\n\r\nimport \"@openzeppelin/contracts/utils/Counters.sol\";\r\nimport \"@openzeppelin/contracts/token/ERC721/extensions/ERC721URIStorage.sol\";\r\nimport \"@openzeppelin/contracts/token/ERC721/ERC721.sol\";\r\n\r\ncontract NFTMarketplace is ERC721URIStorage {\r\n\r\n    using Counters for Counters.Counter;\r\n    //_tokenIds variable has the most recent minted tokenId\r\n    Counters.Counter private _tokenIds;\r\n    //Keeps track of the number of items sold on the marketplace\r\n    Counters.Counter private _itemsSold;\r\n    //owner is the contract address that created the smart contract\r\n    address payable owner;\r\n    //The fee charged by the marketplace to be allowed to list an NFT\r\n    uint256 listPrice = 0.01 ether;\r\n\r\n    //The structure to store info about a listed token\r\n    struct ListedToken {\r\n        uint256 tokenId;\r\n        address payable owner;\r\n        address payable seller;\r\n        uint256 price;\r\n        bool currentlyListed;\r\n    }\r\n\r\n    //the event emitted when a token is successfully listed\r\n    event TokenListedSuccess (\r\n        uint256 indexed tokenId,\r\n        address owner,\r\n        address seller,\r\n        uint256 price,\r\n        bool currentlyListed\r\n    );\r\n\r\n    //This mapping maps tokenId to token info and is helpful when retrieving details about a tokenId\r\n    mapping(uint256 => ListedToken) private idToListedToken;\r\n\r\n    constructor() ERC721(\"NFTMarketplace\", \"NFTM\") {\r\n        owner = payable(msg.sender);\r\n    }\r\n\r\n    function updateListPrice(uint256 _listPrice) public payable {\r\n        require(owner == msg.sender, \"Only owner can update listing price\");\r\n        listPrice = _listPrice;\r\n    }\r\n\r\n    function getListPrice() public view returns (uint256) {\r\n        return listPrice;\r\n    }\r\n\r\n    function getLatestIdToListedToken() public view returns (ListedToken memory) {\r\n        uint256 currentTokenId = _tokenIds.current();\r\n        return idToListedToken[currentTokenId];\r\n    }\r\n\r\n    function getListedTokenForId(uint256 tokenId) public view returns (ListedToken memory) {\r\n        return idToListedToken[tokenId];\r\n    }\r\n\r\n    function getCurrentToken() public view returns (uint256) {\r\n        return _tokenIds.current();\r\n    }\r\n\r\n    //The first time a token is created, it is listed here\r\n    function createToken(string memory tokenURI, uint256 price) public payable returns (uint) {\r\n        //Increment the tokenId counter, which is keeping track of the number of minted NFTs\r\n        _tokenIds.increment();\r\n        uint256 newTokenId = _tokenIds.current();\r\n\r\n        //Mint the NFT with tokenId newTokenId to the address who called createToken\r\n        _safeMint(msg.sender, newTokenId);\r\n\r\n        //Map the tokenId to the tokenURI (which is an IPFS URL with the NFT metadata)\r\n        _setTokenURI(newTokenId, tokenURI);\r\n\r\n        //Helper function to update Global variables and emit an event\r\n        createListedToken(newTokenId, price);\r\n\r\n        return newTokenId;\r\n    }\r\n\r\n    function createListedToken(uint256 tokenId, uint256 price) private {\r\n        //Make sure the sender sent enough ETH to pay for listing\r\n        require(msg.value == listPrice, \"Hopefully sending the correct price\");\r\n        //Just sanity check\r\n        require(price > 0, \"Make sure the price isn't negative\");\r\n\r\n        //Update the mapping of tokenId's to Token details, useful for retrieval functions\r\n        idToListedToken[tokenId] = ListedToken(\r\n            tokenId,\r\n            payable(address(this)),\r\n            payable(msg.sender),\r\n            price,\r\n            true\r\n        );\r\n\r\n        _transfer(msg.sender, address(this), tokenId);\r\n        //Emit the event for successful transfer. The frontend parses this message and updates the end user\r\n        emit TokenListedSuccess(\r\n            tokenId,\r\n            address(this),\r\n            msg.sender,\r\n            price,\r\n            true\r\n        );\r\n    }\r\n    \r\n    //This will return all the NFTs currently listed to be sold on the marketplace\r\n    function getAllNFTs() public view returns (ListedToken[] memory) {\r\n        uint nftCount = _tokenIds.current();\r\n        ListedToken[] memory tokens = new ListedToken[](nftCount);\r\n        uint currentIndex = 0;\r\n        uint currentId;\r\n        //at the moment currentlyListed is true for all, if it becomes false in the future we will \r\n        //filter out currentlyListed == false over here\r\n        for(uint i=0;i<nftCount;i++)\r\n        {\r\n            currentId = i + 1;\r\n            ListedToken storage currentItem = idToListedToken[currentId];\r\n            tokens[currentIndex] = currentItem;\r\n            currentIndex += 1;\r\n        }\r\n        //the array 'tokens' has the list of all NFTs in the marketplace\r\n        return tokens;\r\n    }\r\n    \r\n    //Returns all the NFTs that the current user is owner or seller in\r\n    function getMyNFTs() public view returns (ListedToken[] memory) {\r\n        uint totalItemCount = _tokenIds.current();\r\n        uint itemCount = 0;\r\n        uint currentIndex = 0;\r\n        uint currentId;\r\n        //Important to get a count of all the NFTs that belong to the user before we can make an array for them\r\n        for(uint i=0; i < totalItemCount; i++)\r\n        {\r\n            if(idToListedToken[i+1].owner == msg.sender || idToListedToken[i+1].seller == msg.sender){\r\n                itemCount += 1;\r\n            }\r\n        }\r\n\r\n        //Once you have the count of relevant NFTs, create an array then store all the NFTs in it\r\n        ListedToken[] memory items = new ListedToken[](itemCount);\r\n        for(uint i=0; i < totalItemCount; i++) {\r\n            if(idToListedToken[i+1].owner == msg.sender || idToListedToken[i+1].seller == msg.sender) {\r\n                currentId = i+1;\r\n                ListedToken storage currentItem = idToListedToken[currentId];\r\n                items[currentIndex] = currentItem;\r\n                currentIndex += 1;\r\n            }\r\n        }\r\n        return items;\r\n    }\r\n\r\n    function executeSale(uint256 tokenId) public payable {\r\n        uint price = idToListedToken[tokenId].price;\r\n        address seller = idToListedToken[tokenId].seller;\r\n        require(msg.value == price, \"Please submit the asking price in order to complete the purchase\");\r\n\r\n        //update the details of the token\r\n        idToListedToken[tokenId].currentlyListed = true;\r\n        idToListedToken[tokenId].seller = payable(msg.sender);\r\n        _itemsSold.increment();\r\n\r\n        //Actually transfer the token to the new owner\r\n        _transfer(address(this), msg.sender, tokenId);\r\n        //approve the marketplace to sell NFTs on your behalf\r\n        approve(address(this), tokenId);\r\n\r\n        //Transfer the listing fee to the marketplace creator\r\n        payable(owner).transfer(listPrice);\r\n        //Transfer the proceeds from the sale to the seller of the NFT\r\n        payable(seller).transfer(msg.value);\r\n    }\r\n\r\n    //We might add a resell token function in the future\r\n    //In that case, tokens won't be listed by default but users can send a request to actually list a token\r\n    //Currently NFTs are listed by default\r\n}",
  "sourcePath": "D:\\Documents\\Events\\2023\\2. KL Mini Hack\\polygon-zkevm-truffle\\contracts\\NFTMarketplace.sol",
  "compiler": {
    "name": "solc",
    "version": "0.8.17+commit.8df45f5f.Emscripten.clang"
  },
  "schemaVersion": "3.4.11",
  "updatedAt": "2023-02-11T10:29:09.561Z",
  "networkType": "ethereum",
  "devdoc": {
    "kind": "dev",
    "methods": {
      "approve(address,uint256)": {
        "details": "See {IERC721-approve}."
      },
      "balanceOf(address)": {
        "details": "See {IERC721-balanceOf}."
      },
      "getApproved(uint256)": {
        "details": "See {IERC721-getApproved}."
      },
      "isApprovedForAll(address,address)": {
        "details": "See {IERC721-isApprovedForAll}."
      },
      "name()": {
        "details": "See {IERC721Metadata-name}."
      },
      "ownerOf(uint256)": {
        "details": "See {IERC721-ownerOf}."
      },
      "safeTransferFrom(address,address,uint256)": {
        "details": "See {IERC721-safeTransferFrom}."
      },
      "safeTransferFrom(address,address,uint256,bytes)": {
        "details": "See {IERC721-safeTransferFrom}."
      },
      "setApprovalForAll(address,bool)": {
        "details": "See {IERC721-setApprovalForAll}."
      },
      "supportsInterface(bytes4)": {
        "details": "See {IERC165-supportsInterface}."
      },
      "symbol()": {
        "details": "See {IERC721Metadata-symbol}."
      },
      "tokenURI(uint256)": {
        "details": "See {IERC721Metadata-tokenURI}."
      },
      "transferFrom(address,address,uint256)": {
        "details": "See {IERC721-transferFrom}."
      }
    },
    "version": 1
  },
  "userdoc": {
    "kind": "user",
    "methods": {},
    "version": 1
  }
}